{
  "_format": "hh-sol-artifact-1",
  "contractName": "NFA",
  "sourceName": "contracts/NFA.sol",
  "abi": [
    {
      "inputs": [
        {
          "internalType": "address",
          "name": "target",
          "type": "address"
        }
      ],
      "name": "AddressEmptyCode",
      "type": "error"
    },
    {
      "inputs": [
        {
          "internalType": "address",
          "name": "implementation",
          "type": "address"
        }
      ],
      "name": "ERC1967InvalidImplementation",
      "type": "error"
    },
    {
      "inputs": [],
      "name": "ERC1967NonPayable",
      "type": "error"
    },
    {
      "inputs": [
        {
          "internalType": "address",
          "name": "sender",
          "type": "address"
        },
        {
          "internalType": "uint256",
          "name": "tokenId",
          "type": "uint256"
        },
        {
          "internalType": "address",
          "name": "owner",
          "type": "address"
        }
      ],
      "name": "ERC721IncorrectOwner",
      "type": "error"
    },
    {
      "inputs": [
        {
          "internalType": "address",
          "name": "operator",
          "type": "address"
        },
        {
          "internalType": "uint256",
          "name": "tokenId",
          "type": "uint256"
        }
      ],
      "name": "ERC721InsufficientApproval",
      "type": "error"
    },
    {
      "inputs": [
        {
          "internalType": "address",
          "name": "approver",
          "type": "address"
        }
      ],
      "name": "ERC721InvalidApprover",
      "type": "error"
    },
    {
      "inputs": [
        {
          "internalType": "address",
          "name": "operator",
          "type": "address"
        }
      ],
      "name": "ERC721InvalidOperator",
      "type": "error"
    },
    {
      "inputs": [
        {
          "internalType": "address",
          "name": "owner",
          "type": "address"
        }
      ],
      "name": "ERC721InvalidOwner",
      "type": "error"
    },
    {
      "inputs": [
        {
          "internalType": "address",
          "name": "receiver",
          "type": "address"
        }
      ],
      "name": "ERC721InvalidReceiver",
      "type": "error"
    },
    {
      "inputs": [
        {
          "internalType": "address",
          "name": "sender",
          "type": "address"
        }
      ],
      "name": "ERC721InvalidSender",
      "type": "error"
    },
    {
      "inputs": [
        {
          "internalType": "uint256",
          "name": "tokenId",
          "type": "uint256"
        }
      ],
      "name": "ERC721NonexistentToken",
      "type": "error"
    },
    {
      "inputs": [],
      "name": "FailedInnerCall",
      "type": "error"
    },
    {
      "inputs": [],
      "name": "InvalidInitialization",
      "type": "error"
    },
    {
      "inputs": [],
      "name": "NotInitializing",
      "type": "error"
    },
    {
      "inputs": [
        {
          "internalType": "address",
          "name": "owner",
          "type": "address"
        }
      ],
      "name": "OwnableInvalidOwner",
      "type": "error"
    },
    {
      "inputs": [
        {
          "internalType": "address",
          "name": "account",
          "type": "address"
        }
      ],
      "name": "OwnableUnauthorizedAccount",
      "type": "error"
    },
    {
      "inputs": [],
      "name": "UUPSUnauthorizedCallContext",
      "type": "error"
    },
    {
      "inputs": [
        {
          "internalType": "bytes32",
          "name": "slot",
          "type": "bytes32"
        }
      ],
      "name": "UUPSUnsupportedProxiableUUID",
      "type": "error"
    },
    {
      "anonymous": false,
      "inputs": [
        {
          "indexed": true,
          "internalType": "uint256",
          "name": "tokenId",
          "type": "uint256"
        },
        {
          "components": [
            {
              "internalType": "bool",
              "name": "routerRequired",
              "type": "bool"
            },
            {
              "internalType": "string",
              "name": "paymentModel",
              "type": "string"
            },
            {
              "components": [
                {
                  "internalType": "string",
                  "name": "versionId",
                  "type": "string"
                },
                {
                  "internalType": "string[]",
                  "name": "downloadURIs",
                  "type": "string[]"
                },
                {
                  "internalType": "bytes32",
                  "name": "codeHash",
                  "type": "bytes32"
                },
                {
                  "internalType": "string[]",
                  "name": "abiURIs",
                  "type": "string[]"
                },
                {
                  "internalType": "bytes32",
                  "name": "abiHash",
                  "type": "bytes32"
                }
              ],
              "internalType": "struct VersionInfo",
              "name": "versionInfo",
              "type": "tuple"
            }
          ],
          "indexed": false,
          "internalType": "struct AppInfo",
          "name": "newAppInfo",
          "type": "tuple"
        }
      ],
      "name": "AppInfoUpdated",
      "type": "event"
    },
    {
      "anonymous": false,
      "inputs": [
        {
          "indexed": true,
          "internalType": "address",
          "name": "owner",
          "type": "address"
        },
        {
          "indexed": true,
          "internalType": "address",
          "name": "approved",
          "type": "address"
        },
        {
          "indexed": true,
          "internalType": "uint256",
          "name": "tokenId",
          "type": "uint256"
        }
      ],
      "name": "Approval",
      "type": "event"
    },
    {
      "anonymous": false,
      "inputs": [
        {
          "indexed": true,
          "internalType": "address",
          "name": "owner",
          "type": "address"
        },
        {
          "indexed": true,
          "internalType": "address",
          "name": "operator",
          "type": "address"
        },
        {
          "indexed": false,
          "internalType": "bool",
          "name": "approved",
          "type": "bool"
        }
      ],
      "name": "ApprovalForAll",
      "type": "event"
    },
    {
      "anonymous": false,
      "inputs": [
        {
          "indexed": false,
          "internalType": "uint256",
          "name": "_fromTokenId",
          "type": "uint256"
        },
        {
          "indexed": false,
          "internalType": "uint256",
          "name": "_toTokenId",
          "type": "uint256"
        }
      ],
      "name": "BatchMetadataUpdate",
      "type": "event"
    },
    {
      "anonymous": false,
      "inputs": [
        {
          "indexed": false,
          "internalType": "uint64",
          "name": "version",
          "type": "uint64"
        }
      ],
      "name": "Initialized",
      "type": "event"
    },
    {
      "anonymous": false,
      "inputs": [
        {
          "indexed": false,
          "internalType": "uint256",
          "name": "_tokenId",
          "type": "uint256"
        }
      ],
      "name": "MetadataUpdate",
      "type": "event"
    },
    {
      "anonymous": false,
      "inputs": [
        {
          "indexed": true,
          "internalType": "uint256",
          "name": "tokenId",
          "type": "uint256"
        }
      ],
      "name": "NFACreated",
      "type": "event"
    },
    {
      "anonymous": false,
      "inputs": [
        {
          "indexed": true,
          "internalType": "address",
          "name": "previousOwner",
          "type": "address"
        },
        {
          "indexed": true,
          "internalType": "address",
          "name": "newOwner",
          "type": "address"
        }
      ],
      "name": "OwnershipTransferred",
      "type": "event"
    },
    {
      "anonymous": false,
      "inputs": [
        {
          "indexed": true,
          "internalType": "address",
          "name": "from",
          "type": "address"
        },
        {
          "indexed": true,
          "internalType": "address",
          "name": "to",
          "type": "address"
        },
        {
          "indexed": true,
          "internalType": "uint256",
          "name": "tokenId",
          "type": "uint256"
        }
      ],
      "name": "Transfer",
      "type": "event"
    },
    {
      "anonymous": false,
      "inputs": [
        {
          "indexed": true,
          "internalType": "address",
          "name": "implementation",
          "type": "address"
        }
      ],
      "name": "Upgraded",
      "type": "event"
    },
    {
      "anonymous": false,
      "inputs": [
        {
          "indexed": true,
          "internalType": "uint256",
          "name": "tokenId",
          "type": "uint256"
        },
        {
          "components": [
            {
              "internalType": "string",
              "name": "versionId",
              "type": "string"
            },
            {
              "internalType": "string[]",
              "name": "downloadURIs",
              "type": "string[]"
            },
            {
              "internalType": "bytes32",
              "name": "codeHash",
              "type": "bytes32"
            },
            {
              "internalType": "string[]",
              "name": "abiURIs",
              "type": "string[]"
            },
            {
              "internalType": "bytes32",
              "name": "abiHash",
              "type": "bytes32"
            }
          ],
          "indexed": false,
          "internalType": "struct VersionInfo",
          "name": "newVersion",
          "type": "tuple"
        }
      ],
      "name": "VersionUpdated",
      "type": "event"
    },
    {
      "stateMutability": "payable",
      "type": "fallback"
    },
    {
      "inputs": [],
      "name": "UPGRADE_INTERFACE_VERSION",
      "outputs": [
        {
          "internalType": "string",
          "name": "",
          "type": "string"
        }
      ],
      "stateMutability": "view",
      "type": "function"
    },
    {
      "inputs": [
        {
          "internalType": "address",
          "name": "to",
          "type": "address"
        },
        {
          "internalType": "uint256",
          "name": "tokenId",
          "type": "uint256"
        }
      ],
      "name": "approve",
      "outputs": [],
      "stateMutability": "nonpayable",
      "type": "function"
    },
    {
      "inputs": [
        {
          "internalType": "address",
          "name": "owner",
          "type": "address"
        }
      ],
      "name": "balanceOf",
      "outputs": [
        {
          "internalType": "uint256",
          "name": "",
          "type": "uint256"
        }
      ],
      "stateMutability": "view",
      "type": "function"
    },
    {
      "inputs": [
        {
          "internalType": "uint256",
          "name": "tokenId",
          "type": "uint256"
        }
      ],
      "name": "getAppInfo",
      "outputs": [
        {
          "components": [
            {
              "internalType": "bool",
              "name": "routerRequired",
              "type": "bool"
            },
            {
              "internalType": "string",
              "name": "paymentModel",
              "type": "string"
            },
            {
              "components": [
                {
                  "internalType": "string",
                  "name": "versionId",
                  "type": "string"
                },
                {
                  "internalType": "string[]",
                  "name": "downloadURIs",
                  "type": "string[]"
                },
                {
                  "internalType": "bytes32",
                  "name": "codeHash",
                  "type": "bytes32"
                },
                {
                  "internalType": "string[]",
                  "name": "abiURIs",
                  "type": "string[]"
                },
                {
                  "internalType": "bytes32",
                  "name": "abiHash",
                  "type": "bytes32"
                }
              ],
              "internalType": "struct VersionInfo",
              "name": "versionInfo",
              "type": "tuple"
            }
          ],
          "internalType": "struct AppInfo",
          "name": "",
          "type": "tuple"
        }
      ],
      "stateMutability": "view",
      "type": "function"
    },
    {
      "inputs": [
        {
          "internalType": "uint256",
          "name": "tokenId",
          "type": "uint256"
        }
      ],
      "name": "getApproved",
      "outputs": [
        {
          "internalType": "address",
          "name": "",
          "type": "address"
        }
      ],
      "stateMutability": "view",
      "type": "function"
    },
    {
      "inputs": [
        {
          "internalType": "uint256",
          "name": "tokenId",
          "type": "uint256"
        }
      ],
      "name": "getVersionInfo",
      "outputs": [
        {
          "components": [
            {
              "internalType": "string",
              "name": "versionId",
              "type": "string"
            },
            {
              "internalType": "string[]",
              "name": "downloadURIs",
              "type": "string[]"
            },
            {
              "internalType": "bytes32",
              "name": "codeHash",
              "type": "bytes32"
            },
            {
              "internalType": "string[]",
              "name": "abiURIs",
              "type": "string[]"
            },
            {
              "internalType": "bytes32",
              "name": "abiHash",
              "type": "bytes32"
            }
          ],
          "internalType": "struct VersionInfo",
          "name": "",
          "type": "tuple"
        }
      ],
      "stateMutability": "view",
      "type": "function"
    },
    {
      "inputs": [
        {
          "internalType": "string",
          "name": "name",
          "type": "string"
        },
        {
          "internalType": "string",
          "name": "symbol",
          "type": "string"
        },
        {
          "components": [
            {
              "internalType": "bool",
              "name": "routerRequired",
              "type": "bool"
            },
            {
              "internalType": "string",
              "name": "paymentModel",
              "type": "string"
            },
            {
              "components": [
                {
                  "internalType": "string",
                  "name": "versionId",
                  "type": "string"
                },
                {
                  "internalType": "string[]",
                  "name": "downloadURIs",
                  "type": "string[]"
                },
                {
                  "internalType": "bytes32",
                  "name": "codeHash",
                  "type": "bytes32"
                },
                {
                  "internalType": "string[]",
                  "name": "abiURIs",
                  "type": "string[]"
                },
                {
                  "internalType": "bytes32",
                  "name": "abiHash",
                  "type": "bytes32"
                }
              ],
              "internalType": "struct VersionInfo",
              "name": "versionInfo",
              "type": "tuple"
            }
          ],
          "internalType": "struct AppInfo",
          "name": "appInfo",
          "type": "tuple"
        },
        {
          "internalType": "address",
          "name": "initialOwner",
          "type": "address"
        }
      ],
      "name": "initialize",
      "outputs": [],
      "stateMutability": "nonpayable",
      "type": "function"
    },
    {
      "inputs": [
        {
          "internalType": "address",
          "name": "owner",
          "type": "address"
        },
        {
          "internalType": "address",
          "name": "operator",
          "type": "address"
        }
      ],
      "name": "isApprovedForAll",
      "outputs": [
        {
          "internalType": "bool",
          "name": "",
          "type": "bool"
        }
      ],
      "stateMutability": "view",
      "type": "function"
    },
    {
      "inputs": [
        {
          "internalType": "address",
          "name": "to",
          "type": "address"
        },
        {
          "internalType": "string",
          "name": "tokenURI",
          "type": "string"
        },
        {
          "components": [
            {
              "internalType": "bool",
              "name": "routerRequired",
              "type": "bool"
            },
            {
              "internalType": "string",
              "name": "paymentModel",
              "type": "string"
            },
            {
              "components": [
                {
                  "internalType": "string",
                  "name": "versionId",
                  "type": "string"
                },
                {
                  "internalType": "string[]",
                  "name": "downloadURIs",
                  "type": "string[]"
                },
                {
                  "internalType": "bytes32",
                  "name": "codeHash",
                  "type": "bytes32"
                },
                {
                  "internalType": "string[]",
                  "name": "abiURIs",
                  "type": "string[]"
                },
                {
                  "internalType": "bytes32",
                  "name": "abiHash",
                  "type": "bytes32"
                }
              ],
              "internalType": "struct VersionInfo",
              "name": "versionInfo",
              "type": "tuple"
            }
          ],
          "internalType": "struct AppInfo",
          "name": "appInfo",
          "type": "tuple"
        },
        {
          "internalType": "string",
          "name": "versionId",
          "type": "string"
        }
      ],
      "name": "mint",
      "outputs": [
        {
          "internalType": "uint256",
          "name": "",
          "type": "uint256"
        }
      ],
      "stateMutability": "nonpayable",
      "type": "function"
    },
    {
      "inputs": [],
      "name": "name",
      "outputs": [
        {
          "internalType": "string",
          "name": "",
          "type": "string"
        }
      ],
      "stateMutability": "view",
      "type": "function"
    },
    {
      "inputs": [
        {
          "internalType": "string",
          "name": "",
          "type": "string"
        }
      ],
      "name": "nfaVersions",
      "outputs": [
        {
          "internalType": "string",
          "name": "versionId",
          "type": "string"
        },
        {
          "internalType": "bytes32",
          "name": "codeHash",
          "type": "bytes32"
        },
        {
          "internalType": "bytes32",
          "name": "abiHash",
          "type": "bytes32"
        }
      ],
      "stateMutability": "view",
      "type": "function"
    },
    {
      "inputs": [],
      "name": "owner",
      "outputs": [
        {
          "internalType": "address",
          "name": "",
          "type": "address"
        }
      ],
      "stateMutability": "view",
      "type": "function"
    },
    {
      "inputs": [
        {
          "internalType": "uint256",
          "name": "tokenId",
          "type": "uint256"
        }
      ],
      "name": "ownerOf",
      "outputs": [
        {
          "internalType": "address",
          "name": "",
          "type": "address"
        }
      ],
      "stateMutability": "view",
      "type": "function"
    },
    {
      "inputs": [],
      "name": "proxiableUUID",
      "outputs": [
        {
          "internalType": "bytes32",
          "name": "",
          "type": "bytes32"
        }
      ],
      "stateMutability": "view",
      "type": "function"
    },
    {
      "inputs": [],
      "name": "renounceOwnership",
      "outputs": [],
      "stateMutability": "nonpayable",
      "type": "function"
    },
    {
      "inputs": [
        {
          "internalType": "address",
          "name": "from",
          "type": "address"
        },
        {
          "internalType": "address",
          "name": "to",
          "type": "address"
        },
        {
          "internalType": "uint256",
          "name": "tokenId",
          "type": "uint256"
        }
      ],
      "name": "safeTransferFrom",
      "outputs": [],
      "stateMutability": "nonpayable",
      "type": "function"
    },
    {
      "inputs": [
        {
          "internalType": "address",
          "name": "from",
          "type": "address"
        },
        {
          "internalType": "address",
          "name": "to",
          "type": "address"
        },
        {
          "internalType": "uint256",
          "name": "tokenId",
          "type": "uint256"
        },
        {
          "internalType": "bytes",
          "name": "data",
          "type": "bytes"
        }
      ],
      "name": "safeTransferFrom",
      "outputs": [],
      "stateMutability": "nonpayable",
      "type": "function"
    },
    {
      "inputs": [
        {
          "internalType": "address",
          "name": "operator",
          "type": "address"
        },
        {
          "internalType": "bool",
          "name": "approved",
          "type": "bool"
        }
      ],
      "name": "setApprovalForAll",
      "outputs": [],
      "stateMutability": "nonpayable",
      "type": "function"
    },
    {
      "inputs": [
        {
          "internalType": "bytes4",
          "name": "interfaceId",
          "type": "bytes4"
        }
      ],
      "name": "supportsInterface",
      "outputs": [
        {
          "internalType": "bool",
          "name": "",
          "type": "bool"
        }
      ],
      "stateMutability": "view",
      "type": "function"
    },
    {
      "inputs": [],
      "name": "symbol",
      "outputs": [
        {
          "internalType": "string",
          "name": "",
          "type": "string"
        }
      ],
      "stateMutability": "view",
      "type": "function"
    },
    {
      "inputs": [
        {
          "internalType": "uint256",
          "name": "tokenId",
          "type": "uint256"
        }
      ],
      "name": "tokenExists",
      "outputs": [
        {
          "internalType": "bool",
          "name": "",
          "type": "bool"
        }
      ],
      "stateMutability": "view",
      "type": "function"
    },
    {
      "inputs": [
        {
          "internalType": "uint256",
          "name": "tokenId",
          "type": "uint256"
        }
      ],
      "name": "tokenURI",
      "outputs": [
        {
          "internalType": "string",
          "name": "",
          "type": "string"
        }
      ],
      "stateMutability": "view",
      "type": "function"
    },
    {
      "inputs": [
        {
          "internalType": "address",
          "name": "from",
          "type": "address"
        },
        {
          "internalType": "address",
          "name": "to",
          "type": "address"
        },
        {
          "internalType": "uint256",
          "name": "tokenId",
          "type": "uint256"
        }
      ],
      "name": "transferFrom",
      "outputs": [],
      "stateMutability": "nonpayable",
      "type": "function"
    },
    {
      "inputs": [
        {
          "internalType": "address",
          "name": "newOwner",
          "type": "address"
        }
      ],
      "name": "transferOwnership",
      "outputs": [],
      "stateMutability": "nonpayable",
      "type": "function"
    },
    {
      "inputs": [
        {
          "internalType": "uint256",
          "name": "tokenId",
          "type": "uint256"
        },
        {
          "components": [
            {
              "internalType": "bool",
              "name": "routerRequired",
              "type": "bool"
            },
            {
              "internalType": "string",
              "name": "paymentModel",
              "type": "string"
            },
            {
              "components": [
                {
                  "internalType": "string",
                  "name": "versionId",
                  "type": "string"
                },
                {
                  "internalType": "string[]",
                  "name": "downloadURIs",
                  "type": "string[]"
                },
                {
                  "internalType": "bytes32",
                  "name": "codeHash",
                  "type": "bytes32"
                },
                {
                  "internalType": "string[]",
                  "name": "abiURIs",
                  "type": "string[]"
                },
                {
                  "internalType": "bytes32",
                  "name": "abiHash",
                  "type": "bytes32"
                }
              ],
              "internalType": "struct VersionInfo",
              "name": "versionInfo",
              "type": "tuple"
            }
          ],
          "internalType": "struct AppInfo",
          "name": "newAppInfo",
          "type": "tuple"
        }
      ],
      "name": "updateAppInfo",
      "outputs": [],
      "stateMutability": "nonpayable",
      "type": "function"
    },
    {
      "inputs": [
        {
          "internalType": "uint256",
          "name": "tokenId",
          "type": "uint256"
        },
        {
          "components": [
            {
              "internalType": "string",
              "name": "versionId",
              "type": "string"
            },
            {
              "internalType": "string[]",
              "name": "downloadURIs",
              "type": "string[]"
            },
            {
              "internalType": "bytes32",
              "name": "codeHash",
              "type": "bytes32"
            },
            {
              "internalType": "string[]",
              "name": "abiURIs",
              "type": "string[]"
            },
            {
              "internalType": "bytes32",
              "name": "abiHash",
              "type": "bytes32"
            }
          ],
          "internalType": "struct VersionInfo",
          "name": "newVersion",
          "type": "tuple"
        },
        {
          "internalType": "string",
          "name": "versionId",
          "type": "string"
        }
      ],
      "name": "updateVersion",
      "outputs": [],
      "stateMutability": "nonpayable",
      "type": "function"
    },
    {
      "inputs": [
        {
          "internalType": "address",
          "name": "newImplementation",
          "type": "address"
        },
        {
          "internalType": "bytes",
          "name": "data",
          "type": "bytes"
        }
      ],
      "name": "upgradeToAndCall",
      "outputs": [],
      "stateMutability": "payable",
      "type": "function"
    },
    {
      "inputs": [],
      "name": "withdraw",
      "outputs": [],
      "stateMutability": "nonpayable",
      "type": "function"
    },
    {
      "stateMutability": "payable",
      "type": "receive"
    }
  ],
  "bytecode": "0x60a06040523060805234801561001457600080fd5b5060805161327961003e60003960008181611b0301528181611b2c0152611c6d01526132796000f3fe6080604052600436106101a25760003560e01c80638b5c9283116100e0578063c167291e11610084578063cb4b9e2c11610061578063cb4b9e2c146104d1578063e985e9c5146104fe578063ef2a9a051461051e578063f2fde38b1461053e57005b8063c167291e14610471578063c80e329b14610491578063c87b56dd146104b157005b8063a22cb465116100bd578063a22cb465146103e0578063aadb3f4314610400578063ad3cb1cc14610420578063b88d4fde1461045157005b80638b5c9283146103875780638da5cb5b146103b657806395d89b41146103cb57005b806342842e0e116101475780636352211e116101245780636352211e1461030557806370a0823114610325578063715018a614610345578063741aa2bd1461035a57005b806342842e0e146102af5780634f1ef286146102cf57806352d1902d146102e257005b8063081812fc11610180578063081812fc14610222578063095ea7b31461025a57806323b872dd1461027a5780633ccfd60b1461029a57005b8062923f9e146101ab57806301ffc9a7146101e057806306fdde031461020057005b366101a957005b005b3480156101b757600080fd5b506101cb6101c63660046126fc565b61055e565b60405190151581526020015b60405180910390f35b3480156101ec57600080fd5b506101cb6101fb36600461272b565b61057b565b34801561020c57600080fd5b506102156105a6565b6040516101d79190612798565b34801561022e57600080fd5b5061024261023d3660046126fc565b61064a565b6040516001600160a01b0390911681526020016101d7565b34801561026657600080fd5b506101a96102753660046127c7565b61065f565b34801561028657600080fd5b506101a96102953660046127f1565b61066e565b3480156102a657600080fd5b506101a96106fe565b3480156102bb57600080fd5b506101a96102ca3660046127f1565b6107a3565b6101a96102dd36600461290a565b6107c3565b3480156102ee57600080fd5b506102f76107de565b6040519081526020016101d7565b34801561031157600080fd5b506102426103203660046126fc565b6107fb565b34801561033157600080fd5b506102f7610340366004612957565b610806565b34801561035157600080fd5b506101a9610862565b34801561036657600080fd5b5061037a6103753660046126fc565b610876565b6040516101d79190612a35565b34801561039357600080fd5b506103a76103a2366004612a7a565b610c4d565b6040516101d793929190612aae565b3480156103c257600080fd5b50610242610d02565b3480156103d757600080fd5b50610215610d30565b3480156103ec57600080fd5b506101a96103fb366004612ae3565b610d6f565b34801561040c57600080fd5b506101a961041b366004612cf5565b610d7a565b34801561042c57600080fd5b50610215604051806040016040528060058152602001640352e302e360dc1b81525081565b34801561045d57600080fd5b506101a961046c366004612d8d565b610fbc565b34801561047d57600080fd5b506101a961048c366004612df4565b610fd3565b34801561049d57600080fd5b506102f76104ac366004612e60565b6110fa565b3480156104bd57600080fd5b506102156104cc3660046126fc565b6112bb565b3480156104dd57600080fd5b506104f16104ec3660046126fc565b6113f0565b6040516101d79190612eec565b34801561050a57600080fd5b506101cb610519366004612eff565b61171a565b34801561052a57600080fd5b506101a9610539366004612f29565b611767565b34801561054a57600080fd5b506101a9610559366004612957565b6118ad565b60008061056a836107fb565b6001600160a01b0316141592915050565b60006001600160e01b03198216632483248360e11b14806105a057506105a0826118eb565b92915050565b60008051602061320483398151915280546060919081906105c690612f65565b80601f01602080910402602001604051908101604052809291908181526020018280546105f290612f65565b801561063f5780601f106106145761010080835404028352916020019161063f565b820191906000526020600020905b81548152906001019060200180831161062257829003601f168201915b505050505091505090565b60006106558261193b565b506105a082611973565b61066a8282336119ad565b5050565b6001600160a01b03821661069d57604051633250574960e11b8152600060048201526024015b60405180910390fd5b60006106aa8383336119ba565b9050836001600160a01b0316816001600160a01b0316146106f8576040516364283d7b60e01b81526001600160a01b0380861660048301526024820184905282166044820152606401610694565b50505050565b610706611ac6565b47806107635760405162461bcd60e51b815260206004820152602660248201527f4e46413a204e6f2066756e647320617661696c61626c6520666f722077697468604482015265191c985dd85b60d21b6064820152608401610694565b61076b610d02565b6001600160a01b03166108fc829081150290604051600060405180830381858888f1935050505015801561066a573d6000803e3d6000fd5b6107be83838360405180602001604052806000815250610fbc565b505050565b6107cb611af8565b6107d482611b9d565b61066a8282611ba5565b60006107e8611c62565b5060008051602061322483398151915290565b60006105a08261193b565b60006000805160206132048339815191526001600160a01b038316610841576040516322718ad960e21b815260006004820152602401610694565b6001600160a01b039092166000908152600390920160205250604090205490565b61086a611ac6565b6108746000611cab565b565b6108bc604080516060808201835260008083526020808401839052845160a081018652838152908101839052808501829052808301929092526080820152909182015290565b6108c58261055e565b6109225760405162461bcd60e51b815260206004820152602860248201527f4e46413a20417070496e666f20717565727920666f72206e6f6e657869737465604482015267373a103a37b5b2b760c11b6064820152608401610694565b600082815260016020818152604092839020835160608101909452805460ff161515845291820180549184019161095890612f65565b80601f016020809104026020016040519081016040528092919081815260200182805461098490612f65565b80156109d15780601f106109a6576101008083540402835291602001916109d1565b820191906000526020600020905b8154815290600101906020018083116109b457829003601f168201915b50505050508152602001600282016040518060a00160405290816000820180546109fa90612f65565b80601f0160208091040260200160405190810160405280929190818152602001828054610a2690612f65565b8015610a735780601f10610a4857610100808354040283529160200191610a73565b820191906000526020600020905b815481529060010190602001808311610a5657829003601f168201915b5050505050815260200160018201805480602002602001604051908101604052809291908181526020016000905b82821015610b4d578382906000526020600020018054610ac090612f65565b80601f0160208091040260200160405190810160405280929190818152602001828054610aec90612f65565b8015610b395780601f10610b0e57610100808354040283529160200191610b39565b820191906000526020600020905b815481529060010190602001808311610b1c57829003601f168201915b505050505081526020019060010190610aa1565b5050505081526020016002820154815260200160038201805480602002602001604051908101604052809291908181526020016000905b82821015610c30578382906000526020600020018054610ba390612f65565b80601f0160208091040260200160405190810160405280929190818152602001828054610bcf90612f65565b8015610c1c5780601f10610bf157610100808354040283529160200191610c1c565b820191906000526020600020905b815481529060010190602001808311610bff57829003601f168201915b505050505081526020019060010190610b84565b505050508152602001600482015481525050815250509050919050565b8051602081830181018051600282529282019190930120915280548190610c7390612f65565b80601f0160208091040260200160405190810160405280929190818152602001828054610c9f90612f65565b8015610cec5780601f10610cc157610100808354040283529160200191610cec565b820191906000526020600020905b815481529060010190602001808311610ccf57829003601f168201915b5050505050908060020154908060040154905083565b7f9016d09d72d40fdae2fd8ceac6b6234c7706214fd39c1cd1e609a0528c199300546001600160a01b031690565b7f80bb2b638cc20bc4d0a60d66940f3ab4a00c1d7b313497ca82fb0b4ab00793018054606091600080516020613204833981519152916105c690612f65565b61066a338383611d1c565b7ff0c57e16840df040f15088dc2f81fe391c3923bec73e23a9662efc9c229c6a008054600160401b810460ff1615906001600160401b0316600081158015610dbf5750825b90506000826001600160401b03166001148015610ddb5750303b155b905081158015610de9575080155b15610e075760405163f92ee8a960e01b815260040160405180910390fd5b845467ffffffffffffffff191660011785558315610e3157845460ff60401b1916600160401b1785555b610e3b8989611dcd565b610e43611ddf565b610e4c86611de7565b6000805481526001602081815260409092208951815460ff191690151517815591890151899291820190610e809082612fef565b506040820151805160028301908190610e999082612fef565b506020828101518051610eb2926001850192019061263f565b506040820151600282015560608201518051610ed891600384019160209091019061263f565b50608091909101516004909101555050604080880151805191519091600291610f0191906130ae565b90815260405190819003602001902081518190610f1e9082612fef565b506020828101518051610f37926001850192019061263f565b506040820151600282015560608201518051610f5d91600384019160209091019061263f565b50608082015181600401559050508315610fb157845460ff60401b19168555604051600181527fc7f505b2f371ae2175ee4913f4499e1f2633a7b5936321eed1cdaeb6115181d29060200160405180910390a15b505050505050505050565b610fc784848461066e565b6106f884848484611df8565b610fdb611ac6565b610fe48361055e565b6110425760405162461bcd60e51b815260206004820152602960248201527f4e46413a2056657273696f6e2075706461746520666f72206e6f6e657869737460448201526832b73a103a37b5b2b760b91b6064820152608401610694565b8160028260405161105391906130ae565b908152604051908190036020019020815181906110709082612fef565b506020828101518051611089926001850192019061263f565b5060408201516002820155606082015180516110af91600384019160209091019061263f565b5060808201518160040155905050827fe084e6175f396d3b0cde566579e31e11b6a6b6243a84ac78c946f716c7387a96836040516110ed9190612eec565b60405180910390a2505050565b6000611104611ac6565b600160008082825461111691906130ca565b9091555050600080548082526001602081815260409093208651815460ff1916901515178155928601519192869290918201906111539082612fef565b50604082015180516002830190819061116c9082612fef565b506020828101518051611185926001850192019061263f565b5060408201516002820155606082015180516111ab91600384019160209091019061263f565b506080820151816004015550509050506111c58682611f21565b6111cf8186611f86565b6040805160a08101825285820180515182528051602090810151908301528051830151828401528051606090810151908301525160809081015190820152905160029061121d9086906130ae565b9081526040519081900360200190208151819061123a9082612fef565b506020828101518051611253926001850192019061263f565b50604082015160028201556060820151805161127991600384019160209091019061263f565b506080919091015160049091015560405181907f228a60aa955b2de198ddf61324929aee6fa4753a3b7bd1e64bd6a2bf3ef1d53390600090a295945050505050565b60607f0542a41881ee128a365a727b282c86fa859579490b9bb45aab8503648c8e79006112e78361193b565b506000838152602082905260408120805461130190612f65565b80601f016020809104026020016040519081016040528092919081815260200182805461132d90612f65565b801561137a5780601f1061134f5761010080835404028352916020019161137a565b820191906000526020600020905b81548152906001019060200180831161135d57829003601f168201915b50505050509050600061139860408051602081019091526000815290565b905080516000036113ab57509392505050565b8151156113de5780826040516020016113c59291906130eb565b6040516020818303038152906040529350505050919050565b6113e785611ff9565b95945050505050565b6040805160a08101825260608082526020820181905260009282018390528082015260808101919091526114238261055e565b6114805760405162461bcd60e51b815260206004820152602860248201527f4e46413a2056657273696f6e20717565727920666f72206e6f6e657869737465604482015267373a103a37b5b2b760c11b6064820152608401610694565b6000828152600160205260409081902090516002916114a2919083019061311a565b90815260200160405180910390206040518060a00160405290816000820180546114cb90612f65565b80601f01602080910402602001604051908101604052809291908181526020018280546114f790612f65565b80156115445780601f1061151957610100808354040283529160200191611544565b820191906000526020600020905b81548152906001019060200180831161152757829003601f168201915b5050505050815260200160018201805480602002602001604051908101604052809291908181526020016000905b8282101561161e57838290600052602060002001805461159190612f65565b80601f01602080910402602001604051908101604052809291908181526020018280546115bd90612f65565b801561160a5780601f106115df5761010080835404028352916020019161160a565b820191906000526020600020905b8154815290600101906020018083116115ed57829003601f168201915b505050505081526020019060010190611572565b5050505081526020016002820154815260200160038201805480602002602001604051908101604052809291908181526020016000905b8282101561170157838290600052602060002001805461167490612f65565b80601f01602080910402602001604051908101604052809291908181526020018280546116a090612f65565b80156116ed5780601f106116c2576101008083540402835291602001916116ed565b820191906000526020600020905b8154815290600101906020018083116116d057829003601f168201915b505050505081526020019060010190611655565b5050505081526020016004820154815250509050919050565b6001600160a01b0391821660009081527f80bb2b638cc20bc4d0a60d66940f3ab4a00c1d7b313497ca82fb0b4ab00793056020908152604080832093909416825291909152205460ff1690565b61176f611ac6565b6117788261055e565b6117d65760405162461bcd60e51b815260206004820152602960248201527f4e46413a20417070496e666f2075706461746520666f72206e6f6e657869737460448201526832b73a103a37b5b2b760b91b6064820152608401610694565b60008281526001602081815260409092208351815460ff1916901515178155918301518392918201906118099082612fef565b5060408201518051600283019081906118229082612fef565b50602082810151805161183b926001850192019061263f565b50604082015160028201556060820151805161186191600384019160209091019061263f565b50608082015181600401555050905050817f9b5400d32d48c2f1552e765fd93226bd6d88b86c5cd01152ae5b34b62dddcd5f826040516118a19190612a35565b60405180910390a25050565b6118b5611ac6565b6001600160a01b0381166118df57604051631e4fbdf760e01b815260006004820152602401610694565b6118e881611cab565b50565b60006001600160e01b031982166380ac58cd60e01b148061191c57506001600160e01b03198216635b5e139f60e01b145b806105a057506301ffc9a760e01b6001600160e01b03198316146105a0565b6000806119478361206d565b90506001600160a01b0381166105a057604051637e27328960e01b815260048101849052602401610694565b60009081527f80bb2b638cc20bc4d0a60d66940f3ab4a00c1d7b313497ca82fb0b4ab007930460205260409020546001600160a01b031690565b6107be83838360016120a7565b6000600080516020613204833981519152816119d58561206d565b90506001600160a01b038416156119f1576119f18185876121bd565b6001600160a01b03811615611a3157611a0e6000866000806120a7565b6001600160a01b0381166000908152600383016020526040902080546000190190555b6001600160a01b03861615611a62576001600160a01b03861660009081526003830160205260409020805460010190555b600085815260028301602052604080822080546001600160a01b0319166001600160a01b038a811691821790925591518893918516917fddf252ad1be2c89b69c2b068fc378daa952ba7f163c4a11628f55a4df523b3ef91a49150505b9392505050565b33611acf610d02565b6001600160a01b0316146108745760405163118cdaa760e01b8152336004820152602401610694565b306001600160a01b037f0000000000000000000000000000000000000000000000000000000000000000161480611b7f57507f00000000000000000000000000000000000000000000000000000000000000006001600160a01b0316611b73600080516020613224833981519152546001600160a01b031690565b6001600160a01b031614155b156108745760405163703e46dd60e11b815260040160405180910390fd5b6118e8611ac6565b816001600160a01b03166352d1902d6040518163ffffffff1660e01b8152600401602060405180830381865afa925050508015611bff575060408051601f3d908101601f19168201909252611bfc91810190613190565b60015b611c2757604051634c9c8ce360e01b81526001600160a01b0383166004820152602401610694565b6000805160206132248339815191528114611c5857604051632a87526960e21b815260048101829052602401610694565b6107be8383612221565b306001600160a01b037f000000000000000000000000000000000000000000000000000000000000000016146108745760405163703e46dd60e11b815260040160405180910390fd5b7f9016d09d72d40fdae2fd8ceac6b6234c7706214fd39c1cd1e609a0528c19930080546001600160a01b031981166001600160a01b03848116918217845560405192169182907f8be0079c531659141344cd1fd0a4f28419497f9722a3daafe3b4186f6b6457e090600090a3505050565b6000805160206132048339815191526001600160a01b038316611d5d57604051630b61174360e31b81526001600160a01b0384166004820152602401610694565b6001600160a01b038481166000818152600584016020908152604080832094881680845294825291829020805460ff191687151590811790915591519182527f17307eab39ab6107e8899845ad3d59bd9653f200f220920489ca2b5937696c31910160405180910390a350505050565b611dd5612277565b61066a82826122c0565b610874612277565b611def612277565b6118e8816122f1565b6001600160a01b0383163b156106f857604051630a85bd0160e11b81526001600160a01b0384169063150b7a0290611e3a9033908890879087906004016131a9565b6020604051808303816000875af1925050508015611e75575060408051601f3d908101601f19168201909252611e72918101906131e6565b60015b611ede573d808015611ea3576040519150601f19603f3d011682016040523d82523d6000602084013e611ea8565b606091505b508051600003611ed657604051633250574960e11b81526001600160a01b0385166004820152602401610694565b805181602001fd5b6001600160e01b03198116630a85bd0160e11b14611f1a57604051633250574960e11b81526001600160a01b0385166004820152602401610694565b5050505050565b6001600160a01b038216611f4b57604051633250574960e11b815260006004820152602401610694565b6000611f59838360006119ba565b90506001600160a01b038116156107be576040516339e3563760e11b815260006004820152602401610694565b60008281527f0542a41881ee128a365a727b282c86fa859579490b9bb45aab8503648c8e790060208190526040909120611fc08382612fef565b506040518381527ff8e1a15aba9398e019f0b49df1a4fde98ee17ae345cb5f6b5e2c27f5033e8ce79060200160405180910390a1505050565b60606120048261193b565b50600061201c60408051602081019091526000815290565b9050600081511161203c5760405180602001604052806000815250611abf565b80612046846122f9565b6040516020016120579291906130eb565b6040516020818303038152906040529392505050565b60009081527f80bb2b638cc20bc4d0a60d66940f3ab4a00c1d7b313497ca82fb0b4ab007930260205260409020546001600160a01b031690565b60008051602061320483398151915281806120ca57506001600160a01b03831615155b1561218c5760006120da8561193b565b90506001600160a01b038416158015906121065750836001600160a01b0316816001600160a01b031614155b80156121195750612117818561171a565b155b156121425760405163a9fbf51f60e01b81526001600160a01b0385166004820152602401610694565b821561218a5784866001600160a01b0316826001600160a01b03167f8c5be1e5ebec7d5bd14f71427d1e84f3dd0314c0f7b2291e5b200ac8c7c3b92560405160405180910390a45b505b600093845260040160205250506040902080546001600160a01b0319166001600160a01b0392909216919091179055565b6121c883838361238b565b6107be576001600160a01b0383166121f657604051637e27328960e01b815260048101829052602401610694565b60405163177e802f60e01b81526001600160a01b038316600482015260248101829052604401610694565b61222a826123f1565b6040516001600160a01b038316907fbc7cd75a20ee27fd9adebab32041f755214dbc6bffa90cc0225b39da2e5c2d3b90600090a280511561226f576107be8282612456565b61066a6124c3565b7ff0c57e16840df040f15088dc2f81fe391c3923bec73e23a9662efc9c229c6a0054600160401b900460ff1661087457604051631afcd79f60e31b815260040160405180910390fd5b6122c8612277565b600080516020613204833981519152806122e28482612fef565b50600181016106f88382612fef565b6118b5612277565b60606000612306836124e2565b60010190506000816001600160401b038111156123255761232561282d565b6040519080825280601f01601f19166020018201604052801561234f576020820181803683370190505b5090508181016020015b600019016f181899199a1a9b1b9c1cb0b131b232b360811b600a86061a8153600a850494508461235957509392505050565b60006001600160a01b038316158015906123e95750826001600160a01b0316846001600160a01b031614806123c557506123c5848461171a565b806123e95750826001600160a01b03166123de83611973565b6001600160a01b0316145b949350505050565b806001600160a01b03163b60000361242757604051634c9c8ce360e01b81526001600160a01b0382166004820152602401610694565b60008051602061322483398151915280546001600160a01b0319166001600160a01b0392909216919091179055565b6060600080846001600160a01b03168460405161247391906130ae565b600060405180830381855af49150503d80600081146124ae576040519150601f19603f3d011682016040523d82523d6000602084013e6124b3565b606091505b50915091506113e78583836125ba565b34156108745760405163b398979f60e01b815260040160405180910390fd5b60008072184f03e93ff9f4daa797ed6e38ed64bf6a1f0160401b83106125215772184f03e93ff9f4daa797ed6e38ed64bf6a1f0160401b830492506040015b6d04ee2d6d415b85acef8100000000831061254d576d04ee2d6d415b85acef8100000000830492506020015b662386f26fc10000831061256b57662386f26fc10000830492506010015b6305f5e1008310612583576305f5e100830492506008015b612710831061259757612710830492506004015b606483106125a9576064830492506002015b600a83106105a05760010192915050565b6060826125cf576125ca82612616565b611abf565b81511580156125e657506001600160a01b0384163b155b1561260f57604051639996b31560e01b81526001600160a01b0385166004820152602401610694565b5080611abf565b8051156126265780518082602001fd5b604051630a12f52160e11b815260040160405180910390fd5b828054828255906000526020600020908101928215612685579160200282015b8281111561268557825182906126759082612fef565b509160200191906001019061265f565b50612691929150612695565b5090565b808211156126915760006126a982826126b2565b50600101612695565b5080546126be90612f65565b6000825580601f106126ce575050565b601f0160209004906000526020600020908101906118e891905b8082111561269157600081556001016126e8565b60006020828403121561270e57600080fd5b5035919050565b6001600160e01b0319811681146118e857600080fd5b60006020828403121561273d57600080fd5b8135611abf81612715565b60005b8381101561276357818101518382015260200161274b565b50506000910152565b60008151808452612784816020860160208601612748565b601f01601f19169290920160200192915050565b602081526000611abf602083018461276c565b80356001600160a01b03811681146127c257600080fd5b919050565b600080604083850312156127da57600080fd5b6127e3836127ab565b946020939093013593505050565b60008060006060848603121561280657600080fd5b61280f846127ab565b925061281d602085016127ab565b9150604084013590509250925092565b634e487b7160e01b600052604160045260246000fd5b60405160a081016001600160401b03811182821017156128655761286561282d565b60405290565b604051601f8201601f191681016001600160401b03811182821017156128935761289361282d565b604052919050565b600082601f8301126128ac57600080fd5b81356001600160401b038111156128c5576128c561282d565b6128d8601f8201601f191660200161286b565b8181528460208386010111156128ed57600080fd5b816020850160208301376000918101602001919091529392505050565b6000806040838503121561291d57600080fd5b612926836127ab565b915060208301356001600160401b0381111561294157600080fd5b61294d8582860161289b565b9150509250929050565b60006020828403121561296957600080fd5b611abf826127ab565b60008282518085526020808601955060208260051b8401016020860160005b848110156129bf57601f198684030189526129ad83835161276c565b98840198925090830190600101612991565b5090979650505050505050565b6000815160a084526129e160a085018261276c565b9050602083015184820360208601526129fa8282612972565b9150506040830151604085015260608301518482036060860152612a1e8282612972565b915050608083015160808501528091505092915050565b602081528151151560208201526000602083015160606040840152612a5d608084018261276c565b90506040840151601f198483030160608501526113e782826129cc565b600060208284031215612a8c57600080fd5b81356001600160401b03811115612aa257600080fd5b6123e98482850161289b565b606081526000612ac1606083018661276c565b60208301949094525060400152919050565b803580151581146127c257600080fd5b60008060408385031215612af657600080fd5b612aff836127ab565b9150612b0d60208401612ad3565b90509250929050565b600082601f830112612b2757600080fd5b813560206001600160401b0380831115612b4357612b4361282d565b8260051b612b5283820161286b565b9384528581018301938381019088861115612b6c57600080fd5b84880192505b85831015612ba857823584811115612b8a5760008081fd5b612b988a87838c010161289b565b8352509184019190840190612b72565b98975050505050505050565b600060a08284031215612bc657600080fd5b612bce612843565b905081356001600160401b0380821115612be757600080fd5b612bf38583860161289b565b83526020840135915080821115612c0957600080fd5b612c1585838601612b16565b6020840152604084013560408401526060840135915080821115612c3857600080fd5b50612c4584828501612b16565b6060830152506080820135608082015292915050565b600060608284031215612c6d57600080fd5b604051606081016001600160401b038282108183111715612c9057612c9061282d565b81604052829350612ca085612ad3565b83526020850135915080821115612cb657600080fd5b612cc28683870161289b565b60208401526040850135915080821115612cdb57600080fd5b50612ce885828601612bb4565b6040830152505092915050565b60008060008060808587031215612d0b57600080fd5b84356001600160401b0380821115612d2257600080fd5b612d2e8883890161289b565b95506020870135915080821115612d4457600080fd5b612d508883890161289b565b94506040870135915080821115612d6657600080fd5b50612d7387828801612c5b565b925050612d82606086016127ab565b905092959194509250565b60008060008060808587031215612da357600080fd5b612dac856127ab565b9350612dba602086016127ab565b92506040850135915060608501356001600160401b03811115612ddc57600080fd5b612de88782880161289b565b91505092959194509250565b600080600060608486031215612e0957600080fd5b8335925060208401356001600160401b0380821115612e2757600080fd5b612e3387838801612bb4565b93506040860135915080821115612e4957600080fd5b50612e568682870161289b565b9150509250925092565b60008060008060808587031215612e7657600080fd5b612e7f856127ab565b935060208501356001600160401b0380821115612e9b57600080fd5b612ea78883890161289b565b94506040870135915080821115612ebd57600080fd5b612ec988838901612c5b565b93506060870135915080821115612edf57600080fd5b50612de88782880161289b565b602081526000611abf60208301846129cc565b60008060408385031215612f1257600080fd5b612f1b836127ab565b9150612b0d602084016127ab565b60008060408385031215612f3c57600080fd5b8235915060208301356001600160401b03811115612f5957600080fd5b61294d85828601612c5b565b600181811c90821680612f7957607f821691505b602082108103612f9957634e487b7160e01b600052602260045260246000fd5b50919050565b601f8211156107be576000816000526020600020601f850160051c81016020861015612fc85750805b601f850160051c820191505b81811015612fe757828155600101612fd4565b505050505050565b81516001600160401b038111156130085761300861282d565b61301c816130168454612f65565b84612f9f565b602080601f83116001811461305157600084156130395750858301515b600019600386901b1c1916600185901b178555612fe7565b600085815260208120601f198616915b8281101561308057888601518255948401946001909101908401613061565b508582101561309e5787850151600019600388901b60f8161c191681555b5050505050600190811b01905550565b600082516130c0818460208701612748565b9190910192915050565b808201808211156105a057634e487b7160e01b600052601160045260246000fd5b600083516130fd818460208801612748565b835190830190613111818360208801612748565b01949350505050565b600080835461312881612f65565b60018281168015613140576001811461315557613184565b60ff1984168752821515830287019450613184565b8760005260208060002060005b8581101561317b5781548a820152908401908201613162565b50505082870194505b50929695505050505050565b6000602082840312156131a257600080fd5b5051919050565b6001600160a01b03858116825284166020820152604081018390526080606082018190526000906131dc9083018461276c565b9695505050505050565b6000602082840312156131f857600080fd5b8151611abf8161271556fe80bb2b638cc20bc4d0a60d66940f3ab4a00c1d7b313497ca82fb0b4ab0079300360894a13ba1a3210667c828492db98dca3e2076cc3735a920a3ca505d382bbca264697066735822122053695e4502fcbd64fe86299024803deedde3fc79c6a82e75c7fb846ea86aebd664736f6c63430008180033",
  "linkReferences": {},
  "deployedLinkReferences": {}
}