{"contracts/NFA.sol":{"NFA":{"abi":[{"inputs":[{"internalType":"address","name":"target","type":"address"}],"name":"AddressEmptyCode","type":"error"},{"inputs":[{"internalType":"address","name":"implementation","type":"address"}],"name":"ERC1967InvalidImplementation","type":"error"},{"inputs":[],"name":"ERC1967NonPayable","type":"error"},{"inputs":[{"internalType":"address","name":"sender","type":"address"},{"internalType":"uint256","name":"tokenId","type":"uint256"},{"internalType":"address","name":"owner","type":"address"}],"name":"ERC721IncorrectOwner","type":"error"},{"inputs":[{"internalType":"address","name":"operator","type":"address"},{"internalType":"uint256","name":"tokenId","type":"uint256"}],"name":"ERC721InsufficientApproval","type":"error"},{"inputs":[{"internalType":"address","name":"approver","type":"address"}],"name":"ERC721InvalidApprover","type":"error"},{"inputs":[{"internalType":"address","name":"operator","type":"address"}],"name":"ERC721InvalidOperator","type":"error"},{"inputs":[{"internalType":"address","name":"owner","type":"address"}],"name":"ERC721InvalidOwner","type":"error"},{"inputs":[{"internalType":"address","name":"receiver","type":"address"}],"name":"ERC721InvalidReceiver","type":"error"},{"inputs":[{"internalType":"address","name":"sender","type":"address"}],"name":"ERC721InvalidSender","type":"error"},{"inputs":[{"internalType":"uint256","name":"tokenId","type":"uint256"}],"name":"ERC721NonexistentToken","type":"error"},{"inputs":[],"name":"FailedInnerCall","type":"error"},{"inputs":[],"name":"InvalidInitialization","type":"error"},{"inputs":[],"name":"NotInitializing","type":"error"},{"inputs":[{"internalType":"address","name":"owner","type":"address"}],"name":"OwnableInvalidOwner","type":"error"},{"inputs":[{"internalType":"address","name":"account","type":"address"}],"name":"OwnableUnauthorizedAccount","type":"error"},{"inputs":[],"name":"UUPSUnauthorizedCallContext","type":"error"},{"inputs":[{"internalType":"bytes32","name":"slot","type":"bytes32"}],"name":"UUPSUnsupportedProxiableUUID","type":"error"},{"anonymous":false,"inputs":[{"indexed":true,"internalType":"uint256","name":"tokenId","type":"uint256"},{"components":[{"internalType":"bool","name":"routerRequired","type":"bool"},{"internalType":"string","name":"paymentModel","type":"string"},{"components":[{"internalType":"string","name":"versionId","type":"string"},{"internalType":"string[]","name":"downloadURIs","type":"string[]"},{"internalType":"bytes32","name":"codeHash","type":"bytes32"},{"internalType":"string[]","name":"abiURIs","type":"string[]"},{"internalType":"bytes32","name":"abiHash","type":"bytes32"}],"internalType":"struct VersionInfo","name":"versionInfo","type":"tuple"}],"indexed":false,"internalType":"struct AppInfo","name":"newAppInfo","type":"tuple"}],"name":"AppInfoUpdated","type":"event"},{"anonymous":false,"inputs":[{"indexed":true,"internalType":"address","name":"owner","type":"address"},{"indexed":true,"internalType":"address","name":"approved","type":"address"},{"indexed":true,"internalType":"uint256","name":"tokenId","type":"uint256"}],"name":"Approval","type":"event"},{"anonymous":false,"inputs":[{"indexed":true,"internalType":"address","name":"owner","type":"address"},{"indexed":true,"internalType":"address","name":"operator","type":"address"},{"indexed":false,"internalType":"bool","name":"approved","type":"bool"}],"name":"ApprovalForAll","type":"event"},{"anonymous":false,"inputs":[{"indexed":false,"internalType":"uint256","name":"_fromTokenId","type":"uint256"},{"indexed":false,"internalType":"uint256","name":"_toTokenId","type":"uint256"}],"name":"BatchMetadataUpdate","type":"event"},{"anonymous":false,"inputs":[{"indexed":false,"internalType":"uint64","name":"version","type":"uint64"}],"name":"Initialized","type":"event"},{"anonymous":false,"inputs":[{"indexed":false,"internalType":"uint256","name":"_tokenId","type":"uint256"}],"name":"MetadataUpdate","type":"event"},{"anonymous":false,"inputs":[{"indexed":true,"internalType":"uint256","name":"tokenId","type":"uint256"}],"name":"NFACreated","type":"event"},{"anonymous":false,"inputs":[{"indexed":true,"internalType":"address","name":"previousOwner","type":"address"},{"indexed":true,"internalType":"address","name":"newOwner","type":"address"}],"name":"OwnershipTransferred","type":"event"},{"anonymous":false,"inputs":[{"indexed":true,"internalType":"address","name":"from","type":"address"},{"indexed":true,"internalType":"address","name":"to","type":"address"},{"indexed":true,"internalType":"uint256","name":"tokenId","type":"uint256"}],"name":"Transfer","type":"event"},{"anonymous":false,"inputs":[{"indexed":true,"internalType":"address","name":"implementation","type":"address"}],"name":"Upgraded","type":"event"},{"anonymous":false,"inputs":[{"indexed":true,"internalType":"uint256","name":"tokenId","type":"uint256"},{"components":[{"internalType":"string","name":"versionId","type":"string"},{"internalType":"string[]","name":"downloadURIs","type":"string[]"},{"internalType":"bytes32","name":"codeHash","type":"bytes32"},{"internalType":"string[]","name":"abiURIs","type":"string[]"},{"internalType":"bytes32","name":"abiHash","type":"bytes32"}],"indexed":false,"internalType":"struct VersionInfo","name":"newVersion","type":"tuple"}],"name":"VersionUpdated","type":"event"},{"stateMutability":"payable","type":"fallback"},{"inputs":[],"name":"UPGRADE_INTERFACE_VERSION","outputs":[{"internalType":"string","name":"","type":"string"}],"stateMutability":"view","type":"function"},{"inputs":[{"internalType":"address","name":"to","type":"address"},{"internalType":"uint256","name":"tokenId","type":"uint256"}],"name":"approve","outputs":[],"stateMutability":"nonpayable","type":"function"},{"inputs":[{"internalType":"address","name":"owner","type":"address"}],"name":"balanceOf","outputs":[{"internalType":"uint256","name":"","type":"uint256"}],"stateMutability":"view","type":"function"},{"inputs":[{"internalType":"uint256","name":"tokenId","type":"uint256"}],"name":"getAppInfo","outputs":[{"components":[{"internalType":"bool","name":"routerRequired","type":"bool"},{"internalType":"string","name":"paymentModel","type":"string"},{"components":[{"internalType":"string","name":"versionId","type":"string"},{"internalType":"string[]","name":"downloadURIs","type":"string[]"},{"internalType":"bytes32","name":"codeHash","type":"bytes32"},{"internalType":"string[]","name":"abiURIs","type":"string[]"},{"internalType":"bytes32","name":"abiHash","type":"bytes32"}],"internalType":"struct VersionInfo","name":"versionInfo","type":"tuple"}],"internalType":"struct AppInfo","name":"","type":"tuple"}],"stateMutability":"view","type":"function"},{"inputs":[{"internalType":"uint256","name":"tokenId","type":"uint256"}],"name":"getApproved","outputs":[{"internalType":"address","name":"","type":"address"}],"stateMutability":"view","type":"function"},{"inputs":[{"internalType":"uint256","name":"tokenId","type":"uint256"}],"name":"getVersionInfo","outputs":[{"components":[{"internalType":"string","name":"versionId","type":"string"},{"internalType":"string[]","name":"downloadURIs","type":"string[]"},{"internalType":"bytes32","name":"codeHash","type":"bytes32"},{"internalType":"string[]","name":"abiURIs","type":"string[]"},{"internalType":"bytes32","name":"abiHash","type":"bytes32"}],"internalType":"struct VersionInfo","name":"","type":"tuple"}],"stateMutability":"view","type":"function"},{"inputs":[{"internalType":"string","name":"name","type":"string"},{"internalType":"string","name":"symbol","type":"string"},{"components":[{"internalType":"bool","name":"routerRequired","type":"bool"},{"internalType":"string","name":"paymentModel","type":"string"},{"components":[{"internalType":"string","name":"versionId","type":"string"},{"internalType":"string[]","name":"downloadURIs","type":"string[]"},{"internalType":"bytes32","name":"codeHash","type":"bytes32"},{"internalType":"string[]","name":"abiURIs","type":"string[]"},{"internalType":"bytes32","name":"abiHash","type":"bytes32"}],"internalType":"struct VersionInfo","name":"versionInfo","type":"tuple"}],"internalType":"struct AppInfo","name":"appInfo","type":"tuple"},{"internalType":"address","name":"initialOwner","type":"address"}],"name":"initialize","outputs":[],"stateMutability":"nonpayable","type":"function"},{"inputs":[{"internalType":"address","name":"owner","type":"address"},{"internalType":"address","name":"operator","type":"address"}],"name":"isApprovedForAll","outputs":[{"internalType":"bool","name":"","type":"bool"}],"stateMutability":"view","type":"function"},{"inputs":[{"internalType":"address","name":"to","type":"address"},{"internalType":"string","name":"tokenURI","type":"string"},{"components":[{"internalType":"bool","name":"routerRequired","type":"bool"},{"internalType":"string","name":"paymentModel","type":"string"},{"components":[{"internalType":"string","name":"versionId","type":"string"},{"internalType":"string[]","name":"downloadURIs","type":"string[]"},{"internalType":"bytes32","name":"codeHash","type":"bytes32"},{"internalType":"string[]","name":"abiURIs","type":"string[]"},{"internalType":"bytes32","name":"abiHash","type":"bytes32"}],"internalType":"struct VersionInfo","name":"versionInfo","type":"tuple"}],"internalType":"struct AppInfo","name":"appInfo","type":"tuple"},{"internalType":"string","name":"versionId","type":"string"}],"name":"mint","outputs":[{"internalType":"uint256","name":"","type":"uint256"}],"stateMutability":"nonpayable","type":"function"},{"inputs":[],"name":"name","outputs":[{"internalType":"string","name":"","type":"string"}],"stateMutability":"view","type":"function"},{"inputs":[{"internalType":"string","name":"","type":"string"}],"name":"nfaVersions","outputs":[{"internalType":"string","name":"versionId","type":"string"},{"internalType":"bytes32","name":"codeHash","type":"bytes32"},{"internalType":"bytes32","name":"abiHash","type":"bytes32"}],"stateMutability":"view","type":"function"},{"inputs":[],"name":"owner","outputs":[{"internalType":"address","name":"","type":"address"}],"stateMutability":"view","type":"function"},{"inputs":[{"internalType":"uint256","name":"tokenId","type":"uint256"}],"name":"ownerOf","outputs":[{"internalType":"address","name":"","type":"address"}],"stateMutability":"view","type":"function"},{"inputs":[],"name":"proxiableUUID","outputs":[{"internalType":"bytes32","name":"","type":"bytes32"}],"stateMutability":"view","type":"function"},{"inputs":[],"name":"renounceOwnership","outputs":[],"stateMutability":"nonpayable","type":"function"},{"inputs":[{"internalType":"address","name":"from","type":"address"},{"internalType":"address","name":"to","type":"address"},{"internalType":"uint256","name":"tokenId","type":"uint256"}],"name":"safeTransferFrom","outputs":[],"stateMutability":"nonpayable","type":"function"},{"inputs":[{"internalType":"address","name":"from","type":"address"},{"internalType":"address","name":"to","type":"address"},{"internalType":"uint256","name":"tokenId","type":"uint256"},{"internalType":"bytes","name":"data","type":"bytes"}],"name":"safeTransferFrom","outputs":[],"stateMutability":"nonpayable","type":"function"},{"inputs":[{"internalType":"address","name":"operator","type":"address"},{"internalType":"bool","name":"approved","type":"bool"}],"name":"setApprovalForAll","outputs":[],"stateMutability":"nonpayable","type":"function"},{"inputs":[{"internalType":"bytes4","name":"interfaceId","type":"bytes4"}],"name":"supportsInterface","outputs":[{"internalType":"bool","name":"","type":"bool"}],"stateMutability":"view","type":"function"},{"inputs":[],"name":"symbol","outputs":[{"internalType":"string","name":"","type":"string"}],"stateMutability":"view","type":"function"},{"inputs":[{"internalType":"uint256","name":"tokenId","type":"uint256"}],"name":"tokenExists","outputs":[{"internalType":"bool","name":"","type":"bool"}],"stateMutability":"view","type":"function"},{"inputs":[{"internalType":"uint256","name":"tokenId","type":"uint256"}],"name":"tokenURI","outputs":[{"internalType":"string","name":"","type":"string"}],"stateMutability":"view","type":"function"},{"inputs":[{"internalType":"address","name":"from","type":"address"},{"internalType":"address","name":"to","type":"address"},{"internalType":"uint256","name":"tokenId","type":"uint256"}],"name":"transferFrom","outputs":[],"stateMutability":"nonpayable","type":"function"},{"inputs":[{"internalType":"address","name":"newOwner","type":"address"}],"name":"transferOwnership","outputs":[],"stateMutability":"nonpayable","type":"function"},{"inputs":[{"internalType":"uint256","name":"tokenId","type":"uint256"},{"components":[{"internalType":"bool","name":"routerRequired","type":"bool"},{"internalType":"string","name":"paymentModel","type":"string"},{"components":[{"internalType":"string","name":"versionId","type":"string"},{"internalType":"string[]","name":"downloadURIs","type":"string[]"},{"internalType":"bytes32","name":"codeHash","type":"bytes32"},{"internalType":"string[]","name":"abiURIs","type":"string[]"},{"internalType":"bytes32","name":"abiHash","type":"bytes32"}],"internalType":"struct VersionInfo","name":"versionInfo","type":"tuple"}],"internalType":"struct AppInfo","name":"newAppInfo","type":"tuple"}],"name":"updateAppInfo","outputs":[],"stateMutability":"nonpayable","type":"function"},{"inputs":[{"internalType":"uint256","name":"tokenId","type":"uint256"},{"components":[{"internalType":"string","name":"versionId","type":"string"},{"internalType":"string[]","name":"downloadURIs","type":"string[]"},{"internalType":"bytes32","name":"codeHash","type":"bytes32"},{"internalType":"string[]","name":"abiURIs","type":"string[]"},{"internalType":"bytes32","name":"abiHash","type":"bytes32"}],"internalType":"struct VersionInfo","name":"newVersion","type":"tuple"},{"internalType":"string","name":"versionId","type":"string"}],"name":"updateVersion","outputs":[],"stateMutability":"nonpayable","type":"function"},{"inputs":[{"internalType":"address","name":"newImplementation","type":"address"},{"internalType":"bytes","name":"data","type":"bytes"}],"name":"upgradeToAndCall","outputs":[],"stateMutability":"payable","type":"function"},{"inputs":[],"name":"withdraw","outputs":[],"stateMutability":"nonpayable","type":"function"},{"stateMutability":"payable","type":"receive"}],"evm":{"bytecode":{"linkReferences":{},"object":"60a06040523060805234801561001457600080fd5b5060805161327961003e60003960008181611b0301528181611b2c0152611c6d01526132796000f3fe6080604052600436106101a25760003560e01c80638b5c9283116100e0578063c167291e11610084578063cb4b9e2c11610061578063cb4b9e2c146104d1578063e985e9c5146104fe578063ef2a9a051461051e578063f2fde38b1461053e57005b8063c167291e14610471578063c80e329b14610491578063c87b56dd146104b157005b8063a22cb465116100bd578063a22cb465146103e0578063aadb3f4314610400578063ad3cb1cc14610420578063b88d4fde1461045157005b80638b5c9283146103875780638da5cb5b146103b657806395d89b41146103cb57005b806342842e0e116101475780636352211e116101245780636352211e1461030557806370a0823114610325578063715018a614610345578063741aa2bd1461035a57005b806342842e0e146102af5780634f1ef286146102cf57806352d1902d146102e257005b8063081812fc11610180578063081812fc14610222578063095ea7b31461025a57806323b872dd1461027a5780633ccfd60b1461029a57005b8062923f9e146101ab57806301ffc9a7146101e057806306fdde031461020057005b366101a957005b005b3480156101b757600080fd5b506101cb6101c63660046126fc565b61055e565b60405190151581526020015b60405180910390f35b3480156101ec57600080fd5b506101cb6101fb36600461272b565b61057b565b34801561020c57600080fd5b506102156105a6565b6040516101d79190612798565b34801561022e57600080fd5b5061024261023d3660046126fc565b61064a565b6040516001600160a01b0390911681526020016101d7565b34801561026657600080fd5b506101a96102753660046127c7565b61065f565b34801561028657600080fd5b506101a96102953660046127f1565b61066e565b3480156102a657600080fd5b506101a96106fe565b3480156102bb57600080fd5b506101a96102ca3660046127f1565b6107a3565b6101a96102dd36600461290a565b6107c3565b3480156102ee57600080fd5b506102f76107de565b6040519081526020016101d7565b34801561031157600080fd5b506102426103203660046126fc565b6107fb565b34801561033157600080fd5b506102f7610340366004612957565b610806565b34801561035157600080fd5b506101a9610862565b34801561036657600080fd5b5061037a6103753660046126fc565b610876565b6040516101d79190612a35565b34801561039357600080fd5b506103a76103a2366004612a7a565b610c4d565b6040516101d793929190612aae565b3480156103c257600080fd5b50610242610d02565b3480156103d757600080fd5b50610215610d30565b3480156103ec57600080fd5b506101a96103fb366004612ae3565b610d6f565b34801561040c57600080fd5b506101a961041b366004612cf5565b610d7a565b34801561042c57600080fd5b50610215604051806040016040528060058152602001640352e302e360dc1b81525081565b34801561045d57600080fd5b506101a961046c366004612d8d565b610fbc565b34801561047d57600080fd5b506101a961048c366004612df4565b610fd3565b34801561049d57600080fd5b506102f76104ac366004612e60565b6110fa565b3480156104bd57600080fd5b506102156104cc3660046126fc565b6112bb565b3480156104dd57600080fd5b506104f16104ec3660046126fc565b6113f0565b6040516101d79190612eec565b34801561050a57600080fd5b506101cb610519366004612eff565b61171a565b34801561052a57600080fd5b506101a9610539366004612f29565b611767565b34801561054a57600080fd5b506101a9610559366004612957565b6118ad565b60008061056a836107fb565b6001600160a01b0316141592915050565b60006001600160e01b03198216632483248360e11b14806105a057506105a0826118eb565b92915050565b60008051602061320483398151915280546060919081906105c690612f65565b80601f01602080910402602001604051908101604052809291908181526020018280546105f290612f65565b801561063f5780601f106106145761010080835404028352916020019161063f565b820191906000526020600020905b81548152906001019060200180831161062257829003601f168201915b505050505091505090565b60006106558261193b565b506105a082611973565b61066a8282336119ad565b5050565b6001600160a01b03821661069d57604051633250574960e11b8152600060048201526024015b60405180910390fd5b60006106aa8383336119ba565b9050836001600160a01b0316816001600160a01b0316146106f8576040516364283d7b60e01b81526001600160a01b0380861660048301526024820184905282166044820152606401610694565b50505050565b610706611ac6565b47806107635760405162461bcd60e51b815260206004820152602660248201527f4e46413a204e6f2066756e647320617661696c61626c6520666f722077697468604482015265191c985dd85b60d21b6064820152608401610694565b61076b610d02565b6001600160a01b03166108fc829081150290604051600060405180830381858888f1935050505015801561066a573d6000803e3d6000fd5b6107be83838360405180602001604052806000815250610fbc565b505050565b6107cb611af8565b6107d482611b9d565b61066a8282611ba5565b60006107e8611c62565b5060008051602061322483398151915290565b60006105a08261193b565b60006000805160206132048339815191526001600160a01b038316610841576040516322718ad960e21b815260006004820152602401610694565b6001600160a01b039092166000908152600390920160205250604090205490565b61086a611ac6565b6108746000611cab565b565b6108bc604080516060808201835260008083526020808401839052845160a081018652838152908101839052808501829052808301929092526080820152909182015290565b6108c58261055e565b6109225760405162461bcd60e51b815260206004820152602860248201527f4e46413a20417070496e666f20717565727920666f72206e6f6e657869737465604482015267373a103a37b5b2b760c11b6064820152608401610694565b600082815260016020818152604092839020835160608101909452805460ff161515845291820180549184019161095890612f65565b80601f016020809104026020016040519081016040528092919081815260200182805461098490612f65565b80156109d15780601f106109a6576101008083540402835291602001916109d1565b820191906000526020600020905b8154815290600101906020018083116109b457829003601f168201915b50505050508152602001600282016040518060a00160405290816000820180546109fa90612f65565b80601f0160208091040260200160405190810160405280929190818152602001828054610a2690612f65565b8015610a735780601f10610a4857610100808354040283529160200191610a73565b820191906000526020600020905b815481529060010190602001808311610a5657829003601f168201915b5050505050815260200160018201805480602002602001604051908101604052809291908181526020016000905b82821015610b4d578382906000526020600020018054610ac090612f65565b80601f0160208091040260200160405190810160405280929190818152602001828054610aec90612f65565b8015610b395780601f10610b0e57610100808354040283529160200191610b39565b820191906000526020600020905b815481529060010190602001808311610b1c57829003601f168201915b505050505081526020019060010190610aa1565b5050505081526020016002820154815260200160038201805480602002602001604051908101604052809291908181526020016000905b82821015610c30578382906000526020600020018054610ba390612f65565b80601f0160208091040260200160405190810160405280929190818152602001828054610bcf90612f65565b8015610c1c5780601f10610bf157610100808354040283529160200191610c1c565b820191906000526020600020905b815481529060010190602001808311610bff57829003601f168201915b505050505081526020019060010190610b84565b505050508152602001600482015481525050815250509050919050565b8051602081830181018051600282529282019190930120915280548190610c7390612f65565b80601f0160208091040260200160405190810160405280929190818152602001828054610c9f90612f65565b8015610cec5780601f10610cc157610100808354040283529160200191610cec565b820191906000526020600020905b815481529060010190602001808311610ccf57829003601f168201915b5050505050908060020154908060040154905083565b7f9016d09d72d40fdae2fd8ceac6b6234c7706214fd39c1cd1e609a0528c199300546001600160a01b031690565b7f80bb2b638cc20bc4d0a60d66940f3ab4a00c1d7b313497ca82fb0b4ab00793018054606091600080516020613204833981519152916105c690612f65565b61066a338383611d1c565b7ff0c57e16840df040f15088dc2f81fe391c3923bec73e23a9662efc9c229c6a008054600160401b810460ff1615906001600160401b0316600081158015610dbf5750825b90506000826001600160401b03166001148015610ddb5750303b155b905081158015610de9575080155b15610e075760405163f92ee8a960e01b815260040160405180910390fd5b845467ffffffffffffffff191660011785558315610e3157845460ff60401b1916600160401b1785555b610e3b8989611dcd565b610e43611ddf565b610e4c86611de7565b6000805481526001602081815260409092208951815460ff191690151517815591890151899291820190610e809082612fef565b506040820151805160028301908190610e999082612fef565b506020828101518051610eb2926001850192019061263f565b506040820151600282015560608201518051610ed891600384019160209091019061263f565b50608091909101516004909101555050604080880151805191519091600291610f0191906130ae565b90815260405190819003602001902081518190610f1e9082612fef565b506020828101518051610f37926001850192019061263f565b506040820151600282015560608201518051610f5d91600384019160209091019061263f565b50608082015181600401559050508315610fb157845460ff60401b19168555604051600181527fc7f505b2f371ae2175ee4913f4499e1f2633a7b5936321eed1cdaeb6115181d29060200160405180910390a15b505050505050505050565b610fc784848461066e565b6106f884848484611df8565b610fdb611ac6565b610fe48361055e565b6110425760405162461bcd60e51b815260206004820152602960248201527f4e46413a2056657273696f6e2075706461746520666f72206e6f6e657869737460448201526832b73a103a37b5b2b760b91b6064820152608401610694565b8160028260405161105391906130ae565b908152604051908190036020019020815181906110709082612fef565b506020828101518051611089926001850192019061263f565b5060408201516002820155606082015180516110af91600384019160209091019061263f565b5060808201518160040155905050827fe084e6175f396d3b0cde566579e31e11b6a6b6243a84ac78c946f716c7387a96836040516110ed9190612eec565b60405180910390a2505050565b6000611104611ac6565b600160008082825461111691906130ca565b9091555050600080548082526001602081815260409093208651815460ff1916901515178155928601519192869290918201906111539082612fef565b50604082015180516002830190819061116c9082612fef565b506020828101518051611185926001850192019061263f565b5060408201516002820155606082015180516111ab91600384019160209091019061263f565b506080820151816004015550509050506111c58682611f21565b6111cf8186611f86565b6040805160a08101825285820180515182528051602090810151908301528051830151828401528051606090810151908301525160809081015190820152905160029061121d9086906130ae565b9081526040519081900360200190208151819061123a9082612fef565b506020828101518051611253926001850192019061263f565b50604082015160028201556060820151805161127991600384019160209091019061263f565b506080919091015160049091015560405181907f228a60aa955b2de198ddf61324929aee6fa4753a3b7bd1e64bd6a2bf3ef1d53390600090a295945050505050565b60607f0542a41881ee128a365a727b282c86fa859579490b9bb45aab8503648c8e79006112e78361193b565b506000838152602082905260408120805461130190612f65565b80601f016020809104026020016040519081016040528092919081815260200182805461132d90612f65565b801561137a5780601f1061134f5761010080835404028352916020019161137a565b820191906000526020600020905b81548152906001019060200180831161135d57829003601f168201915b50505050509050600061139860408051602081019091526000815290565b905080516000036113ab57509392505050565b8151156113de5780826040516020016113c59291906130eb565b6040516020818303038152906040529350505050919050565b6113e785611ff9565b95945050505050565b6040805160a08101825260608082526020820181905260009282018390528082015260808101919091526114238261055e565b6114805760405162461bcd60e51b815260206004820152602860248201527f4e46413a2056657273696f6e20717565727920666f72206e6f6e657869737465604482015267373a103a37b5b2b760c11b6064820152608401610694565b6000828152600160205260409081902090516002916114a2919083019061311a565b90815260200160405180910390206040518060a00160405290816000820180546114cb90612f65565b80601f01602080910402602001604051908101604052809291908181526020018280546114f790612f65565b80156115445780601f1061151957610100808354040283529160200191611544565b820191906000526020600020905b81548152906001019060200180831161152757829003601f168201915b5050505050815260200160018201805480602002602001604051908101604052809291908181526020016000905b8282101561161e57838290600052602060002001805461159190612f65565b80601f01602080910402602001604051908101604052809291908181526020018280546115bd90612f65565b801561160a5780601f106115df5761010080835404028352916020019161160a565b820191906000526020600020905b8154815290600101906020018083116115ed57829003601f168201915b505050505081526020019060010190611572565b5050505081526020016002820154815260200160038201805480602002602001604051908101604052809291908181526020016000905b8282101561170157838290600052602060002001805461167490612f65565b80601f01602080910402602001604051908101604052809291908181526020018280546116a090612f65565b80156116ed5780601f106116c2576101008083540402835291602001916116ed565b820191906000526020600020905b8154815290600101906020018083116116d057829003601f168201915b505050505081526020019060010190611655565b5050505081526020016004820154815250509050919050565b6001600160a01b0391821660009081527f80bb2b638cc20bc4d0a60d66940f3ab4a00c1d7b313497ca82fb0b4ab00793056020908152604080832093909416825291909152205460ff1690565b61176f611ac6565b6117788261055e565b6117d65760405162461bcd60e51b815260206004820152602960248201527f4e46413a20417070496e666f2075706461746520666f72206e6f6e657869737460448201526832b73a103a37b5b2b760b91b6064820152608401610694565b60008281526001602081815260409092208351815460ff1916901515178155918301518392918201906118099082612fef565b5060408201518051600283019081906118229082612fef565b50602082810151805161183b926001850192019061263f565b50604082015160028201556060820151805161186191600384019160209091019061263f565b50608082015181600401555050905050817f9b5400d32d48c2f1552e765fd93226bd6d88b86c5cd01152ae5b34b62dddcd5f826040516118a19190612a35565b60405180910390a25050565b6118b5611ac6565b6001600160a01b0381166118df57604051631e4fbdf760e01b815260006004820152602401610694565b6118e881611cab565b50565b60006001600160e01b031982166380ac58cd60e01b148061191c57506001600160e01b03198216635b5e139f60e01b145b806105a057506301ffc9a760e01b6001600160e01b03198316146105a0565b6000806119478361206d565b90506001600160a01b0381166105a057604051637e27328960e01b815260048101849052602401610694565b60009081527f80bb2b638cc20bc4d0a60d66940f3ab4a00c1d7b313497ca82fb0b4ab007930460205260409020546001600160a01b031690565b6107be83838360016120a7565b6000600080516020613204833981519152816119d58561206d565b90506001600160a01b038416156119f1576119f18185876121bd565b6001600160a01b03811615611a3157611a0e6000866000806120a7565b6001600160a01b0381166000908152600383016020526040902080546000190190555b6001600160a01b03861615611a62576001600160a01b03861660009081526003830160205260409020805460010190555b600085815260028301602052604080822080546001600160a01b0319166001600160a01b038a811691821790925591518893918516917fddf252ad1be2c89b69c2b068fc378daa952ba7f163c4a11628f55a4df523b3ef91a49150505b9392505050565b33611acf610d02565b6001600160a01b0316146108745760405163118cdaa760e01b8152336004820152602401610694565b306001600160a01b037f0000000000000000000000000000000000000000000000000000000000000000161480611b7f57507f00000000000000000000000000000000000000000000000000000000000000006001600160a01b0316611b73600080516020613224833981519152546001600160a01b031690565b6001600160a01b031614155b156108745760405163703e46dd60e11b815260040160405180910390fd5b6118e8611ac6565b816001600160a01b03166352d1902d6040518163ffffffff1660e01b8152600401602060405180830381865afa925050508015611bff575060408051601f3d908101601f19168201909252611bfc91810190613190565b60015b611c2757604051634c9c8ce360e01b81526001600160a01b0383166004820152602401610694565b6000805160206132248339815191528114611c5857604051632a87526960e21b815260048101829052602401610694565b6107be8383612221565b306001600160a01b037f000000000000000000000000000000000000000000000000000000000000000016146108745760405163703e46dd60e11b815260040160405180910390fd5b7f9016d09d72d40fdae2fd8ceac6b6234c7706214fd39c1cd1e609a0528c19930080546001600160a01b031981166001600160a01b03848116918217845560405192169182907f8be0079c531659141344cd1fd0a4f28419497f9722a3daafe3b4186f6b6457e090600090a3505050565b6000805160206132048339815191526001600160a01b038316611d5d57604051630b61174360e31b81526001600160a01b0384166004820152602401610694565b6001600160a01b038481166000818152600584016020908152604080832094881680845294825291829020805460ff191687151590811790915591519182527f17307eab39ab6107e8899845ad3d59bd9653f200f220920489ca2b5937696c31910160405180910390a350505050565b611dd5612277565b61066a82826122c0565b610874612277565b611def612277565b6118e8816122f1565b6001600160a01b0383163b156106f857604051630a85bd0160e11b81526001600160a01b0384169063150b7a0290611e3a9033908890879087906004016131a9565b6020604051808303816000875af1925050508015611e75575060408051601f3d908101601f19168201909252611e72918101906131e6565b60015b611ede573d808015611ea3576040519150601f19603f3d011682016040523d82523d6000602084013e611ea8565b606091505b508051600003611ed657604051633250574960e11b81526001600160a01b0385166004820152602401610694565b805181602001fd5b6001600160e01b03198116630a85bd0160e11b14611f1a57604051633250574960e11b81526001600160a01b0385166004820152602401610694565b5050505050565b6001600160a01b038216611f4b57604051633250574960e11b815260006004820152602401610694565b6000611f59838360006119ba565b90506001600160a01b038116156107be576040516339e3563760e11b815260006004820152602401610694565b60008281527f0542a41881ee128a365a727b282c86fa859579490b9bb45aab8503648c8e790060208190526040909120611fc08382612fef565b506040518381527ff8e1a15aba9398e019f0b49df1a4fde98ee17ae345cb5f6b5e2c27f5033e8ce79060200160405180910390a1505050565b60606120048261193b565b50600061201c60408051602081019091526000815290565b9050600081511161203c5760405180602001604052806000815250611abf565b80612046846122f9565b6040516020016120579291906130eb565b6040516020818303038152906040529392505050565b60009081527f80bb2b638cc20bc4d0a60d66940f3ab4a00c1d7b313497ca82fb0b4ab007930260205260409020546001600160a01b031690565b60008051602061320483398151915281806120ca57506001600160a01b03831615155b1561218c5760006120da8561193b565b90506001600160a01b038416158015906121065750836001600160a01b0316816001600160a01b031614155b80156121195750612117818561171a565b155b156121425760405163a9fbf51f60e01b81526001600160a01b0385166004820152602401610694565b821561218a5784866001600160a01b0316826001600160a01b03167f8c5be1e5ebec7d5bd14f71427d1e84f3dd0314c0f7b2291e5b200ac8c7c3b92560405160405180910390a45b505b600093845260040160205250506040902080546001600160a01b0319166001600160a01b0392909216919091179055565b6121c883838361238b565b6107be576001600160a01b0383166121f657604051637e27328960e01b815260048101829052602401610694565b60405163177e802f60e01b81526001600160a01b038316600482015260248101829052604401610694565b61222a826123f1565b6040516001600160a01b038316907fbc7cd75a20ee27fd9adebab32041f755214dbc6bffa90cc0225b39da2e5c2d3b90600090a280511561226f576107be8282612456565b61066a6124c3565b7ff0c57e16840df040f15088dc2f81fe391c3923bec73e23a9662efc9c229c6a0054600160401b900460ff1661087457604051631afcd79f60e31b815260040160405180910390fd5b6122c8612277565b600080516020613204833981519152806122e28482612fef565b50600181016106f88382612fef565b6118b5612277565b60606000612306836124e2565b60010190506000816001600160401b038111156123255761232561282d565b6040519080825280601f01601f19166020018201604052801561234f576020820181803683370190505b5090508181016020015b600019016f181899199a1a9b1b9c1cb0b131b232b360811b600a86061a8153600a850494508461235957509392505050565b60006001600160a01b038316158015906123e95750826001600160a01b0316846001600160a01b031614806123c557506123c5848461171a565b806123e95750826001600160a01b03166123de83611973565b6001600160a01b0316145b949350505050565b806001600160a01b03163b60000361242757604051634c9c8ce360e01b81526001600160a01b0382166004820152602401610694565b60008051602061322483398151915280546001600160a01b0319166001600160a01b0392909216919091179055565b6060600080846001600160a01b03168460405161247391906130ae565b600060405180830381855af49150503d80600081146124ae576040519150601f19603f3d011682016040523d82523d6000602084013e6124b3565b606091505b50915091506113e78583836125ba565b34156108745760405163b398979f60e01b815260040160405180910390fd5b60008072184f03e93ff9f4daa797ed6e38ed64bf6a1f0160401b83106125215772184f03e93ff9f4daa797ed6e38ed64bf6a1f0160401b830492506040015b6d04ee2d6d415b85acef8100000000831061254d576d04ee2d6d415b85acef8100000000830492506020015b662386f26fc10000831061256b57662386f26fc10000830492506010015b6305f5e1008310612583576305f5e100830492506008015b612710831061259757612710830492506004015b606483106125a9576064830492506002015b600a83106105a05760010192915050565b6060826125cf576125ca82612616565b611abf565b81511580156125e657506001600160a01b0384163b155b1561260f57604051639996b31560e01b81526001600160a01b0385166004820152602401610694565b5080611abf565b8051156126265780518082602001fd5b604051630a12f52160e11b815260040160405180910390fd5b828054828255906000526020600020908101928215612685579160200282015b8281111561268557825182906126759082612fef565b509160200191906001019061265f565b50612691929150612695565b5090565b808211156126915760006126a982826126b2565b50600101612695565b5080546126be90612f65565b6000825580601f106126ce575050565b601f0160209004906000526020600020908101906118e891905b8082111561269157600081556001016126e8565b60006020828403121561270e57600080fd5b5035919050565b6001600160e01b0319811681146118e857600080fd5b60006020828403121561273d57600080fd5b8135611abf81612715565b60005b8381101561276357818101518382015260200161274b565b50506000910152565b60008151808452612784816020860160208601612748565b601f01601f19169290920160200192915050565b602081526000611abf602083018461276c565b80356001600160a01b03811681146127c257600080fd5b919050565b600080604083850312156127da57600080fd5b6127e3836127ab565b946020939093013593505050565b60008060006060848603121561280657600080fd5b61280f846127ab565b925061281d602085016127ab565b9150604084013590509250925092565b634e487b7160e01b600052604160045260246000fd5b60405160a081016001600160401b03811182821017156128655761286561282d565b60405290565b604051601f8201601f191681016001600160401b03811182821017156128935761289361282d565b604052919050565b600082601f8301126128ac57600080fd5b81356001600160401b038111156128c5576128c561282d565b6128d8601f8201601f191660200161286b565b8181528460208386010111156128ed57600080fd5b816020850160208301376000918101602001919091529392505050565b6000806040838503121561291d57600080fd5b612926836127ab565b915060208301356001600160401b0381111561294157600080fd5b61294d8582860161289b565b9150509250929050565b60006020828403121561296957600080fd5b611abf826127ab565b60008282518085526020808601955060208260051b8401016020860160005b848110156129bf57601f198684030189526129ad83835161276c565b98840198925090830190600101612991565b5090979650505050505050565b6000815160a084526129e160a085018261276c565b9050602083015184820360208601526129fa8282612972565b9150506040830151604085015260608301518482036060860152612a1e8282612972565b915050608083015160808501528091505092915050565b602081528151151560208201526000602083015160606040840152612a5d608084018261276c565b90506040840151601f198483030160608501526113e782826129cc565b600060208284031215612a8c57600080fd5b81356001600160401b03811115612aa257600080fd5b6123e98482850161289b565b606081526000612ac1606083018661276c565b60208301949094525060400152919050565b803580151581146127c257600080fd5b60008060408385031215612af657600080fd5b612aff836127ab565b9150612b0d60208401612ad3565b90509250929050565b600082601f830112612b2757600080fd5b813560206001600160401b0380831115612b4357612b4361282d565b8260051b612b5283820161286b565b9384528581018301938381019088861115612b6c57600080fd5b84880192505b85831015612ba857823584811115612b8a5760008081fd5b612b988a87838c010161289b565b8352509184019190840190612b72565b98975050505050505050565b600060a08284031215612bc657600080fd5b612bce612843565b905081356001600160401b0380821115612be757600080fd5b612bf38583860161289b565b83526020840135915080821115612c0957600080fd5b612c1585838601612b16565b6020840152604084013560408401526060840135915080821115612c3857600080fd5b50612c4584828501612b16565b6060830152506080820135608082015292915050565b600060608284031215612c6d57600080fd5b604051606081016001600160401b038282108183111715612c9057612c9061282d565b81604052829350612ca085612ad3565b83526020850135915080821115612cb657600080fd5b612cc28683870161289b565b60208401526040850135915080821115612cdb57600080fd5b50612ce885828601612bb4565b6040830152505092915050565b60008060008060808587031215612d0b57600080fd5b84356001600160401b0380821115612d2257600080fd5b612d2e8883890161289b565b95506020870135915080821115612d4457600080fd5b612d508883890161289b565b94506040870135915080821115612d6657600080fd5b50612d7387828801612c5b565b925050612d82606086016127ab565b905092959194509250565b60008060008060808587031215612da357600080fd5b612dac856127ab565b9350612dba602086016127ab565b92506040850135915060608501356001600160401b03811115612ddc57600080fd5b612de88782880161289b565b91505092959194509250565b600080600060608486031215612e0957600080fd5b8335925060208401356001600160401b0380821115612e2757600080fd5b612e3387838801612bb4565b93506040860135915080821115612e4957600080fd5b50612e568682870161289b565b9150509250925092565b60008060008060808587031215612e7657600080fd5b612e7f856127ab565b935060208501356001600160401b0380821115612e9b57600080fd5b612ea78883890161289b565b94506040870135915080821115612ebd57600080fd5b612ec988838901612c5b565b93506060870135915080821115612edf57600080fd5b50612de88782880161289b565b602081526000611abf60208301846129cc565b60008060408385031215612f1257600080fd5b612f1b836127ab565b9150612b0d602084016127ab565b60008060408385031215612f3c57600080fd5b8235915060208301356001600160401b03811115612f5957600080fd5b61294d85828601612c5b565b600181811c90821680612f7957607f821691505b602082108103612f9957634e487b7160e01b600052602260045260246000fd5b50919050565b601f8211156107be576000816000526020600020601f850160051c81016020861015612fc85750805b601f850160051c820191505b81811015612fe757828155600101612fd4565b505050505050565b81516001600160401b038111156130085761300861282d565b61301c816130168454612f65565b84612f9f565b602080601f83116001811461305157600084156130395750858301515b600019600386901b1c1916600185901b178555612fe7565b600085815260208120601f198616915b8281101561308057888601518255948401946001909101908401613061565b508582101561309e5787850151600019600388901b60f8161c191681555b5050505050600190811b01905550565b600082516130c0818460208701612748565b9190910192915050565b808201808211156105a057634e487b7160e01b600052601160045260246000fd5b600083516130fd818460208801612748565b835190830190613111818360208801612748565b01949350505050565b600080835461312881612f65565b60018281168015613140576001811461315557613184565b60ff1984168752821515830287019450613184565b8760005260208060002060005b8581101561317b5781548a820152908401908201613162565b50505082870194505b50929695505050505050565b6000602082840312156131a257600080fd5b5051919050565b6001600160a01b03858116825284166020820152604081018390526080606082018190526000906131dc9083018461276c565b9695505050505050565b6000602082840312156131f857600080fd5b8151611abf8161271556fe80bb2b638cc20bc4d0a60d66940f3ab4a00c1d7b313497ca82fb0b4ab0079300360894a13ba1a3210667c828492db98dca3e2076cc3735a920a3ca505d382bbca264697066735822122053695e4502fcbd64fe86299024803deedde3fc79c6a82e75c7fb846ea86aebd664736f6c63430008180033","opcodes":"PUSH1 0xA0 PUSH1 0x40 MSTORE ADDRESS PUSH1 0x80 MSTORE CALLVALUE DUP1 ISZERO PUSH2 0x14 JUMPI PUSH1 0x0 DUP1 REVERT JUMPDEST POP PUSH1 0x80 MLOAD PUSH2 0x3279 PUSH2 0x3E PUSH1 0x0 CODECOPY PUSH1 0x0 DUP2 DUP2 PUSH2 0x1B03 ADD MSTORE DUP2 DUP2 PUSH2 0x1B2C ADD MSTORE PUSH2 0x1C6D ADD MSTORE PUSH2 0x3279 PUSH1 0x0 RETURN INVALID PUSH1 0x80 PUSH1 0x40 MSTORE PUSH1 0x4 CALLDATASIZE LT PUSH2 0x1A2 JUMPI PUSH1 0x0 CALLDATALOAD PUSH1 0xE0 SHR DUP1 PUSH4 0x8B5C9283 GT PUSH2 0xE0 JUMPI DUP1 PUSH4 0xC167291E GT PUSH2 0x84 JUMPI DUP1 PUSH4 0xCB4B9E2C GT PUSH2 0x61 JUMPI DUP1 PUSH4 0xCB4B9E2C EQ PUSH2 0x4D1 JUMPI DUP1 PUSH4 0xE985E9C5 EQ PUSH2 0x4FE JUMPI DUP1 PUSH4 0xEF2A9A05 EQ PUSH2 0x51E JUMPI DUP1 PUSH4 0xF2FDE38B EQ PUSH2 0x53E JUMPI STOP JUMPDEST DUP1 PUSH4 0xC167291E EQ PUSH2 0x471 JUMPI DUP1 PUSH4 0xC80E329B EQ PUSH2 0x491 JUMPI DUP1 PUSH4 0xC87B56DD EQ PUSH2 0x4B1 JUMPI STOP JUMPDEST DUP1 PUSH4 0xA22CB465 GT PUSH2 0xBD JUMPI DUP1 PUSH4 0xA22CB465 EQ PUSH2 0x3E0 JUMPI DUP1 PUSH4 0xAADB3F43 EQ PUSH2 0x400 JUMPI DUP1 PUSH4 0xAD3CB1CC EQ PUSH2 0x420 JUMPI DUP1 PUSH4 0xB88D4FDE EQ PUSH2 0x451 JUMPI STOP JUMPDEST DUP1 PUSH4 0x8B5C9283 EQ PUSH2 0x387 JUMPI DUP1 PUSH4 0x8DA5CB5B EQ PUSH2 0x3B6 JUMPI DUP1 PUSH4 0x95D89B41 EQ PUSH2 0x3CB JUMPI STOP JUMPDEST DUP1 PUSH4 0x42842E0E GT PUSH2 0x147 JUMPI DUP1 PUSH4 0x6352211E GT PUSH2 0x124 JUMPI DUP1 PUSH4 0x6352211E EQ PUSH2 0x305 JUMPI DUP1 PUSH4 0x70A08231 EQ PUSH2 0x325 JUMPI DUP1 PUSH4 0x715018A6 EQ PUSH2 0x345 JUMPI DUP1 PUSH4 0x741AA2BD EQ PUSH2 0x35A JUMPI STOP JUMPDEST DUP1 PUSH4 0x42842E0E EQ PUSH2 0x2AF JUMPI DUP1 PUSH4 0x4F1EF286 EQ PUSH2 0x2CF JUMPI DUP1 PUSH4 0x52D1902D EQ PUSH2 0x2E2 JUMPI STOP JUMPDEST DUP1 PUSH4 0x81812FC GT PUSH2 0x180 JUMPI DUP1 PUSH4 0x81812FC EQ PUSH2 0x222 JUMPI DUP1 PUSH4 0x95EA7B3 EQ PUSH2 0x25A JUMPI DUP1 PUSH4 0x23B872DD EQ PUSH2 0x27A JUMPI DUP1 PUSH4 0x3CCFD60B EQ PUSH2 0x29A JUMPI STOP JUMPDEST DUP1 PUSH3 0x923F9E EQ PUSH2 0x1AB JUMPI DUP1 PUSH4 0x1FFC9A7 EQ PUSH2 0x1E0 JUMPI DUP1 PUSH4 0x6FDDE03 EQ PUSH2 0x200 JUMPI STOP JUMPDEST CALLDATASIZE PUSH2 0x1A9 JUMPI STOP JUMPDEST STOP JUMPDEST CALLVALUE DUP1 ISZERO PUSH2 0x1B7 JUMPI PUSH1 0x0 DUP1 REVERT JUMPDEST POP PUSH2 0x1CB PUSH2 0x1C6 CALLDATASIZE PUSH1 0x4 PUSH2 0x26FC JUMP JUMPDEST PUSH2 0x55E JUMP JUMPDEST PUSH1 0x40 MLOAD SWAP1 ISZERO ISZERO DUP2 MSTORE PUSH1 0x20 ADD JUMPDEST PUSH1 0x40 MLOAD DUP1 SWAP2 SUB SWAP1 RETURN JUMPDEST CALLVALUE DUP1 ISZERO PUSH2 0x1EC JUMPI PUSH1 0x0 DUP1 REVERT JUMPDEST POP PUSH2 0x1CB PUSH2 0x1FB CALLDATASIZE PUSH1 0x4 PUSH2 0x272B JUMP JUMPDEST PUSH2 0x57B JUMP JUMPDEST CALLVALUE DUP1 ISZERO PUSH2 0x20C JUMPI PUSH1 0x0 DUP1 REVERT JUMPDEST POP PUSH2 0x215 PUSH2 0x5A6 JUMP JUMPDEST PUSH1 0x40 MLOAD PUSH2 0x1D7 SWAP2 SWAP1 PUSH2 0x2798 JUMP JUMPDEST CALLVALUE DUP1 ISZERO PUSH2 0x22E JUMPI PUSH1 0x0 DUP1 REVERT JUMPDEST POP PUSH2 0x242 PUSH2 0x23D CALLDATASIZE PUSH1 0x4 PUSH2 0x26FC JUMP JUMPDEST PUSH2 0x64A JUMP JUMPDEST PUSH1 0x40 MLOAD PUSH1 0x1 PUSH1 0x1 PUSH1 0xA0 SHL SUB SWAP1 SWAP2 AND DUP2 MSTORE PUSH1 0x20 ADD PUSH2 0x1D7 JUMP JUMPDEST CALLVALUE DUP1 ISZERO PUSH2 0x266 JUMPI PUSH1 0x0 DUP1 REVERT JUMPDEST POP PUSH2 0x1A9 PUSH2 0x275 CALLDATASIZE PUSH1 0x4 PUSH2 0x27C7 JUMP JUMPDEST PUSH2 0x65F JUMP JUMPDEST CALLVALUE DUP1 ISZERO PUSH2 0x286 JUMPI PUSH1 0x0 DUP1 REVERT JUMPDEST POP PUSH2 0x1A9 PUSH2 0x295 CALLDATASIZE PUSH1 0x4 PUSH2 0x27F1 JUMP JUMPDEST PUSH2 0x66E JUMP JUMPDEST CALLVALUE DUP1 ISZERO PUSH2 0x2A6 JUMPI PUSH1 0x0 DUP1 REVERT JUMPDEST POP PUSH2 0x1A9 PUSH2 0x6FE JUMP JUMPDEST CALLVALUE DUP1 ISZERO PUSH2 0x2BB JUMPI PUSH1 0x0 DUP1 REVERT JUMPDEST POP PUSH2 0x1A9 PUSH2 0x2CA CALLDATASIZE PUSH1 0x4 PUSH2 0x27F1 JUMP JUMPDEST PUSH2 0x7A3 JUMP JUMPDEST PUSH2 0x1A9 PUSH2 0x2DD CALLDATASIZE PUSH1 0x4 PUSH2 0x290A JUMP JUMPDEST PUSH2 0x7C3 JUMP JUMPDEST CALLVALUE DUP1 ISZERO PUSH2 0x2EE JUMPI PUSH1 0x0 DUP1 REVERT JUMPDEST POP PUSH2 0x2F7 PUSH2 0x7DE JUMP JUMPDEST PUSH1 0x40 MLOAD SWAP1 DUP2 MSTORE PUSH1 0x20 ADD PUSH2 0x1D7 JUMP JUMPDEST CALLVALUE DUP1 ISZERO PUSH2 0x311 JUMPI PUSH1 0x0 DUP1 REVERT JUMPDEST POP PUSH2 0x242 PUSH2 0x320 CALLDATASIZE PUSH1 0x4 PUSH2 0x26FC JUMP JUMPDEST PUSH2 0x7FB JUMP JUMPDEST CALLVALUE DUP1 ISZERO PUSH2 0x331 JUMPI PUSH1 0x0 DUP1 REVERT JUMPDEST POP PUSH2 0x2F7 PUSH2 0x340 CALLDATASIZE PUSH1 0x4 PUSH2 0x2957 JUMP JUMPDEST PUSH2 0x806 JUMP JUMPDEST CALLVALUE DUP1 ISZERO PUSH2 0x351 JUMPI PUSH1 0x0 DUP1 REVERT JUMPDEST POP PUSH2 0x1A9 PUSH2 0x862 JUMP JUMPDEST CALLVALUE DUP1 ISZERO PUSH2 0x366 JUMPI PUSH1 0x0 DUP1 REVERT JUMPDEST POP PUSH2 0x37A PUSH2 0x375 CALLDATASIZE PUSH1 0x4 PUSH2 0x26FC JUMP JUMPDEST PUSH2 0x876 JUMP JUMPDEST PUSH1 0x40 MLOAD PUSH2 0x1D7 SWAP2 SWAP1 PUSH2 0x2A35 JUMP JUMPDEST CALLVALUE DUP1 ISZERO PUSH2 0x393 JUMPI PUSH1 0x0 DUP1 REVERT JUMPDEST POP PUSH2 0x3A7 PUSH2 0x3A2 CALLDATASIZE PUSH1 0x4 PUSH2 0x2A7A JUMP JUMPDEST PUSH2 0xC4D JUMP JUMPDEST PUSH1 0x40 MLOAD PUSH2 0x1D7 SWAP4 SWAP3 SWAP2 SWAP1 PUSH2 0x2AAE JUMP JUMPDEST CALLVALUE DUP1 ISZERO PUSH2 0x3C2 JUMPI PUSH1 0x0 DUP1 REVERT JUMPDEST POP PUSH2 0x242 PUSH2 0xD02 JUMP JUMPDEST CALLVALUE DUP1 ISZERO PUSH2 0x3D7 JUMPI PUSH1 0x0 DUP1 REVERT JUMPDEST POP PUSH2 0x215 PUSH2 0xD30 JUMP JUMPDEST CALLVALUE DUP1 ISZERO PUSH2 0x3EC JUMPI PUSH1 0x0 DUP1 REVERT JUMPDEST POP PUSH2 0x1A9 PUSH2 0x3FB CALLDATASIZE PUSH1 0x4 PUSH2 0x2AE3 JUMP JUMPDEST PUSH2 0xD6F JUMP JUMPDEST CALLVALUE DUP1 ISZERO PUSH2 0x40C JUMPI PUSH1 0x0 DUP1 REVERT JUMPDEST POP PUSH2 0x1A9 PUSH2 0x41B CALLDATASIZE PUSH1 0x4 PUSH2 0x2CF5 JUMP JUMPDEST PUSH2 0xD7A JUMP JUMPDEST CALLVALUE DUP1 ISZERO PUSH2 0x42C JUMPI PUSH1 0x0 DUP1 REVERT JUMPDEST POP PUSH2 0x215 PUSH1 0x40 MLOAD DUP1 PUSH1 0x40 ADD PUSH1 0x40 MSTORE DUP1 PUSH1 0x5 DUP2 MSTORE PUSH1 0x20 ADD PUSH5 0x352E302E3 PUSH1 0xDC SHL DUP2 MSTORE POP DUP2 JUMP JUMPDEST CALLVALUE DUP1 ISZERO PUSH2 0x45D JUMPI PUSH1 0x0 DUP1 REVERT JUMPDEST POP PUSH2 0x1A9 PUSH2 0x46C CALLDATASIZE PUSH1 0x4 PUSH2 0x2D8D JUMP JUMPDEST PUSH2 0xFBC JUMP JUMPDEST CALLVALUE DUP1 ISZERO PUSH2 0x47D JUMPI PUSH1 0x0 DUP1 REVERT JUMPDEST POP PUSH2 0x1A9 PUSH2 0x48C CALLDATASIZE PUSH1 0x4 PUSH2 0x2DF4 JUMP JUMPDEST PUSH2 0xFD3 JUMP JUMPDEST CALLVALUE DUP1 ISZERO PUSH2 0x49D JUMPI PUSH1 0x0 DUP1 REVERT JUMPDEST POP PUSH2 0x2F7 PUSH2 0x4AC CALLDATASIZE PUSH1 0x4 PUSH2 0x2E60 JUMP JUMPDEST PUSH2 0x10FA JUMP JUMPDEST CALLVALUE DUP1 ISZERO PUSH2 0x4BD JUMPI PUSH1 0x0 DUP1 REVERT JUMPDEST POP PUSH2 0x215 PUSH2 0x4CC CALLDATASIZE PUSH1 0x4 PUSH2 0x26FC JUMP JUMPDEST PUSH2 0x12BB JUMP JUMPDEST CALLVALUE DUP1 ISZERO PUSH2 0x4DD JUMPI PUSH1 0x0 DUP1 REVERT JUMPDEST POP PUSH2 0x4F1 PUSH2 0x4EC CALLDATASIZE PUSH1 0x4 PUSH2 0x26FC JUMP JUMPDEST PUSH2 0x13F0 JUMP JUMPDEST PUSH1 0x40 MLOAD PUSH2 0x1D7 SWAP2 SWAP1 PUSH2 0x2EEC JUMP JUMPDEST CALLVALUE DUP1 ISZERO PUSH2 0x50A JUMPI PUSH1 0x0 DUP1 REVERT JUMPDEST POP PUSH2 0x1CB PUSH2 0x519 CALLDATASIZE PUSH1 0x4 PUSH2 0x2EFF JUMP JUMPDEST PUSH2 0x171A JUMP JUMPDEST CALLVALUE DUP1 ISZERO PUSH2 0x52A JUMPI PUSH1 0x0 DUP1 REVERT JUMPDEST POP PUSH2 0x1A9 PUSH2 0x539 CALLDATASIZE PUSH1 0x4 PUSH2 0x2F29 JUMP JUMPDEST PUSH2 0x1767 JUMP JUMPDEST CALLVALUE DUP1 ISZERO PUSH2 0x54A JUMPI PUSH1 0x0 DUP1 REVERT JUMPDEST POP PUSH2 0x1A9 PUSH2 0x559 CALLDATASIZE PUSH1 0x4 PUSH2 0x2957 JUMP JUMPDEST PUSH2 0x18AD JUMP JUMPDEST PUSH1 0x0 DUP1 PUSH2 0x56A DUP4 PUSH2 0x7FB JUMP JUMPDEST PUSH1 0x1 PUSH1 0x1 PUSH1 0xA0 SHL SUB AND EQ ISZERO SWAP3 SWAP2 POP POP JUMP JUMPDEST PUSH1 0x0 PUSH1 0x1 PUSH1 0x1 PUSH1 0xE0 SHL SUB NOT DUP3 AND PUSH4 0x24832483 PUSH1 0xE1 SHL EQ DUP1 PUSH2 0x5A0 JUMPI POP PUSH2 0x5A0 DUP3 PUSH2 0x18EB JUMP JUMPDEST SWAP3 SWAP2 POP POP JUMP JUMPDEST PUSH1 0x0 DUP1 MLOAD PUSH1 0x20 PUSH2 0x3204 DUP4 CODECOPY DUP2 MLOAD SWAP2 MSTORE DUP1 SLOAD PUSH1 0x60 SWAP2 SWAP1 DUP2 SWAP1 PUSH2 0x5C6 SWAP1 PUSH2 0x2F65 JUMP JUMPDEST DUP1 PUSH1 0x1F ADD PUSH1 0x20 DUP1 SWAP2 DIV MUL PUSH1 0x20 ADD PUSH1 0x40 MLOAD SWAP1 DUP2 ADD PUSH1 0x40 MSTORE DUP1 SWAP3 SWAP2 SWAP1 DUP2 DUP2 MSTORE PUSH1 0x20 ADD DUP3 DUP1 SLOAD PUSH2 0x5F2 SWAP1 PUSH2 0x2F65 JUMP JUMPDEST DUP1 ISZERO PUSH2 0x63F JUMPI DUP1 PUSH1 0x1F LT PUSH2 0x614 JUMPI PUSH2 0x100 DUP1 DUP4 SLOAD DIV MUL DUP4 MSTORE SWAP2 PUSH1 0x20 ADD SWAP2 PUSH2 0x63F JUMP JUMPDEST DUP3 ADD SWAP2 SWAP1 PUSH1 0x0 MSTORE PUSH1 0x20 PUSH1 0x0 KECCAK256 SWAP1 JUMPDEST DUP2 SLOAD DUP2 MSTORE SWAP1 PUSH1 0x1 ADD SWAP1 PUSH1 0x20 ADD DUP1 DUP4 GT PUSH2 0x622 JUMPI DUP3 SWAP1 SUB PUSH1 0x1F AND DUP3 ADD SWAP2 JUMPDEST POP POP POP POP POP SWAP2 POP POP SWAP1 JUMP JUMPDEST PUSH1 0x0 PUSH2 0x655 DUP3 PUSH2 0x193B JUMP JUMPDEST POP PUSH2 0x5A0 DUP3 PUSH2 0x1973 JUMP JUMPDEST PUSH2 0x66A DUP3 DUP3 CALLER PUSH2 0x19AD JUMP JUMPDEST POP POP JUMP JUMPDEST PUSH1 0x1 PUSH1 0x1 PUSH1 0xA0 SHL SUB DUP3 AND PUSH2 0x69D JUMPI PUSH1 0x40 MLOAD PUSH4 0x32505749 PUSH1 0xE1 SHL DUP2 MSTORE PUSH1 0x0 PUSH1 0x4 DUP3 ADD MSTORE PUSH1 0x24 ADD JUMPDEST PUSH1 0x40 MLOAD DUP1 SWAP2 SUB SWAP1 REVERT JUMPDEST PUSH1 0x0 PUSH2 0x6AA DUP4 DUP4 CALLER PUSH2 0x19BA JUMP JUMPDEST SWAP1 POP DUP4 PUSH1 0x1 PUSH1 0x1 PUSH1 0xA0 SHL SUB AND DUP2 PUSH1 0x1 PUSH1 0x1 PUSH1 0xA0 SHL SUB AND EQ PUSH2 0x6F8 JUMPI PUSH1 0x40 MLOAD PUSH4 0x64283D7B PUSH1 0xE0 SHL DUP2 MSTORE PUSH1 0x1 PUSH1 0x1 PUSH1 0xA0 SHL SUB DUP1 DUP7 AND PUSH1 0x4 DUP4 ADD MSTORE PUSH1 0x24 DUP3 ADD DUP5 SWAP1 MSTORE DUP3 AND PUSH1 0x44 DUP3 ADD MSTORE PUSH1 0x64 ADD PUSH2 0x694 JUMP JUMPDEST POP POP POP POP JUMP JUMPDEST PUSH2 0x706 PUSH2 0x1AC6 JUMP JUMPDEST SELFBALANCE DUP1 PUSH2 0x763 JUMPI PUSH1 0x40 MLOAD PUSH3 0x461BCD PUSH1 0xE5 SHL DUP2 MSTORE PUSH1 0x20 PUSH1 0x4 DUP3 ADD MSTORE PUSH1 0x26 PUSH1 0x24 DUP3 ADD MSTORE PUSH32 0x4E46413A204E6F2066756E647320617661696C61626C6520666F722077697468 PUSH1 0x44 DUP3 ADD MSTORE PUSH6 0x191C985DD85B PUSH1 0xD2 SHL PUSH1 0x64 DUP3 ADD MSTORE PUSH1 0x84 ADD PUSH2 0x694 JUMP JUMPDEST PUSH2 0x76B PUSH2 0xD02 JUMP JUMPDEST PUSH1 0x1 PUSH1 0x1 PUSH1 0xA0 SHL SUB AND PUSH2 0x8FC DUP3 SWAP1 DUP2 ISZERO MUL SWAP1 PUSH1 0x40 MLOAD PUSH1 0x0 PUSH1 0x40 MLOAD DUP1 DUP4 SUB DUP2 DUP6 DUP9 DUP9 CALL SWAP4 POP POP POP POP ISZERO DUP1 ISZERO PUSH2 0x66A JUMPI RETURNDATASIZE PUSH1 0x0 DUP1 RETURNDATACOPY RETURNDATASIZE PUSH1 0x0 REVERT JUMPDEST PUSH2 0x7BE DUP4 DUP4 DUP4 PUSH1 0x40 MLOAD DUP1 PUSH1 0x20 ADD PUSH1 0x40 MSTORE DUP1 PUSH1 0x0 DUP2 MSTORE POP PUSH2 0xFBC JUMP JUMPDEST POP POP POP JUMP JUMPDEST PUSH2 0x7CB PUSH2 0x1AF8 JUMP JUMPDEST PUSH2 0x7D4 DUP3 PUSH2 0x1B9D JUMP JUMPDEST PUSH2 0x66A DUP3 DUP3 PUSH2 0x1BA5 JUMP JUMPDEST PUSH1 0x0 PUSH2 0x7E8 PUSH2 0x1C62 JUMP JUMPDEST POP PUSH1 0x0 DUP1 MLOAD PUSH1 0x20 PUSH2 0x3224 DUP4 CODECOPY DUP2 MLOAD SWAP2 MSTORE SWAP1 JUMP JUMPDEST PUSH1 0x0 PUSH2 0x5A0 DUP3 PUSH2 0x193B JUMP JUMPDEST PUSH1 0x0 PUSH1 0x0 DUP1 MLOAD PUSH1 0x20 PUSH2 0x3204 DUP4 CODECOPY DUP2 MLOAD SWAP2 MSTORE PUSH1 0x1 PUSH1 0x1 PUSH1 0xA0 SHL SUB DUP4 AND PUSH2 0x841 JUMPI PUSH1 0x40 MLOAD PUSH4 0x22718AD9 PUSH1 0xE2 SHL DUP2 MSTORE PUSH1 0x0 PUSH1 0x4 DUP3 ADD MSTORE PUSH1 0x24 ADD PUSH2 0x694 JUMP JUMPDEST PUSH1 0x1 PUSH1 0x1 PUSH1 0xA0 SHL SUB SWAP1 SWAP3 AND PUSH1 0x0 SWAP1 DUP2 MSTORE PUSH1 0x3 SWAP1 SWAP3 ADD PUSH1 0x20 MSTORE POP PUSH1 0x40 SWAP1 KECCAK256 SLOAD SWAP1 JUMP JUMPDEST PUSH2 0x86A PUSH2 0x1AC6 JUMP JUMPDEST PUSH2 0x874 PUSH1 0x0 PUSH2 0x1CAB JUMP JUMPDEST JUMP JUMPDEST PUSH2 0x8BC PUSH1 0x40 DUP1 MLOAD PUSH1 0x60 DUP1 DUP3 ADD DUP4 MSTORE PUSH1 0x0 DUP1 DUP4 MSTORE PUSH1 0x20 DUP1 DUP5 ADD DUP4 SWAP1 MSTORE DUP5 MLOAD PUSH1 0xA0 DUP2 ADD DUP7 MSTORE DUP4 DUP2 MSTORE SWAP1 DUP2 ADD DUP4 SWAP1 MSTORE DUP1 DUP6 ADD DUP3 SWAP1 MSTORE DUP1 DUP4 ADD SWAP3 SWAP1 SWAP3 MSTORE PUSH1 0x80 DUP3 ADD MSTORE SWAP1 SWAP2 DUP3 ADD MSTORE SWAP1 JUMP JUMPDEST PUSH2 0x8C5 DUP3 PUSH2 0x55E JUMP JUMPDEST PUSH2 0x922 JUMPI PUSH1 0x40 MLOAD PUSH3 0x461BCD PUSH1 0xE5 SHL DUP2 MSTORE PUSH1 0x20 PUSH1 0x4 DUP3 ADD MSTORE PUSH1 0x28 PUSH1 0x24 DUP3 ADD MSTORE PUSH32 0x4E46413A20417070496E666F20717565727920666F72206E6F6E657869737465 PUSH1 0x44 DUP3 ADD MSTORE PUSH8 0x373A103A37B5B2B7 PUSH1 0xC1 SHL PUSH1 0x64 DUP3 ADD MSTORE PUSH1 0x84 ADD PUSH2 0x694 JUMP JUMPDEST PUSH1 0x0 DUP3 DUP2 MSTORE PUSH1 0x1 PUSH1 0x20 DUP2 DUP2 MSTORE PUSH1 0x40 SWAP3 DUP4 SWAP1 KECCAK256 DUP4 MLOAD PUSH1 0x60 DUP2 ADD SWAP1 SWAP5 MSTORE DUP1 SLOAD PUSH1 0xFF AND ISZERO ISZERO DUP5 MSTORE SWAP2 DUP3 ADD DUP1 SLOAD SWAP2 DUP5 ADD SWAP2 PUSH2 0x958 SWAP1 PUSH2 0x2F65 JUMP JUMPDEST DUP1 PUSH1 0x1F ADD PUSH1 0x20 DUP1 SWAP2 DIV MUL PUSH1 0x20 ADD PUSH1 0x40 MLOAD SWAP1 DUP2 ADD PUSH1 0x40 MSTORE DUP1 SWAP3 SWAP2 SWAP1 DUP2 DUP2 MSTORE PUSH1 0x20 ADD DUP3 DUP1 SLOAD PUSH2 0x984 SWAP1 PUSH2 0x2F65 JUMP JUMPDEST DUP1 ISZERO PUSH2 0x9D1 JUMPI DUP1 PUSH1 0x1F LT PUSH2 0x9A6 JUMPI PUSH2 0x100 DUP1 DUP4 SLOAD DIV MUL DUP4 MSTORE SWAP2 PUSH1 0x20 ADD SWAP2 PUSH2 0x9D1 JUMP JUMPDEST DUP3 ADD SWAP2 SWAP1 PUSH1 0x0 MSTORE PUSH1 0x20 PUSH1 0x0 KECCAK256 SWAP1 JUMPDEST DUP2 SLOAD DUP2 MSTORE SWAP1 PUSH1 0x1 ADD SWAP1 PUSH1 0x20 ADD DUP1 DUP4 GT PUSH2 0x9B4 JUMPI DUP3 SWAP1 SUB PUSH1 0x1F AND DUP3 ADD SWAP2 JUMPDEST POP POP POP POP POP DUP2 MSTORE PUSH1 0x20 ADD PUSH1 0x2 DUP3 ADD PUSH1 0x40 MLOAD DUP1 PUSH1 0xA0 ADD PUSH1 0x40 MSTORE SWAP1 DUP2 PUSH1 0x0 DUP3 ADD DUP1 SLOAD PUSH2 0x9FA SWAP1 PUSH2 0x2F65 JUMP JUMPDEST DUP1 PUSH1 0x1F ADD PUSH1 0x20 DUP1 SWAP2 DIV MUL PUSH1 0x20 ADD PUSH1 0x40 MLOAD SWAP1 DUP2 ADD PUSH1 0x40 MSTORE DUP1 SWAP3 SWAP2 SWAP1 DUP2 DUP2 MSTORE PUSH1 0x20 ADD DUP3 DUP1 SLOAD PUSH2 0xA26 SWAP1 PUSH2 0x2F65 JUMP JUMPDEST DUP1 ISZERO PUSH2 0xA73 JUMPI DUP1 PUSH1 0x1F LT PUSH2 0xA48 JUMPI PUSH2 0x100 DUP1 DUP4 SLOAD DIV MUL DUP4 MSTORE SWAP2 PUSH1 0x20 ADD SWAP2 PUSH2 0xA73 JUMP JUMPDEST DUP3 ADD SWAP2 SWAP1 PUSH1 0x0 MSTORE PUSH1 0x20 PUSH1 0x0 KECCAK256 SWAP1 JUMPDEST DUP2 SLOAD DUP2 MSTORE SWAP1 PUSH1 0x1 ADD SWAP1 PUSH1 0x20 ADD DUP1 DUP4 GT PUSH2 0xA56 JUMPI DUP3 SWAP1 SUB PUSH1 0x1F AND DUP3 ADD SWAP2 JUMPDEST POP POP POP POP POP DUP2 MSTORE PUSH1 0x20 ADD PUSH1 0x1 DUP3 ADD DUP1 SLOAD DUP1 PUSH1 0x20 MUL PUSH1 0x20 ADD PUSH1 0x40 MLOAD SWAP1 DUP2 ADD PUSH1 0x40 MSTORE DUP1 SWAP3 SWAP2 SWAP1 DUP2 DUP2 MSTORE PUSH1 0x20 ADD PUSH1 0x0 SWAP1 JUMPDEST DUP3 DUP3 LT ISZERO PUSH2 0xB4D JUMPI DUP4 DUP3 SWAP1 PUSH1 0x0 MSTORE PUSH1 0x20 PUSH1 0x0 KECCAK256 ADD DUP1 SLOAD PUSH2 0xAC0 SWAP1 PUSH2 0x2F65 JUMP JUMPDEST DUP1 PUSH1 0x1F ADD PUSH1 0x20 DUP1 SWAP2 DIV MUL PUSH1 0x20 ADD PUSH1 0x40 MLOAD SWAP1 DUP2 ADD PUSH1 0x40 MSTORE DUP1 SWAP3 SWAP2 SWAP1 DUP2 DUP2 MSTORE PUSH1 0x20 ADD DUP3 DUP1 SLOAD PUSH2 0xAEC SWAP1 PUSH2 0x2F65 JUMP JUMPDEST DUP1 ISZERO PUSH2 0xB39 JUMPI DUP1 PUSH1 0x1F LT PUSH2 0xB0E JUMPI PUSH2 0x100 DUP1 DUP4 SLOAD DIV MUL DUP4 MSTORE SWAP2 PUSH1 0x20 ADD SWAP2 PUSH2 0xB39 JUMP JUMPDEST DUP3 ADD SWAP2 SWAP1 PUSH1 0x0 MSTORE PUSH1 0x20 PUSH1 0x0 KECCAK256 SWAP1 JUMPDEST DUP2 SLOAD DUP2 MSTORE SWAP1 PUSH1 0x1 ADD SWAP1 PUSH1 0x20 ADD DUP1 DUP4 GT PUSH2 0xB1C JUMPI DUP3 SWAP1 SUB PUSH1 0x1F AND DUP3 ADD SWAP2 JUMPDEST POP POP POP POP POP DUP2 MSTORE PUSH1 0x20 ADD SWAP1 PUSH1 0x1 ADD SWAP1 PUSH2 0xAA1 JUMP JUMPDEST POP POP POP POP DUP2 MSTORE PUSH1 0x20 ADD PUSH1 0x2 DUP3 ADD SLOAD DUP2 MSTORE PUSH1 0x20 ADD PUSH1 0x3 DUP3 ADD DUP1 SLOAD DUP1 PUSH1 0x20 MUL PUSH1 0x20 ADD PUSH1 0x40 MLOAD SWAP1 DUP2 ADD PUSH1 0x40 MSTORE DUP1 SWAP3 SWAP2 SWAP1 DUP2 DUP2 MSTORE PUSH1 0x20 ADD PUSH1 0x0 SWAP1 JUMPDEST DUP3 DUP3 LT ISZERO PUSH2 0xC30 JUMPI DUP4 DUP3 SWAP1 PUSH1 0x0 MSTORE PUSH1 0x20 PUSH1 0x0 KECCAK256 ADD DUP1 SLOAD PUSH2 0xBA3 SWAP1 PUSH2 0x2F65 JUMP JUMPDEST DUP1 PUSH1 0x1F ADD PUSH1 0x20 DUP1 SWAP2 DIV MUL PUSH1 0x20 ADD PUSH1 0x40 MLOAD SWAP1 DUP2 ADD PUSH1 0x40 MSTORE DUP1 SWAP3 SWAP2 SWAP1 DUP2 DUP2 MSTORE PUSH1 0x20 ADD DUP3 DUP1 SLOAD PUSH2 0xBCF SWAP1 PUSH2 0x2F65 JUMP JUMPDEST DUP1 ISZERO PUSH2 0xC1C JUMPI DUP1 PUSH1 0x1F LT PUSH2 0xBF1 JUMPI PUSH2 0x100 DUP1 DUP4 SLOAD DIV MUL DUP4 MSTORE SWAP2 PUSH1 0x20 ADD SWAP2 PUSH2 0xC1C JUMP JUMPDEST DUP3 ADD SWAP2 SWAP1 PUSH1 0x0 MSTORE PUSH1 0x20 PUSH1 0x0 KECCAK256 SWAP1 JUMPDEST DUP2 SLOAD DUP2 MSTORE SWAP1 PUSH1 0x1 ADD SWAP1 PUSH1 0x20 ADD DUP1 DUP4 GT PUSH2 0xBFF JUMPI DUP3 SWAP1 SUB PUSH1 0x1F AND DUP3 ADD SWAP2 JUMPDEST POP POP POP POP POP DUP2 MSTORE PUSH1 0x20 ADD SWAP1 PUSH1 0x1 ADD SWAP1 PUSH2 0xB84 JUMP JUMPDEST POP POP POP POP DUP2 MSTORE PUSH1 0x20 ADD PUSH1 0x4 DUP3 ADD SLOAD DUP2 MSTORE POP POP DUP2 MSTORE POP POP SWAP1 POP SWAP2 SWAP1 POP JUMP JUMPDEST DUP1 MLOAD PUSH1 0x20 DUP2 DUP4 ADD DUP2 ADD DUP1 MLOAD PUSH1 0x2 DUP3 MSTORE SWAP3 DUP3 ADD SWAP2 SWAP1 SWAP4 ADD KECCAK256 SWAP2 MSTORE DUP1 SLOAD DUP2 SWAP1 PUSH2 0xC73 SWAP1 PUSH2 0x2F65 JUMP JUMPDEST DUP1 PUSH1 0x1F ADD PUSH1 0x20 DUP1 SWAP2 DIV MUL PUSH1 0x20 ADD PUSH1 0x40 MLOAD SWAP1 DUP2 ADD PUSH1 0x40 MSTORE DUP1 SWAP3 SWAP2 SWAP1 DUP2 DUP2 MSTORE PUSH1 0x20 ADD DUP3 DUP1 SLOAD PUSH2 0xC9F SWAP1 PUSH2 0x2F65 JUMP JUMPDEST DUP1 ISZERO PUSH2 0xCEC JUMPI DUP1 PUSH1 0x1F LT PUSH2 0xCC1 JUMPI PUSH2 0x100 DUP1 DUP4 SLOAD DIV MUL DUP4 MSTORE SWAP2 PUSH1 0x20 ADD SWAP2 PUSH2 0xCEC JUMP JUMPDEST DUP3 ADD SWAP2 SWAP1 PUSH1 0x0 MSTORE PUSH1 0x20 PUSH1 0x0 KECCAK256 SWAP1 JUMPDEST DUP2 SLOAD DUP2 MSTORE SWAP1 PUSH1 0x1 ADD SWAP1 PUSH1 0x20 ADD DUP1 DUP4 GT PUSH2 0xCCF JUMPI DUP3 SWAP1 SUB PUSH1 0x1F AND DUP3 ADD SWAP2 JUMPDEST POP POP POP POP POP SWAP1 DUP1 PUSH1 0x2 ADD SLOAD SWAP1 DUP1 PUSH1 0x4 ADD SLOAD SWAP1 POP DUP4 JUMP JUMPDEST PUSH32 0x9016D09D72D40FDAE2FD8CEAC6B6234C7706214FD39C1CD1E609A0528C199300 SLOAD PUSH1 0x1 PUSH1 0x1 PUSH1 0xA0 SHL SUB AND SWAP1 JUMP JUMPDEST PUSH32 0x80BB2B638CC20BC4D0A60D66940F3AB4A00C1D7B313497CA82FB0B4AB0079301 DUP1 SLOAD PUSH1 0x60 SWAP2 PUSH1 0x0 DUP1 MLOAD PUSH1 0x20 PUSH2 0x3204 DUP4 CODECOPY DUP2 MLOAD SWAP2 MSTORE SWAP2 PUSH2 0x5C6 SWAP1 PUSH2 0x2F65 JUMP JUMPDEST PUSH2 0x66A CALLER DUP4 DUP4 PUSH2 0x1D1C JUMP JUMPDEST PUSH32 0xF0C57E16840DF040F15088DC2F81FE391C3923BEC73E23A9662EFC9C229C6A00 DUP1 SLOAD PUSH1 0x1 PUSH1 0x40 SHL DUP2 DIV PUSH1 0xFF AND ISZERO SWAP1 PUSH1 0x1 PUSH1 0x1 PUSH1 0x40 SHL SUB AND PUSH1 0x0 DUP2 ISZERO DUP1 ISZERO PUSH2 0xDBF JUMPI POP DUP3 JUMPDEST SWAP1 POP PUSH1 0x0 DUP3 PUSH1 0x1 PUSH1 0x1 PUSH1 0x40 SHL SUB AND PUSH1 0x1 EQ DUP1 ISZERO PUSH2 0xDDB JUMPI POP ADDRESS EXTCODESIZE ISZERO JUMPDEST SWAP1 POP DUP2 ISZERO DUP1 ISZERO PUSH2 0xDE9 JUMPI POP DUP1 ISZERO JUMPDEST ISZERO PUSH2 0xE07 JUMPI PUSH1 0x40 MLOAD PUSH4 0xF92EE8A9 PUSH1 0xE0 SHL DUP2 MSTORE PUSH1 0x4 ADD PUSH1 0x40 MLOAD DUP1 SWAP2 SUB SWAP1 REVERT JUMPDEST DUP5 SLOAD PUSH8 0xFFFFFFFFFFFFFFFF NOT AND PUSH1 0x1 OR DUP6 SSTORE DUP4 ISZERO PUSH2 0xE31 JUMPI DUP5 SLOAD PUSH1 0xFF PUSH1 0x40 SHL NOT AND PUSH1 0x1 PUSH1 0x40 SHL OR DUP6 SSTORE JUMPDEST PUSH2 0xE3B DUP10 DUP10 PUSH2 0x1DCD JUMP JUMPDEST PUSH2 0xE43 PUSH2 0x1DDF JUMP JUMPDEST PUSH2 0xE4C DUP7 PUSH2 0x1DE7 JUMP JUMPDEST PUSH1 0x0 DUP1 SLOAD DUP2 MSTORE PUSH1 0x1 PUSH1 0x20 DUP2 DUP2 MSTORE PUSH1 0x40 SWAP1 SWAP3 KECCAK256 DUP10 MLOAD DUP2 SLOAD PUSH1 0xFF NOT AND SWAP1 ISZERO ISZERO OR DUP2 SSTORE SWAP2 DUP10 ADD MLOAD DUP10 SWAP3 SWAP2 DUP3 ADD SWAP1 PUSH2 0xE80 SWAP1 DUP3 PUSH2 0x2FEF JUMP JUMPDEST POP PUSH1 0x40 DUP3 ADD MLOAD DUP1 MLOAD PUSH1 0x2 DUP4 ADD SWAP1 DUP2 SWAP1 PUSH2 0xE99 SWAP1 DUP3 PUSH2 0x2FEF JUMP JUMPDEST POP PUSH1 0x20 DUP3 DUP2 ADD MLOAD DUP1 MLOAD PUSH2 0xEB2 SWAP3 PUSH1 0x1 DUP6 ADD SWAP3 ADD SWAP1 PUSH2 0x263F JUMP JUMPDEST POP PUSH1 0x40 DUP3 ADD MLOAD PUSH1 0x2 DUP3 ADD SSTORE PUSH1 0x60 DUP3 ADD MLOAD DUP1 MLOAD PUSH2 0xED8 SWAP2 PUSH1 0x3 DUP5 ADD SWAP2 PUSH1 0x20 SWAP1 SWAP2 ADD SWAP1 PUSH2 0x263F JUMP JUMPDEST POP PUSH1 0x80 SWAP2 SWAP1 SWAP2 ADD MLOAD PUSH1 0x4 SWAP1 SWAP2 ADD SSTORE POP POP PUSH1 0x40 DUP1 DUP9 ADD MLOAD DUP1 MLOAD SWAP2 MLOAD SWAP1 SWAP2 PUSH1 0x2 SWAP2 PUSH2 0xF01 SWAP2 SWAP1 PUSH2 0x30AE JUMP JUMPDEST SWAP1 DUP2 MSTORE PUSH1 0x40 MLOAD SWAP1 DUP2 SWAP1 SUB PUSH1 0x20 ADD SWAP1 KECCAK256 DUP2 MLOAD DUP2 SWAP1 PUSH2 0xF1E SWAP1 DUP3 PUSH2 0x2FEF JUMP JUMPDEST POP PUSH1 0x20 DUP3 DUP2 ADD MLOAD DUP1 MLOAD PUSH2 0xF37 SWAP3 PUSH1 0x1 DUP6 ADD SWAP3 ADD SWAP1 PUSH2 0x263F JUMP JUMPDEST POP PUSH1 0x40 DUP3 ADD MLOAD PUSH1 0x2 DUP3 ADD SSTORE PUSH1 0x60 DUP3 ADD MLOAD DUP1 MLOAD PUSH2 0xF5D SWAP2 PUSH1 0x3 DUP5 ADD SWAP2 PUSH1 0x20 SWAP1 SWAP2 ADD SWAP1 PUSH2 0x263F JUMP JUMPDEST POP PUSH1 0x80 DUP3 ADD MLOAD DUP2 PUSH1 0x4 ADD SSTORE SWAP1 POP POP DUP4 ISZERO PUSH2 0xFB1 JUMPI DUP5 SLOAD PUSH1 0xFF PUSH1 0x40 SHL NOT AND DUP6 SSTORE PUSH1 0x40 MLOAD PUSH1 0x1 DUP2 MSTORE PUSH32 0xC7F505B2F371AE2175EE4913F4499E1F2633A7B5936321EED1CDAEB6115181D2 SWAP1 PUSH1 0x20 ADD PUSH1 0x40 MLOAD DUP1 SWAP2 SUB SWAP1 LOG1 JUMPDEST POP POP POP POP POP POP POP POP POP JUMP JUMPDEST PUSH2 0xFC7 DUP5 DUP5 DUP5 PUSH2 0x66E JUMP JUMPDEST PUSH2 0x6F8 DUP5 DUP5 DUP5 DUP5 PUSH2 0x1DF8 JUMP JUMPDEST PUSH2 0xFDB PUSH2 0x1AC6 JUMP JUMPDEST PUSH2 0xFE4 DUP4 PUSH2 0x55E JUMP JUMPDEST PUSH2 0x1042 JUMPI PUSH1 0x40 MLOAD PUSH3 0x461BCD PUSH1 0xE5 SHL DUP2 MSTORE PUSH1 0x20 PUSH1 0x4 DUP3 ADD MSTORE PUSH1 0x29 PUSH1 0x24 DUP3 ADD MSTORE PUSH32 0x4E46413A2056657273696F6E2075706461746520666F72206E6F6E6578697374 PUSH1 0x44 DUP3 ADD MSTORE PUSH9 0x32B73A103A37B5B2B7 PUSH1 0xB9 SHL PUSH1 0x64 DUP3 ADD MSTORE PUSH1 0x84 ADD PUSH2 0x694 JUMP JUMPDEST DUP2 PUSH1 0x2 DUP3 PUSH1 0x40 MLOAD PUSH2 0x1053 SWAP2 SWAP1 PUSH2 0x30AE JUMP JUMPDEST SWAP1 DUP2 MSTORE PUSH1 0x40 MLOAD SWAP1 DUP2 SWAP1 SUB PUSH1 0x20 ADD SWAP1 KECCAK256 DUP2 MLOAD DUP2 SWAP1 PUSH2 0x1070 SWAP1 DUP3 PUSH2 0x2FEF JUMP JUMPDEST POP PUSH1 0x20 DUP3 DUP2 ADD MLOAD DUP1 MLOAD PUSH2 0x1089 SWAP3 PUSH1 0x1 DUP6 ADD SWAP3 ADD SWAP1 PUSH2 0x263F JUMP JUMPDEST POP PUSH1 0x40 DUP3 ADD MLOAD PUSH1 0x2 DUP3 ADD SSTORE PUSH1 0x60 DUP3 ADD MLOAD DUP1 MLOAD PUSH2 0x10AF SWAP2 PUSH1 0x3 DUP5 ADD SWAP2 PUSH1 0x20 SWAP1 SWAP2 ADD SWAP1 PUSH2 0x263F JUMP JUMPDEST POP PUSH1 0x80 DUP3 ADD MLOAD DUP2 PUSH1 0x4 ADD SSTORE SWAP1 POP POP DUP3 PUSH32 0xE084E6175F396D3B0CDE566579E31E11B6A6B6243A84AC78C946F716C7387A96 DUP4 PUSH1 0x40 MLOAD PUSH2 0x10ED SWAP2 SWAP1 PUSH2 0x2EEC JUMP JUMPDEST PUSH1 0x40 MLOAD DUP1 SWAP2 SUB SWAP1 LOG2 POP POP POP JUMP JUMPDEST PUSH1 0x0 PUSH2 0x1104 PUSH2 0x1AC6 JUMP JUMPDEST PUSH1 0x1 PUSH1 0x0 DUP1 DUP3 DUP3 SLOAD PUSH2 0x1116 SWAP2 SWAP1 PUSH2 0x30CA JUMP JUMPDEST SWAP1 SWAP2 SSTORE POP POP PUSH1 0x0 DUP1 SLOAD DUP1 DUP3 MSTORE PUSH1 0x1 PUSH1 0x20 DUP2 DUP2 MSTORE PUSH1 0x40 SWAP1 SWAP4 KECCAK256 DUP7 MLOAD DUP2 SLOAD PUSH1 0xFF NOT AND SWAP1 ISZERO ISZERO OR DUP2 SSTORE SWAP3 DUP7 ADD MLOAD SWAP2 SWAP3 DUP7 SWAP3 SWAP1 SWAP2 DUP3 ADD SWAP1 PUSH2 0x1153 SWAP1 DUP3 PUSH2 0x2FEF JUMP JUMPDEST POP PUSH1 0x40 DUP3 ADD MLOAD DUP1 MLOAD PUSH1 0x2 DUP4 ADD SWAP1 DUP2 SWAP1 PUSH2 0x116C SWAP1 DUP3 PUSH2 0x2FEF JUMP JUMPDEST POP PUSH1 0x20 DUP3 DUP2 ADD MLOAD DUP1 MLOAD PUSH2 0x1185 SWAP3 PUSH1 0x1 DUP6 ADD SWAP3 ADD SWAP1 PUSH2 0x263F JUMP JUMPDEST POP PUSH1 0x40 DUP3 ADD MLOAD PUSH1 0x2 DUP3 ADD SSTORE PUSH1 0x60 DUP3 ADD MLOAD DUP1 MLOAD PUSH2 0x11AB SWAP2 PUSH1 0x3 DUP5 ADD SWAP2 PUSH1 0x20 SWAP1 SWAP2 ADD SWAP1 PUSH2 0x263F JUMP JUMPDEST POP PUSH1 0x80 DUP3 ADD MLOAD DUP2 PUSH1 0x4 ADD SSTORE POP POP SWAP1 POP POP PUSH2 0x11C5 DUP7 DUP3 PUSH2 0x1F21 JUMP JUMPDEST PUSH2 0x11CF DUP2 DUP7 PUSH2 0x1F86 JUMP JUMPDEST PUSH1 0x40 DUP1 MLOAD PUSH1 0xA0 DUP2 ADD DUP3 MSTORE DUP6 DUP3 ADD DUP1 MLOAD MLOAD DUP3 MSTORE DUP1 MLOAD PUSH1 0x20 SWAP1 DUP2 ADD MLOAD SWAP1 DUP4 ADD MSTORE DUP1 MLOAD DUP4 ADD MLOAD DUP3 DUP5 ADD MSTORE DUP1 MLOAD PUSH1 0x60 SWAP1 DUP2 ADD MLOAD SWAP1 DUP4 ADD MSTORE MLOAD PUSH1 0x80 SWAP1 DUP2 ADD MLOAD SWAP1 DUP3 ADD MSTORE SWAP1 MLOAD PUSH1 0x2 SWAP1 PUSH2 0x121D SWAP1 DUP7 SWAP1 PUSH2 0x30AE JUMP JUMPDEST SWAP1 DUP2 MSTORE PUSH1 0x40 MLOAD SWAP1 DUP2 SWAP1 SUB PUSH1 0x20 ADD SWAP1 KECCAK256 DUP2 MLOAD DUP2 SWAP1 PUSH2 0x123A SWAP1 DUP3 PUSH2 0x2FEF JUMP JUMPDEST POP PUSH1 0x20 DUP3 DUP2 ADD MLOAD DUP1 MLOAD PUSH2 0x1253 SWAP3 PUSH1 0x1 DUP6 ADD SWAP3 ADD SWAP1 PUSH2 0x263F JUMP JUMPDEST POP PUSH1 0x40 DUP3 ADD MLOAD PUSH1 0x2 DUP3 ADD SSTORE PUSH1 0x60 DUP3 ADD MLOAD DUP1 MLOAD PUSH2 0x1279 SWAP2 PUSH1 0x3 DUP5 ADD SWAP2 PUSH1 0x20 SWAP1 SWAP2 ADD SWAP1 PUSH2 0x263F JUMP JUMPDEST POP PUSH1 0x80 SWAP2 SWAP1 SWAP2 ADD MLOAD PUSH1 0x4 SWAP1 SWAP2 ADD SSTORE PUSH1 0x40 MLOAD DUP2 SWAP1 PUSH32 0x228A60AA955B2DE198DDF61324929AEE6FA4753A3B7BD1E64BD6A2BF3EF1D533 SWAP1 PUSH1 0x0 SWAP1 LOG2 SWAP6 SWAP5 POP POP POP POP POP JUMP JUMPDEST PUSH1 0x60 PUSH32 0x542A41881EE128A365A727B282C86FA859579490B9BB45AAB8503648C8E7900 PUSH2 0x12E7 DUP4 PUSH2 0x193B JUMP JUMPDEST POP PUSH1 0x0 DUP4 DUP2 MSTORE PUSH1 0x20 DUP3 SWAP1 MSTORE PUSH1 0x40 DUP2 KECCAK256 DUP1 SLOAD PUSH2 0x1301 SWAP1 PUSH2 0x2F65 JUMP JUMPDEST DUP1 PUSH1 0x1F ADD PUSH1 0x20 DUP1 SWAP2 DIV MUL PUSH1 0x20 ADD PUSH1 0x40 MLOAD SWAP1 DUP2 ADD PUSH1 0x40 MSTORE DUP1 SWAP3 SWAP2 SWAP1 DUP2 DUP2 MSTORE PUSH1 0x20 ADD DUP3 DUP1 SLOAD PUSH2 0x132D SWAP1 PUSH2 0x2F65 JUMP JUMPDEST DUP1 ISZERO PUSH2 0x137A JUMPI DUP1 PUSH1 0x1F LT PUSH2 0x134F JUMPI PUSH2 0x100 DUP1 DUP4 SLOAD DIV MUL DUP4 MSTORE SWAP2 PUSH1 0x20 ADD SWAP2 PUSH2 0x137A JUMP JUMPDEST DUP3 ADD SWAP2 SWAP1 PUSH1 0x0 MSTORE PUSH1 0x20 PUSH1 0x0 KECCAK256 SWAP1 JUMPDEST DUP2 SLOAD DUP2 MSTORE SWAP1 PUSH1 0x1 ADD SWAP1 PUSH1 0x20 ADD DUP1 DUP4 GT PUSH2 0x135D JUMPI DUP3 SWAP1 SUB PUSH1 0x1F AND DUP3 ADD SWAP2 JUMPDEST POP POP POP POP POP SWAP1 POP PUSH1 0x0 PUSH2 0x1398 PUSH1 0x40 DUP1 MLOAD PUSH1 0x20 DUP2 ADD SWAP1 SWAP2 MSTORE PUSH1 0x0 DUP2 MSTORE SWAP1 JUMP JUMPDEST SWAP1 POP DUP1 MLOAD PUSH1 0x0 SUB PUSH2 0x13AB JUMPI POP SWAP4 SWAP3 POP POP POP JUMP JUMPDEST DUP2 MLOAD ISZERO PUSH2 0x13DE JUMPI DUP1 DUP3 PUSH1 0x40 MLOAD PUSH1 0x20 ADD PUSH2 0x13C5 SWAP3 SWAP2 SWAP1 PUSH2 0x30EB JUMP JUMPDEST PUSH1 0x40 MLOAD PUSH1 0x20 DUP2 DUP4 SUB SUB DUP2 MSTORE SWAP1 PUSH1 0x40 MSTORE SWAP4 POP POP POP POP SWAP2 SWAP1 POP JUMP JUMPDEST PUSH2 0x13E7 DUP6 PUSH2 0x1FF9 JUMP JUMPDEST SWAP6 SWAP5 POP POP POP POP POP JUMP JUMPDEST PUSH1 0x40 DUP1 MLOAD PUSH1 0xA0 DUP2 ADD DUP3 MSTORE PUSH1 0x60 DUP1 DUP3 MSTORE PUSH1 0x20 DUP3 ADD DUP2 SWAP1 MSTORE PUSH1 0x0 SWAP3 DUP3 ADD DUP4 SWAP1 MSTORE DUP1 DUP3 ADD MSTORE PUSH1 0x80 DUP2 ADD SWAP2 SWAP1 SWAP2 MSTORE PUSH2 0x1423 DUP3 PUSH2 0x55E JUMP JUMPDEST PUSH2 0x1480 JUMPI PUSH1 0x40 MLOAD PUSH3 0x461BCD PUSH1 0xE5 SHL DUP2 MSTORE PUSH1 0x20 PUSH1 0x4 DUP3 ADD MSTORE PUSH1 0x28 PUSH1 0x24 DUP3 ADD MSTORE PUSH32 0x4E46413A2056657273696F6E20717565727920666F72206E6F6E657869737465 PUSH1 0x44 DUP3 ADD MSTORE PUSH8 0x373A103A37B5B2B7 PUSH1 0xC1 SHL PUSH1 0x64 DUP3 ADD MSTORE PUSH1 0x84 ADD PUSH2 0x694 JUMP JUMPDEST PUSH1 0x0 DUP3 DUP2 MSTORE PUSH1 0x1 PUSH1 0x20 MSTORE PUSH1 0x40 SWAP1 DUP2 SWAP1 KECCAK256 SWAP1 MLOAD PUSH1 0x2 SWAP2 PUSH2 0x14A2 SWAP2 SWAP1 DUP4 ADD SWAP1 PUSH2 0x311A JUMP JUMPDEST SWAP1 DUP2 MSTORE PUSH1 0x20 ADD PUSH1 0x40 MLOAD DUP1 SWAP2 SUB SWAP1 KECCAK256 PUSH1 0x40 MLOAD DUP1 PUSH1 0xA0 ADD PUSH1 0x40 MSTORE SWAP1 DUP2 PUSH1 0x0 DUP3 ADD DUP1 SLOAD PUSH2 0x14CB SWAP1 PUSH2 0x2F65 JUMP JUMPDEST DUP1 PUSH1 0x1F ADD PUSH1 0x20 DUP1 SWAP2 DIV MUL PUSH1 0x20 ADD PUSH1 0x40 MLOAD SWAP1 DUP2 ADD PUSH1 0x40 MSTORE DUP1 SWAP3 SWAP2 SWAP1 DUP2 DUP2 MSTORE PUSH1 0x20 ADD DUP3 DUP1 SLOAD PUSH2 0x14F7 SWAP1 PUSH2 0x2F65 JUMP JUMPDEST DUP1 ISZERO PUSH2 0x1544 JUMPI DUP1 PUSH1 0x1F LT PUSH2 0x1519 JUMPI PUSH2 0x100 DUP1 DUP4 SLOAD DIV MUL DUP4 MSTORE SWAP2 PUSH1 0x20 ADD SWAP2 PUSH2 0x1544 JUMP JUMPDEST DUP3 ADD SWAP2 SWAP1 PUSH1 0x0 MSTORE PUSH1 0x20 PUSH1 0x0 KECCAK256 SWAP1 JUMPDEST DUP2 SLOAD DUP2 MSTORE SWAP1 PUSH1 0x1 ADD SWAP1 PUSH1 0x20 ADD DUP1 DUP4 GT PUSH2 0x1527 JUMPI DUP3 SWAP1 SUB PUSH1 0x1F AND DUP3 ADD SWAP2 JUMPDEST POP POP POP POP POP DUP2 MSTORE PUSH1 0x20 ADD PUSH1 0x1 DUP3 ADD DUP1 SLOAD DUP1 PUSH1 0x20 MUL PUSH1 0x20 ADD PUSH1 0x40 MLOAD SWAP1 DUP2 ADD PUSH1 0x40 MSTORE DUP1 SWAP3 SWAP2 SWAP1 DUP2 DUP2 MSTORE PUSH1 0x20 ADD PUSH1 0x0 SWAP1 JUMPDEST DUP3 DUP3 LT ISZERO PUSH2 0x161E JUMPI DUP4 DUP3 SWAP1 PUSH1 0x0 MSTORE PUSH1 0x20 PUSH1 0x0 KECCAK256 ADD DUP1 SLOAD PUSH2 0x1591 SWAP1 PUSH2 0x2F65 JUMP JUMPDEST DUP1 PUSH1 0x1F ADD PUSH1 0x20 DUP1 SWAP2 DIV MUL PUSH1 0x20 ADD PUSH1 0x40 MLOAD SWAP1 DUP2 ADD PUSH1 0x40 MSTORE DUP1 SWAP3 SWAP2 SWAP1 DUP2 DUP2 MSTORE PUSH1 0x20 ADD DUP3 DUP1 SLOAD PUSH2 0x15BD SWAP1 PUSH2 0x2F65 JUMP JUMPDEST DUP1 ISZERO PUSH2 0x160A JUMPI DUP1 PUSH1 0x1F LT PUSH2 0x15DF JUMPI PUSH2 0x100 DUP1 DUP4 SLOAD DIV MUL DUP4 MSTORE SWAP2 PUSH1 0x20 ADD SWAP2 PUSH2 0x160A JUMP JUMPDEST DUP3 ADD SWAP2 SWAP1 PUSH1 0x0 MSTORE PUSH1 0x20 PUSH1 0x0 KECCAK256 SWAP1 JUMPDEST DUP2 SLOAD DUP2 MSTORE SWAP1 PUSH1 0x1 ADD SWAP1 PUSH1 0x20 ADD DUP1 DUP4 GT PUSH2 0x15ED JUMPI DUP3 SWAP1 SUB PUSH1 0x1F AND DUP3 ADD SWAP2 JUMPDEST POP POP POP POP POP DUP2 MSTORE PUSH1 0x20 ADD SWAP1 PUSH1 0x1 ADD SWAP1 PUSH2 0x1572 JUMP JUMPDEST POP POP POP POP DUP2 MSTORE PUSH1 0x20 ADD PUSH1 0x2 DUP3 ADD SLOAD DUP2 MSTORE PUSH1 0x20 ADD PUSH1 0x3 DUP3 ADD DUP1 SLOAD DUP1 PUSH1 0x20 MUL PUSH1 0x20 ADD PUSH1 0x40 MLOAD SWAP1 DUP2 ADD PUSH1 0x40 MSTORE DUP1 SWAP3 SWAP2 SWAP1 DUP2 DUP2 MSTORE PUSH1 0x20 ADD PUSH1 0x0 SWAP1 JUMPDEST DUP3 DUP3 LT ISZERO PUSH2 0x1701 JUMPI DUP4 DUP3 SWAP1 PUSH1 0x0 MSTORE PUSH1 0x20 PUSH1 0x0 KECCAK256 ADD DUP1 SLOAD PUSH2 0x1674 SWAP1 PUSH2 0x2F65 JUMP JUMPDEST DUP1 PUSH1 0x1F ADD PUSH1 0x20 DUP1 SWAP2 DIV MUL PUSH1 0x20 ADD PUSH1 0x40 MLOAD SWAP1 DUP2 ADD PUSH1 0x40 MSTORE DUP1 SWAP3 SWAP2 SWAP1 DUP2 DUP2 MSTORE PUSH1 0x20 ADD DUP3 DUP1 SLOAD PUSH2 0x16A0 SWAP1 PUSH2 0x2F65 JUMP JUMPDEST DUP1 ISZERO PUSH2 0x16ED JUMPI DUP1 PUSH1 0x1F LT PUSH2 0x16C2 JUMPI PUSH2 0x100 DUP1 DUP4 SLOAD DIV MUL DUP4 MSTORE SWAP2 PUSH1 0x20 ADD SWAP2 PUSH2 0x16ED JUMP JUMPDEST DUP3 ADD SWAP2 SWAP1 PUSH1 0x0 MSTORE PUSH1 0x20 PUSH1 0x0 KECCAK256 SWAP1 JUMPDEST DUP2 SLOAD DUP2 MSTORE SWAP1 PUSH1 0x1 ADD SWAP1 PUSH1 0x20 ADD DUP1 DUP4 GT PUSH2 0x16D0 JUMPI DUP3 SWAP1 SUB PUSH1 0x1F AND DUP3 ADD SWAP2 JUMPDEST POP POP POP POP POP DUP2 MSTORE PUSH1 0x20 ADD SWAP1 PUSH1 0x1 ADD SWAP1 PUSH2 0x1655 JUMP JUMPDEST POP POP POP POP DUP2 MSTORE PUSH1 0x20 ADD PUSH1 0x4 DUP3 ADD SLOAD DUP2 MSTORE POP POP SWAP1 POP SWAP2 SWAP1 POP JUMP JUMPDEST PUSH1 0x1 PUSH1 0x1 PUSH1 0xA0 SHL SUB SWAP2 DUP3 AND PUSH1 0x0 SWAP1 DUP2 MSTORE PUSH32 0x80BB2B638CC20BC4D0A60D66940F3AB4A00C1D7B313497CA82FB0B4AB0079305 PUSH1 0x20 SWAP1 DUP2 MSTORE PUSH1 0x40 DUP1 DUP4 KECCAK256 SWAP4 SWAP1 SWAP5 AND DUP3 MSTORE SWAP2 SWAP1 SWAP2 MSTORE KECCAK256 SLOAD PUSH1 0xFF AND SWAP1 JUMP JUMPDEST PUSH2 0x176F PUSH2 0x1AC6 JUMP JUMPDEST PUSH2 0x1778 DUP3 PUSH2 0x55E JUMP JUMPDEST PUSH2 0x17D6 JUMPI PUSH1 0x40 MLOAD PUSH3 0x461BCD PUSH1 0xE5 SHL DUP2 MSTORE PUSH1 0x20 PUSH1 0x4 DUP3 ADD MSTORE PUSH1 0x29 PUSH1 0x24 DUP3 ADD MSTORE PUSH32 0x4E46413A20417070496E666F2075706461746520666F72206E6F6E6578697374 PUSH1 0x44 DUP3 ADD MSTORE PUSH9 0x32B73A103A37B5B2B7 PUSH1 0xB9 SHL PUSH1 0x64 DUP3 ADD MSTORE PUSH1 0x84 ADD PUSH2 0x694 JUMP JUMPDEST PUSH1 0x0 DUP3 DUP2 MSTORE PUSH1 0x1 PUSH1 0x20 DUP2 DUP2 MSTORE PUSH1 0x40 SWAP1 SWAP3 KECCAK256 DUP4 MLOAD DUP2 SLOAD PUSH1 0xFF NOT AND SWAP1 ISZERO ISZERO OR DUP2 SSTORE SWAP2 DUP4 ADD MLOAD DUP4 SWAP3 SWAP2 DUP3 ADD SWAP1 PUSH2 0x1809 SWAP1 DUP3 PUSH2 0x2FEF JUMP JUMPDEST POP PUSH1 0x40 DUP3 ADD MLOAD DUP1 MLOAD PUSH1 0x2 DUP4 ADD SWAP1 DUP2 SWAP1 PUSH2 0x1822 SWAP1 DUP3 PUSH2 0x2FEF JUMP JUMPDEST POP PUSH1 0x20 DUP3 DUP2 ADD MLOAD DUP1 MLOAD PUSH2 0x183B SWAP3 PUSH1 0x1 DUP6 ADD SWAP3 ADD SWAP1 PUSH2 0x263F JUMP JUMPDEST POP PUSH1 0x40 DUP3 ADD MLOAD PUSH1 0x2 DUP3 ADD SSTORE PUSH1 0x60 DUP3 ADD MLOAD DUP1 MLOAD PUSH2 0x1861 SWAP2 PUSH1 0x3 DUP5 ADD SWAP2 PUSH1 0x20 SWAP1 SWAP2 ADD SWAP1 PUSH2 0x263F JUMP JUMPDEST POP PUSH1 0x80 DUP3 ADD MLOAD DUP2 PUSH1 0x4 ADD SSTORE POP POP SWAP1 POP POP DUP2 PUSH32 0x9B5400D32D48C2F1552E765FD93226BD6D88B86C5CD01152AE5B34B62DDDCD5F DUP3 PUSH1 0x40 MLOAD PUSH2 0x18A1 SWAP2 SWAP1 PUSH2 0x2A35 JUMP JUMPDEST PUSH1 0x40 MLOAD DUP1 SWAP2 SUB SWAP1 LOG2 POP POP JUMP JUMPDEST PUSH2 0x18B5 PUSH2 0x1AC6 JUMP JUMPDEST PUSH1 0x1 PUSH1 0x1 PUSH1 0xA0 SHL SUB DUP2 AND PUSH2 0x18DF JUMPI PUSH1 0x40 MLOAD PUSH4 0x1E4FBDF7 PUSH1 0xE0 SHL DUP2 MSTORE PUSH1 0x0 PUSH1 0x4 DUP3 ADD MSTORE PUSH1 0x24 ADD PUSH2 0x694 JUMP JUMPDEST PUSH2 0x18E8 DUP2 PUSH2 0x1CAB JUMP JUMPDEST POP JUMP JUMPDEST PUSH1 0x0 PUSH1 0x1 PUSH1 0x1 PUSH1 0xE0 SHL SUB NOT DUP3 AND PUSH4 0x80AC58CD PUSH1 0xE0 SHL EQ DUP1 PUSH2 0x191C JUMPI POP PUSH1 0x1 PUSH1 0x1 PUSH1 0xE0 SHL SUB NOT DUP3 AND PUSH4 0x5B5E139F PUSH1 0xE0 SHL EQ JUMPDEST DUP1 PUSH2 0x5A0 JUMPI POP PUSH4 0x1FFC9A7 PUSH1 0xE0 SHL PUSH1 0x1 PUSH1 0x1 PUSH1 0xE0 SHL SUB NOT DUP4 AND EQ PUSH2 0x5A0 JUMP JUMPDEST PUSH1 0x0 DUP1 PUSH2 0x1947 DUP4 PUSH2 0x206D JUMP JUMPDEST SWAP1 POP PUSH1 0x1 PUSH1 0x1 PUSH1 0xA0 SHL SUB DUP2 AND PUSH2 0x5A0 JUMPI PUSH1 0x40 MLOAD PUSH4 0x7E273289 PUSH1 0xE0 SHL DUP2 MSTORE PUSH1 0x4 DUP2 ADD DUP5 SWAP1 MSTORE PUSH1 0x24 ADD PUSH2 0x694 JUMP JUMPDEST PUSH1 0x0 SWAP1 DUP2 MSTORE PUSH32 0x80BB2B638CC20BC4D0A60D66940F3AB4A00C1D7B313497CA82FB0B4AB0079304 PUSH1 0x20 MSTORE PUSH1 0x40 SWAP1 KECCAK256 SLOAD PUSH1 0x1 PUSH1 0x1 PUSH1 0xA0 SHL SUB AND SWAP1 JUMP JUMPDEST PUSH2 0x7BE DUP4 DUP4 DUP4 PUSH1 0x1 PUSH2 0x20A7 JUMP JUMPDEST PUSH1 0x0 PUSH1 0x0 DUP1 MLOAD PUSH1 0x20 PUSH2 0x3204 DUP4 CODECOPY DUP2 MLOAD SWAP2 MSTORE DUP2 PUSH2 0x19D5 DUP6 PUSH2 0x206D JUMP JUMPDEST SWAP1 POP PUSH1 0x1 PUSH1 0x1 PUSH1 0xA0 SHL SUB DUP5 AND ISZERO PUSH2 0x19F1 JUMPI PUSH2 0x19F1 DUP2 DUP6 DUP8 PUSH2 0x21BD JUMP JUMPDEST PUSH1 0x1 PUSH1 0x1 PUSH1 0xA0 SHL SUB DUP2 AND ISZERO PUSH2 0x1A31 JUMPI PUSH2 0x1A0E PUSH1 0x0 DUP7 PUSH1 0x0 DUP1 PUSH2 0x20A7 JUMP JUMPDEST PUSH1 0x1 PUSH1 0x1 PUSH1 0xA0 SHL SUB DUP2 AND PUSH1 0x0 SWAP1 DUP2 MSTORE PUSH1 0x3 DUP4 ADD PUSH1 0x20 MSTORE PUSH1 0x40 SWAP1 KECCAK256 DUP1 SLOAD PUSH1 0x0 NOT ADD SWAP1 SSTORE JUMPDEST PUSH1 0x1 PUSH1 0x1 PUSH1 0xA0 SHL SUB DUP7 AND ISZERO PUSH2 0x1A62 JUMPI PUSH1 0x1 PUSH1 0x1 PUSH1 0xA0 SHL SUB DUP7 AND PUSH1 0x0 SWAP1 DUP2 MSTORE PUSH1 0x3 DUP4 ADD PUSH1 0x20 MSTORE PUSH1 0x40 SWAP1 KECCAK256 DUP1 SLOAD PUSH1 0x1 ADD SWAP1 SSTORE JUMPDEST PUSH1 0x0 DUP6 DUP2 MSTORE PUSH1 0x2 DUP4 ADD PUSH1 0x20 MSTORE PUSH1 0x40 DUP1 DUP3 KECCAK256 DUP1 SLOAD PUSH1 0x1 PUSH1 0x1 PUSH1 0xA0 SHL SUB NOT AND PUSH1 0x1 PUSH1 0x1 PUSH1 0xA0 SHL SUB DUP11 DUP2 AND SWAP2 DUP3 OR SWAP1 SWAP3 SSTORE SWAP2 MLOAD DUP9 SWAP4 SWAP2 DUP6 AND SWAP2 PUSH32 0xDDF252AD1BE2C89B69C2B068FC378DAA952BA7F163C4A11628F55A4DF523B3EF SWAP2 LOG4 SWAP2 POP POP JUMPDEST SWAP4 SWAP3 POP POP POP JUMP JUMPDEST CALLER PUSH2 0x1ACF PUSH2 0xD02 JUMP JUMPDEST PUSH1 0x1 PUSH1 0x1 PUSH1 0xA0 SHL SUB AND EQ PUSH2 0x874 JUMPI PUSH1 0x40 MLOAD PUSH4 0x118CDAA7 PUSH1 0xE0 SHL DUP2 MSTORE CALLER PUSH1 0x4 DUP3 ADD MSTORE PUSH1 0x24 ADD PUSH2 0x694 JUMP JUMPDEST ADDRESS PUSH1 0x1 PUSH1 0x1 PUSH1 0xA0 SHL SUB PUSH32 0x0 AND EQ DUP1 PUSH2 0x1B7F JUMPI POP PUSH32 0x0 PUSH1 0x1 PUSH1 0x1 PUSH1 0xA0 SHL SUB AND PUSH2 0x1B73 PUSH1 0x0 DUP1 MLOAD PUSH1 0x20 PUSH2 0x3224 DUP4 CODECOPY DUP2 MLOAD SWAP2 MSTORE SLOAD PUSH1 0x1 PUSH1 0x1 PUSH1 0xA0 SHL SUB AND SWAP1 JUMP JUMPDEST PUSH1 0x1 PUSH1 0x1 PUSH1 0xA0 SHL SUB AND EQ ISZERO JUMPDEST ISZERO PUSH2 0x874 JUMPI PUSH1 0x40 MLOAD PUSH4 0x703E46DD PUSH1 0xE1 SHL DUP2 MSTORE PUSH1 0x4 ADD PUSH1 0x40 MLOAD DUP1 SWAP2 SUB SWAP1 REVERT JUMPDEST PUSH2 0x18E8 PUSH2 0x1AC6 JUMP JUMPDEST DUP2 PUSH1 0x1 PUSH1 0x1 PUSH1 0xA0 SHL SUB AND PUSH4 0x52D1902D PUSH1 0x40 MLOAD DUP2 PUSH4 0xFFFFFFFF AND PUSH1 0xE0 SHL DUP2 MSTORE PUSH1 0x4 ADD PUSH1 0x20 PUSH1 0x40 MLOAD DUP1 DUP4 SUB DUP2 DUP7 GAS STATICCALL SWAP3 POP POP POP DUP1 ISZERO PUSH2 0x1BFF JUMPI POP PUSH1 0x40 DUP1 MLOAD PUSH1 0x1F RETURNDATASIZE SWAP1 DUP2 ADD PUSH1 0x1F NOT AND DUP3 ADD SWAP1 SWAP3 MSTORE PUSH2 0x1BFC SWAP2 DUP2 ADD SWAP1 PUSH2 0x3190 JUMP JUMPDEST PUSH1 0x1 JUMPDEST PUSH2 0x1C27 JUMPI PUSH1 0x40 MLOAD PUSH4 0x4C9C8CE3 PUSH1 0xE0 SHL DUP2 MSTORE PUSH1 0x1 PUSH1 0x1 PUSH1 0xA0 SHL SUB DUP4 AND PUSH1 0x4 DUP3 ADD MSTORE PUSH1 0x24 ADD PUSH2 0x694 JUMP JUMPDEST PUSH1 0x0 DUP1 MLOAD PUSH1 0x20 PUSH2 0x3224 DUP4 CODECOPY DUP2 MLOAD SWAP2 MSTORE DUP2 EQ PUSH2 0x1C58 JUMPI PUSH1 0x40 MLOAD PUSH4 0x2A875269 PUSH1 0xE2 SHL DUP2 MSTORE PUSH1 0x4 DUP2 ADD DUP3 SWAP1 MSTORE PUSH1 0x24 ADD PUSH2 0x694 JUMP JUMPDEST PUSH2 0x7BE DUP4 DUP4 PUSH2 0x2221 JUMP JUMPDEST ADDRESS PUSH1 0x1 PUSH1 0x1 PUSH1 0xA0 SHL SUB PUSH32 0x0 AND EQ PUSH2 0x874 JUMPI PUSH1 0x40 MLOAD PUSH4 0x703E46DD PUSH1 0xE1 SHL DUP2 MSTORE PUSH1 0x4 ADD PUSH1 0x40 MLOAD DUP1 SWAP2 SUB SWAP1 REVERT JUMPDEST PUSH32 0x9016D09D72D40FDAE2FD8CEAC6B6234C7706214FD39C1CD1E609A0528C199300 DUP1 SLOAD PUSH1 0x1 PUSH1 0x1 PUSH1 0xA0 SHL SUB NOT DUP2 AND PUSH1 0x1 PUSH1 0x1 PUSH1 0xA0 SHL SUB DUP5 DUP2 AND SWAP2 DUP3 OR DUP5 SSTORE PUSH1 0x40 MLOAD SWAP3 AND SWAP2 DUP3 SWAP1 PUSH32 0x8BE0079C531659141344CD1FD0A4F28419497F9722A3DAAFE3B4186F6B6457E0 SWAP1 PUSH1 0x0 SWAP1 LOG3 POP POP POP JUMP JUMPDEST PUSH1 0x0 DUP1 MLOAD PUSH1 0x20 PUSH2 0x3204 DUP4 CODECOPY DUP2 MLOAD SWAP2 MSTORE PUSH1 0x1 PUSH1 0x1 PUSH1 0xA0 SHL SUB DUP4 AND PUSH2 0x1D5D JUMPI PUSH1 0x40 MLOAD PUSH4 0xB611743 PUSH1 0xE3 SHL DUP2 MSTORE PUSH1 0x1 PUSH1 0x1 PUSH1 0xA0 SHL SUB DUP5 AND PUSH1 0x4 DUP3 ADD MSTORE PUSH1 0x24 ADD PUSH2 0x694 JUMP JUMPDEST PUSH1 0x1 PUSH1 0x1 PUSH1 0xA0 SHL SUB DUP5 DUP2 AND PUSH1 0x0 DUP2 DUP2 MSTORE PUSH1 0x5 DUP5 ADD PUSH1 0x20 SWAP1 DUP2 MSTORE PUSH1 0x40 DUP1 DUP4 KECCAK256 SWAP5 DUP9 AND DUP1 DUP5 MSTORE SWAP5 DUP3 MSTORE SWAP2 DUP3 SWAP1 KECCAK256 DUP1 SLOAD PUSH1 0xFF NOT AND DUP8 ISZERO ISZERO SWAP1 DUP2 OR SWAP1 SWAP2 SSTORE SWAP2 MLOAD SWAP2 DUP3 MSTORE PUSH32 0x17307EAB39AB6107E8899845AD3D59BD9653F200F220920489CA2B5937696C31 SWAP2 ADD PUSH1 0x40 MLOAD DUP1 SWAP2 SUB SWAP1 LOG3 POP POP POP POP JUMP JUMPDEST PUSH2 0x1DD5 PUSH2 0x2277 JUMP JUMPDEST PUSH2 0x66A DUP3 DUP3 PUSH2 0x22C0 JUMP JUMPDEST PUSH2 0x874 PUSH2 0x2277 JUMP JUMPDEST PUSH2 0x1DEF PUSH2 0x2277 JUMP JUMPDEST PUSH2 0x18E8 DUP2 PUSH2 0x22F1 JUMP JUMPDEST PUSH1 0x1 PUSH1 0x1 PUSH1 0xA0 SHL SUB DUP4 AND EXTCODESIZE ISZERO PUSH2 0x6F8 JUMPI PUSH1 0x40 MLOAD PUSH4 0xA85BD01 PUSH1 0xE1 SHL DUP2 MSTORE PUSH1 0x1 PUSH1 0x1 PUSH1 0xA0 SHL SUB DUP5 AND SWAP1 PUSH4 0x150B7A02 SWAP1 PUSH2 0x1E3A SWAP1 CALLER SWAP1 DUP9 SWAP1 DUP8 SWAP1 DUP8 SWAP1 PUSH1 0x4 ADD PUSH2 0x31A9 JUMP JUMPDEST PUSH1 0x20 PUSH1 0x40 MLOAD DUP1 DUP4 SUB DUP2 PUSH1 0x0 DUP8 GAS CALL SWAP3 POP POP POP DUP1 ISZERO PUSH2 0x1E75 JUMPI POP PUSH1 0x40 DUP1 MLOAD PUSH1 0x1F RETURNDATASIZE SWAP1 DUP2 ADD PUSH1 0x1F NOT AND DUP3 ADD SWAP1 SWAP3 MSTORE PUSH2 0x1E72 SWAP2 DUP2 ADD SWAP1 PUSH2 0x31E6 JUMP JUMPDEST PUSH1 0x1 JUMPDEST PUSH2 0x1EDE JUMPI RETURNDATASIZE DUP1 DUP1 ISZERO PUSH2 0x1EA3 JUMPI PUSH1 0x40 MLOAD SWAP2 POP PUSH1 0x1F NOT PUSH1 0x3F RETURNDATASIZE ADD AND DUP3 ADD PUSH1 0x40 MSTORE RETURNDATASIZE DUP3 MSTORE RETURNDATASIZE PUSH1 0x0 PUSH1 0x20 DUP5 ADD RETURNDATACOPY PUSH2 0x1EA8 JUMP JUMPDEST PUSH1 0x60 SWAP2 POP JUMPDEST POP DUP1 MLOAD PUSH1 0x0 SUB PUSH2 0x1ED6 JUMPI PUSH1 0x40 MLOAD PUSH4 0x32505749 PUSH1 0xE1 SHL DUP2 MSTORE PUSH1 0x1 PUSH1 0x1 PUSH1 0xA0 SHL SUB DUP6 AND PUSH1 0x4 DUP3 ADD MSTORE PUSH1 0x24 ADD PUSH2 0x694 JUMP JUMPDEST DUP1 MLOAD DUP2 PUSH1 0x20 ADD REVERT JUMPDEST PUSH1 0x1 PUSH1 0x1 PUSH1 0xE0 SHL SUB NOT DUP2 AND PUSH4 0xA85BD01 PUSH1 0xE1 SHL EQ PUSH2 0x1F1A JUMPI PUSH1 0x40 MLOAD PUSH4 0x32505749 PUSH1 0xE1 SHL DUP2 MSTORE PUSH1 0x1 PUSH1 0x1 PUSH1 0xA0 SHL SUB DUP6 AND PUSH1 0x4 DUP3 ADD MSTORE PUSH1 0x24 ADD PUSH2 0x694 JUMP JUMPDEST POP POP POP POP POP JUMP JUMPDEST PUSH1 0x1 PUSH1 0x1 PUSH1 0xA0 SHL SUB DUP3 AND PUSH2 0x1F4B JUMPI PUSH1 0x40 MLOAD PUSH4 0x32505749 PUSH1 0xE1 SHL DUP2 MSTORE PUSH1 0x0 PUSH1 0x4 DUP3 ADD MSTORE PUSH1 0x24 ADD PUSH2 0x694 JUMP JUMPDEST PUSH1 0x0 PUSH2 0x1F59 DUP4 DUP4 PUSH1 0x0 PUSH2 0x19BA JUMP JUMPDEST SWAP1 POP PUSH1 0x1 PUSH1 0x1 PUSH1 0xA0 SHL SUB DUP2 AND ISZERO PUSH2 0x7BE JUMPI PUSH1 0x40 MLOAD PUSH4 0x39E35637 PUSH1 0xE1 SHL DUP2 MSTORE PUSH1 0x0 PUSH1 0x4 DUP3 ADD MSTORE PUSH1 0x24 ADD PUSH2 0x694 JUMP JUMPDEST PUSH1 0x0 DUP3 DUP2 MSTORE PUSH32 0x542A41881EE128A365A727B282C86FA859579490B9BB45AAB8503648C8E7900 PUSH1 0x20 DUP2 SWAP1 MSTORE PUSH1 0x40 SWAP1 SWAP2 KECCAK256 PUSH2 0x1FC0 DUP4 DUP3 PUSH2 0x2FEF JUMP JUMPDEST POP PUSH1 0x40 MLOAD DUP4 DUP2 MSTORE PUSH32 0xF8E1A15ABA9398E019F0B49DF1A4FDE98EE17AE345CB5F6B5E2C27F5033E8CE7 SWAP1 PUSH1 0x20 ADD PUSH1 0x40 MLOAD DUP1 SWAP2 SUB SWAP1 LOG1 POP POP POP JUMP JUMPDEST PUSH1 0x60 PUSH2 0x2004 DUP3 PUSH2 0x193B JUMP JUMPDEST POP PUSH1 0x0 PUSH2 0x201C PUSH1 0x40 DUP1 MLOAD PUSH1 0x20 DUP2 ADD SWAP1 SWAP2 MSTORE PUSH1 0x0 DUP2 MSTORE SWAP1 JUMP JUMPDEST SWAP1 POP PUSH1 0x0 DUP2 MLOAD GT PUSH2 0x203C JUMPI PUSH1 0x40 MLOAD DUP1 PUSH1 0x20 ADD PUSH1 0x40 MSTORE DUP1 PUSH1 0x0 DUP2 MSTORE POP PUSH2 0x1ABF JUMP JUMPDEST DUP1 PUSH2 0x2046 DUP5 PUSH2 0x22F9 JUMP JUMPDEST PUSH1 0x40 MLOAD PUSH1 0x20 ADD PUSH2 0x2057 SWAP3 SWAP2 SWAP1 PUSH2 0x30EB JUMP JUMPDEST PUSH1 0x40 MLOAD PUSH1 0x20 DUP2 DUP4 SUB SUB DUP2 MSTORE SWAP1 PUSH1 0x40 MSTORE SWAP4 SWAP3 POP POP POP JUMP JUMPDEST PUSH1 0x0 SWAP1 DUP2 MSTORE PUSH32 0x80BB2B638CC20BC4D0A60D66940F3AB4A00C1D7B313497CA82FB0B4AB0079302 PUSH1 0x20 MSTORE PUSH1 0x40 SWAP1 KECCAK256 SLOAD PUSH1 0x1 PUSH1 0x1 PUSH1 0xA0 SHL SUB AND SWAP1 JUMP JUMPDEST PUSH1 0x0 DUP1 MLOAD PUSH1 0x20 PUSH2 0x3204 DUP4 CODECOPY DUP2 MLOAD SWAP2 MSTORE DUP2 DUP1 PUSH2 0x20CA JUMPI POP PUSH1 0x1 PUSH1 0x1 PUSH1 0xA0 SHL SUB DUP4 AND ISZERO ISZERO JUMPDEST ISZERO PUSH2 0x218C JUMPI PUSH1 0x0 PUSH2 0x20DA DUP6 PUSH2 0x193B JUMP JUMPDEST SWAP1 POP PUSH1 0x1 PUSH1 0x1 PUSH1 0xA0 SHL SUB DUP5 AND ISZERO DUP1 ISZERO SWAP1 PUSH2 0x2106 JUMPI POP DUP4 PUSH1 0x1 PUSH1 0x1 PUSH1 0xA0 SHL SUB AND DUP2 PUSH1 0x1 PUSH1 0x1 PUSH1 0xA0 SHL SUB AND EQ ISZERO JUMPDEST DUP1 ISZERO PUSH2 0x2119 JUMPI POP PUSH2 0x2117 DUP2 DUP6 PUSH2 0x171A JUMP JUMPDEST ISZERO JUMPDEST ISZERO PUSH2 0x2142 JUMPI PUSH1 0x40 MLOAD PUSH4 0xA9FBF51F PUSH1 0xE0 SHL DUP2 MSTORE PUSH1 0x1 PUSH1 0x1 PUSH1 0xA0 SHL SUB DUP6 AND PUSH1 0x4 DUP3 ADD MSTORE PUSH1 0x24 ADD PUSH2 0x694 JUMP JUMPDEST DUP3 ISZERO PUSH2 0x218A JUMPI DUP5 DUP7 PUSH1 0x1 PUSH1 0x1 PUSH1 0xA0 SHL SUB AND DUP3 PUSH1 0x1 PUSH1 0x1 PUSH1 0xA0 SHL SUB AND PUSH32 0x8C5BE1E5EBEC7D5BD14F71427D1E84F3DD0314C0F7B2291E5B200AC8C7C3B925 PUSH1 0x40 MLOAD PUSH1 0x40 MLOAD DUP1 SWAP2 SUB SWAP1 LOG4 JUMPDEST POP JUMPDEST PUSH1 0x0 SWAP4 DUP5 MSTORE PUSH1 0x4 ADD PUSH1 0x20 MSTORE POP POP PUSH1 0x40 SWAP1 KECCAK256 DUP1 SLOAD PUSH1 0x1 PUSH1 0x1 PUSH1 0xA0 SHL SUB NOT AND PUSH1 0x1 PUSH1 0x1 PUSH1 0xA0 SHL SUB SWAP3 SWAP1 SWAP3 AND SWAP2 SWAP1 SWAP2 OR SWAP1 SSTORE JUMP JUMPDEST PUSH2 0x21C8 DUP4 DUP4 DUP4 PUSH2 0x238B JUMP JUMPDEST PUSH2 0x7BE JUMPI PUSH1 0x1 PUSH1 0x1 PUSH1 0xA0 SHL SUB DUP4 AND PUSH2 0x21F6 JUMPI PUSH1 0x40 MLOAD PUSH4 0x7E273289 PUSH1 0xE0 SHL DUP2 MSTORE PUSH1 0x4 DUP2 ADD DUP3 SWAP1 MSTORE PUSH1 0x24 ADD PUSH2 0x694 JUMP JUMPDEST PUSH1 0x40 MLOAD PUSH4 0x177E802F PUSH1 0xE0 SHL DUP2 MSTORE PUSH1 0x1 PUSH1 0x1 PUSH1 0xA0 SHL SUB DUP4 AND PUSH1 0x4 DUP3 ADD MSTORE PUSH1 0x24 DUP2 ADD DUP3 SWAP1 MSTORE PUSH1 0x44 ADD PUSH2 0x694 JUMP JUMPDEST PUSH2 0x222A DUP3 PUSH2 0x23F1 JUMP JUMPDEST PUSH1 0x40 MLOAD PUSH1 0x1 PUSH1 0x1 PUSH1 0xA0 SHL SUB DUP4 AND SWAP1 PUSH32 0xBC7CD75A20EE27FD9ADEBAB32041F755214DBC6BFFA90CC0225B39DA2E5C2D3B SWAP1 PUSH1 0x0 SWAP1 LOG2 DUP1 MLOAD ISZERO PUSH2 0x226F JUMPI PUSH2 0x7BE DUP3 DUP3 PUSH2 0x2456 JUMP JUMPDEST PUSH2 0x66A PUSH2 0x24C3 JUMP JUMPDEST PUSH32 0xF0C57E16840DF040F15088DC2F81FE391C3923BEC73E23A9662EFC9C229C6A00 SLOAD PUSH1 0x1 PUSH1 0x40 SHL SWAP1 DIV PUSH1 0xFF AND PUSH2 0x874 JUMPI PUSH1 0x40 MLOAD PUSH4 0x1AFCD79F PUSH1 0xE3 SHL DUP2 MSTORE PUSH1 0x4 ADD PUSH1 0x40 MLOAD DUP1 SWAP2 SUB SWAP1 REVERT JUMPDEST PUSH2 0x22C8 PUSH2 0x2277 JUMP JUMPDEST PUSH1 0x0 DUP1 MLOAD PUSH1 0x20 PUSH2 0x3204 DUP4 CODECOPY DUP2 MLOAD SWAP2 MSTORE DUP1 PUSH2 0x22E2 DUP5 DUP3 PUSH2 0x2FEF JUMP JUMPDEST POP PUSH1 0x1 DUP2 ADD PUSH2 0x6F8 DUP4 DUP3 PUSH2 0x2FEF JUMP JUMPDEST PUSH2 0x18B5 PUSH2 0x2277 JUMP JUMPDEST PUSH1 0x60 PUSH1 0x0 PUSH2 0x2306 DUP4 PUSH2 0x24E2 JUMP JUMPDEST PUSH1 0x1 ADD SWAP1 POP PUSH1 0x0 DUP2 PUSH1 0x1 PUSH1 0x1 PUSH1 0x40 SHL SUB DUP2 GT ISZERO PUSH2 0x2325 JUMPI PUSH2 0x2325 PUSH2 0x282D JUMP JUMPDEST PUSH1 0x40 MLOAD SWAP1 DUP1 DUP3 MSTORE DUP1 PUSH1 0x1F ADD PUSH1 0x1F NOT AND PUSH1 0x20 ADD DUP3 ADD PUSH1 0x40 MSTORE DUP1 ISZERO PUSH2 0x234F JUMPI PUSH1 0x20 DUP3 ADD DUP2 DUP1 CALLDATASIZE DUP4 CALLDATACOPY ADD SWAP1 POP JUMPDEST POP SWAP1 POP DUP2 DUP2 ADD PUSH1 0x20 ADD JUMPDEST PUSH1 0x0 NOT ADD PUSH16 0x181899199A1A9B1B9C1CB0B131B232B3 PUSH1 0x81 SHL PUSH1 0xA DUP7 MOD BYTE DUP2 MSTORE8 PUSH1 0xA DUP6 DIV SWAP5 POP DUP5 PUSH2 0x2359 JUMPI POP SWAP4 SWAP3 POP POP POP JUMP JUMPDEST PUSH1 0x0 PUSH1 0x1 PUSH1 0x1 PUSH1 0xA0 SHL SUB DUP4 AND ISZERO DUP1 ISZERO SWAP1 PUSH2 0x23E9 JUMPI POP DUP3 PUSH1 0x1 PUSH1 0x1 PUSH1 0xA0 SHL SUB AND DUP5 PUSH1 0x1 PUSH1 0x1 PUSH1 0xA0 SHL SUB AND EQ DUP1 PUSH2 0x23C5 JUMPI POP PUSH2 0x23C5 DUP5 DUP5 PUSH2 0x171A JUMP JUMPDEST DUP1 PUSH2 0x23E9 JUMPI POP DUP3 PUSH1 0x1 PUSH1 0x1 PUSH1 0xA0 SHL SUB AND PUSH2 0x23DE DUP4 PUSH2 0x1973 JUMP JUMPDEST PUSH1 0x1 PUSH1 0x1 PUSH1 0xA0 SHL SUB AND EQ JUMPDEST SWAP5 SWAP4 POP POP POP POP JUMP JUMPDEST DUP1 PUSH1 0x1 PUSH1 0x1 PUSH1 0xA0 SHL SUB AND EXTCODESIZE PUSH1 0x0 SUB PUSH2 0x2427 JUMPI PUSH1 0x40 MLOAD PUSH4 0x4C9C8CE3 PUSH1 0xE0 SHL DUP2 MSTORE PUSH1 0x1 PUSH1 0x1 PUSH1 0xA0 SHL SUB DUP3 AND PUSH1 0x4 DUP3 ADD MSTORE PUSH1 0x24 ADD PUSH2 0x694 JUMP JUMPDEST PUSH1 0x0 DUP1 MLOAD PUSH1 0x20 PUSH2 0x3224 DUP4 CODECOPY DUP2 MLOAD SWAP2 MSTORE DUP1 SLOAD PUSH1 0x1 PUSH1 0x1 PUSH1 0xA0 SHL SUB NOT AND PUSH1 0x1 PUSH1 0x1 PUSH1 0xA0 SHL SUB SWAP3 SWAP1 SWAP3 AND SWAP2 SWAP1 SWAP2 OR SWAP1 SSTORE JUMP JUMPDEST PUSH1 0x60 PUSH1 0x0 DUP1 DUP5 PUSH1 0x1 PUSH1 0x1 PUSH1 0xA0 SHL SUB AND DUP5 PUSH1 0x40 MLOAD PUSH2 0x2473 SWAP2 SWAP1 PUSH2 0x30AE JUMP JUMPDEST PUSH1 0x0 PUSH1 0x40 MLOAD DUP1 DUP4 SUB DUP2 DUP6 GAS DELEGATECALL SWAP2 POP POP RETURNDATASIZE DUP1 PUSH1 0x0 DUP2 EQ PUSH2 0x24AE JUMPI PUSH1 0x40 MLOAD SWAP2 POP PUSH1 0x1F NOT PUSH1 0x3F RETURNDATASIZE ADD AND DUP3 ADD PUSH1 0x40 MSTORE RETURNDATASIZE DUP3 MSTORE RETURNDATASIZE PUSH1 0x0 PUSH1 0x20 DUP5 ADD RETURNDATACOPY PUSH2 0x24B3 JUMP JUMPDEST PUSH1 0x60 SWAP2 POP JUMPDEST POP SWAP2 POP SWAP2 POP PUSH2 0x13E7 DUP6 DUP4 DUP4 PUSH2 0x25BA JUMP JUMPDEST CALLVALUE ISZERO PUSH2 0x874 JUMPI PUSH1 0x40 MLOAD PUSH4 0xB398979F PUSH1 0xE0 SHL DUP2 MSTORE PUSH1 0x4 ADD PUSH1 0x40 MLOAD DUP1 SWAP2 SUB SWAP1 REVERT JUMPDEST PUSH1 0x0 DUP1 PUSH19 0x184F03E93FF9F4DAA797ED6E38ED64BF6A1F01 PUSH1 0x40 SHL DUP4 LT PUSH2 0x2521 JUMPI PUSH19 0x184F03E93FF9F4DAA797ED6E38ED64BF6A1F01 PUSH1 0x40 SHL DUP4 DIV SWAP3 POP PUSH1 0x40 ADD JUMPDEST PUSH14 0x4EE2D6D415B85ACEF8100000000 DUP4 LT PUSH2 0x254D JUMPI PUSH14 0x4EE2D6D415B85ACEF8100000000 DUP4 DIV SWAP3 POP PUSH1 0x20 ADD JUMPDEST PUSH7 0x2386F26FC10000 DUP4 LT PUSH2 0x256B JUMPI PUSH7 0x2386F26FC10000 DUP4 DIV SWAP3 POP PUSH1 0x10 ADD JUMPDEST PUSH4 0x5F5E100 DUP4 LT PUSH2 0x2583 JUMPI PUSH4 0x5F5E100 DUP4 DIV SWAP3 POP PUSH1 0x8 ADD JUMPDEST PUSH2 0x2710 DUP4 LT PUSH2 0x2597 JUMPI PUSH2 0x2710 DUP4 DIV SWAP3 POP PUSH1 0x4 ADD JUMPDEST PUSH1 0x64 DUP4 LT PUSH2 0x25A9 JUMPI PUSH1 0x64 DUP4 DIV SWAP3 POP PUSH1 0x2 ADD JUMPDEST PUSH1 0xA DUP4 LT PUSH2 0x5A0 JUMPI PUSH1 0x1 ADD SWAP3 SWAP2 POP POP JUMP JUMPDEST PUSH1 0x60 DUP3 PUSH2 0x25CF JUMPI PUSH2 0x25CA DUP3 PUSH2 0x2616 JUMP JUMPDEST PUSH2 0x1ABF JUMP JUMPDEST DUP2 MLOAD ISZERO DUP1 ISZERO PUSH2 0x25E6 JUMPI POP PUSH1 0x1 PUSH1 0x1 PUSH1 0xA0 SHL SUB DUP5 AND EXTCODESIZE ISZERO JUMPDEST ISZERO PUSH2 0x260F JUMPI PUSH1 0x40 MLOAD PUSH4 0x9996B315 PUSH1 0xE0 SHL DUP2 MSTORE PUSH1 0x1 PUSH1 0x1 PUSH1 0xA0 SHL SUB DUP6 AND PUSH1 0x4 DUP3 ADD MSTORE PUSH1 0x24 ADD PUSH2 0x694 JUMP JUMPDEST POP DUP1 PUSH2 0x1ABF JUMP JUMPDEST DUP1 MLOAD ISZERO PUSH2 0x2626 JUMPI DUP1 MLOAD DUP1 DUP3 PUSH1 0x20 ADD REVERT JUMPDEST PUSH1 0x40 MLOAD PUSH4 0xA12F521 PUSH1 0xE1 SHL DUP2 MSTORE PUSH1 0x4 ADD PUSH1 0x40 MLOAD DUP1 SWAP2 SUB SWAP1 REVERT JUMPDEST DUP3 DUP1 SLOAD DUP3 DUP3 SSTORE SWAP1 PUSH1 0x0 MSTORE PUSH1 0x20 PUSH1 0x0 KECCAK256 SWAP1 DUP2 ADD SWAP3 DUP3 ISZERO PUSH2 0x2685 JUMPI SWAP2 PUSH1 0x20 MUL DUP3 ADD JUMPDEST DUP3 DUP2 GT ISZERO PUSH2 0x2685 JUMPI DUP3 MLOAD DUP3 SWAP1 PUSH2 0x2675 SWAP1 DUP3 PUSH2 0x2FEF JUMP JUMPDEST POP SWAP2 PUSH1 0x20 ADD SWAP2 SWAP1 PUSH1 0x1 ADD SWAP1 PUSH2 0x265F JUMP JUMPDEST POP PUSH2 0x2691 SWAP3 SWAP2 POP PUSH2 0x2695 JUMP JUMPDEST POP SWAP1 JUMP JUMPDEST DUP1 DUP3 GT ISZERO PUSH2 0x2691 JUMPI PUSH1 0x0 PUSH2 0x26A9 DUP3 DUP3 PUSH2 0x26B2 JUMP JUMPDEST POP PUSH1 0x1 ADD PUSH2 0x2695 JUMP JUMPDEST POP DUP1 SLOAD PUSH2 0x26BE SWAP1 PUSH2 0x2F65 JUMP JUMPDEST PUSH1 0x0 DUP3 SSTORE DUP1 PUSH1 0x1F LT PUSH2 0x26CE JUMPI POP POP JUMP JUMPDEST PUSH1 0x1F ADD PUSH1 0x20 SWAP1 DIV SWAP1 PUSH1 0x0 MSTORE PUSH1 0x20 PUSH1 0x0 KECCAK256 SWAP1 DUP2 ADD SWAP1 PUSH2 0x18E8 SWAP2 SWAP1 JUMPDEST DUP1 DUP3 GT ISZERO PUSH2 0x2691 JUMPI PUSH1 0x0 DUP2 SSTORE PUSH1 0x1 ADD PUSH2 0x26E8 JUMP JUMPDEST PUSH1 0x0 PUSH1 0x20 DUP3 DUP5 SUB SLT ISZERO PUSH2 0x270E JUMPI PUSH1 0x0 DUP1 REVERT JUMPDEST POP CALLDATALOAD SWAP2 SWAP1 POP JUMP JUMPDEST PUSH1 0x1 PUSH1 0x1 PUSH1 0xE0 SHL SUB NOT DUP2 AND DUP2 EQ PUSH2 0x18E8 JUMPI PUSH1 0x0 DUP1 REVERT JUMPDEST PUSH1 0x0 PUSH1 0x20 DUP3 DUP5 SUB SLT ISZERO PUSH2 0x273D JUMPI PUSH1 0x0 DUP1 REVERT JUMPDEST DUP2 CALLDATALOAD PUSH2 0x1ABF DUP2 PUSH2 0x2715 JUMP JUMPDEST PUSH1 0x0 JUMPDEST DUP4 DUP2 LT ISZERO PUSH2 0x2763 JUMPI DUP2 DUP2 ADD MLOAD DUP4 DUP3 ADD MSTORE PUSH1 0x20 ADD PUSH2 0x274B JUMP JUMPDEST POP POP PUSH1 0x0 SWAP2 ADD MSTORE JUMP JUMPDEST PUSH1 0x0 DUP2 MLOAD DUP1 DUP5 MSTORE PUSH2 0x2784 DUP2 PUSH1 0x20 DUP7 ADD PUSH1 0x20 DUP7 ADD PUSH2 0x2748 JUMP JUMPDEST PUSH1 0x1F ADD PUSH1 0x1F NOT AND SWAP3 SWAP1 SWAP3 ADD PUSH1 0x20 ADD SWAP3 SWAP2 POP POP JUMP JUMPDEST PUSH1 0x20 DUP2 MSTORE PUSH1 0x0 PUSH2 0x1ABF PUSH1 0x20 DUP4 ADD DUP5 PUSH2 0x276C JUMP JUMPDEST DUP1 CALLDATALOAD PUSH1 0x1 PUSH1 0x1 PUSH1 0xA0 SHL SUB DUP2 AND DUP2 EQ PUSH2 0x27C2 JUMPI PUSH1 0x0 DUP1 REVERT JUMPDEST SWAP2 SWAP1 POP JUMP JUMPDEST PUSH1 0x0 DUP1 PUSH1 0x40 DUP4 DUP6 SUB SLT ISZERO PUSH2 0x27DA JUMPI PUSH1 0x0 DUP1 REVERT JUMPDEST PUSH2 0x27E3 DUP4 PUSH2 0x27AB JUMP JUMPDEST SWAP5 PUSH1 0x20 SWAP4 SWAP1 SWAP4 ADD CALLDATALOAD SWAP4 POP POP POP JUMP JUMPDEST PUSH1 0x0 DUP1 PUSH1 0x0 PUSH1 0x60 DUP5 DUP7 SUB SLT ISZERO PUSH2 0x2806 JUMPI PUSH1 0x0 DUP1 REVERT JUMPDEST PUSH2 0x280F DUP5 PUSH2 0x27AB JUMP JUMPDEST SWAP3 POP PUSH2 0x281D PUSH1 0x20 DUP6 ADD PUSH2 0x27AB JUMP JUMPDEST SWAP2 POP PUSH1 0x40 DUP5 ADD CALLDATALOAD SWAP1 POP SWAP3 POP SWAP3 POP SWAP3 JUMP JUMPDEST PUSH4 0x4E487B71 PUSH1 0xE0 SHL PUSH1 0x0 MSTORE PUSH1 0x41 PUSH1 0x4 MSTORE PUSH1 0x24 PUSH1 0x0 REVERT JUMPDEST PUSH1 0x40 MLOAD PUSH1 0xA0 DUP2 ADD PUSH1 0x1 PUSH1 0x1 PUSH1 0x40 SHL SUB DUP2 GT DUP3 DUP3 LT OR ISZERO PUSH2 0x2865 JUMPI PUSH2 0x2865 PUSH2 0x282D JUMP JUMPDEST PUSH1 0x40 MSTORE SWAP1 JUMP JUMPDEST PUSH1 0x40 MLOAD PUSH1 0x1F DUP3 ADD PUSH1 0x1F NOT AND DUP2 ADD PUSH1 0x1 PUSH1 0x1 PUSH1 0x40 SHL SUB DUP2 GT DUP3 DUP3 LT OR ISZERO PUSH2 0x2893 JUMPI PUSH2 0x2893 PUSH2 0x282D JUMP JUMPDEST PUSH1 0x40 MSTORE SWAP2 SWAP1 POP JUMP JUMPDEST PUSH1 0x0 DUP3 PUSH1 0x1F DUP4 ADD SLT PUSH2 0x28AC JUMPI PUSH1 0x0 DUP1 REVERT JUMPDEST DUP2 CALLDATALOAD PUSH1 0x1 PUSH1 0x1 PUSH1 0x40 SHL SUB DUP2 GT ISZERO PUSH2 0x28C5 JUMPI PUSH2 0x28C5 PUSH2 0x282D JUMP JUMPDEST PUSH2 0x28D8 PUSH1 0x1F DUP3 ADD PUSH1 0x1F NOT AND PUSH1 0x20 ADD PUSH2 0x286B JUMP JUMPDEST DUP2 DUP2 MSTORE DUP5 PUSH1 0x20 DUP4 DUP7 ADD ADD GT ISZERO PUSH2 0x28ED JUMPI PUSH1 0x0 DUP1 REVERT JUMPDEST DUP2 PUSH1 0x20 DUP6 ADD PUSH1 0x20 DUP4 ADD CALLDATACOPY PUSH1 0x0 SWAP2 DUP2 ADD PUSH1 0x20 ADD SWAP2 SWAP1 SWAP2 MSTORE SWAP4 SWAP3 POP POP POP JUMP JUMPDEST PUSH1 0x0 DUP1 PUSH1 0x40 DUP4 DUP6 SUB SLT ISZERO PUSH2 0x291D JUMPI PUSH1 0x0 DUP1 REVERT JUMPDEST PUSH2 0x2926 DUP4 PUSH2 0x27AB JUMP JUMPDEST SWAP2 POP PUSH1 0x20 DUP4 ADD CALLDATALOAD PUSH1 0x1 PUSH1 0x1 PUSH1 0x40 SHL SUB DUP2 GT ISZERO PUSH2 0x2941 JUMPI PUSH1 0x0 DUP1 REVERT JUMPDEST PUSH2 0x294D DUP6 DUP3 DUP7 ADD PUSH2 0x289B JUMP JUMPDEST SWAP2 POP POP SWAP3 POP SWAP3 SWAP1 POP JUMP JUMPDEST PUSH1 0x0 PUSH1 0x20 DUP3 DUP5 SUB SLT ISZERO PUSH2 0x2969 JUMPI PUSH1 0x0 DUP1 REVERT JUMPDEST PUSH2 0x1ABF DUP3 PUSH2 0x27AB JUMP JUMPDEST PUSH1 0x0 DUP3 DUP3 MLOAD DUP1 DUP6 MSTORE PUSH1 0x20 DUP1 DUP7 ADD SWAP6 POP PUSH1 0x20 DUP3 PUSH1 0x5 SHL DUP5 ADD ADD PUSH1 0x20 DUP7 ADD PUSH1 0x0 JUMPDEST DUP5 DUP2 LT ISZERO PUSH2 0x29BF JUMPI PUSH1 0x1F NOT DUP7 DUP5 SUB ADD DUP10 MSTORE PUSH2 0x29AD DUP4 DUP4 MLOAD PUSH2 0x276C JUMP JUMPDEST SWAP9 DUP5 ADD SWAP9 SWAP3 POP SWAP1 DUP4 ADD SWAP1 PUSH1 0x1 ADD PUSH2 0x2991 JUMP JUMPDEST POP SWAP1 SWAP8 SWAP7 POP POP POP POP POP POP POP JUMP JUMPDEST PUSH1 0x0 DUP2 MLOAD PUSH1 0xA0 DUP5 MSTORE PUSH2 0x29E1 PUSH1 0xA0 DUP6 ADD DUP3 PUSH2 0x276C JUMP JUMPDEST SWAP1 POP PUSH1 0x20 DUP4 ADD MLOAD DUP5 DUP3 SUB PUSH1 0x20 DUP7 ADD MSTORE PUSH2 0x29FA DUP3 DUP3 PUSH2 0x2972 JUMP JUMPDEST SWAP2 POP POP PUSH1 0x40 DUP4 ADD MLOAD PUSH1 0x40 DUP6 ADD MSTORE PUSH1 0x60 DUP4 ADD MLOAD DUP5 DUP3 SUB PUSH1 0x60 DUP7 ADD MSTORE PUSH2 0x2A1E DUP3 DUP3 PUSH2 0x2972 JUMP JUMPDEST SWAP2 POP POP PUSH1 0x80 DUP4 ADD MLOAD PUSH1 0x80 DUP6 ADD MSTORE DUP1 SWAP2 POP POP SWAP3 SWAP2 POP POP JUMP JUMPDEST PUSH1 0x20 DUP2 MSTORE DUP2 MLOAD ISZERO ISZERO PUSH1 0x20 DUP3 ADD MSTORE PUSH1 0x0 PUSH1 0x20 DUP4 ADD MLOAD PUSH1 0x60 PUSH1 0x40 DUP5 ADD MSTORE PUSH2 0x2A5D PUSH1 0x80 DUP5 ADD DUP3 PUSH2 0x276C JUMP JUMPDEST SWAP1 POP PUSH1 0x40 DUP5 ADD MLOAD PUSH1 0x1F NOT DUP5 DUP4 SUB ADD PUSH1 0x60 DUP6 ADD MSTORE PUSH2 0x13E7 DUP3 DUP3 PUSH2 0x29CC JUMP JUMPDEST PUSH1 0x0 PUSH1 0x20 DUP3 DUP5 SUB SLT ISZERO PUSH2 0x2A8C JUMPI PUSH1 0x0 DUP1 REVERT JUMPDEST DUP2 CALLDATALOAD PUSH1 0x1 PUSH1 0x1 PUSH1 0x40 SHL SUB DUP2 GT ISZERO PUSH2 0x2AA2 JUMPI PUSH1 0x0 DUP1 REVERT JUMPDEST PUSH2 0x23E9 DUP5 DUP3 DUP6 ADD PUSH2 0x289B JUMP JUMPDEST PUSH1 0x60 DUP2 MSTORE PUSH1 0x0 PUSH2 0x2AC1 PUSH1 0x60 DUP4 ADD DUP7 PUSH2 0x276C JUMP JUMPDEST PUSH1 0x20 DUP4 ADD SWAP5 SWAP1 SWAP5 MSTORE POP PUSH1 0x40 ADD MSTORE SWAP2 SWAP1 POP JUMP JUMPDEST DUP1 CALLDATALOAD DUP1 ISZERO ISZERO DUP2 EQ PUSH2 0x27C2 JUMPI PUSH1 0x0 DUP1 REVERT JUMPDEST PUSH1 0x0 DUP1 PUSH1 0x40 DUP4 DUP6 SUB SLT ISZERO PUSH2 0x2AF6 JUMPI PUSH1 0x0 DUP1 REVERT JUMPDEST PUSH2 0x2AFF DUP4 PUSH2 0x27AB JUMP JUMPDEST SWAP2 POP PUSH2 0x2B0D PUSH1 0x20 DUP5 ADD PUSH2 0x2AD3 JUMP JUMPDEST SWAP1 POP SWAP3 POP SWAP3 SWAP1 POP JUMP JUMPDEST PUSH1 0x0 DUP3 PUSH1 0x1F DUP4 ADD SLT PUSH2 0x2B27 JUMPI PUSH1 0x0 DUP1 REVERT JUMPDEST DUP2 CALLDATALOAD PUSH1 0x20 PUSH1 0x1 PUSH1 0x1 PUSH1 0x40 SHL SUB DUP1 DUP4 GT ISZERO PUSH2 0x2B43 JUMPI PUSH2 0x2B43 PUSH2 0x282D JUMP JUMPDEST DUP3 PUSH1 0x5 SHL PUSH2 0x2B52 DUP4 DUP3 ADD PUSH2 0x286B JUMP JUMPDEST SWAP4 DUP5 MSTORE DUP6 DUP2 ADD DUP4 ADD SWAP4 DUP4 DUP2 ADD SWAP1 DUP9 DUP7 GT ISZERO PUSH2 0x2B6C JUMPI PUSH1 0x0 DUP1 REVERT JUMPDEST DUP5 DUP9 ADD SWAP3 POP JUMPDEST DUP6 DUP4 LT ISZERO PUSH2 0x2BA8 JUMPI DUP3 CALLDATALOAD DUP5 DUP2 GT ISZERO PUSH2 0x2B8A JUMPI PUSH1 0x0 DUP1 DUP2 REVERT JUMPDEST PUSH2 0x2B98 DUP11 DUP8 DUP4 DUP13 ADD ADD PUSH2 0x289B JUMP JUMPDEST DUP4 MSTORE POP SWAP2 DUP5 ADD SWAP2 SWAP1 DUP5 ADD SWAP1 PUSH2 0x2B72 JUMP JUMPDEST SWAP9 SWAP8 POP POP POP POP POP POP POP POP JUMP JUMPDEST PUSH1 0x0 PUSH1 0xA0 DUP3 DUP5 SUB SLT ISZERO PUSH2 0x2BC6 JUMPI PUSH1 0x0 DUP1 REVERT JUMPDEST PUSH2 0x2BCE PUSH2 0x2843 JUMP JUMPDEST SWAP1 POP DUP2 CALLDATALOAD PUSH1 0x1 PUSH1 0x1 PUSH1 0x40 SHL SUB DUP1 DUP3 GT ISZERO PUSH2 0x2BE7 JUMPI PUSH1 0x0 DUP1 REVERT JUMPDEST PUSH2 0x2BF3 DUP6 DUP4 DUP7 ADD PUSH2 0x289B JUMP JUMPDEST DUP4 MSTORE PUSH1 0x20 DUP5 ADD CALLDATALOAD SWAP2 POP DUP1 DUP3 GT ISZERO PUSH2 0x2C09 JUMPI PUSH1 0x0 DUP1 REVERT JUMPDEST PUSH2 0x2C15 DUP6 DUP4 DUP7 ADD PUSH2 0x2B16 JUMP JUMPDEST PUSH1 0x20 DUP5 ADD MSTORE PUSH1 0x40 DUP5 ADD CALLDATALOAD PUSH1 0x40 DUP5 ADD MSTORE PUSH1 0x60 DUP5 ADD CALLDATALOAD SWAP2 POP DUP1 DUP3 GT ISZERO PUSH2 0x2C38 JUMPI PUSH1 0x0 DUP1 REVERT JUMPDEST POP PUSH2 0x2C45 DUP5 DUP3 DUP6 ADD PUSH2 0x2B16 JUMP JUMPDEST PUSH1 0x60 DUP4 ADD MSTORE POP PUSH1 0x80 DUP3 ADD CALLDATALOAD PUSH1 0x80 DUP3 ADD MSTORE SWAP3 SWAP2 POP POP JUMP JUMPDEST PUSH1 0x0 PUSH1 0x60 DUP3 DUP5 SUB SLT ISZERO PUSH2 0x2C6D JUMPI PUSH1 0x0 DUP1 REVERT JUMPDEST PUSH1 0x40 MLOAD PUSH1 0x60 DUP2 ADD PUSH1 0x1 PUSH1 0x1 PUSH1 0x40 SHL SUB DUP3 DUP3 LT DUP2 DUP4 GT OR ISZERO PUSH2 0x2C90 JUMPI PUSH2 0x2C90 PUSH2 0x282D JUMP JUMPDEST DUP2 PUSH1 0x40 MSTORE DUP3 SWAP4 POP PUSH2 0x2CA0 DUP6 PUSH2 0x2AD3 JUMP JUMPDEST DUP4 MSTORE PUSH1 0x20 DUP6 ADD CALLDATALOAD SWAP2 POP DUP1 DUP3 GT ISZERO PUSH2 0x2CB6 JUMPI PUSH1 0x0 DUP1 REVERT JUMPDEST PUSH2 0x2CC2 DUP7 DUP4 DUP8 ADD PUSH2 0x289B JUMP JUMPDEST PUSH1 0x20 DUP5 ADD MSTORE PUSH1 0x40 DUP6 ADD CALLDATALOAD SWAP2 POP DUP1 DUP3 GT ISZERO PUSH2 0x2CDB JUMPI PUSH1 0x0 DUP1 REVERT JUMPDEST POP PUSH2 0x2CE8 DUP6 DUP3 DUP7 ADD PUSH2 0x2BB4 JUMP JUMPDEST PUSH1 0x40 DUP4 ADD MSTORE POP POP SWAP3 SWAP2 POP POP JUMP JUMPDEST PUSH1 0x0 DUP1 PUSH1 0x0 DUP1 PUSH1 0x80 DUP6 DUP8 SUB SLT ISZERO PUSH2 0x2D0B JUMPI PUSH1 0x0 DUP1 REVERT JUMPDEST DUP5 CALLDATALOAD PUSH1 0x1 PUSH1 0x1 PUSH1 0x40 SHL SUB DUP1 DUP3 GT ISZERO PUSH2 0x2D22 JUMPI PUSH1 0x0 DUP1 REVERT JUMPDEST PUSH2 0x2D2E DUP9 DUP4 DUP10 ADD PUSH2 0x289B JUMP JUMPDEST SWAP6 POP PUSH1 0x20 DUP8 ADD CALLDATALOAD SWAP2 POP DUP1 DUP3 GT ISZERO PUSH2 0x2D44 JUMPI PUSH1 0x0 DUP1 REVERT JUMPDEST PUSH2 0x2D50 DUP9 DUP4 DUP10 ADD PUSH2 0x289B JUMP JUMPDEST SWAP5 POP PUSH1 0x40 DUP8 ADD CALLDATALOAD SWAP2 POP DUP1 DUP3 GT ISZERO PUSH2 0x2D66 JUMPI PUSH1 0x0 DUP1 REVERT JUMPDEST POP PUSH2 0x2D73 DUP8 DUP3 DUP9 ADD PUSH2 0x2C5B JUMP JUMPDEST SWAP3 POP POP PUSH2 0x2D82 PUSH1 0x60 DUP7 ADD PUSH2 0x27AB JUMP JUMPDEST SWAP1 POP SWAP3 SWAP6 SWAP2 SWAP5 POP SWAP3 POP JUMP JUMPDEST PUSH1 0x0 DUP1 PUSH1 0x0 DUP1 PUSH1 0x80 DUP6 DUP8 SUB SLT ISZERO PUSH2 0x2DA3 JUMPI PUSH1 0x0 DUP1 REVERT JUMPDEST PUSH2 0x2DAC DUP6 PUSH2 0x27AB JUMP JUMPDEST SWAP4 POP PUSH2 0x2DBA PUSH1 0x20 DUP7 ADD PUSH2 0x27AB JUMP JUMPDEST SWAP3 POP PUSH1 0x40 DUP6 ADD CALLDATALOAD SWAP2 POP PUSH1 0x60 DUP6 ADD CALLDATALOAD PUSH1 0x1 PUSH1 0x1 PUSH1 0x40 SHL SUB DUP2 GT ISZERO PUSH2 0x2DDC JUMPI PUSH1 0x0 DUP1 REVERT JUMPDEST PUSH2 0x2DE8 DUP8 DUP3 DUP9 ADD PUSH2 0x289B JUMP JUMPDEST SWAP2 POP POP SWAP3 SWAP6 SWAP2 SWAP5 POP SWAP3 POP JUMP JUMPDEST PUSH1 0x0 DUP1 PUSH1 0x0 PUSH1 0x60 DUP5 DUP7 SUB SLT ISZERO PUSH2 0x2E09 JUMPI PUSH1 0x0 DUP1 REVERT JUMPDEST DUP4 CALLDATALOAD SWAP3 POP PUSH1 0x20 DUP5 ADD CALLDATALOAD PUSH1 0x1 PUSH1 0x1 PUSH1 0x40 SHL SUB DUP1 DUP3 GT ISZERO PUSH2 0x2E27 JUMPI PUSH1 0x0 DUP1 REVERT JUMPDEST PUSH2 0x2E33 DUP8 DUP4 DUP9 ADD PUSH2 0x2BB4 JUMP JUMPDEST SWAP4 POP PUSH1 0x40 DUP7 ADD CALLDATALOAD SWAP2 POP DUP1 DUP3 GT ISZERO PUSH2 0x2E49 JUMPI PUSH1 0x0 DUP1 REVERT JUMPDEST POP PUSH2 0x2E56 DUP7 DUP3 DUP8 ADD PUSH2 0x289B JUMP JUMPDEST SWAP2 POP POP SWAP3 POP SWAP3 POP SWAP3 JUMP JUMPDEST PUSH1 0x0 DUP1 PUSH1 0x0 DUP1 PUSH1 0x80 DUP6 DUP8 SUB SLT ISZERO PUSH2 0x2E76 JUMPI PUSH1 0x0 DUP1 REVERT JUMPDEST PUSH2 0x2E7F DUP6 PUSH2 0x27AB JUMP JUMPDEST SWAP4 POP PUSH1 0x20 DUP6 ADD CALLDATALOAD PUSH1 0x1 PUSH1 0x1 PUSH1 0x40 SHL SUB DUP1 DUP3 GT ISZERO PUSH2 0x2E9B JUMPI PUSH1 0x0 DUP1 REVERT JUMPDEST PUSH2 0x2EA7 DUP9 DUP4 DUP10 ADD PUSH2 0x289B JUMP JUMPDEST SWAP5 POP PUSH1 0x40 DUP8 ADD CALLDATALOAD SWAP2 POP DUP1 DUP3 GT ISZERO PUSH2 0x2EBD JUMPI PUSH1 0x0 DUP1 REVERT JUMPDEST PUSH2 0x2EC9 DUP9 DUP4 DUP10 ADD PUSH2 0x2C5B JUMP JUMPDEST SWAP4 POP PUSH1 0x60 DUP8 ADD CALLDATALOAD SWAP2 POP DUP1 DUP3 GT ISZERO PUSH2 0x2EDF JUMPI PUSH1 0x0 DUP1 REVERT JUMPDEST POP PUSH2 0x2DE8 DUP8 DUP3 DUP9 ADD PUSH2 0x289B JUMP JUMPDEST PUSH1 0x20 DUP2 MSTORE PUSH1 0x0 PUSH2 0x1ABF PUSH1 0x20 DUP4 ADD DUP5 PUSH2 0x29CC JUMP JUMPDEST PUSH1 0x0 DUP1 PUSH1 0x40 DUP4 DUP6 SUB SLT ISZERO PUSH2 0x2F12 JUMPI PUSH1 0x0 DUP1 REVERT JUMPDEST PUSH2 0x2F1B DUP4 PUSH2 0x27AB JUMP JUMPDEST SWAP2 POP PUSH2 0x2B0D PUSH1 0x20 DUP5 ADD PUSH2 0x27AB JUMP JUMPDEST PUSH1 0x0 DUP1 PUSH1 0x40 DUP4 DUP6 SUB SLT ISZERO PUSH2 0x2F3C JUMPI PUSH1 0x0 DUP1 REVERT JUMPDEST DUP3 CALLDATALOAD SWAP2 POP PUSH1 0x20 DUP4 ADD CALLDATALOAD PUSH1 0x1 PUSH1 0x1 PUSH1 0x40 SHL SUB DUP2 GT ISZERO PUSH2 0x2F59 JUMPI PUSH1 0x0 DUP1 REVERT JUMPDEST PUSH2 0x294D DUP6 DUP3 DUP7 ADD PUSH2 0x2C5B JUMP JUMPDEST PUSH1 0x1 DUP2 DUP2 SHR SWAP1 DUP3 AND DUP1 PUSH2 0x2F79 JUMPI PUSH1 0x7F DUP3 AND SWAP2 POP JUMPDEST PUSH1 0x20 DUP3 LT DUP2 SUB PUSH2 0x2F99 JUMPI PUSH4 0x4E487B71 PUSH1 0xE0 SHL PUSH1 0x0 MSTORE PUSH1 0x22 PUSH1 0x4 MSTORE PUSH1 0x24 PUSH1 0x0 REVERT JUMPDEST POP SWAP2 SWAP1 POP JUMP JUMPDEST PUSH1 0x1F DUP3 GT ISZERO PUSH2 0x7BE JUMPI PUSH1 0x0 DUP2 PUSH1 0x0 MSTORE PUSH1 0x20 PUSH1 0x0 KECCAK256 PUSH1 0x1F DUP6 ADD PUSH1 0x5 SHR DUP2 ADD PUSH1 0x20 DUP7 LT ISZERO PUSH2 0x2FC8 JUMPI POP DUP1 JUMPDEST PUSH1 0x1F DUP6 ADD PUSH1 0x5 SHR DUP3 ADD SWAP2 POP JUMPDEST DUP2 DUP2 LT ISZERO PUSH2 0x2FE7 JUMPI DUP3 DUP2 SSTORE PUSH1 0x1 ADD PUSH2 0x2FD4 JUMP JUMPDEST POP POP POP POP POP POP JUMP JUMPDEST DUP2 MLOAD PUSH1 0x1 PUSH1 0x1 PUSH1 0x40 SHL SUB DUP2 GT ISZERO PUSH2 0x3008 JUMPI PUSH2 0x3008 PUSH2 0x282D JUMP JUMPDEST PUSH2 0x301C DUP2 PUSH2 0x3016 DUP5 SLOAD PUSH2 0x2F65 JUMP JUMPDEST DUP5 PUSH2 0x2F9F JUMP JUMPDEST PUSH1 0x20 DUP1 PUSH1 0x1F DUP4 GT PUSH1 0x1 DUP2 EQ PUSH2 0x3051 JUMPI PUSH1 0x0 DUP5 ISZERO PUSH2 0x3039 JUMPI POP DUP6 DUP4 ADD MLOAD JUMPDEST PUSH1 0x0 NOT PUSH1 0x3 DUP7 SWAP1 SHL SHR NOT AND PUSH1 0x1 DUP6 SWAP1 SHL OR DUP6 SSTORE PUSH2 0x2FE7 JUMP JUMPDEST PUSH1 0x0 DUP6 DUP2 MSTORE PUSH1 0x20 DUP2 KECCAK256 PUSH1 0x1F NOT DUP7 AND SWAP2 JUMPDEST DUP3 DUP2 LT ISZERO PUSH2 0x3080 JUMPI DUP9 DUP7 ADD MLOAD DUP3 SSTORE SWAP5 DUP5 ADD SWAP5 PUSH1 0x1 SWAP1 SWAP2 ADD SWAP1 DUP5 ADD PUSH2 0x3061 JUMP JUMPDEST POP DUP6 DUP3 LT ISZERO PUSH2 0x309E JUMPI DUP8 DUP6 ADD MLOAD PUSH1 0x0 NOT PUSH1 0x3 DUP9 SWAP1 SHL PUSH1 0xF8 AND SHR NOT AND DUP2 SSTORE JUMPDEST POP POP POP POP POP PUSH1 0x1 SWAP1 DUP2 SHL ADD SWAP1 SSTORE POP JUMP JUMPDEST PUSH1 0x0 DUP3 MLOAD PUSH2 0x30C0 DUP2 DUP5 PUSH1 0x20 DUP8 ADD PUSH2 0x2748 JUMP JUMPDEST SWAP2 SWAP1 SWAP2 ADD SWAP3 SWAP2 POP POP JUMP JUMPDEST DUP1 DUP3 ADD DUP1 DUP3 GT ISZERO PUSH2 0x5A0 JUMPI PUSH4 0x4E487B71 PUSH1 0xE0 SHL PUSH1 0x0 MSTORE PUSH1 0x11 PUSH1 0x4 MSTORE PUSH1 0x24 PUSH1 0x0 REVERT JUMPDEST PUSH1 0x0 DUP4 MLOAD PUSH2 0x30FD DUP2 DUP5 PUSH1 0x20 DUP9 ADD PUSH2 0x2748 JUMP JUMPDEST DUP4 MLOAD SWAP1 DUP4 ADD SWAP1 PUSH2 0x3111 DUP2 DUP4 PUSH1 0x20 DUP9 ADD PUSH2 0x2748 JUMP JUMPDEST ADD SWAP5 SWAP4 POP POP POP POP JUMP JUMPDEST PUSH1 0x0 DUP1 DUP4 SLOAD PUSH2 0x3128 DUP2 PUSH2 0x2F65 JUMP JUMPDEST PUSH1 0x1 DUP3 DUP2 AND DUP1 ISZERO PUSH2 0x3140 JUMPI PUSH1 0x1 DUP2 EQ PUSH2 0x3155 JUMPI PUSH2 0x3184 JUMP JUMPDEST PUSH1 0xFF NOT DUP5 AND DUP8 MSTORE DUP3 ISZERO ISZERO DUP4 MUL DUP8 ADD SWAP5 POP PUSH2 0x3184 JUMP JUMPDEST DUP8 PUSH1 0x0 MSTORE PUSH1 0x20 DUP1 PUSH1 0x0 KECCAK256 PUSH1 0x0 JUMPDEST DUP6 DUP2 LT ISZERO PUSH2 0x317B JUMPI DUP2 SLOAD DUP11 DUP3 ADD MSTORE SWAP1 DUP5 ADD SWAP1 DUP3 ADD PUSH2 0x3162 JUMP JUMPDEST POP POP POP DUP3 DUP8 ADD SWAP5 POP JUMPDEST POP SWAP3 SWAP7 SWAP6 POP POP POP POP POP POP JUMP JUMPDEST PUSH1 0x0 PUSH1 0x20 DUP3 DUP5 SUB SLT ISZERO PUSH2 0x31A2 JUMPI PUSH1 0x0 DUP1 REVERT JUMPDEST POP MLOAD SWAP2 SWAP1 POP JUMP JUMPDEST PUSH1 0x1 PUSH1 0x1 PUSH1 0xA0 SHL SUB DUP6 DUP2 AND DUP3 MSTORE DUP5 AND PUSH1 0x20 DUP3 ADD MSTORE PUSH1 0x40 DUP2 ADD DUP4 SWAP1 MSTORE PUSH1 0x80 PUSH1 0x60 DUP3 ADD DUP2 SWAP1 MSTORE PUSH1 0x0 SWAP1 PUSH2 0x31DC SWAP1 DUP4 ADD DUP5 PUSH2 0x276C JUMP JUMPDEST SWAP7 SWAP6 POP POP POP POP POP POP JUMP JUMPDEST PUSH1 0x0 PUSH1 0x20 DUP3 DUP5 SUB SLT ISZERO PUSH2 0x31F8 JUMPI PUSH1 0x0 DUP1 REVERT JUMPDEST DUP2 MLOAD PUSH2 0x1ABF DUP2 PUSH2 0x2715 JUMP INVALID DUP1 0xBB 0x2B PUSH4 0x8CC20BC4 0xD0 0xA6 0xD PUSH7 0x940F3AB4A00C1D PUSH28 0x313497CA82FB0B4AB0079300360894A13BA1A3210667C828492DB98D 0xCA RETURNDATACOPY KECCAK256 PUSH23 0xCC3735A920A3CA505D382BBCA264697066735822122053 PUSH10 0x5E4502FCBD64FE862990 0x24 DUP1 RETURNDATASIZE 0xEE 0xDD 0xE3 0xFC PUSH26 0xC6A82E75C7FB846EA86AEBD664736F6C63430008180033000000 "},"methodIdentifiers":{"UPGRADE_INTERFACE_VERSION()":"ad3cb1cc","approve(address,uint256)":"095ea7b3","balanceOf(address)":"70a08231","getAppInfo(uint256)":"741aa2bd","getApproved(uint256)":"081812fc","getVersionInfo(uint256)":"cb4b9e2c","initialize(string,string,(bool,string,(string,string[],bytes32,string[],bytes32)),address)":"aadb3f43","isApprovedForAll(address,address)":"e985e9c5","mint(address,string,(bool,string,(string,string[],bytes32,string[],bytes32)),string)":"c80e329b","name()":"06fdde03","nfaVersions(string)":"8b5c9283","owner()":"8da5cb5b","ownerOf(uint256)":"6352211e","proxiableUUID()":"52d1902d","renounceOwnership()":"715018a6","safeTransferFrom(address,address,uint256)":"42842e0e","safeTransferFrom(address,address,uint256,bytes)":"b88d4fde","setApprovalForAll(address,bool)":"a22cb465","supportsInterface(bytes4)":"01ffc9a7","symbol()":"95d89b41","tokenExists(uint256)":"00923f9e","tokenURI(uint256)":"c87b56dd","transferFrom(address,address,uint256)":"23b872dd","transferOwnership(address)":"f2fde38b","updateAppInfo(uint256,(bool,string,(string,string[],bytes32,string[],bytes32)))":"ef2a9a05","updateVersion(uint256,(string,string[],bytes32,string[],bytes32),string)":"c167291e","upgradeToAndCall(address,bytes)":"4f1ef286","withdraw()":"3ccfd60b"}}}}}