{"contracts/NFAFactory.sol":{"NFAFactory":{"abi":[{"inputs":[],"name":"InvalidInitialization","type":"error"},{"inputs":[],"name":"NotInitializing","type":"error"},{"inputs":[{"internalType":"address","name":"owner","type":"address"}],"name":"OwnableInvalidOwner","type":"error"},{"inputs":[{"internalType":"address","name":"account","type":"address"}],"name":"OwnableUnauthorizedAccount","type":"error"},{"anonymous":false,"inputs":[{"indexed":false,"internalType":"uint64","name":"version","type":"uint64"}],"name":"Initialized","type":"event"},{"anonymous":false,"inputs":[{"indexed":true,"internalType":"address","name":"nfaAddress","type":"address"}],"name":"NFAContractCreated","type":"event"},{"anonymous":false,"inputs":[{"indexed":true,"internalType":"address","name":"previousOwner","type":"address"},{"indexed":true,"internalType":"address","name":"newOwner","type":"address"}],"name":"OwnershipTransferred","type":"event"},{"inputs":[{"internalType":"string","name":"name","type":"string"},{"internalType":"string","name":"symbol","type":"string"},{"components":[{"internalType":"bool","name":"routerRequired","type":"bool"},{"internalType":"string","name":"paymentModel","type":"string"},{"components":[{"internalType":"string","name":"versionId","type":"string"},{"internalType":"string[]","name":"downloadURIs","type":"string[]"},{"internalType":"bytes32","name":"codeHash","type":"bytes32"},{"internalType":"string[]","name":"abiURIs","type":"string[]"},{"internalType":"bytes32","name":"abiHash","type":"bytes32"}],"internalType":"struct VersionInfo","name":"versionInfo","type":"tuple"}],"internalType":"struct AppInfo","name":"appInfo","type":"tuple"},{"components":[{"internalType":"string","name":"versionId","type":"string"},{"internalType":"string[]","name":"downloadURIs","type":"string[]"},{"internalType":"bytes32","name":"codeHash","type":"bytes32"},{"internalType":"string[]","name":"abiURIs","type":"string[]"},{"internalType":"bytes32","name":"abiHash","type":"bytes32"}],"internalType":"struct VersionInfo","name":"versionInfo","type":"tuple"},{"internalType":"address","name":"initialOwner","type":"address"}],"name":"createNFAContract","outputs":[{"internalType":"address","name":"","type":"address"}],"stateMutability":"nonpayable","type":"function"},{"inputs":[{"internalType":"address","name":"owner","type":"address"}],"name":"initialize","outputs":[],"stateMutability":"nonpayable","type":"function"},{"inputs":[],"name":"owner","outputs":[{"internalType":"address","name":"","type":"address"}],"stateMutability":"view","type":"function"},{"inputs":[],"name":"renounceOwnership","outputs":[],"stateMutability":"nonpayable","type":"function"},{"inputs":[{"internalType":"address","name":"newOwner","type":"address"}],"name":"transferOwnership","outputs":[],"stateMutability":"nonpayable","type":"function"}],"evm":{"bytecode":{"linkReferences":{},"object":"608060405234801561001057600080fd5b50613c4e806100206000396000f3fe608060405234801561001057600080fd5b50600436106100575760003560e01c8063715018a61461005c5780638da5cb5b14610066578063c4d66de8146100ae578063e4624f0b146100c1578063f2fde38b146100d4575b600080fd5b6100646100e7565b005b7f9016d09d72d40fdae2fd8ceac6b6234c7706214fd39c1cd1e609a0528c199300546001600160a01b03165b6040516001600160a01b03909116815260200160405180910390f35b6100646100bc366004610481565b6100fb565b6100926100cf3660046106ed565b61020b565b6100646100e2366004610481565b6102e7565b6100ef61032a565b6100f96000610385565b565b7ff0c57e16840df040f15088dc2f81fe391c3923bec73e23a9662efc9c229c6a008054600160401b810460ff16159067ffffffffffffffff166000811580156101415750825b905060008267ffffffffffffffff16600114801561015e5750303b155b90508115801561016c575080155b1561018a5760405163f92ee8a960e01b815260040160405180910390fd5b845467ffffffffffffffff1916600117855583156101b457845460ff60401b1916600160401b1785555b6101bd866103f6565b831561020357845460ff60401b19168555604051600181527fc7f505b2f371ae2175ee4913f4499e1f2633a7b5936321eed1cdaeb6115181d29060200160405180910390a15b505050505050565b600061021561032a565b600060405161022390610458565b604051809103906000f08015801561023f573d6000803e3d6000fd5b50604051631b8eb48b60e21b81529091506001600160a01b03821690636e3ad22c90610277908a908a908a908a908a9060040161091e565b600060405180830381600087803b15801561029157600080fd5b505af11580156102a5573d6000803e3d6000fd5b50506040516001600160a01b03841692507ff7b4406dc2d76f36a4e71e16983b35cd71fe8cbe99e7bfaa715c31d551c8f3129150600090a29695505050505050565b6102ef61032a565b6001600160a01b03811661031e57604051631e4fbdf760e01b8152600060048201526024015b60405180910390fd5b61032781610385565b50565b3361035c7f9016d09d72d40fdae2fd8ceac6b6234c7706214fd39c1cd1e609a0528c199300546001600160a01b031690565b6001600160a01b0316146100f95760405163118cdaa760e01b8152336004820152602401610315565b7f9016d09d72d40fdae2fd8ceac6b6234c7706214fd39c1cd1e609a0528c19930080546001600160a01b031981166001600160a01b03848116918217845560405192169182907f8be0079c531659141344cd1fd0a4f28419497f9722a3daafe3b4186f6b6457e090600090a3505050565b6103fe610407565b61032781610450565b7ff0c57e16840df040f15088dc2f81fe391c3923bec73e23a9662efc9c229c6a0054600160401b900460ff166100f957604051631afcd79f60e31b815260040160405180910390fd5b6102ef610407565b613262806109b783390190565b80356001600160a01b038116811461047c57600080fd5b919050565b60006020828403121561049357600080fd5b61049c82610465565b9392505050565b634e487b7160e01b600052604160045260246000fd5b60405160a0810167ffffffffffffffff811182821017156104dc576104dc6104a3565b60405290565b6040516060810167ffffffffffffffff811182821017156104dc576104dc6104a3565b604051601f8201601f1916810167ffffffffffffffff8111828210171561052e5761052e6104a3565b604052919050565b600082601f83011261054757600080fd5b813567ffffffffffffffff811115610561576105616104a3565b610574601f8201601f1916602001610505565b81815284602083860101111561058957600080fd5b816020850160208301376000918101602001919091529392505050565b600082601f8301126105b757600080fd5b8135602067ffffffffffffffff808311156105d4576105d46104a3565b8260051b6105e3838201610505565b93845285810183019383810190888611156105fd57600080fd5b84880192505b858310156106395782358481111561061b5760008081fd5b6106298a87838c0101610536565b8352509184019190840190610603565b98975050505050505050565b600060a0828403121561065757600080fd5b61065f6104b9565b9050813567ffffffffffffffff8082111561067957600080fd5b61068585838601610536565b8352602084013591508082111561069b57600080fd5b6106a7858386016105a6565b60208401526040840135604084015260608401359150808211156106ca57600080fd5b506106d7848285016105a6565b6060830152506080820135608082015292915050565b600080600080600060a0868803121561070557600080fd5b853567ffffffffffffffff8082111561071d57600080fd5b61072989838a01610536565b9650602088013591508082111561073f57600080fd5b61074b89838a01610536565b9550604088013591508082111561076157600080fd5b908701906060828a03121561077557600080fd5b61077d6104e2565b8235801515811461078d57600080fd5b81526020830135828111156107a157600080fd5b6107ad8b828601610536565b6020830152506040830135828111156107c557600080fd5b6107d18b828601610645565b604083015250945060608801359150808211156107ed57600080fd5b506107fa88828901610645565b92505061080960808701610465565b90509295509295909350565b6000815180845260005b8181101561083b5760208185018101518683018201520161081f565b506000602082860101526020601f19601f83011685010191505092915050565b60008282518085526020808601955060208260051b8401016020860160005b848110156108a857601f19868403018952610896838351610815565b9884019892509083019060010161087a565b5090979650505050505050565b6000815160a084526108ca60a0850182610815565b9050602083015184820360208601526108e3828261085b565b9150506040830151604085015260608301518482036060860152610907828261085b565b915050608083015160808501528091505092915050565b60a08152600061093160a0830188610815565b82810360208401526109438188610815565b9050828103604084015285511515815260208601516060602083015261096c6060830182610815565b90506040870151828203604084015261098582826108b5565b92505050828103606084015261099b81866108b5565b91505060018060a01b0383166080830152969550505050505056fe60a06040523060805234801561001457600080fd5b5060805161322461003e60003960008181611a8901528181611ab20152611bf301526132246000f3fe6080604052600436106101a25760003560e01c8063741aa2bd116100e0578063c167291e11610084578063cb4b9e2c11610061578063cb4b9e2c146104d1578063e985e9c5146104fe578063ef2a9a051461051e578063f2fde38b1461053e57005b8063c167291e14610471578063c80e329b14610491578063c87b56dd146104b157005b806395d89b41116100bd57806395d89b41146103eb578063a22cb46514610400578063ad3cb1cc14610420578063b88d4fde1461045157005b8063741aa2bd1461037a5780638b5c9283146103a75780638da5cb5b146103d657005b806342842e0e116101475780636352211e116101245780636352211e146103055780636e3ad22c1461032557806370a0823114610345578063715018a61461036557005b806342842e0e146102af5780634f1ef286146102cf57806352d1902d146102e257005b8063081812fc11610180578063081812fc14610222578063095ea7b31461025a57806323b872dd1461027a5780633ccfd60b1461029a57005b8062923f9e146101ab57806301ffc9a7146101e057806306fdde031461020057005b366101a957005b005b3480156101b757600080fd5b506101cb6101c6366004612682565b61055e565b60405190151581526020015b60405180910390f35b3480156101ec57600080fd5b506101cb6101fb3660046126b1565b61057b565b34801561020c57600080fd5b506102156105a6565b6040516101d7919061271e565b34801561022e57600080fd5b5061024261023d366004612682565b61064a565b6040516001600160a01b0390911681526020016101d7565b34801561026657600080fd5b506101a961027536600461274d565b61065f565b34801561028657600080fd5b506101a9610295366004612777565b61066e565b3480156102a657600080fd5b506101a96106fe565b3480156102bb57600080fd5b506101a96102ca366004612777565b6107a3565b6101a96102dd366004612890565b6107c3565b3480156102ee57600080fd5b506102f76107de565b6040519081526020016101d7565b34801561031157600080fd5b50610242610320366004612682565b6107fb565b34801561033157600080fd5b506101a9610340366004612acc565b610806565b34801561035157600080fd5b506102f7610360366004612b89565b6109ce565b34801561037157600080fd5b506101a9610a2a565b34801561038657600080fd5b5061039a610395366004612682565b610a3e565b6040516101d79190612c67565b3480156103b357600080fd5b506103c76103c2366004612cac565b610e15565b6040516101d793929190612ce0565b3480156103e257600080fd5b50610242610eca565b3480156103f757600080fd5b50610215610ef8565b34801561040c57600080fd5b506101a961041b366004612d05565b610f37565b34801561042c57600080fd5b50610215604051806040016040528060058152602001640352e302e360dc1b81525081565b34801561045d57600080fd5b506101a961046c366004612d38565b610f42565b34801561047d57600080fd5b506101a961048c366004612d9f565b610f59565b34801561049d57600080fd5b506102f76104ac366004612e0b565b611080565b3480156104bd57600080fd5b506102156104cc366004612682565b611241565b3480156104dd57600080fd5b506104f16104ec366004612682565b611376565b6040516101d79190612e97565b34801561050a57600080fd5b506101cb610519366004612eaa565b6116a0565b34801561052a57600080fd5b506101a9610539366004612ed4565b6116ed565b34801561054a57600080fd5b506101a9610559366004612b89565b611833565b60008061056a836107fb565b6001600160a01b0316141592915050565b60006001600160e01b03198216632483248360e11b14806105a057506105a082611871565b92915050565b6000805160206131af83398151915280546060919081906105c690612f10565b80601f01602080910402602001604051908101604052809291908181526020018280546105f290612f10565b801561063f5780601f106106145761010080835404028352916020019161063f565b820191906000526020600020905b81548152906001019060200180831161062257829003601f168201915b505050505091505090565b6000610655826118c1565b506105a0826118f9565b61066a828233611933565b5050565b6001600160a01b03821661069d57604051633250574960e11b8152600060048201526024015b60405180910390fd5b60006106aa838333611940565b9050836001600160a01b0316816001600160a01b0316146106f8576040516364283d7b60e01b81526001600160a01b0380861660048301526024820184905282166044820152606401610694565b50505050565b610706611a4c565b47806107635760405162461bcd60e51b815260206004820152602660248201527f4e46413a204e6f2066756e647320617661696c61626c6520666f722077697468604482015265191c985dd85b60d21b6064820152608401610694565b61076b610eca565b6001600160a01b03166108fc829081150290604051600060405180830381858888f1935050505015801561066a573d6000803e3d6000fd5b6107be83838360405180602001604052806000815250610f42565b505050565b6107cb611a7e565b6107d482611b23565b61066a8282611b2b565b60006107e8611be8565b506000805160206131cf83398151915290565b60006105a0826118c1565b7ff0c57e16840df040f15088dc2f81fe391c3923bec73e23a9662efc9c229c6a008054600160401b810460ff1615906001600160401b031660008115801561084b5750825b90506000826001600160401b031660011480156108675750303b155b905081158015610875575080155b156108935760405163f92ee8a960e01b815260040160405180910390fd5b845467ffffffffffffffff1916600117855583156108bd57845460ff60401b1916600160401b1785555b6108c78a8a611c31565b6108cf611c43565b6108d886611c4b565b6000805481526001602081815260409092208a51815460ff1916901515178155918a01518a929182019061090c9082612f9a565b5060408201518051600283019081906109259082612f9a565b50602082810151805161093e92600185019201906125c5565b5060408201516002820155606082015180516109649160038401916020909101906125c5565b50608091909101516004909101555050604088015151875283156109c257845460ff60401b19168555604051600181527fc7f505b2f371ae2175ee4913f4499e1f2633a7b5936321eed1cdaeb6115181d29060200160405180910390a15b50505050505050505050565b60006000805160206131af8339815191526001600160a01b038316610a09576040516322718ad960e21b815260006004820152602401610694565b6001600160a01b039092166000908152600390920160205250604090205490565b610a32611a4c565b610a3c6000611c5c565b565b610a84604080516060808201835260008083526020808401839052845160a081018652838152908101839052808501829052808301929092526080820152909182015290565b610a8d8261055e565b610aea5760405162461bcd60e51b815260206004820152602860248201527f4e46413a20417070496e666f20717565727920666f72206e6f6e657869737465604482015267373a103a37b5b2b760c11b6064820152608401610694565b600082815260016020818152604092839020835160608101909452805460ff1615158452918201805491840191610b2090612f10565b80601f0160208091040260200160405190810160405280929190818152602001828054610b4c90612f10565b8015610b995780601f10610b6e57610100808354040283529160200191610b99565b820191906000526020600020905b815481529060010190602001808311610b7c57829003601f168201915b50505050508152602001600282016040518060a0016040529081600082018054610bc290612f10565b80601f0160208091040260200160405190810160405280929190818152602001828054610bee90612f10565b8015610c3b5780601f10610c1057610100808354040283529160200191610c3b565b820191906000526020600020905b815481529060010190602001808311610c1e57829003601f168201915b5050505050815260200160018201805480602002602001604051908101604052809291908181526020016000905b82821015610d15578382906000526020600020018054610c8890612f10565b80601f0160208091040260200160405190810160405280929190818152602001828054610cb490612f10565b8015610d015780601f10610cd657610100808354040283529160200191610d01565b820191906000526020600020905b815481529060010190602001808311610ce457829003601f168201915b505050505081526020019060010190610c69565b5050505081526020016002820154815260200160038201805480602002602001604051908101604052809291908181526020016000905b82821015610df8578382906000526020600020018054610d6b90612f10565b80601f0160208091040260200160405190810160405280929190818152602001828054610d9790612f10565b8015610de45780601f10610db957610100808354040283529160200191610de4565b820191906000526020600020905b815481529060010190602001808311610dc757829003601f168201915b505050505081526020019060010190610d4c565b505050508152602001600482015481525050815250509050919050565b8051602081830181018051600282529282019190930120915280548190610e3b90612f10565b80601f0160208091040260200160405190810160405280929190818152602001828054610e6790612f10565b8015610eb45780601f10610e8957610100808354040283529160200191610eb4565b820191906000526020600020905b815481529060010190602001808311610e9757829003601f168201915b5050505050908060020154908060040154905083565b7f9016d09d72d40fdae2fd8ceac6b6234c7706214fd39c1cd1e609a0528c199300546001600160a01b031690565b7f80bb2b638cc20bc4d0a60d66940f3ab4a00c1d7b313497ca82fb0b4ab007930180546060916000805160206131af833981519152916105c690612f10565b61066a338383611ccd565b610f4d84848461066e565b6106f884848484611d7e565b610f61611a4c565b610f6a8361055e565b610fc85760405162461bcd60e51b815260206004820152602960248201527f4e46413a2056657273696f6e2075706461746520666f72206e6f6e657869737460448201526832b73a103a37b5b2b760b91b6064820152608401610694565b81600282604051610fd99190613059565b90815260405190819003602001902081518190610ff69082612f9a565b50602082810151805161100f92600185019201906125c5565b5060408201516002820155606082015180516110359160038401916020909101906125c5565b5060808201518160040155905050827fe084e6175f396d3b0cde566579e31e11b6a6b6243a84ac78c946f716c7387a96836040516110739190612e97565b60405180910390a2505050565b600061108a611a4c565b600160008082825461109c9190613075565b9091555050600080548082526001602081815260409093208651815460ff1916901515178155928601519192869290918201906110d99082612f9a565b5060408201518051600283019081906110f29082612f9a565b50602082810151805161110b92600185019201906125c5565b5060408201516002820155606082015180516111319160038401916020909101906125c5565b5060808201518160040155505090505061114b8682611ea7565b6111558186611f0c565b6040805160a0810182528582018051518252805160209081015190830152805183015182840152805160609081015190830152516080908101519082015290516002906111a3908690613059565b908152604051908190036020019020815181906111c09082612f9a565b5060208281015180516111d992600185019201906125c5565b5060408201516002820155606082015180516111ff9160038401916020909101906125c5565b506080919091015160049091015560405181907f228a60aa955b2de198ddf61324929aee6fa4753a3b7bd1e64bd6a2bf3ef1d53390600090a295945050505050565b60607f0542a41881ee128a365a727b282c86fa859579490b9bb45aab8503648c8e790061126d836118c1565b506000838152602082905260408120805461128790612f10565b80601f01602080910402602001604051908101604052809291908181526020018280546112b390612f10565b80156113005780601f106112d557610100808354040283529160200191611300565b820191906000526020600020905b8154815290600101906020018083116112e357829003601f168201915b50505050509050600061131e60408051602081019091526000815290565b9050805160000361133157509392505050565b81511561136457808260405160200161134b929190613096565b6040516020818303038152906040529350505050919050565b61136d85611f7f565b95945050505050565b6040805160a08101825260608082526020820181905260009282018390528082015260808101919091526113a98261055e565b6114065760405162461bcd60e51b815260206004820152602860248201527f4e46413a2056657273696f6e20717565727920666f72206e6f6e657869737465604482015267373a103a37b5b2b760c11b6064820152608401610694565b60008281526001602052604090819020905160029161142891908301906130c5565b90815260200160405180910390206040518060a001604052908160008201805461145190612f10565b80601f016020809104026020016040519081016040528092919081815260200182805461147d90612f10565b80156114ca5780601f1061149f576101008083540402835291602001916114ca565b820191906000526020600020905b8154815290600101906020018083116114ad57829003601f168201915b5050505050815260200160018201805480602002602001604051908101604052809291908181526020016000905b828210156115a457838290600052602060002001805461151790612f10565b80601f016020809104026020016040519081016040528092919081815260200182805461154390612f10565b80156115905780601f1061156557610100808354040283529160200191611590565b820191906000526020600020905b81548152906001019060200180831161157357829003601f168201915b5050505050815260200190600101906114f8565b5050505081526020016002820154815260200160038201805480602002602001604051908101604052809291908181526020016000905b828210156116875783829060005260206000200180546115fa90612f10565b80601f016020809104026020016040519081016040528092919081815260200182805461162690612f10565b80156116735780601f1061164857610100808354040283529160200191611673565b820191906000526020600020905b81548152906001019060200180831161165657829003601f168201915b5050505050815260200190600101906115db565b5050505081526020016004820154815250509050919050565b6001600160a01b0391821660009081527f80bb2b638cc20bc4d0a60d66940f3ab4a00c1d7b313497ca82fb0b4ab00793056020908152604080832093909416825291909152205460ff1690565b6116f5611a4c565b6116fe8261055e565b61175c5760405162461bcd60e51b815260206004820152602960248201527f4e46413a20417070496e666f2075706461746520666f72206e6f6e657869737460448201526832b73a103a37b5b2b760b91b6064820152608401610694565b60008281526001602081815260409092208351815460ff19169015151781559183015183929182019061178f9082612f9a565b5060408201518051600283019081906117a89082612f9a565b5060208281015180516117c192600185019201906125c5565b5060408201516002820155606082015180516117e79160038401916020909101906125c5565b50608082015181600401555050905050817f9b5400d32d48c2f1552e765fd93226bd6d88b86c5cd01152ae5b34b62dddcd5f826040516118279190612c67565b60405180910390a25050565b61183b611a4c565b6001600160a01b03811661186557604051631e4fbdf760e01b815260006004820152602401610694565b61186e81611c5c565b50565b60006001600160e01b031982166380ac58cd60e01b14806118a257506001600160e01b03198216635b5e139f60e01b145b806105a057506301ffc9a760e01b6001600160e01b03198316146105a0565b6000806118cd83611ff3565b90506001600160a01b0381166105a057604051637e27328960e01b815260048101849052602401610694565b60009081527f80bb2b638cc20bc4d0a60d66940f3ab4a00c1d7b313497ca82fb0b4ab007930460205260409020546001600160a01b031690565b6107be838383600161202d565b60006000805160206131af8339815191528161195b85611ff3565b90506001600160a01b0384161561197757611977818587612143565b6001600160a01b038116156119b75761199460008660008061202d565b6001600160a01b0381166000908152600383016020526040902080546000190190555b6001600160a01b038616156119e8576001600160a01b03861660009081526003830160205260409020805460010190555b600085815260028301602052604080822080546001600160a01b0319166001600160a01b038a811691821790925591518893918516917fddf252ad1be2c89b69c2b068fc378daa952ba7f163c4a11628f55a4df523b3ef91a49150505b9392505050565b33611a55610eca565b6001600160a01b031614610a3c5760405163118cdaa760e01b8152336004820152602401610694565b306001600160a01b037f0000000000000000000000000000000000000000000000000000000000000000161480611b0557507f00000000000000000000000000000000000000000000000000000000000000006001600160a01b0316611af96000805160206131cf833981519152546001600160a01b031690565b6001600160a01b031614155b15610a3c5760405163703e46dd60e11b815260040160405180910390fd5b61186e611a4c565b816001600160a01b03166352d1902d6040518163ffffffff1660e01b8152600401602060405180830381865afa925050508015611b85575060408051601f3d908101601f19168201909252611b829181019061313b565b60015b611bad57604051634c9c8ce360e01b81526001600160a01b0383166004820152602401610694565b6000805160206131cf8339815191528114611bde57604051632a87526960e21b815260048101829052602401610694565b6107be83836121a7565b306001600160a01b037f00000000000000000000000000000000000000000000000000000000000000001614610a3c5760405163703e46dd60e11b815260040160405180910390fd5b611c396121fd565b61066a8282612246565b610a3c6121fd565b611c536121fd565b61186e81612277565b7f9016d09d72d40fdae2fd8ceac6b6234c7706214fd39c1cd1e609a0528c19930080546001600160a01b031981166001600160a01b03848116918217845560405192169182907f8be0079c531659141344cd1fd0a4f28419497f9722a3daafe3b4186f6b6457e090600090a3505050565b6000805160206131af8339815191526001600160a01b038316611d0e57604051630b61174360e31b81526001600160a01b0384166004820152602401610694565b6001600160a01b038481166000818152600584016020908152604080832094881680845294825291829020805460ff191687151590811790915591519182527f17307eab39ab6107e8899845ad3d59bd9653f200f220920489ca2b5937696c31910160405180910390a350505050565b6001600160a01b0383163b156106f857604051630a85bd0160e11b81526001600160a01b0384169063150b7a0290611dc0903390889087908790600401613154565b6020604051808303816000875af1925050508015611dfb575060408051601f3d908101601f19168201909252611df891810190613191565b60015b611e64573d808015611e29576040519150601f19603f3d011682016040523d82523d6000602084013e611e2e565b606091505b508051600003611e5c57604051633250574960e11b81526001600160a01b0385166004820152602401610694565b805181602001fd5b6001600160e01b03198116630a85bd0160e11b14611ea057604051633250574960e11b81526001600160a01b0385166004820152602401610694565b5050505050565b6001600160a01b038216611ed157604051633250574960e11b815260006004820152602401610694565b6000611edf83836000611940565b90506001600160a01b038116156107be576040516339e3563760e11b815260006004820152602401610694565b60008281527f0542a41881ee128a365a727b282c86fa859579490b9bb45aab8503648c8e790060208190526040909120611f468382612f9a565b506040518381527ff8e1a15aba9398e019f0b49df1a4fde98ee17ae345cb5f6b5e2c27f5033e8ce79060200160405180910390a1505050565b6060611f8a826118c1565b506000611fa260408051602081019091526000815290565b90506000815111611fc25760405180602001604052806000815250611a45565b80611fcc8461227f565b604051602001611fdd929190613096565b6040516020818303038152906040529392505050565b60009081527f80bb2b638cc20bc4d0a60d66940f3ab4a00c1d7b313497ca82fb0b4ab007930260205260409020546001600160a01b031690565b6000805160206131af833981519152818061205057506001600160a01b03831615155b15612112576000612060856118c1565b90506001600160a01b0384161580159061208c5750836001600160a01b0316816001600160a01b031614155b801561209f575061209d81856116a0565b155b156120c85760405163a9fbf51f60e01b81526001600160a01b0385166004820152602401610694565b82156121105784866001600160a01b0316826001600160a01b03167f8c5be1e5ebec7d5bd14f71427d1e84f3dd0314c0f7b2291e5b200ac8c7c3b92560405160405180910390a45b505b600093845260040160205250506040902080546001600160a01b0319166001600160a01b0392909216919091179055565b61214e838383612311565b6107be576001600160a01b03831661217c57604051637e27328960e01b815260048101829052602401610694565b60405163177e802f60e01b81526001600160a01b038316600482015260248101829052604401610694565b6121b082612377565b6040516001600160a01b038316907fbc7cd75a20ee27fd9adebab32041f755214dbc6bffa90cc0225b39da2e5c2d3b90600090a28051156121f5576107be82826123dc565b61066a612449565b7ff0c57e16840df040f15088dc2f81fe391c3923bec73e23a9662efc9c229c6a0054600160401b900460ff16610a3c57604051631afcd79f60e31b815260040160405180910390fd5b61224e6121fd565b6000805160206131af833981519152806122688482612f9a565b50600181016106f88382612f9a565b61183b6121fd565b6060600061228c83612468565b60010190506000816001600160401b038111156122ab576122ab6127b3565b6040519080825280601f01601f1916602001820160405280156122d5576020820181803683370190505b5090508181016020015b600019016f181899199a1a9b1b9c1cb0b131b232b360811b600a86061a8153600a85049450846122df57509392505050565b60006001600160a01b0383161580159061236f5750826001600160a01b0316846001600160a01b0316148061234b575061234b84846116a0565b8061236f5750826001600160a01b0316612364836118f9565b6001600160a01b0316145b949350505050565b806001600160a01b03163b6000036123ad57604051634c9c8ce360e01b81526001600160a01b0382166004820152602401610694565b6000805160206131cf83398151915280546001600160a01b0319166001600160a01b0392909216919091179055565b6060600080846001600160a01b0316846040516123f99190613059565b600060405180830381855af49150503d8060008114612434576040519150601f19603f3d011682016040523d82523d6000602084013e612439565b606091505b509150915061136d858383612540565b3415610a3c5760405163b398979f60e01b815260040160405180910390fd5b60008072184f03e93ff9f4daa797ed6e38ed64bf6a1f0160401b83106124a75772184f03e93ff9f4daa797ed6e38ed64bf6a1f0160401b830492506040015b6d04ee2d6d415b85acef810000000083106124d3576d04ee2d6d415b85acef8100000000830492506020015b662386f26fc1000083106124f157662386f26fc10000830492506010015b6305f5e1008310612509576305f5e100830492506008015b612710831061251d57612710830492506004015b6064831061252f576064830492506002015b600a83106105a05760010192915050565b606082612555576125508261259c565b611a45565b815115801561256c57506001600160a01b0384163b155b1561259557604051639996b31560e01b81526001600160a01b0385166004820152602401610694565b5080611a45565b8051156125ac5780518082602001fd5b604051630a12f52160e11b815260040160405180910390fd5b82805482825590600052602060002090810192821561260b579160200282015b8281111561260b57825182906125fb9082612f9a565b50916020019190600101906125e5565b5061261792915061261b565b5090565b8082111561261757600061262f8282612638565b5060010161261b565b50805461264490612f10565b6000825580601f10612654575050565b601f01602090049060005260206000209081019061186e91905b80821115612617576000815560010161266e565b60006020828403121561269457600080fd5b5035919050565b6001600160e01b03198116811461186e57600080fd5b6000602082840312156126c357600080fd5b8135611a458161269b565b60005b838110156126e95781810151838201526020016126d1565b50506000910152565b6000815180845261270a8160208601602086016126ce565b601f01601f19169290920160200192915050565b602081526000611a4560208301846126f2565b80356001600160a01b038116811461274857600080fd5b919050565b6000806040838503121561276057600080fd5b61276983612731565b946020939093013593505050565b60008060006060848603121561278c57600080fd5b61279584612731565b92506127a360208501612731565b9150604084013590509250925092565b634e487b7160e01b600052604160045260246000fd5b60405160a081016001600160401b03811182821017156127eb576127eb6127b3565b60405290565b604051601f8201601f191681016001600160401b0381118282101715612819576128196127b3565b604052919050565b600082601f83011261283257600080fd5b81356001600160401b0381111561284b5761284b6127b3565b61285e601f8201601f19166020016127f1565b81815284602083860101111561287357600080fd5b816020850160208301376000918101602001919091529392505050565b600080604083850312156128a357600080fd5b6128ac83612731565b915060208301356001600160401b038111156128c757600080fd5b6128d385828601612821565b9150509250929050565b8035801515811461274857600080fd5b600082601f8301126128fe57600080fd5b813560206001600160401b038083111561291a5761291a6127b3565b8260051b6129298382016127f1565b938452858101830193838101908886111561294357600080fd5b84880192505b8583101561297f578235848111156129615760008081fd5b61296f8a87838c0101612821565b8352509184019190840190612949565b98975050505050505050565b600060a0828403121561299d57600080fd5b6129a56127c9565b905081356001600160401b03808211156129be57600080fd5b6129ca85838601612821565b835260208401359150808211156129e057600080fd5b6129ec858386016128ed565b6020840152604084013560408401526060840135915080821115612a0f57600080fd5b50612a1c848285016128ed565b6060830152506080820135608082015292915050565b600060608284031215612a4457600080fd5b604051606081016001600160401b038282108183111715612a6757612a676127b3565b81604052829350612a77856128dd565b83526020850135915080821115612a8d57600080fd5b612a9986838701612821565b60208401526040850135915080821115612ab257600080fd5b50612abf8582860161298b565b6040830152505092915050565b600080600080600060a08688031215612ae457600080fd5b85356001600160401b0380821115612afb57600080fd5b612b0789838a01612821565b96506020880135915080821115612b1d57600080fd5b612b2989838a01612821565b95506040880135915080821115612b3f57600080fd5b612b4b89838a01612a32565b94506060880135915080821115612b6157600080fd5b50612b6e8882890161298b565b925050612b7d60808701612731565b90509295509295909350565b600060208284031215612b9b57600080fd5b611a4582612731565b60008282518085526020808601955060208260051b8401016020860160005b84811015612bf157601f19868403018952612bdf8383516126f2565b98840198925090830190600101612bc3565b5090979650505050505050565b6000815160a08452612c1360a08501826126f2565b905060208301518482036020860152612c2c8282612ba4565b9150506040830151604085015260608301518482036060860152612c508282612ba4565b915050608083015160808501528091505092915050565b602081528151151560208201526000602083015160606040840152612c8f60808401826126f2565b90506040840151601f1984830301606085015261136d8282612bfe565b600060208284031215612cbe57600080fd5b81356001600160401b03811115612cd457600080fd5b61236f84828501612821565b606081526000612cf360608301866126f2565b60208301949094525060400152919050565b60008060408385031215612d1857600080fd5b612d2183612731565b9150612d2f602084016128dd565b90509250929050565b60008060008060808587031215612d4e57600080fd5b612d5785612731565b9350612d6560208601612731565b92506040850135915060608501356001600160401b03811115612d8757600080fd5b612d9387828801612821565b91505092959194509250565b600080600060608486031215612db457600080fd5b8335925060208401356001600160401b0380821115612dd257600080fd5b612dde8783880161298b565b93506040860135915080821115612df457600080fd5b50612e0186828701612821565b9150509250925092565b60008060008060808587031215612e2157600080fd5b612e2a85612731565b935060208501356001600160401b0380821115612e4657600080fd5b612e5288838901612821565b94506040870135915080821115612e6857600080fd5b612e7488838901612a32565b93506060870135915080821115612e8a57600080fd5b50612d9387828801612821565b602081526000611a456020830184612bfe565b60008060408385031215612ebd57600080fd5b612ec683612731565b9150612d2f60208401612731565b60008060408385031215612ee757600080fd5b8235915060208301356001600160401b03811115612f0457600080fd5b6128d385828601612a32565b600181811c90821680612f2457607f821691505b602082108103612f4457634e487b7160e01b600052602260045260246000fd5b50919050565b601f8211156107be576000816000526020600020601f850160051c81016020861015612f735750805b601f850160051c820191505b81811015612f9257828155600101612f7f565b505050505050565b81516001600160401b03811115612fb357612fb36127b3565b612fc781612fc18454612f10565b84612f4a565b602080601f831160018114612ffc5760008415612fe45750858301515b600019600386901b1c1916600185901b178555612f92565b600085815260208120601f198616915b8281101561302b5788860151825594840194600190910190840161300c565b50858210156130495787850151600019600388901b60f8161c191681555b5050505050600190811b01905550565b6000825161306b8184602087016126ce565b9190910192915050565b808201808211156105a057634e487b7160e01b600052601160045260246000fd5b600083516130a88184602088016126ce565b8351908301906130bc8183602088016126ce565b01949350505050565b60008083546130d381612f10565b600182811680156130eb57600181146131005761312f565b60ff198416875282151583028701945061312f565b8760005260208060002060005b858110156131265781548a82015290840190820161310d565b50505082870194505b50929695505050505050565b60006020828403121561314d57600080fd5b5051919050565b6001600160a01b0385811682528416602082015260408101839052608060608201819052600090613187908301846126f2565b9695505050505050565b6000602082840312156131a357600080fd5b8151611a458161269b56fe80bb2b638cc20bc4d0a60d66940f3ab4a00c1d7b313497ca82fb0b4ab0079300360894a13ba1a3210667c828492db98dca3e2076cc3735a920a3ca505d382bbca264697066735822122009afca9af02eac91c27e50c9ac578804c34f65869df31c65899368327f94607e64736f6c63430008180033a26469706673582212209a45ee3e6f8e4bbbf4c8a32353bb67a93a4916ca59503f9e4a43cc36a4aa8fc264736f6c63430008180033","opcodes":"PUSH1 0x80 PUSH1 0x40 MSTORE CALLVALUE DUP1 ISZERO PUSH2 0x10 JUMPI PUSH1 0x0 DUP1 REVERT JUMPDEST POP PUSH2 0x3C4E DUP1 PUSH2 0x20 PUSH1 0x0 CODECOPY PUSH1 0x0 RETURN INVALID PUSH1 0x80 PUSH1 0x40 MSTORE CALLVALUE DUP1 ISZERO PUSH2 0x10 JUMPI PUSH1 0x0 DUP1 REVERT JUMPDEST POP PUSH1 0x4 CALLDATASIZE LT PUSH2 0x57 JUMPI PUSH1 0x0 CALLDATALOAD PUSH1 0xE0 SHR DUP1 PUSH4 0x715018A6 EQ PUSH2 0x5C JUMPI DUP1 PUSH4 0x8DA5CB5B EQ PUSH2 0x66 JUMPI DUP1 PUSH4 0xC4D66DE8 EQ PUSH2 0xAE JUMPI DUP1 PUSH4 0xE4624F0B EQ PUSH2 0xC1 JUMPI DUP1 PUSH4 0xF2FDE38B EQ PUSH2 0xD4 JUMPI JUMPDEST PUSH1 0x0 DUP1 REVERT JUMPDEST PUSH2 0x64 PUSH2 0xE7 JUMP JUMPDEST STOP JUMPDEST PUSH32 0x9016D09D72D40FDAE2FD8CEAC6B6234C7706214FD39C1CD1E609A0528C199300 SLOAD PUSH1 0x1 PUSH1 0x1 PUSH1 0xA0 SHL SUB AND JUMPDEST PUSH1 0x40 MLOAD PUSH1 0x1 PUSH1 0x1 PUSH1 0xA0 SHL SUB SWAP1 SWAP2 AND DUP2 MSTORE PUSH1 0x20 ADD PUSH1 0x40 MLOAD DUP1 SWAP2 SUB SWAP1 RETURN JUMPDEST PUSH2 0x64 PUSH2 0xBC CALLDATASIZE PUSH1 0x4 PUSH2 0x481 JUMP JUMPDEST PUSH2 0xFB JUMP JUMPDEST PUSH2 0x92 PUSH2 0xCF CALLDATASIZE PUSH1 0x4 PUSH2 0x6ED JUMP JUMPDEST PUSH2 0x20B JUMP JUMPDEST PUSH2 0x64 PUSH2 0xE2 CALLDATASIZE PUSH1 0x4 PUSH2 0x481 JUMP JUMPDEST PUSH2 0x2E7 JUMP JUMPDEST PUSH2 0xEF PUSH2 0x32A JUMP JUMPDEST PUSH2 0xF9 PUSH1 0x0 PUSH2 0x385 JUMP JUMPDEST JUMP JUMPDEST PUSH32 0xF0C57E16840DF040F15088DC2F81FE391C3923BEC73E23A9662EFC9C229C6A00 DUP1 SLOAD PUSH1 0x1 PUSH1 0x40 SHL DUP2 DIV PUSH1 0xFF AND ISZERO SWAP1 PUSH8 0xFFFFFFFFFFFFFFFF AND PUSH1 0x0 DUP2 ISZERO DUP1 ISZERO PUSH2 0x141 JUMPI POP DUP3 JUMPDEST SWAP1 POP PUSH1 0x0 DUP3 PUSH8 0xFFFFFFFFFFFFFFFF AND PUSH1 0x1 EQ DUP1 ISZERO PUSH2 0x15E JUMPI POP ADDRESS EXTCODESIZE ISZERO JUMPDEST SWAP1 POP DUP2 ISZERO DUP1 ISZERO PUSH2 0x16C JUMPI POP DUP1 ISZERO JUMPDEST ISZERO PUSH2 0x18A JUMPI PUSH1 0x40 MLOAD PUSH4 0xF92EE8A9 PUSH1 0xE0 SHL DUP2 MSTORE PUSH1 0x4 ADD PUSH1 0x40 MLOAD DUP1 SWAP2 SUB SWAP1 REVERT JUMPDEST DUP5 SLOAD PUSH8 0xFFFFFFFFFFFFFFFF NOT AND PUSH1 0x1 OR DUP6 SSTORE DUP4 ISZERO PUSH2 0x1B4 JUMPI DUP5 SLOAD PUSH1 0xFF PUSH1 0x40 SHL NOT AND PUSH1 0x1 PUSH1 0x40 SHL OR DUP6 SSTORE JUMPDEST PUSH2 0x1BD DUP7 PUSH2 0x3F6 JUMP JUMPDEST DUP4 ISZERO PUSH2 0x203 JUMPI DUP5 SLOAD PUSH1 0xFF PUSH1 0x40 SHL NOT AND DUP6 SSTORE PUSH1 0x40 MLOAD PUSH1 0x1 DUP2 MSTORE PUSH32 0xC7F505B2F371AE2175EE4913F4499E1F2633A7B5936321EED1CDAEB6115181D2 SWAP1 PUSH1 0x20 ADD PUSH1 0x40 MLOAD DUP1 SWAP2 SUB SWAP1 LOG1 JUMPDEST POP POP POP POP POP POP JUMP JUMPDEST PUSH1 0x0 PUSH2 0x215 PUSH2 0x32A JUMP JUMPDEST PUSH1 0x0 PUSH1 0x40 MLOAD PUSH2 0x223 SWAP1 PUSH2 0x458 JUMP JUMPDEST PUSH1 0x40 MLOAD DUP1 SWAP2 SUB SWAP1 PUSH1 0x0 CREATE DUP1 ISZERO DUP1 ISZERO PUSH2 0x23F JUMPI RETURNDATASIZE PUSH1 0x0 DUP1 RETURNDATACOPY RETURNDATASIZE PUSH1 0x0 REVERT JUMPDEST POP PUSH1 0x40 MLOAD PUSH4 0x1B8EB48B PUSH1 0xE2 SHL DUP2 MSTORE SWAP1 SWAP2 POP PUSH1 0x1 PUSH1 0x1 PUSH1 0xA0 SHL SUB DUP3 AND SWAP1 PUSH4 0x6E3AD22C SWAP1 PUSH2 0x277 SWAP1 DUP11 SWAP1 DUP11 SWAP1 DUP11 SWAP1 DUP11 SWAP1 DUP11 SWAP1 PUSH1 0x4 ADD PUSH2 0x91E JUMP JUMPDEST PUSH1 0x0 PUSH1 0x40 MLOAD DUP1 DUP4 SUB DUP2 PUSH1 0x0 DUP8 DUP1 EXTCODESIZE ISZERO DUP1 ISZERO PUSH2 0x291 JUMPI PUSH1 0x0 DUP1 REVERT JUMPDEST POP GAS CALL ISZERO DUP1 ISZERO PUSH2 0x2A5 JUMPI RETURNDATASIZE PUSH1 0x0 DUP1 RETURNDATACOPY RETURNDATASIZE PUSH1 0x0 REVERT JUMPDEST POP POP PUSH1 0x40 MLOAD PUSH1 0x1 PUSH1 0x1 PUSH1 0xA0 SHL SUB DUP5 AND SWAP3 POP PUSH32 0xF7B4406DC2D76F36A4E71E16983B35CD71FE8CBE99E7BFAA715C31D551C8F312 SWAP2 POP PUSH1 0x0 SWAP1 LOG2 SWAP7 SWAP6 POP POP POP POP POP POP JUMP JUMPDEST PUSH2 0x2EF PUSH2 0x32A JUMP JUMPDEST PUSH1 0x1 PUSH1 0x1 PUSH1 0xA0 SHL SUB DUP2 AND PUSH2 0x31E JUMPI PUSH1 0x40 MLOAD PUSH4 0x1E4FBDF7 PUSH1 0xE0 SHL DUP2 MSTORE PUSH1 0x0 PUSH1 0x4 DUP3 ADD MSTORE PUSH1 0x24 ADD JUMPDEST PUSH1 0x40 MLOAD DUP1 SWAP2 SUB SWAP1 REVERT JUMPDEST PUSH2 0x327 DUP2 PUSH2 0x385 JUMP JUMPDEST POP JUMP JUMPDEST CALLER PUSH2 0x35C PUSH32 0x9016D09D72D40FDAE2FD8CEAC6B6234C7706214FD39C1CD1E609A0528C199300 SLOAD PUSH1 0x1 PUSH1 0x1 PUSH1 0xA0 SHL SUB AND SWAP1 JUMP JUMPDEST PUSH1 0x1 PUSH1 0x1 PUSH1 0xA0 SHL SUB AND EQ PUSH2 0xF9 JUMPI PUSH1 0x40 MLOAD PUSH4 0x118CDAA7 PUSH1 0xE0 SHL DUP2 MSTORE CALLER PUSH1 0x4 DUP3 ADD MSTORE PUSH1 0x24 ADD PUSH2 0x315 JUMP JUMPDEST PUSH32 0x9016D09D72D40FDAE2FD8CEAC6B6234C7706214FD39C1CD1E609A0528C199300 DUP1 SLOAD PUSH1 0x1 PUSH1 0x1 PUSH1 0xA0 SHL SUB NOT DUP2 AND PUSH1 0x1 PUSH1 0x1 PUSH1 0xA0 SHL SUB DUP5 DUP2 AND SWAP2 DUP3 OR DUP5 SSTORE PUSH1 0x40 MLOAD SWAP3 AND SWAP2 DUP3 SWAP1 PUSH32 0x8BE0079C531659141344CD1FD0A4F28419497F9722A3DAAFE3B4186F6B6457E0 SWAP1 PUSH1 0x0 SWAP1 LOG3 POP POP POP JUMP JUMPDEST PUSH2 0x3FE PUSH2 0x407 JUMP JUMPDEST PUSH2 0x327 DUP2 PUSH2 0x450 JUMP JUMPDEST PUSH32 0xF0C57E16840DF040F15088DC2F81FE391C3923BEC73E23A9662EFC9C229C6A00 SLOAD PUSH1 0x1 PUSH1 0x40 SHL SWAP1 DIV PUSH1 0xFF AND PUSH2 0xF9 JUMPI PUSH1 0x40 MLOAD PUSH4 0x1AFCD79F PUSH1 0xE3 SHL DUP2 MSTORE PUSH1 0x4 ADD PUSH1 0x40 MLOAD DUP1 SWAP2 SUB SWAP1 REVERT JUMPDEST PUSH2 0x2EF PUSH2 0x407 JUMP JUMPDEST PUSH2 0x3262 DUP1 PUSH2 0x9B7 DUP4 CODECOPY ADD SWAP1 JUMP JUMPDEST DUP1 CALLDATALOAD PUSH1 0x1 PUSH1 0x1 PUSH1 0xA0 SHL SUB DUP2 AND DUP2 EQ PUSH2 0x47C JUMPI PUSH1 0x0 DUP1 REVERT JUMPDEST SWAP2 SWAP1 POP JUMP JUMPDEST PUSH1 0x0 PUSH1 0x20 DUP3 DUP5 SUB SLT ISZERO PUSH2 0x493 JUMPI PUSH1 0x0 DUP1 REVERT JUMPDEST PUSH2 0x49C DUP3 PUSH2 0x465 JUMP JUMPDEST SWAP4 SWAP3 POP POP POP JUMP JUMPDEST PUSH4 0x4E487B71 PUSH1 0xE0 SHL PUSH1 0x0 MSTORE PUSH1 0x41 PUSH1 0x4 MSTORE PUSH1 0x24 PUSH1 0x0 REVERT JUMPDEST PUSH1 0x40 MLOAD PUSH1 0xA0 DUP2 ADD PUSH8 0xFFFFFFFFFFFFFFFF DUP2 GT DUP3 DUP3 LT OR ISZERO PUSH2 0x4DC JUMPI PUSH2 0x4DC PUSH2 0x4A3 JUMP JUMPDEST PUSH1 0x40 MSTORE SWAP1 JUMP JUMPDEST PUSH1 0x40 MLOAD PUSH1 0x60 DUP2 ADD PUSH8 0xFFFFFFFFFFFFFFFF DUP2 GT DUP3 DUP3 LT OR ISZERO PUSH2 0x4DC JUMPI PUSH2 0x4DC PUSH2 0x4A3 JUMP JUMPDEST PUSH1 0x40 MLOAD PUSH1 0x1F DUP3 ADD PUSH1 0x1F NOT AND DUP2 ADD PUSH8 0xFFFFFFFFFFFFFFFF DUP2 GT DUP3 DUP3 LT OR ISZERO PUSH2 0x52E JUMPI PUSH2 0x52E PUSH2 0x4A3 JUMP JUMPDEST PUSH1 0x40 MSTORE SWAP2 SWAP1 POP JUMP JUMPDEST PUSH1 0x0 DUP3 PUSH1 0x1F DUP4 ADD SLT PUSH2 0x547 JUMPI PUSH1 0x0 DUP1 REVERT JUMPDEST DUP2 CALLDATALOAD PUSH8 0xFFFFFFFFFFFFFFFF DUP2 GT ISZERO PUSH2 0x561 JUMPI PUSH2 0x561 PUSH2 0x4A3 JUMP JUMPDEST PUSH2 0x574 PUSH1 0x1F DUP3 ADD PUSH1 0x1F NOT AND PUSH1 0x20 ADD PUSH2 0x505 JUMP JUMPDEST DUP2 DUP2 MSTORE DUP5 PUSH1 0x20 DUP4 DUP7 ADD ADD GT ISZERO PUSH2 0x589 JUMPI PUSH1 0x0 DUP1 REVERT JUMPDEST DUP2 PUSH1 0x20 DUP6 ADD PUSH1 0x20 DUP4 ADD CALLDATACOPY PUSH1 0x0 SWAP2 DUP2 ADD PUSH1 0x20 ADD SWAP2 SWAP1 SWAP2 MSTORE SWAP4 SWAP3 POP POP POP JUMP JUMPDEST PUSH1 0x0 DUP3 PUSH1 0x1F DUP4 ADD SLT PUSH2 0x5B7 JUMPI PUSH1 0x0 DUP1 REVERT JUMPDEST DUP2 CALLDATALOAD PUSH1 0x20 PUSH8 0xFFFFFFFFFFFFFFFF DUP1 DUP4 GT ISZERO PUSH2 0x5D4 JUMPI PUSH2 0x5D4 PUSH2 0x4A3 JUMP JUMPDEST DUP3 PUSH1 0x5 SHL PUSH2 0x5E3 DUP4 DUP3 ADD PUSH2 0x505 JUMP JUMPDEST SWAP4 DUP5 MSTORE DUP6 DUP2 ADD DUP4 ADD SWAP4 DUP4 DUP2 ADD SWAP1 DUP9 DUP7 GT ISZERO PUSH2 0x5FD JUMPI PUSH1 0x0 DUP1 REVERT JUMPDEST DUP5 DUP9 ADD SWAP3 POP JUMPDEST DUP6 DUP4 LT ISZERO PUSH2 0x639 JUMPI DUP3 CALLDATALOAD DUP5 DUP2 GT ISZERO PUSH2 0x61B JUMPI PUSH1 0x0 DUP1 DUP2 REVERT JUMPDEST PUSH2 0x629 DUP11 DUP8 DUP4 DUP13 ADD ADD PUSH2 0x536 JUMP JUMPDEST DUP4 MSTORE POP SWAP2 DUP5 ADD SWAP2 SWAP1 DUP5 ADD SWAP1 PUSH2 0x603 JUMP JUMPDEST SWAP9 SWAP8 POP POP POP POP POP POP POP POP JUMP JUMPDEST PUSH1 0x0 PUSH1 0xA0 DUP3 DUP5 SUB SLT ISZERO PUSH2 0x657 JUMPI PUSH1 0x0 DUP1 REVERT JUMPDEST PUSH2 0x65F PUSH2 0x4B9 JUMP JUMPDEST SWAP1 POP DUP2 CALLDATALOAD PUSH8 0xFFFFFFFFFFFFFFFF DUP1 DUP3 GT ISZERO PUSH2 0x679 JUMPI PUSH1 0x0 DUP1 REVERT JUMPDEST PUSH2 0x685 DUP6 DUP4 DUP7 ADD PUSH2 0x536 JUMP JUMPDEST DUP4 MSTORE PUSH1 0x20 DUP5 ADD CALLDATALOAD SWAP2 POP DUP1 DUP3 GT ISZERO PUSH2 0x69B JUMPI PUSH1 0x0 DUP1 REVERT JUMPDEST PUSH2 0x6A7 DUP6 DUP4 DUP7 ADD PUSH2 0x5A6 JUMP JUMPDEST PUSH1 0x20 DUP5 ADD MSTORE PUSH1 0x40 DUP5 ADD CALLDATALOAD PUSH1 0x40 DUP5 ADD MSTORE PUSH1 0x60 DUP5 ADD CALLDATALOAD SWAP2 POP DUP1 DUP3 GT ISZERO PUSH2 0x6CA JUMPI PUSH1 0x0 DUP1 REVERT JUMPDEST POP PUSH2 0x6D7 DUP5 DUP3 DUP6 ADD PUSH2 0x5A6 JUMP JUMPDEST PUSH1 0x60 DUP4 ADD MSTORE POP PUSH1 0x80 DUP3 ADD CALLDATALOAD PUSH1 0x80 DUP3 ADD MSTORE SWAP3 SWAP2 POP POP JUMP JUMPDEST PUSH1 0x0 DUP1 PUSH1 0x0 DUP1 PUSH1 0x0 PUSH1 0xA0 DUP7 DUP9 SUB SLT ISZERO PUSH2 0x705 JUMPI PUSH1 0x0 DUP1 REVERT JUMPDEST DUP6 CALLDATALOAD PUSH8 0xFFFFFFFFFFFFFFFF DUP1 DUP3 GT ISZERO PUSH2 0x71D JUMPI PUSH1 0x0 DUP1 REVERT JUMPDEST PUSH2 0x729 DUP10 DUP4 DUP11 ADD PUSH2 0x536 JUMP JUMPDEST SWAP7 POP PUSH1 0x20 DUP9 ADD CALLDATALOAD SWAP2 POP DUP1 DUP3 GT ISZERO PUSH2 0x73F JUMPI PUSH1 0x0 DUP1 REVERT JUMPDEST PUSH2 0x74B DUP10 DUP4 DUP11 ADD PUSH2 0x536 JUMP JUMPDEST SWAP6 POP PUSH1 0x40 DUP9 ADD CALLDATALOAD SWAP2 POP DUP1 DUP3 GT ISZERO PUSH2 0x761 JUMPI PUSH1 0x0 DUP1 REVERT JUMPDEST SWAP1 DUP8 ADD SWAP1 PUSH1 0x60 DUP3 DUP11 SUB SLT ISZERO PUSH2 0x775 JUMPI PUSH1 0x0 DUP1 REVERT JUMPDEST PUSH2 0x77D PUSH2 0x4E2 JUMP JUMPDEST DUP3 CALLDATALOAD DUP1 ISZERO ISZERO DUP2 EQ PUSH2 0x78D JUMPI PUSH1 0x0 DUP1 REVERT JUMPDEST DUP2 MSTORE PUSH1 0x20 DUP4 ADD CALLDATALOAD DUP3 DUP2 GT ISZERO PUSH2 0x7A1 JUMPI PUSH1 0x0 DUP1 REVERT JUMPDEST PUSH2 0x7AD DUP12 DUP3 DUP7 ADD PUSH2 0x536 JUMP JUMPDEST PUSH1 0x20 DUP4 ADD MSTORE POP PUSH1 0x40 DUP4 ADD CALLDATALOAD DUP3 DUP2 GT ISZERO PUSH2 0x7C5 JUMPI PUSH1 0x0 DUP1 REVERT JUMPDEST PUSH2 0x7D1 DUP12 DUP3 DUP7 ADD PUSH2 0x645 JUMP JUMPDEST PUSH1 0x40 DUP4 ADD MSTORE POP SWAP5 POP PUSH1 0x60 DUP9 ADD CALLDATALOAD SWAP2 POP DUP1 DUP3 GT ISZERO PUSH2 0x7ED JUMPI PUSH1 0x0 DUP1 REVERT JUMPDEST POP PUSH2 0x7FA DUP9 DUP3 DUP10 ADD PUSH2 0x645 JUMP JUMPDEST SWAP3 POP POP PUSH2 0x809 PUSH1 0x80 DUP8 ADD PUSH2 0x465 JUMP JUMPDEST SWAP1 POP SWAP3 SWAP6 POP SWAP3 SWAP6 SWAP1 SWAP4 POP JUMP JUMPDEST PUSH1 0x0 DUP2 MLOAD DUP1 DUP5 MSTORE PUSH1 0x0 JUMPDEST DUP2 DUP2 LT ISZERO PUSH2 0x83B JUMPI PUSH1 0x20 DUP2 DUP6 ADD DUP2 ADD MLOAD DUP7 DUP4 ADD DUP3 ADD MSTORE ADD PUSH2 0x81F JUMP JUMPDEST POP PUSH1 0x0 PUSH1 0x20 DUP3 DUP7 ADD ADD MSTORE PUSH1 0x20 PUSH1 0x1F NOT PUSH1 0x1F DUP4 ADD AND DUP6 ADD ADD SWAP2 POP POP SWAP3 SWAP2 POP POP JUMP JUMPDEST PUSH1 0x0 DUP3 DUP3 MLOAD DUP1 DUP6 MSTORE PUSH1 0x20 DUP1 DUP7 ADD SWAP6 POP PUSH1 0x20 DUP3 PUSH1 0x5 SHL DUP5 ADD ADD PUSH1 0x20 DUP7 ADD PUSH1 0x0 JUMPDEST DUP5 DUP2 LT ISZERO PUSH2 0x8A8 JUMPI PUSH1 0x1F NOT DUP7 DUP5 SUB ADD DUP10 MSTORE PUSH2 0x896 DUP4 DUP4 MLOAD PUSH2 0x815 JUMP JUMPDEST SWAP9 DUP5 ADD SWAP9 SWAP3 POP SWAP1 DUP4 ADD SWAP1 PUSH1 0x1 ADD PUSH2 0x87A JUMP JUMPDEST POP SWAP1 SWAP8 SWAP7 POP POP POP POP POP POP POP JUMP JUMPDEST PUSH1 0x0 DUP2 MLOAD PUSH1 0xA0 DUP5 MSTORE PUSH2 0x8CA PUSH1 0xA0 DUP6 ADD DUP3 PUSH2 0x815 JUMP JUMPDEST SWAP1 POP PUSH1 0x20 DUP4 ADD MLOAD DUP5 DUP3 SUB PUSH1 0x20 DUP7 ADD MSTORE PUSH2 0x8E3 DUP3 DUP3 PUSH2 0x85B JUMP JUMPDEST SWAP2 POP POP PUSH1 0x40 DUP4 ADD MLOAD PUSH1 0x40 DUP6 ADD MSTORE PUSH1 0x60 DUP4 ADD MLOAD DUP5 DUP3 SUB PUSH1 0x60 DUP7 ADD MSTORE PUSH2 0x907 DUP3 DUP3 PUSH2 0x85B JUMP JUMPDEST SWAP2 POP POP PUSH1 0x80 DUP4 ADD MLOAD PUSH1 0x80 DUP6 ADD MSTORE DUP1 SWAP2 POP POP SWAP3 SWAP2 POP POP JUMP JUMPDEST PUSH1 0xA0 DUP2 MSTORE PUSH1 0x0 PUSH2 0x931 PUSH1 0xA0 DUP4 ADD DUP9 PUSH2 0x815 JUMP JUMPDEST DUP3 DUP2 SUB PUSH1 0x20 DUP5 ADD MSTORE PUSH2 0x943 DUP2 DUP9 PUSH2 0x815 JUMP JUMPDEST SWAP1 POP DUP3 DUP2 SUB PUSH1 0x40 DUP5 ADD MSTORE DUP6 MLOAD ISZERO ISZERO DUP2 MSTORE PUSH1 0x20 DUP7 ADD MLOAD PUSH1 0x60 PUSH1 0x20 DUP4 ADD MSTORE PUSH2 0x96C PUSH1 0x60 DUP4 ADD DUP3 PUSH2 0x815 JUMP JUMPDEST SWAP1 POP PUSH1 0x40 DUP8 ADD MLOAD DUP3 DUP3 SUB PUSH1 0x40 DUP5 ADD MSTORE PUSH2 0x985 DUP3 DUP3 PUSH2 0x8B5 JUMP JUMPDEST SWAP3 POP POP POP DUP3 DUP2 SUB PUSH1 0x60 DUP5 ADD MSTORE PUSH2 0x99B DUP2 DUP7 PUSH2 0x8B5 JUMP JUMPDEST SWAP2 POP POP PUSH1 0x1 DUP1 PUSH1 0xA0 SHL SUB DUP4 AND PUSH1 0x80 DUP4 ADD MSTORE SWAP7 SWAP6 POP POP POP POP POP POP JUMP INVALID PUSH1 0xA0 PUSH1 0x40 MSTORE ADDRESS PUSH1 0x80 MSTORE CALLVALUE DUP1 ISZERO PUSH2 0x14 JUMPI PUSH1 0x0 DUP1 REVERT JUMPDEST POP PUSH1 0x80 MLOAD PUSH2 0x3224 PUSH2 0x3E PUSH1 0x0 CODECOPY PUSH1 0x0 DUP2 DUP2 PUSH2 0x1A89 ADD MSTORE DUP2 DUP2 PUSH2 0x1AB2 ADD MSTORE PUSH2 0x1BF3 ADD MSTORE PUSH2 0x3224 PUSH1 0x0 RETURN INVALID PUSH1 0x80 PUSH1 0x40 MSTORE PUSH1 0x4 CALLDATASIZE LT PUSH2 0x1A2 JUMPI PUSH1 0x0 CALLDATALOAD PUSH1 0xE0 SHR DUP1 PUSH4 0x741AA2BD GT PUSH2 0xE0 JUMPI DUP1 PUSH4 0xC167291E GT PUSH2 0x84 JUMPI DUP1 PUSH4 0xCB4B9E2C GT PUSH2 0x61 JUMPI DUP1 PUSH4 0xCB4B9E2C EQ PUSH2 0x4D1 JUMPI DUP1 PUSH4 0xE985E9C5 EQ PUSH2 0x4FE JUMPI DUP1 PUSH4 0xEF2A9A05 EQ PUSH2 0x51E JUMPI DUP1 PUSH4 0xF2FDE38B EQ PUSH2 0x53E JUMPI STOP JUMPDEST DUP1 PUSH4 0xC167291E EQ PUSH2 0x471 JUMPI DUP1 PUSH4 0xC80E329B EQ PUSH2 0x491 JUMPI DUP1 PUSH4 0xC87B56DD EQ PUSH2 0x4B1 JUMPI STOP JUMPDEST DUP1 PUSH4 0x95D89B41 GT PUSH2 0xBD JUMPI DUP1 PUSH4 0x95D89B41 EQ PUSH2 0x3EB JUMPI DUP1 PUSH4 0xA22CB465 EQ PUSH2 0x400 JUMPI DUP1 PUSH4 0xAD3CB1CC EQ PUSH2 0x420 JUMPI DUP1 PUSH4 0xB88D4FDE EQ PUSH2 0x451 JUMPI STOP JUMPDEST DUP1 PUSH4 0x741AA2BD EQ PUSH2 0x37A JUMPI DUP1 PUSH4 0x8B5C9283 EQ PUSH2 0x3A7 JUMPI DUP1 PUSH4 0x8DA5CB5B EQ PUSH2 0x3D6 JUMPI STOP JUMPDEST DUP1 PUSH4 0x42842E0E GT PUSH2 0x147 JUMPI DUP1 PUSH4 0x6352211E GT PUSH2 0x124 JUMPI DUP1 PUSH4 0x6352211E EQ PUSH2 0x305 JUMPI DUP1 PUSH4 0x6E3AD22C EQ PUSH2 0x325 JUMPI DUP1 PUSH4 0x70A08231 EQ PUSH2 0x345 JUMPI DUP1 PUSH4 0x715018A6 EQ PUSH2 0x365 JUMPI STOP JUMPDEST DUP1 PUSH4 0x42842E0E EQ PUSH2 0x2AF JUMPI DUP1 PUSH4 0x4F1EF286 EQ PUSH2 0x2CF JUMPI DUP1 PUSH4 0x52D1902D EQ PUSH2 0x2E2 JUMPI STOP JUMPDEST DUP1 PUSH4 0x81812FC GT PUSH2 0x180 JUMPI DUP1 PUSH4 0x81812FC EQ PUSH2 0x222 JUMPI DUP1 PUSH4 0x95EA7B3 EQ PUSH2 0x25A JUMPI DUP1 PUSH4 0x23B872DD EQ PUSH2 0x27A JUMPI DUP1 PUSH4 0x3CCFD60B EQ PUSH2 0x29A JUMPI STOP JUMPDEST DUP1 PUSH3 0x923F9E EQ PUSH2 0x1AB JUMPI DUP1 PUSH4 0x1FFC9A7 EQ PUSH2 0x1E0 JUMPI DUP1 PUSH4 0x6FDDE03 EQ PUSH2 0x200 JUMPI STOP JUMPDEST CALLDATASIZE PUSH2 0x1A9 JUMPI STOP JUMPDEST STOP JUMPDEST CALLVALUE DUP1 ISZERO PUSH2 0x1B7 JUMPI PUSH1 0x0 DUP1 REVERT JUMPDEST POP PUSH2 0x1CB PUSH2 0x1C6 CALLDATASIZE PUSH1 0x4 PUSH2 0x2682 JUMP JUMPDEST PUSH2 0x55E JUMP JUMPDEST PUSH1 0x40 MLOAD SWAP1 ISZERO ISZERO DUP2 MSTORE PUSH1 0x20 ADD JUMPDEST PUSH1 0x40 MLOAD DUP1 SWAP2 SUB SWAP1 RETURN JUMPDEST CALLVALUE DUP1 ISZERO PUSH2 0x1EC JUMPI PUSH1 0x0 DUP1 REVERT JUMPDEST POP PUSH2 0x1CB PUSH2 0x1FB CALLDATASIZE PUSH1 0x4 PUSH2 0x26B1 JUMP JUMPDEST PUSH2 0x57B JUMP JUMPDEST CALLVALUE DUP1 ISZERO PUSH2 0x20C JUMPI PUSH1 0x0 DUP1 REVERT JUMPDEST POP PUSH2 0x215 PUSH2 0x5A6 JUMP JUMPDEST PUSH1 0x40 MLOAD PUSH2 0x1D7 SWAP2 SWAP1 PUSH2 0x271E JUMP JUMPDEST CALLVALUE DUP1 ISZERO PUSH2 0x22E JUMPI PUSH1 0x0 DUP1 REVERT JUMPDEST POP PUSH2 0x242 PUSH2 0x23D CALLDATASIZE PUSH1 0x4 PUSH2 0x2682 JUMP JUMPDEST PUSH2 0x64A JUMP JUMPDEST PUSH1 0x40 MLOAD PUSH1 0x1 PUSH1 0x1 PUSH1 0xA0 SHL SUB SWAP1 SWAP2 AND DUP2 MSTORE PUSH1 0x20 ADD PUSH2 0x1D7 JUMP JUMPDEST CALLVALUE DUP1 ISZERO PUSH2 0x266 JUMPI PUSH1 0x0 DUP1 REVERT JUMPDEST POP PUSH2 0x1A9 PUSH2 0x275 CALLDATASIZE PUSH1 0x4 PUSH2 0x274D JUMP JUMPDEST PUSH2 0x65F JUMP JUMPDEST CALLVALUE DUP1 ISZERO PUSH2 0x286 JUMPI PUSH1 0x0 DUP1 REVERT JUMPDEST POP PUSH2 0x1A9 PUSH2 0x295 CALLDATASIZE PUSH1 0x4 PUSH2 0x2777 JUMP JUMPDEST PUSH2 0x66E JUMP JUMPDEST CALLVALUE DUP1 ISZERO PUSH2 0x2A6 JUMPI PUSH1 0x0 DUP1 REVERT JUMPDEST POP PUSH2 0x1A9 PUSH2 0x6FE JUMP JUMPDEST CALLVALUE DUP1 ISZERO PUSH2 0x2BB JUMPI PUSH1 0x0 DUP1 REVERT JUMPDEST POP PUSH2 0x1A9 PUSH2 0x2CA CALLDATASIZE PUSH1 0x4 PUSH2 0x2777 JUMP JUMPDEST PUSH2 0x7A3 JUMP JUMPDEST PUSH2 0x1A9 PUSH2 0x2DD CALLDATASIZE PUSH1 0x4 PUSH2 0x2890 JUMP JUMPDEST PUSH2 0x7C3 JUMP JUMPDEST CALLVALUE DUP1 ISZERO PUSH2 0x2EE JUMPI PUSH1 0x0 DUP1 REVERT JUMPDEST POP PUSH2 0x2F7 PUSH2 0x7DE JUMP JUMPDEST PUSH1 0x40 MLOAD SWAP1 DUP2 MSTORE PUSH1 0x20 ADD PUSH2 0x1D7 JUMP JUMPDEST CALLVALUE DUP1 ISZERO PUSH2 0x311 JUMPI PUSH1 0x0 DUP1 REVERT JUMPDEST POP PUSH2 0x242 PUSH2 0x320 CALLDATASIZE PUSH1 0x4 PUSH2 0x2682 JUMP JUMPDEST PUSH2 0x7FB JUMP JUMPDEST CALLVALUE DUP1 ISZERO PUSH2 0x331 JUMPI PUSH1 0x0 DUP1 REVERT JUMPDEST POP PUSH2 0x1A9 PUSH2 0x340 CALLDATASIZE PUSH1 0x4 PUSH2 0x2ACC JUMP JUMPDEST PUSH2 0x806 JUMP JUMPDEST CALLVALUE DUP1 ISZERO PUSH2 0x351 JUMPI PUSH1 0x0 DUP1 REVERT JUMPDEST POP PUSH2 0x2F7 PUSH2 0x360 CALLDATASIZE PUSH1 0x4 PUSH2 0x2B89 JUMP JUMPDEST PUSH2 0x9CE JUMP JUMPDEST CALLVALUE DUP1 ISZERO PUSH2 0x371 JUMPI PUSH1 0x0 DUP1 REVERT JUMPDEST POP PUSH2 0x1A9 PUSH2 0xA2A JUMP JUMPDEST CALLVALUE DUP1 ISZERO PUSH2 0x386 JUMPI PUSH1 0x0 DUP1 REVERT JUMPDEST POP PUSH2 0x39A PUSH2 0x395 CALLDATASIZE PUSH1 0x4 PUSH2 0x2682 JUMP JUMPDEST PUSH2 0xA3E JUMP JUMPDEST PUSH1 0x40 MLOAD PUSH2 0x1D7 SWAP2 SWAP1 PUSH2 0x2C67 JUMP JUMPDEST CALLVALUE DUP1 ISZERO PUSH2 0x3B3 JUMPI PUSH1 0x0 DUP1 REVERT JUMPDEST POP PUSH2 0x3C7 PUSH2 0x3C2 CALLDATASIZE PUSH1 0x4 PUSH2 0x2CAC JUMP JUMPDEST PUSH2 0xE15 JUMP JUMPDEST PUSH1 0x40 MLOAD PUSH2 0x1D7 SWAP4 SWAP3 SWAP2 SWAP1 PUSH2 0x2CE0 JUMP JUMPDEST CALLVALUE DUP1 ISZERO PUSH2 0x3E2 JUMPI PUSH1 0x0 DUP1 REVERT JUMPDEST POP PUSH2 0x242 PUSH2 0xECA JUMP JUMPDEST CALLVALUE DUP1 ISZERO PUSH2 0x3F7 JUMPI PUSH1 0x0 DUP1 REVERT JUMPDEST POP PUSH2 0x215 PUSH2 0xEF8 JUMP JUMPDEST CALLVALUE DUP1 ISZERO PUSH2 0x40C JUMPI PUSH1 0x0 DUP1 REVERT JUMPDEST POP PUSH2 0x1A9 PUSH2 0x41B CALLDATASIZE PUSH1 0x4 PUSH2 0x2D05 JUMP JUMPDEST PUSH2 0xF37 JUMP JUMPDEST CALLVALUE DUP1 ISZERO PUSH2 0x42C JUMPI PUSH1 0x0 DUP1 REVERT JUMPDEST POP PUSH2 0x215 PUSH1 0x40 MLOAD DUP1 PUSH1 0x40 ADD PUSH1 0x40 MSTORE DUP1 PUSH1 0x5 DUP2 MSTORE PUSH1 0x20 ADD PUSH5 0x352E302E3 PUSH1 0xDC SHL DUP2 MSTORE POP DUP2 JUMP JUMPDEST CALLVALUE DUP1 ISZERO PUSH2 0x45D JUMPI PUSH1 0x0 DUP1 REVERT JUMPDEST POP PUSH2 0x1A9 PUSH2 0x46C CALLDATASIZE PUSH1 0x4 PUSH2 0x2D38 JUMP JUMPDEST PUSH2 0xF42 JUMP JUMPDEST CALLVALUE DUP1 ISZERO PUSH2 0x47D JUMPI PUSH1 0x0 DUP1 REVERT JUMPDEST POP PUSH2 0x1A9 PUSH2 0x48C CALLDATASIZE PUSH1 0x4 PUSH2 0x2D9F JUMP JUMPDEST PUSH2 0xF59 JUMP JUMPDEST CALLVALUE DUP1 ISZERO PUSH2 0x49D JUMPI PUSH1 0x0 DUP1 REVERT JUMPDEST POP PUSH2 0x2F7 PUSH2 0x4AC CALLDATASIZE PUSH1 0x4 PUSH2 0x2E0B JUMP JUMPDEST PUSH2 0x1080 JUMP JUMPDEST CALLVALUE DUP1 ISZERO PUSH2 0x4BD JUMPI PUSH1 0x0 DUP1 REVERT JUMPDEST POP PUSH2 0x215 PUSH2 0x4CC CALLDATASIZE PUSH1 0x4 PUSH2 0x2682 JUMP JUMPDEST PUSH2 0x1241 JUMP JUMPDEST CALLVALUE DUP1 ISZERO PUSH2 0x4DD JUMPI PUSH1 0x0 DUP1 REVERT JUMPDEST POP PUSH2 0x4F1 PUSH2 0x4EC CALLDATASIZE PUSH1 0x4 PUSH2 0x2682 JUMP JUMPDEST PUSH2 0x1376 JUMP JUMPDEST PUSH1 0x40 MLOAD PUSH2 0x1D7 SWAP2 SWAP1 PUSH2 0x2E97 JUMP JUMPDEST CALLVALUE DUP1 ISZERO PUSH2 0x50A JUMPI PUSH1 0x0 DUP1 REVERT JUMPDEST POP PUSH2 0x1CB PUSH2 0x519 CALLDATASIZE PUSH1 0x4 PUSH2 0x2EAA JUMP JUMPDEST PUSH2 0x16A0 JUMP JUMPDEST CALLVALUE DUP1 ISZERO PUSH2 0x52A JUMPI PUSH1 0x0 DUP1 REVERT JUMPDEST POP PUSH2 0x1A9 PUSH2 0x539 CALLDATASIZE PUSH1 0x4 PUSH2 0x2ED4 JUMP JUMPDEST PUSH2 0x16ED JUMP JUMPDEST CALLVALUE DUP1 ISZERO PUSH2 0x54A JUMPI PUSH1 0x0 DUP1 REVERT JUMPDEST POP PUSH2 0x1A9 PUSH2 0x559 CALLDATASIZE PUSH1 0x4 PUSH2 0x2B89 JUMP JUMPDEST PUSH2 0x1833 JUMP JUMPDEST PUSH1 0x0 DUP1 PUSH2 0x56A DUP4 PUSH2 0x7FB JUMP JUMPDEST PUSH1 0x1 PUSH1 0x1 PUSH1 0xA0 SHL SUB AND EQ ISZERO SWAP3 SWAP2 POP POP JUMP JUMPDEST PUSH1 0x0 PUSH1 0x1 PUSH1 0x1 PUSH1 0xE0 SHL SUB NOT DUP3 AND PUSH4 0x24832483 PUSH1 0xE1 SHL EQ DUP1 PUSH2 0x5A0 JUMPI POP PUSH2 0x5A0 DUP3 PUSH2 0x1871 JUMP JUMPDEST SWAP3 SWAP2 POP POP JUMP JUMPDEST PUSH1 0x0 DUP1 MLOAD PUSH1 0x20 PUSH2 0x31AF DUP4 CODECOPY DUP2 MLOAD SWAP2 MSTORE DUP1 SLOAD PUSH1 0x60 SWAP2 SWAP1 DUP2 SWAP1 PUSH2 0x5C6 SWAP1 PUSH2 0x2F10 JUMP JUMPDEST DUP1 PUSH1 0x1F ADD PUSH1 0x20 DUP1 SWAP2 DIV MUL PUSH1 0x20 ADD PUSH1 0x40 MLOAD SWAP1 DUP2 ADD PUSH1 0x40 MSTORE DUP1 SWAP3 SWAP2 SWAP1 DUP2 DUP2 MSTORE PUSH1 0x20 ADD DUP3 DUP1 SLOAD PUSH2 0x5F2 SWAP1 PUSH2 0x2F10 JUMP JUMPDEST DUP1 ISZERO PUSH2 0x63F JUMPI DUP1 PUSH1 0x1F LT PUSH2 0x614 JUMPI PUSH2 0x100 DUP1 DUP4 SLOAD DIV MUL DUP4 MSTORE SWAP2 PUSH1 0x20 ADD SWAP2 PUSH2 0x63F JUMP JUMPDEST DUP3 ADD SWAP2 SWAP1 PUSH1 0x0 MSTORE PUSH1 0x20 PUSH1 0x0 KECCAK256 SWAP1 JUMPDEST DUP2 SLOAD DUP2 MSTORE SWAP1 PUSH1 0x1 ADD SWAP1 PUSH1 0x20 ADD DUP1 DUP4 GT PUSH2 0x622 JUMPI DUP3 SWAP1 SUB PUSH1 0x1F AND DUP3 ADD SWAP2 JUMPDEST POP POP POP POP POP SWAP2 POP POP SWAP1 JUMP JUMPDEST PUSH1 0x0 PUSH2 0x655 DUP3 PUSH2 0x18C1 JUMP JUMPDEST POP PUSH2 0x5A0 DUP3 PUSH2 0x18F9 JUMP JUMPDEST PUSH2 0x66A DUP3 DUP3 CALLER PUSH2 0x1933 JUMP JUMPDEST POP POP JUMP JUMPDEST PUSH1 0x1 PUSH1 0x1 PUSH1 0xA0 SHL SUB DUP3 AND PUSH2 0x69D JUMPI PUSH1 0x40 MLOAD PUSH4 0x32505749 PUSH1 0xE1 SHL DUP2 MSTORE PUSH1 0x0 PUSH1 0x4 DUP3 ADD MSTORE PUSH1 0x24 ADD JUMPDEST PUSH1 0x40 MLOAD DUP1 SWAP2 SUB SWAP1 REVERT JUMPDEST PUSH1 0x0 PUSH2 0x6AA DUP4 DUP4 CALLER PUSH2 0x1940 JUMP JUMPDEST SWAP1 POP DUP4 PUSH1 0x1 PUSH1 0x1 PUSH1 0xA0 SHL SUB AND DUP2 PUSH1 0x1 PUSH1 0x1 PUSH1 0xA0 SHL SUB AND EQ PUSH2 0x6F8 JUMPI PUSH1 0x40 MLOAD PUSH4 0x64283D7B PUSH1 0xE0 SHL DUP2 MSTORE PUSH1 0x1 PUSH1 0x1 PUSH1 0xA0 SHL SUB DUP1 DUP7 AND PUSH1 0x4 DUP4 ADD MSTORE PUSH1 0x24 DUP3 ADD DUP5 SWAP1 MSTORE DUP3 AND PUSH1 0x44 DUP3 ADD MSTORE PUSH1 0x64 ADD PUSH2 0x694 JUMP JUMPDEST POP POP POP POP JUMP JUMPDEST PUSH2 0x706 PUSH2 0x1A4C JUMP JUMPDEST SELFBALANCE DUP1 PUSH2 0x763 JUMPI PUSH1 0x40 MLOAD PUSH3 0x461BCD PUSH1 0xE5 SHL DUP2 MSTORE PUSH1 0x20 PUSH1 0x4 DUP3 ADD MSTORE PUSH1 0x26 PUSH1 0x24 DUP3 ADD MSTORE PUSH32 0x4E46413A204E6F2066756E647320617661696C61626C6520666F722077697468 PUSH1 0x44 DUP3 ADD MSTORE PUSH6 0x191C985DD85B PUSH1 0xD2 SHL PUSH1 0x64 DUP3 ADD MSTORE PUSH1 0x84 ADD PUSH2 0x694 JUMP JUMPDEST PUSH2 0x76B PUSH2 0xECA JUMP JUMPDEST PUSH1 0x1 PUSH1 0x1 PUSH1 0xA0 SHL SUB AND PUSH2 0x8FC DUP3 SWAP1 DUP2 ISZERO MUL SWAP1 PUSH1 0x40 MLOAD PUSH1 0x0 PUSH1 0x40 MLOAD DUP1 DUP4 SUB DUP2 DUP6 DUP9 DUP9 CALL SWAP4 POP POP POP POP ISZERO DUP1 ISZERO PUSH2 0x66A JUMPI RETURNDATASIZE PUSH1 0x0 DUP1 RETURNDATACOPY RETURNDATASIZE PUSH1 0x0 REVERT JUMPDEST PUSH2 0x7BE DUP4 DUP4 DUP4 PUSH1 0x40 MLOAD DUP1 PUSH1 0x20 ADD PUSH1 0x40 MSTORE DUP1 PUSH1 0x0 DUP2 MSTORE POP PUSH2 0xF42 JUMP JUMPDEST POP POP POP JUMP JUMPDEST PUSH2 0x7CB PUSH2 0x1A7E JUMP JUMPDEST PUSH2 0x7D4 DUP3 PUSH2 0x1B23 JUMP JUMPDEST PUSH2 0x66A DUP3 DUP3 PUSH2 0x1B2B JUMP JUMPDEST PUSH1 0x0 PUSH2 0x7E8 PUSH2 0x1BE8 JUMP JUMPDEST POP PUSH1 0x0 DUP1 MLOAD PUSH1 0x20 PUSH2 0x31CF DUP4 CODECOPY DUP2 MLOAD SWAP2 MSTORE SWAP1 JUMP JUMPDEST PUSH1 0x0 PUSH2 0x5A0 DUP3 PUSH2 0x18C1 JUMP JUMPDEST PUSH32 0xF0C57E16840DF040F15088DC2F81FE391C3923BEC73E23A9662EFC9C229C6A00 DUP1 SLOAD PUSH1 0x1 PUSH1 0x40 SHL DUP2 DIV PUSH1 0xFF AND ISZERO SWAP1 PUSH1 0x1 PUSH1 0x1 PUSH1 0x40 SHL SUB AND PUSH1 0x0 DUP2 ISZERO DUP1 ISZERO PUSH2 0x84B JUMPI POP DUP3 JUMPDEST SWAP1 POP PUSH1 0x0 DUP3 PUSH1 0x1 PUSH1 0x1 PUSH1 0x40 SHL SUB AND PUSH1 0x1 EQ DUP1 ISZERO PUSH2 0x867 JUMPI POP ADDRESS EXTCODESIZE ISZERO JUMPDEST SWAP1 POP DUP2 ISZERO DUP1 ISZERO PUSH2 0x875 JUMPI POP DUP1 ISZERO JUMPDEST ISZERO PUSH2 0x893 JUMPI PUSH1 0x40 MLOAD PUSH4 0xF92EE8A9 PUSH1 0xE0 SHL DUP2 MSTORE PUSH1 0x4 ADD PUSH1 0x40 MLOAD DUP1 SWAP2 SUB SWAP1 REVERT JUMPDEST DUP5 SLOAD PUSH8 0xFFFFFFFFFFFFFFFF NOT AND PUSH1 0x1 OR DUP6 SSTORE DUP4 ISZERO PUSH2 0x8BD JUMPI DUP5 SLOAD PUSH1 0xFF PUSH1 0x40 SHL NOT AND PUSH1 0x1 PUSH1 0x40 SHL OR DUP6 SSTORE JUMPDEST PUSH2 0x8C7 DUP11 DUP11 PUSH2 0x1C31 JUMP JUMPDEST PUSH2 0x8CF PUSH2 0x1C43 JUMP JUMPDEST PUSH2 0x8D8 DUP7 PUSH2 0x1C4B JUMP JUMPDEST PUSH1 0x0 DUP1 SLOAD DUP2 MSTORE PUSH1 0x1 PUSH1 0x20 DUP2 DUP2 MSTORE PUSH1 0x40 SWAP1 SWAP3 KECCAK256 DUP11 MLOAD DUP2 SLOAD PUSH1 0xFF NOT AND SWAP1 ISZERO ISZERO OR DUP2 SSTORE SWAP2 DUP11 ADD MLOAD DUP11 SWAP3 SWAP2 DUP3 ADD SWAP1 PUSH2 0x90C SWAP1 DUP3 PUSH2 0x2F9A JUMP JUMPDEST POP PUSH1 0x40 DUP3 ADD MLOAD DUP1 MLOAD PUSH1 0x2 DUP4 ADD SWAP1 DUP2 SWAP1 PUSH2 0x925 SWAP1 DUP3 PUSH2 0x2F9A JUMP JUMPDEST POP PUSH1 0x20 DUP3 DUP2 ADD MLOAD DUP1 MLOAD PUSH2 0x93E SWAP3 PUSH1 0x1 DUP6 ADD SWAP3 ADD SWAP1 PUSH2 0x25C5 JUMP JUMPDEST POP PUSH1 0x40 DUP3 ADD MLOAD PUSH1 0x2 DUP3 ADD SSTORE PUSH1 0x60 DUP3 ADD MLOAD DUP1 MLOAD PUSH2 0x964 SWAP2 PUSH1 0x3 DUP5 ADD SWAP2 PUSH1 0x20 SWAP1 SWAP2 ADD SWAP1 PUSH2 0x25C5 JUMP JUMPDEST POP PUSH1 0x80 SWAP2 SWAP1 SWAP2 ADD MLOAD PUSH1 0x4 SWAP1 SWAP2 ADD SSTORE POP POP PUSH1 0x40 DUP9 ADD MLOAD MLOAD DUP8 MSTORE DUP4 ISZERO PUSH2 0x9C2 JUMPI DUP5 SLOAD PUSH1 0xFF PUSH1 0x40 SHL NOT AND DUP6 SSTORE PUSH1 0x40 MLOAD PUSH1 0x1 DUP2 MSTORE PUSH32 0xC7F505B2F371AE2175EE4913F4499E1F2633A7B5936321EED1CDAEB6115181D2 SWAP1 PUSH1 0x20 ADD PUSH1 0x40 MLOAD DUP1 SWAP2 SUB SWAP1 LOG1 JUMPDEST POP POP POP POP POP POP POP POP POP POP JUMP JUMPDEST PUSH1 0x0 PUSH1 0x0 DUP1 MLOAD PUSH1 0x20 PUSH2 0x31AF DUP4 CODECOPY DUP2 MLOAD SWAP2 MSTORE PUSH1 0x1 PUSH1 0x1 PUSH1 0xA0 SHL SUB DUP4 AND PUSH2 0xA09 JUMPI PUSH1 0x40 MLOAD PUSH4 0x22718AD9 PUSH1 0xE2 SHL DUP2 MSTORE PUSH1 0x0 PUSH1 0x4 DUP3 ADD MSTORE PUSH1 0x24 ADD PUSH2 0x694 JUMP JUMPDEST PUSH1 0x1 PUSH1 0x1 PUSH1 0xA0 SHL SUB SWAP1 SWAP3 AND PUSH1 0x0 SWAP1 DUP2 MSTORE PUSH1 0x3 SWAP1 SWAP3 ADD PUSH1 0x20 MSTORE POP PUSH1 0x40 SWAP1 KECCAK256 SLOAD SWAP1 JUMP JUMPDEST PUSH2 0xA32 PUSH2 0x1A4C JUMP JUMPDEST PUSH2 0xA3C PUSH1 0x0 PUSH2 0x1C5C JUMP JUMPDEST JUMP JUMPDEST PUSH2 0xA84 PUSH1 0x40 DUP1 MLOAD PUSH1 0x60 DUP1 DUP3 ADD DUP4 MSTORE PUSH1 0x0 DUP1 DUP4 MSTORE PUSH1 0x20 DUP1 DUP5 ADD DUP4 SWAP1 MSTORE DUP5 MLOAD PUSH1 0xA0 DUP2 ADD DUP7 MSTORE DUP4 DUP2 MSTORE SWAP1 DUP2 ADD DUP4 SWAP1 MSTORE DUP1 DUP6 ADD DUP3 SWAP1 MSTORE DUP1 DUP4 ADD SWAP3 SWAP1 SWAP3 MSTORE PUSH1 0x80 DUP3 ADD MSTORE SWAP1 SWAP2 DUP3 ADD MSTORE SWAP1 JUMP JUMPDEST PUSH2 0xA8D DUP3 PUSH2 0x55E JUMP JUMPDEST PUSH2 0xAEA JUMPI PUSH1 0x40 MLOAD PUSH3 0x461BCD PUSH1 0xE5 SHL DUP2 MSTORE PUSH1 0x20 PUSH1 0x4 DUP3 ADD MSTORE PUSH1 0x28 PUSH1 0x24 DUP3 ADD MSTORE PUSH32 0x4E46413A20417070496E666F20717565727920666F72206E6F6E657869737465 PUSH1 0x44 DUP3 ADD MSTORE PUSH8 0x373A103A37B5B2B7 PUSH1 0xC1 SHL PUSH1 0x64 DUP3 ADD MSTORE PUSH1 0x84 ADD PUSH2 0x694 JUMP JUMPDEST PUSH1 0x0 DUP3 DUP2 MSTORE PUSH1 0x1 PUSH1 0x20 DUP2 DUP2 MSTORE PUSH1 0x40 SWAP3 DUP4 SWAP1 KECCAK256 DUP4 MLOAD PUSH1 0x60 DUP2 ADD SWAP1 SWAP5 MSTORE DUP1 SLOAD PUSH1 0xFF AND ISZERO ISZERO DUP5 MSTORE SWAP2 DUP3 ADD DUP1 SLOAD SWAP2 DUP5 ADD SWAP2 PUSH2 0xB20 SWAP1 PUSH2 0x2F10 JUMP JUMPDEST DUP1 PUSH1 0x1F ADD PUSH1 0x20 DUP1 SWAP2 DIV MUL PUSH1 0x20 ADD PUSH1 0x40 MLOAD SWAP1 DUP2 ADD PUSH1 0x40 MSTORE DUP1 SWAP3 SWAP2 SWAP1 DUP2 DUP2 MSTORE PUSH1 0x20 ADD DUP3 DUP1 SLOAD PUSH2 0xB4C SWAP1 PUSH2 0x2F10 JUMP JUMPDEST DUP1 ISZERO PUSH2 0xB99 JUMPI DUP1 PUSH1 0x1F LT PUSH2 0xB6E JUMPI PUSH2 0x100 DUP1 DUP4 SLOAD DIV MUL DUP4 MSTORE SWAP2 PUSH1 0x20 ADD SWAP2 PUSH2 0xB99 JUMP JUMPDEST DUP3 ADD SWAP2 SWAP1 PUSH1 0x0 MSTORE PUSH1 0x20 PUSH1 0x0 KECCAK256 SWAP1 JUMPDEST DUP2 SLOAD DUP2 MSTORE SWAP1 PUSH1 0x1 ADD SWAP1 PUSH1 0x20 ADD DUP1 DUP4 GT PUSH2 0xB7C JUMPI DUP3 SWAP1 SUB PUSH1 0x1F AND DUP3 ADD SWAP2 JUMPDEST POP POP POP POP POP DUP2 MSTORE PUSH1 0x20 ADD PUSH1 0x2 DUP3 ADD PUSH1 0x40 MLOAD DUP1 PUSH1 0xA0 ADD PUSH1 0x40 MSTORE SWAP1 DUP2 PUSH1 0x0 DUP3 ADD DUP1 SLOAD PUSH2 0xBC2 SWAP1 PUSH2 0x2F10 JUMP JUMPDEST DUP1 PUSH1 0x1F ADD PUSH1 0x20 DUP1 SWAP2 DIV MUL PUSH1 0x20 ADD PUSH1 0x40 MLOAD SWAP1 DUP2 ADD PUSH1 0x40 MSTORE DUP1 SWAP3 SWAP2 SWAP1 DUP2 DUP2 MSTORE PUSH1 0x20 ADD DUP3 DUP1 SLOAD PUSH2 0xBEE SWAP1 PUSH2 0x2F10 JUMP JUMPDEST DUP1 ISZERO PUSH2 0xC3B JUMPI DUP1 PUSH1 0x1F LT PUSH2 0xC10 JUMPI PUSH2 0x100 DUP1 DUP4 SLOAD DIV MUL DUP4 MSTORE SWAP2 PUSH1 0x20 ADD SWAP2 PUSH2 0xC3B JUMP JUMPDEST DUP3 ADD SWAP2 SWAP1 PUSH1 0x0 MSTORE PUSH1 0x20 PUSH1 0x0 KECCAK256 SWAP1 JUMPDEST DUP2 SLOAD DUP2 MSTORE SWAP1 PUSH1 0x1 ADD SWAP1 PUSH1 0x20 ADD DUP1 DUP4 GT PUSH2 0xC1E JUMPI DUP3 SWAP1 SUB PUSH1 0x1F AND DUP3 ADD SWAP2 JUMPDEST POP POP POP POP POP DUP2 MSTORE PUSH1 0x20 ADD PUSH1 0x1 DUP3 ADD DUP1 SLOAD DUP1 PUSH1 0x20 MUL PUSH1 0x20 ADD PUSH1 0x40 MLOAD SWAP1 DUP2 ADD PUSH1 0x40 MSTORE DUP1 SWAP3 SWAP2 SWAP1 DUP2 DUP2 MSTORE PUSH1 0x20 ADD PUSH1 0x0 SWAP1 JUMPDEST DUP3 DUP3 LT ISZERO PUSH2 0xD15 JUMPI DUP4 DUP3 SWAP1 PUSH1 0x0 MSTORE PUSH1 0x20 PUSH1 0x0 KECCAK256 ADD DUP1 SLOAD PUSH2 0xC88 SWAP1 PUSH2 0x2F10 JUMP JUMPDEST DUP1 PUSH1 0x1F ADD PUSH1 0x20 DUP1 SWAP2 DIV MUL PUSH1 0x20 ADD PUSH1 0x40 MLOAD SWAP1 DUP2 ADD PUSH1 0x40 MSTORE DUP1 SWAP3 SWAP2 SWAP1 DUP2 DUP2 MSTORE PUSH1 0x20 ADD DUP3 DUP1 SLOAD PUSH2 0xCB4 SWAP1 PUSH2 0x2F10 JUMP JUMPDEST DUP1 ISZERO PUSH2 0xD01 JUMPI DUP1 PUSH1 0x1F LT PUSH2 0xCD6 JUMPI PUSH2 0x100 DUP1 DUP4 SLOAD DIV MUL DUP4 MSTORE SWAP2 PUSH1 0x20 ADD SWAP2 PUSH2 0xD01 JUMP JUMPDEST DUP3 ADD SWAP2 SWAP1 PUSH1 0x0 MSTORE PUSH1 0x20 PUSH1 0x0 KECCAK256 SWAP1 JUMPDEST DUP2 SLOAD DUP2 MSTORE SWAP1 PUSH1 0x1 ADD SWAP1 PUSH1 0x20 ADD DUP1 DUP4 GT PUSH2 0xCE4 JUMPI DUP3 SWAP1 SUB PUSH1 0x1F AND DUP3 ADD SWAP2 JUMPDEST POP POP POP POP POP DUP2 MSTORE PUSH1 0x20 ADD SWAP1 PUSH1 0x1 ADD SWAP1 PUSH2 0xC69 JUMP JUMPDEST POP POP POP POP DUP2 MSTORE PUSH1 0x20 ADD PUSH1 0x2 DUP3 ADD SLOAD DUP2 MSTORE PUSH1 0x20 ADD PUSH1 0x3 DUP3 ADD DUP1 SLOAD DUP1 PUSH1 0x20 MUL PUSH1 0x20 ADD PUSH1 0x40 MLOAD SWAP1 DUP2 ADD PUSH1 0x40 MSTORE DUP1 SWAP3 SWAP2 SWAP1 DUP2 DUP2 MSTORE PUSH1 0x20 ADD PUSH1 0x0 SWAP1 JUMPDEST DUP3 DUP3 LT ISZERO PUSH2 0xDF8 JUMPI DUP4 DUP3 SWAP1 PUSH1 0x0 MSTORE PUSH1 0x20 PUSH1 0x0 KECCAK256 ADD DUP1 SLOAD PUSH2 0xD6B SWAP1 PUSH2 0x2F10 JUMP JUMPDEST DUP1 PUSH1 0x1F ADD PUSH1 0x20 DUP1 SWAP2 DIV MUL PUSH1 0x20 ADD PUSH1 0x40 MLOAD SWAP1 DUP2 ADD PUSH1 0x40 MSTORE DUP1 SWAP3 SWAP2 SWAP1 DUP2 DUP2 MSTORE PUSH1 0x20 ADD DUP3 DUP1 SLOAD PUSH2 0xD97 SWAP1 PUSH2 0x2F10 JUMP JUMPDEST DUP1 ISZERO PUSH2 0xDE4 JUMPI DUP1 PUSH1 0x1F LT PUSH2 0xDB9 JUMPI PUSH2 0x100 DUP1 DUP4 SLOAD DIV MUL DUP4 MSTORE SWAP2 PUSH1 0x20 ADD SWAP2 PUSH2 0xDE4 JUMP JUMPDEST DUP3 ADD SWAP2 SWAP1 PUSH1 0x0 MSTORE PUSH1 0x20 PUSH1 0x0 KECCAK256 SWAP1 JUMPDEST DUP2 SLOAD DUP2 MSTORE SWAP1 PUSH1 0x1 ADD SWAP1 PUSH1 0x20 ADD DUP1 DUP4 GT PUSH2 0xDC7 JUMPI DUP3 SWAP1 SUB PUSH1 0x1F AND DUP3 ADD SWAP2 JUMPDEST POP POP POP POP POP DUP2 MSTORE PUSH1 0x20 ADD SWAP1 PUSH1 0x1 ADD SWAP1 PUSH2 0xD4C JUMP JUMPDEST POP POP POP POP DUP2 MSTORE PUSH1 0x20 ADD PUSH1 0x4 DUP3 ADD SLOAD DUP2 MSTORE POP POP DUP2 MSTORE POP POP SWAP1 POP SWAP2 SWAP1 POP JUMP JUMPDEST DUP1 MLOAD PUSH1 0x20 DUP2 DUP4 ADD DUP2 ADD DUP1 MLOAD PUSH1 0x2 DUP3 MSTORE SWAP3 DUP3 ADD SWAP2 SWAP1 SWAP4 ADD KECCAK256 SWAP2 MSTORE DUP1 SLOAD DUP2 SWAP1 PUSH2 0xE3B SWAP1 PUSH2 0x2F10 JUMP JUMPDEST DUP1 PUSH1 0x1F ADD PUSH1 0x20 DUP1 SWAP2 DIV MUL PUSH1 0x20 ADD PUSH1 0x40 MLOAD SWAP1 DUP2 ADD PUSH1 0x40 MSTORE DUP1 SWAP3 SWAP2 SWAP1 DUP2 DUP2 MSTORE PUSH1 0x20 ADD DUP3 DUP1 SLOAD PUSH2 0xE67 SWAP1 PUSH2 0x2F10 JUMP JUMPDEST DUP1 ISZERO PUSH2 0xEB4 JUMPI DUP1 PUSH1 0x1F LT PUSH2 0xE89 JUMPI PUSH2 0x100 DUP1 DUP4 SLOAD DIV MUL DUP4 MSTORE SWAP2 PUSH1 0x20 ADD SWAP2 PUSH2 0xEB4 JUMP JUMPDEST DUP3 ADD SWAP2 SWAP1 PUSH1 0x0 MSTORE PUSH1 0x20 PUSH1 0x0 KECCAK256 SWAP1 JUMPDEST DUP2 SLOAD DUP2 MSTORE SWAP1 PUSH1 0x1 ADD SWAP1 PUSH1 0x20 ADD DUP1 DUP4 GT PUSH2 0xE97 JUMPI DUP3 SWAP1 SUB PUSH1 0x1F AND DUP3 ADD SWAP2 JUMPDEST POP POP POP POP POP SWAP1 DUP1 PUSH1 0x2 ADD SLOAD SWAP1 DUP1 PUSH1 0x4 ADD SLOAD SWAP1 POP DUP4 JUMP JUMPDEST PUSH32 0x9016D09D72D40FDAE2FD8CEAC6B6234C7706214FD39C1CD1E609A0528C199300 SLOAD PUSH1 0x1 PUSH1 0x1 PUSH1 0xA0 SHL SUB AND SWAP1 JUMP JUMPDEST PUSH32 0x80BB2B638CC20BC4D0A60D66940F3AB4A00C1D7B313497CA82FB0B4AB0079301 DUP1 SLOAD PUSH1 0x60 SWAP2 PUSH1 0x0 DUP1 MLOAD PUSH1 0x20 PUSH2 0x31AF DUP4 CODECOPY DUP2 MLOAD SWAP2 MSTORE SWAP2 PUSH2 0x5C6 SWAP1 PUSH2 0x2F10 JUMP JUMPDEST PUSH2 0x66A CALLER DUP4 DUP4 PUSH2 0x1CCD JUMP JUMPDEST PUSH2 0xF4D DUP5 DUP5 DUP5 PUSH2 0x66E JUMP JUMPDEST PUSH2 0x6F8 DUP5 DUP5 DUP5 DUP5 PUSH2 0x1D7E JUMP JUMPDEST PUSH2 0xF61 PUSH2 0x1A4C JUMP JUMPDEST PUSH2 0xF6A DUP4 PUSH2 0x55E JUMP JUMPDEST PUSH2 0xFC8 JUMPI PUSH1 0x40 MLOAD PUSH3 0x461BCD PUSH1 0xE5 SHL DUP2 MSTORE PUSH1 0x20 PUSH1 0x4 DUP3 ADD MSTORE PUSH1 0x29 PUSH1 0x24 DUP3 ADD MSTORE PUSH32 0x4E46413A2056657273696F6E2075706461746520666F72206E6F6E6578697374 PUSH1 0x44 DUP3 ADD MSTORE PUSH9 0x32B73A103A37B5B2B7 PUSH1 0xB9 SHL PUSH1 0x64 DUP3 ADD MSTORE PUSH1 0x84 ADD PUSH2 0x694 JUMP JUMPDEST DUP2 PUSH1 0x2 DUP3 PUSH1 0x40 MLOAD PUSH2 0xFD9 SWAP2 SWAP1 PUSH2 0x3059 JUMP JUMPDEST SWAP1 DUP2 MSTORE PUSH1 0x40 MLOAD SWAP1 DUP2 SWAP1 SUB PUSH1 0x20 ADD SWAP1 KECCAK256 DUP2 MLOAD DUP2 SWAP1 PUSH2 0xFF6 SWAP1 DUP3 PUSH2 0x2F9A JUMP JUMPDEST POP PUSH1 0x20 DUP3 DUP2 ADD MLOAD DUP1 MLOAD PUSH2 0x100F SWAP3 PUSH1 0x1 DUP6 ADD SWAP3 ADD SWAP1 PUSH2 0x25C5 JUMP JUMPDEST POP PUSH1 0x40 DUP3 ADD MLOAD PUSH1 0x2 DUP3 ADD SSTORE PUSH1 0x60 DUP3 ADD MLOAD DUP1 MLOAD PUSH2 0x1035 SWAP2 PUSH1 0x3 DUP5 ADD SWAP2 PUSH1 0x20 SWAP1 SWAP2 ADD SWAP1 PUSH2 0x25C5 JUMP JUMPDEST POP PUSH1 0x80 DUP3 ADD MLOAD DUP2 PUSH1 0x4 ADD SSTORE SWAP1 POP POP DUP3 PUSH32 0xE084E6175F396D3B0CDE566579E31E11B6A6B6243A84AC78C946F716C7387A96 DUP4 PUSH1 0x40 MLOAD PUSH2 0x1073 SWAP2 SWAP1 PUSH2 0x2E97 JUMP JUMPDEST PUSH1 0x40 MLOAD DUP1 SWAP2 SUB SWAP1 LOG2 POP POP POP JUMP JUMPDEST PUSH1 0x0 PUSH2 0x108A PUSH2 0x1A4C JUMP JUMPDEST PUSH1 0x1 PUSH1 0x0 DUP1 DUP3 DUP3 SLOAD PUSH2 0x109C SWAP2 SWAP1 PUSH2 0x3075 JUMP JUMPDEST SWAP1 SWAP2 SSTORE POP POP PUSH1 0x0 DUP1 SLOAD DUP1 DUP3 MSTORE PUSH1 0x1 PUSH1 0x20 DUP2 DUP2 MSTORE PUSH1 0x40 SWAP1 SWAP4 KECCAK256 DUP7 MLOAD DUP2 SLOAD PUSH1 0xFF NOT AND SWAP1 ISZERO ISZERO OR DUP2 SSTORE SWAP3 DUP7 ADD MLOAD SWAP2 SWAP3 DUP7 SWAP3 SWAP1 SWAP2 DUP3 ADD SWAP1 PUSH2 0x10D9 SWAP1 DUP3 PUSH2 0x2F9A JUMP JUMPDEST POP PUSH1 0x40 DUP3 ADD MLOAD DUP1 MLOAD PUSH1 0x2 DUP4 ADD SWAP1 DUP2 SWAP1 PUSH2 0x10F2 SWAP1 DUP3 PUSH2 0x2F9A JUMP JUMPDEST POP PUSH1 0x20 DUP3 DUP2 ADD MLOAD DUP1 MLOAD PUSH2 0x110B SWAP3 PUSH1 0x1 DUP6 ADD SWAP3 ADD SWAP1 PUSH2 0x25C5 JUMP JUMPDEST POP PUSH1 0x40 DUP3 ADD MLOAD PUSH1 0x2 DUP3 ADD SSTORE PUSH1 0x60 DUP3 ADD MLOAD DUP1 MLOAD PUSH2 0x1131 SWAP2 PUSH1 0x3 DUP5 ADD SWAP2 PUSH1 0x20 SWAP1 SWAP2 ADD SWAP1 PUSH2 0x25C5 JUMP JUMPDEST POP PUSH1 0x80 DUP3 ADD MLOAD DUP2 PUSH1 0x4 ADD SSTORE POP POP SWAP1 POP POP PUSH2 0x114B DUP7 DUP3 PUSH2 0x1EA7 JUMP JUMPDEST PUSH2 0x1155 DUP2 DUP7 PUSH2 0x1F0C JUMP JUMPDEST PUSH1 0x40 DUP1 MLOAD PUSH1 0xA0 DUP2 ADD DUP3 MSTORE DUP6 DUP3 ADD DUP1 MLOAD MLOAD DUP3 MSTORE DUP1 MLOAD PUSH1 0x20 SWAP1 DUP2 ADD MLOAD SWAP1 DUP4 ADD MSTORE DUP1 MLOAD DUP4 ADD MLOAD DUP3 DUP5 ADD MSTORE DUP1 MLOAD PUSH1 0x60 SWAP1 DUP2 ADD MLOAD SWAP1 DUP4 ADD MSTORE MLOAD PUSH1 0x80 SWAP1 DUP2 ADD MLOAD SWAP1 DUP3 ADD MSTORE SWAP1 MLOAD PUSH1 0x2 SWAP1 PUSH2 0x11A3 SWAP1 DUP7 SWAP1 PUSH2 0x3059 JUMP JUMPDEST SWAP1 DUP2 MSTORE PUSH1 0x40 MLOAD SWAP1 DUP2 SWAP1 SUB PUSH1 0x20 ADD SWAP1 KECCAK256 DUP2 MLOAD DUP2 SWAP1 PUSH2 0x11C0 SWAP1 DUP3 PUSH2 0x2F9A JUMP JUMPDEST POP PUSH1 0x20 DUP3 DUP2 ADD MLOAD DUP1 MLOAD PUSH2 0x11D9 SWAP3 PUSH1 0x1 DUP6 ADD SWAP3 ADD SWAP1 PUSH2 0x25C5 JUMP JUMPDEST POP PUSH1 0x40 DUP3 ADD MLOAD PUSH1 0x2 DUP3 ADD SSTORE PUSH1 0x60 DUP3 ADD MLOAD DUP1 MLOAD PUSH2 0x11FF SWAP2 PUSH1 0x3 DUP5 ADD SWAP2 PUSH1 0x20 SWAP1 SWAP2 ADD SWAP1 PUSH2 0x25C5 JUMP JUMPDEST POP PUSH1 0x80 SWAP2 SWAP1 SWAP2 ADD MLOAD PUSH1 0x4 SWAP1 SWAP2 ADD SSTORE PUSH1 0x40 MLOAD DUP2 SWAP1 PUSH32 0x228A60AA955B2DE198DDF61324929AEE6FA4753A3B7BD1E64BD6A2BF3EF1D533 SWAP1 PUSH1 0x0 SWAP1 LOG2 SWAP6 SWAP5 POP POP POP POP POP JUMP JUMPDEST PUSH1 0x60 PUSH32 0x542A41881EE128A365A727B282C86FA859579490B9BB45AAB8503648C8E7900 PUSH2 0x126D DUP4 PUSH2 0x18C1 JUMP JUMPDEST POP PUSH1 0x0 DUP4 DUP2 MSTORE PUSH1 0x20 DUP3 SWAP1 MSTORE PUSH1 0x40 DUP2 KECCAK256 DUP1 SLOAD PUSH2 0x1287 SWAP1 PUSH2 0x2F10 JUMP JUMPDEST DUP1 PUSH1 0x1F ADD PUSH1 0x20 DUP1 SWAP2 DIV MUL PUSH1 0x20 ADD PUSH1 0x40 MLOAD SWAP1 DUP2 ADD PUSH1 0x40 MSTORE DUP1 SWAP3 SWAP2 SWAP1 DUP2 DUP2 MSTORE PUSH1 0x20 ADD DUP3 DUP1 SLOAD PUSH2 0x12B3 SWAP1 PUSH2 0x2F10 JUMP JUMPDEST DUP1 ISZERO PUSH2 0x1300 JUMPI DUP1 PUSH1 0x1F LT PUSH2 0x12D5 JUMPI PUSH2 0x100 DUP1 DUP4 SLOAD DIV MUL DUP4 MSTORE SWAP2 PUSH1 0x20 ADD SWAP2 PUSH2 0x1300 JUMP JUMPDEST DUP3 ADD SWAP2 SWAP1 PUSH1 0x0 MSTORE PUSH1 0x20 PUSH1 0x0 KECCAK256 SWAP1 JUMPDEST DUP2 SLOAD DUP2 MSTORE SWAP1 PUSH1 0x1 ADD SWAP1 PUSH1 0x20 ADD DUP1 DUP4 GT PUSH2 0x12E3 JUMPI DUP3 SWAP1 SUB PUSH1 0x1F AND DUP3 ADD SWAP2 JUMPDEST POP POP POP POP POP SWAP1 POP PUSH1 0x0 PUSH2 0x131E PUSH1 0x40 DUP1 MLOAD PUSH1 0x20 DUP2 ADD SWAP1 SWAP2 MSTORE PUSH1 0x0 DUP2 MSTORE SWAP1 JUMP JUMPDEST SWAP1 POP DUP1 MLOAD PUSH1 0x0 SUB PUSH2 0x1331 JUMPI POP SWAP4 SWAP3 POP POP POP JUMP JUMPDEST DUP2 MLOAD ISZERO PUSH2 0x1364 JUMPI DUP1 DUP3 PUSH1 0x40 MLOAD PUSH1 0x20 ADD PUSH2 0x134B SWAP3 SWAP2 SWAP1 PUSH2 0x3096 JUMP JUMPDEST PUSH1 0x40 MLOAD PUSH1 0x20 DUP2 DUP4 SUB SUB DUP2 MSTORE SWAP1 PUSH1 0x40 MSTORE SWAP4 POP POP POP POP SWAP2 SWAP1 POP JUMP JUMPDEST PUSH2 0x136D DUP6 PUSH2 0x1F7F JUMP JUMPDEST SWAP6 SWAP5 POP POP POP POP POP JUMP JUMPDEST PUSH1 0x40 DUP1 MLOAD PUSH1 0xA0 DUP2 ADD DUP3 MSTORE PUSH1 0x60 DUP1 DUP3 MSTORE PUSH1 0x20 DUP3 ADD DUP2 SWAP1 MSTORE PUSH1 0x0 SWAP3 DUP3 ADD DUP4 SWAP1 MSTORE DUP1 DUP3 ADD MSTORE PUSH1 0x80 DUP2 ADD SWAP2 SWAP1 SWAP2 MSTORE PUSH2 0x13A9 DUP3 PUSH2 0x55E JUMP JUMPDEST PUSH2 0x1406 JUMPI PUSH1 0x40 MLOAD PUSH3 0x461BCD PUSH1 0xE5 SHL DUP2 MSTORE PUSH1 0x20 PUSH1 0x4 DUP3 ADD MSTORE PUSH1 0x28 PUSH1 0x24 DUP3 ADD MSTORE PUSH32 0x4E46413A2056657273696F6E20717565727920666F72206E6F6E657869737465 PUSH1 0x44 DUP3 ADD MSTORE PUSH8 0x373A103A37B5B2B7 PUSH1 0xC1 SHL PUSH1 0x64 DUP3 ADD MSTORE PUSH1 0x84 ADD PUSH2 0x694 JUMP JUMPDEST PUSH1 0x0 DUP3 DUP2 MSTORE PUSH1 0x1 PUSH1 0x20 MSTORE PUSH1 0x40 SWAP1 DUP2 SWAP1 KECCAK256 SWAP1 MLOAD PUSH1 0x2 SWAP2 PUSH2 0x1428 SWAP2 SWAP1 DUP4 ADD SWAP1 PUSH2 0x30C5 JUMP JUMPDEST SWAP1 DUP2 MSTORE PUSH1 0x20 ADD PUSH1 0x40 MLOAD DUP1 SWAP2 SUB SWAP1 KECCAK256 PUSH1 0x40 MLOAD DUP1 PUSH1 0xA0 ADD PUSH1 0x40 MSTORE SWAP1 DUP2 PUSH1 0x0 DUP3 ADD DUP1 SLOAD PUSH2 0x1451 SWAP1 PUSH2 0x2F10 JUMP JUMPDEST DUP1 PUSH1 0x1F ADD PUSH1 0x20 DUP1 SWAP2 DIV MUL PUSH1 0x20 ADD PUSH1 0x40 MLOAD SWAP1 DUP2 ADD PUSH1 0x40 MSTORE DUP1 SWAP3 SWAP2 SWAP1 DUP2 DUP2 MSTORE PUSH1 0x20 ADD DUP3 DUP1 SLOAD PUSH2 0x147D SWAP1 PUSH2 0x2F10 JUMP JUMPDEST DUP1 ISZERO PUSH2 0x14CA JUMPI DUP1 PUSH1 0x1F LT PUSH2 0x149F JUMPI PUSH2 0x100 DUP1 DUP4 SLOAD DIV MUL DUP4 MSTORE SWAP2 PUSH1 0x20 ADD SWAP2 PUSH2 0x14CA JUMP JUMPDEST DUP3 ADD SWAP2 SWAP1 PUSH1 0x0 MSTORE PUSH1 0x20 PUSH1 0x0 KECCAK256 SWAP1 JUMPDEST DUP2 SLOAD DUP2 MSTORE SWAP1 PUSH1 0x1 ADD SWAP1 PUSH1 0x20 ADD DUP1 DUP4 GT PUSH2 0x14AD JUMPI DUP3 SWAP1 SUB PUSH1 0x1F AND DUP3 ADD SWAP2 JUMPDEST POP POP POP POP POP DUP2 MSTORE PUSH1 0x20 ADD PUSH1 0x1 DUP3 ADD DUP1 SLOAD DUP1 PUSH1 0x20 MUL PUSH1 0x20 ADD PUSH1 0x40 MLOAD SWAP1 DUP2 ADD PUSH1 0x40 MSTORE DUP1 SWAP3 SWAP2 SWAP1 DUP2 DUP2 MSTORE PUSH1 0x20 ADD PUSH1 0x0 SWAP1 JUMPDEST DUP3 DUP3 LT ISZERO PUSH2 0x15A4 JUMPI DUP4 DUP3 SWAP1 PUSH1 0x0 MSTORE PUSH1 0x20 PUSH1 0x0 KECCAK256 ADD DUP1 SLOAD PUSH2 0x1517 SWAP1 PUSH2 0x2F10 JUMP JUMPDEST DUP1 PUSH1 0x1F ADD PUSH1 0x20 DUP1 SWAP2 DIV MUL PUSH1 0x20 ADD PUSH1 0x40 MLOAD SWAP1 DUP2 ADD PUSH1 0x40 MSTORE DUP1 SWAP3 SWAP2 SWAP1 DUP2 DUP2 MSTORE PUSH1 0x20 ADD DUP3 DUP1 SLOAD PUSH2 0x1543 SWAP1 PUSH2 0x2F10 JUMP JUMPDEST DUP1 ISZERO PUSH2 0x1590 JUMPI DUP1 PUSH1 0x1F LT PUSH2 0x1565 JUMPI PUSH2 0x100 DUP1 DUP4 SLOAD DIV MUL DUP4 MSTORE SWAP2 PUSH1 0x20 ADD SWAP2 PUSH2 0x1590 JUMP JUMPDEST DUP3 ADD SWAP2 SWAP1 PUSH1 0x0 MSTORE PUSH1 0x20 PUSH1 0x0 KECCAK256 SWAP1 JUMPDEST DUP2 SLOAD DUP2 MSTORE SWAP1 PUSH1 0x1 ADD SWAP1 PUSH1 0x20 ADD DUP1 DUP4 GT PUSH2 0x1573 JUMPI DUP3 SWAP1 SUB PUSH1 0x1F AND DUP3 ADD SWAP2 JUMPDEST POP POP POP POP POP DUP2 MSTORE PUSH1 0x20 ADD SWAP1 PUSH1 0x1 ADD SWAP1 PUSH2 0x14F8 JUMP JUMPDEST POP POP POP POP DUP2 MSTORE PUSH1 0x20 ADD PUSH1 0x2 DUP3 ADD SLOAD DUP2 MSTORE PUSH1 0x20 ADD PUSH1 0x3 DUP3 ADD DUP1 SLOAD DUP1 PUSH1 0x20 MUL PUSH1 0x20 ADD PUSH1 0x40 MLOAD SWAP1 DUP2 ADD PUSH1 0x40 MSTORE DUP1 SWAP3 SWAP2 SWAP1 DUP2 DUP2 MSTORE PUSH1 0x20 ADD PUSH1 0x0 SWAP1 JUMPDEST DUP3 DUP3 LT ISZERO PUSH2 0x1687 JUMPI DUP4 DUP3 SWAP1 PUSH1 0x0 MSTORE PUSH1 0x20 PUSH1 0x0 KECCAK256 ADD DUP1 SLOAD PUSH2 0x15FA SWAP1 PUSH2 0x2F10 JUMP JUMPDEST DUP1 PUSH1 0x1F ADD PUSH1 0x20 DUP1 SWAP2 DIV MUL PUSH1 0x20 ADD PUSH1 0x40 MLOAD SWAP1 DUP2 ADD PUSH1 0x40 MSTORE DUP1 SWAP3 SWAP2 SWAP1 DUP2 DUP2 MSTORE PUSH1 0x20 ADD DUP3 DUP1 SLOAD PUSH2 0x1626 SWAP1 PUSH2 0x2F10 JUMP JUMPDEST DUP1 ISZERO PUSH2 0x1673 JUMPI DUP1 PUSH1 0x1F LT PUSH2 0x1648 JUMPI PUSH2 0x100 DUP1 DUP4 SLOAD DIV MUL DUP4 MSTORE SWAP2 PUSH1 0x20 ADD SWAP2 PUSH2 0x1673 JUMP JUMPDEST DUP3 ADD SWAP2 SWAP1 PUSH1 0x0 MSTORE PUSH1 0x20 PUSH1 0x0 KECCAK256 SWAP1 JUMPDEST DUP2 SLOAD DUP2 MSTORE SWAP1 PUSH1 0x1 ADD SWAP1 PUSH1 0x20 ADD DUP1 DUP4 GT PUSH2 0x1656 JUMPI DUP3 SWAP1 SUB PUSH1 0x1F AND DUP3 ADD SWAP2 JUMPDEST POP POP POP POP POP DUP2 MSTORE PUSH1 0x20 ADD SWAP1 PUSH1 0x1 ADD SWAP1 PUSH2 0x15DB JUMP JUMPDEST POP POP POP POP DUP2 MSTORE PUSH1 0x20 ADD PUSH1 0x4 DUP3 ADD SLOAD DUP2 MSTORE POP POP SWAP1 POP SWAP2 SWAP1 POP JUMP JUMPDEST PUSH1 0x1 PUSH1 0x1 PUSH1 0xA0 SHL SUB SWAP2 DUP3 AND PUSH1 0x0 SWAP1 DUP2 MSTORE PUSH32 0x80BB2B638CC20BC4D0A60D66940F3AB4A00C1D7B313497CA82FB0B4AB0079305 PUSH1 0x20 SWAP1 DUP2 MSTORE PUSH1 0x40 DUP1 DUP4 KECCAK256 SWAP4 SWAP1 SWAP5 AND DUP3 MSTORE SWAP2 SWAP1 SWAP2 MSTORE KECCAK256 SLOAD PUSH1 0xFF AND SWAP1 JUMP JUMPDEST PUSH2 0x16F5 PUSH2 0x1A4C JUMP JUMPDEST PUSH2 0x16FE DUP3 PUSH2 0x55E JUMP JUMPDEST PUSH2 0x175C JUMPI PUSH1 0x40 MLOAD PUSH3 0x461BCD PUSH1 0xE5 SHL DUP2 MSTORE PUSH1 0x20 PUSH1 0x4 DUP3 ADD MSTORE PUSH1 0x29 PUSH1 0x24 DUP3 ADD MSTORE PUSH32 0x4E46413A20417070496E666F2075706461746520666F72206E6F6E6578697374 PUSH1 0x44 DUP3 ADD MSTORE PUSH9 0x32B73A103A37B5B2B7 PUSH1 0xB9 SHL PUSH1 0x64 DUP3 ADD MSTORE PUSH1 0x84 ADD PUSH2 0x694 JUMP JUMPDEST PUSH1 0x0 DUP3 DUP2 MSTORE PUSH1 0x1 PUSH1 0x20 DUP2 DUP2 MSTORE PUSH1 0x40 SWAP1 SWAP3 KECCAK256 DUP4 MLOAD DUP2 SLOAD PUSH1 0xFF NOT AND SWAP1 ISZERO ISZERO OR DUP2 SSTORE SWAP2 DUP4 ADD MLOAD DUP4 SWAP3 SWAP2 DUP3 ADD SWAP1 PUSH2 0x178F SWAP1 DUP3 PUSH2 0x2F9A JUMP JUMPDEST POP PUSH1 0x40 DUP3 ADD MLOAD DUP1 MLOAD PUSH1 0x2 DUP4 ADD SWAP1 DUP2 SWAP1 PUSH2 0x17A8 SWAP1 DUP3 PUSH2 0x2F9A JUMP JUMPDEST POP PUSH1 0x20 DUP3 DUP2 ADD MLOAD DUP1 MLOAD PUSH2 0x17C1 SWAP3 PUSH1 0x1 DUP6 ADD SWAP3 ADD SWAP1 PUSH2 0x25C5 JUMP JUMPDEST POP PUSH1 0x40 DUP3 ADD MLOAD PUSH1 0x2 DUP3 ADD SSTORE PUSH1 0x60 DUP3 ADD MLOAD DUP1 MLOAD PUSH2 0x17E7 SWAP2 PUSH1 0x3 DUP5 ADD SWAP2 PUSH1 0x20 SWAP1 SWAP2 ADD SWAP1 PUSH2 0x25C5 JUMP JUMPDEST POP PUSH1 0x80 DUP3 ADD MLOAD DUP2 PUSH1 0x4 ADD SSTORE POP POP SWAP1 POP POP DUP2 PUSH32 0x9B5400D32D48C2F1552E765FD93226BD6D88B86C5CD01152AE5B34B62DDDCD5F DUP3 PUSH1 0x40 MLOAD PUSH2 0x1827 SWAP2 SWAP1 PUSH2 0x2C67 JUMP JUMPDEST PUSH1 0x40 MLOAD DUP1 SWAP2 SUB SWAP1 LOG2 POP POP JUMP JUMPDEST PUSH2 0x183B PUSH2 0x1A4C JUMP JUMPDEST PUSH1 0x1 PUSH1 0x1 PUSH1 0xA0 SHL SUB DUP2 AND PUSH2 0x1865 JUMPI PUSH1 0x40 MLOAD PUSH4 0x1E4FBDF7 PUSH1 0xE0 SHL DUP2 MSTORE PUSH1 0x0 PUSH1 0x4 DUP3 ADD MSTORE PUSH1 0x24 ADD PUSH2 0x694 JUMP JUMPDEST PUSH2 0x186E DUP2 PUSH2 0x1C5C JUMP JUMPDEST POP JUMP JUMPDEST PUSH1 0x0 PUSH1 0x1 PUSH1 0x1 PUSH1 0xE0 SHL SUB NOT DUP3 AND PUSH4 0x80AC58CD PUSH1 0xE0 SHL EQ DUP1 PUSH2 0x18A2 JUMPI POP PUSH1 0x1 PUSH1 0x1 PUSH1 0xE0 SHL SUB NOT DUP3 AND PUSH4 0x5B5E139F PUSH1 0xE0 SHL EQ JUMPDEST DUP1 PUSH2 0x5A0 JUMPI POP PUSH4 0x1FFC9A7 PUSH1 0xE0 SHL PUSH1 0x1 PUSH1 0x1 PUSH1 0xE0 SHL SUB NOT DUP4 AND EQ PUSH2 0x5A0 JUMP JUMPDEST PUSH1 0x0 DUP1 PUSH2 0x18CD DUP4 PUSH2 0x1FF3 JUMP JUMPDEST SWAP1 POP PUSH1 0x1 PUSH1 0x1 PUSH1 0xA0 SHL SUB DUP2 AND PUSH2 0x5A0 JUMPI PUSH1 0x40 MLOAD PUSH4 0x7E273289 PUSH1 0xE0 SHL DUP2 MSTORE PUSH1 0x4 DUP2 ADD DUP5 SWAP1 MSTORE PUSH1 0x24 ADD PUSH2 0x694 JUMP JUMPDEST PUSH1 0x0 SWAP1 DUP2 MSTORE PUSH32 0x80BB2B638CC20BC4D0A60D66940F3AB4A00C1D7B313497CA82FB0B4AB0079304 PUSH1 0x20 MSTORE PUSH1 0x40 SWAP1 KECCAK256 SLOAD PUSH1 0x1 PUSH1 0x1 PUSH1 0xA0 SHL SUB AND SWAP1 JUMP JUMPDEST PUSH2 0x7BE DUP4 DUP4 DUP4 PUSH1 0x1 PUSH2 0x202D JUMP JUMPDEST PUSH1 0x0 PUSH1 0x0 DUP1 MLOAD PUSH1 0x20 PUSH2 0x31AF DUP4 CODECOPY DUP2 MLOAD SWAP2 MSTORE DUP2 PUSH2 0x195B DUP6 PUSH2 0x1FF3 JUMP JUMPDEST SWAP1 POP PUSH1 0x1 PUSH1 0x1 PUSH1 0xA0 SHL SUB DUP5 AND ISZERO PUSH2 0x1977 JUMPI PUSH2 0x1977 DUP2 DUP6 DUP8 PUSH2 0x2143 JUMP JUMPDEST PUSH1 0x1 PUSH1 0x1 PUSH1 0xA0 SHL SUB DUP2 AND ISZERO PUSH2 0x19B7 JUMPI PUSH2 0x1994 PUSH1 0x0 DUP7 PUSH1 0x0 DUP1 PUSH2 0x202D JUMP JUMPDEST PUSH1 0x1 PUSH1 0x1 PUSH1 0xA0 SHL SUB DUP2 AND PUSH1 0x0 SWAP1 DUP2 MSTORE PUSH1 0x3 DUP4 ADD PUSH1 0x20 MSTORE PUSH1 0x40 SWAP1 KECCAK256 DUP1 SLOAD PUSH1 0x0 NOT ADD SWAP1 SSTORE JUMPDEST PUSH1 0x1 PUSH1 0x1 PUSH1 0xA0 SHL SUB DUP7 AND ISZERO PUSH2 0x19E8 JUMPI PUSH1 0x1 PUSH1 0x1 PUSH1 0xA0 SHL SUB DUP7 AND PUSH1 0x0 SWAP1 DUP2 MSTORE PUSH1 0x3 DUP4 ADD PUSH1 0x20 MSTORE PUSH1 0x40 SWAP1 KECCAK256 DUP1 SLOAD PUSH1 0x1 ADD SWAP1 SSTORE JUMPDEST PUSH1 0x0 DUP6 DUP2 MSTORE PUSH1 0x2 DUP4 ADD PUSH1 0x20 MSTORE PUSH1 0x40 DUP1 DUP3 KECCAK256 DUP1 SLOAD PUSH1 0x1 PUSH1 0x1 PUSH1 0xA0 SHL SUB NOT AND PUSH1 0x1 PUSH1 0x1 PUSH1 0xA0 SHL SUB DUP11 DUP2 AND SWAP2 DUP3 OR SWAP1 SWAP3 SSTORE SWAP2 MLOAD DUP9 SWAP4 SWAP2 DUP6 AND SWAP2 PUSH32 0xDDF252AD1BE2C89B69C2B068FC378DAA952BA7F163C4A11628F55A4DF523B3EF SWAP2 LOG4 SWAP2 POP POP JUMPDEST SWAP4 SWAP3 POP POP POP JUMP JUMPDEST CALLER PUSH2 0x1A55 PUSH2 0xECA JUMP JUMPDEST PUSH1 0x1 PUSH1 0x1 PUSH1 0xA0 SHL SUB AND EQ PUSH2 0xA3C JUMPI PUSH1 0x40 MLOAD PUSH4 0x118CDAA7 PUSH1 0xE0 SHL DUP2 MSTORE CALLER PUSH1 0x4 DUP3 ADD MSTORE PUSH1 0x24 ADD PUSH2 0x694 JUMP JUMPDEST ADDRESS PUSH1 0x1 PUSH1 0x1 PUSH1 0xA0 SHL SUB PUSH32 0x0 AND EQ DUP1 PUSH2 0x1B05 JUMPI POP PUSH32 0x0 PUSH1 0x1 PUSH1 0x1 PUSH1 0xA0 SHL SUB AND PUSH2 0x1AF9 PUSH1 0x0 DUP1 MLOAD PUSH1 0x20 PUSH2 0x31CF DUP4 CODECOPY DUP2 MLOAD SWAP2 MSTORE SLOAD PUSH1 0x1 PUSH1 0x1 PUSH1 0xA0 SHL SUB AND SWAP1 JUMP JUMPDEST PUSH1 0x1 PUSH1 0x1 PUSH1 0xA0 SHL SUB AND EQ ISZERO JUMPDEST ISZERO PUSH2 0xA3C JUMPI PUSH1 0x40 MLOAD PUSH4 0x703E46DD PUSH1 0xE1 SHL DUP2 MSTORE PUSH1 0x4 ADD PUSH1 0x40 MLOAD DUP1 SWAP2 SUB SWAP1 REVERT JUMPDEST PUSH2 0x186E PUSH2 0x1A4C JUMP JUMPDEST DUP2 PUSH1 0x1 PUSH1 0x1 PUSH1 0xA0 SHL SUB AND PUSH4 0x52D1902D PUSH1 0x40 MLOAD DUP2 PUSH4 0xFFFFFFFF AND PUSH1 0xE0 SHL DUP2 MSTORE PUSH1 0x4 ADD PUSH1 0x20 PUSH1 0x40 MLOAD DUP1 DUP4 SUB DUP2 DUP7 GAS STATICCALL SWAP3 POP POP POP DUP1 ISZERO PUSH2 0x1B85 JUMPI POP PUSH1 0x40 DUP1 MLOAD PUSH1 0x1F RETURNDATASIZE SWAP1 DUP2 ADD PUSH1 0x1F NOT AND DUP3 ADD SWAP1 SWAP3 MSTORE PUSH2 0x1B82 SWAP2 DUP2 ADD SWAP1 PUSH2 0x313B JUMP JUMPDEST PUSH1 0x1 JUMPDEST PUSH2 0x1BAD JUMPI PUSH1 0x40 MLOAD PUSH4 0x4C9C8CE3 PUSH1 0xE0 SHL DUP2 MSTORE PUSH1 0x1 PUSH1 0x1 PUSH1 0xA0 SHL SUB DUP4 AND PUSH1 0x4 DUP3 ADD MSTORE PUSH1 0x24 ADD PUSH2 0x694 JUMP JUMPDEST PUSH1 0x0 DUP1 MLOAD PUSH1 0x20 PUSH2 0x31CF DUP4 CODECOPY DUP2 MLOAD SWAP2 MSTORE DUP2 EQ PUSH2 0x1BDE JUMPI PUSH1 0x40 MLOAD PUSH4 0x2A875269 PUSH1 0xE2 SHL DUP2 MSTORE PUSH1 0x4 DUP2 ADD DUP3 SWAP1 MSTORE PUSH1 0x24 ADD PUSH2 0x694 JUMP JUMPDEST PUSH2 0x7BE DUP4 DUP4 PUSH2 0x21A7 JUMP JUMPDEST ADDRESS PUSH1 0x1 PUSH1 0x1 PUSH1 0xA0 SHL SUB PUSH32 0x0 AND EQ PUSH2 0xA3C JUMPI PUSH1 0x40 MLOAD PUSH4 0x703E46DD PUSH1 0xE1 SHL DUP2 MSTORE PUSH1 0x4 ADD PUSH1 0x40 MLOAD DUP1 SWAP2 SUB SWAP1 REVERT JUMPDEST PUSH2 0x1C39 PUSH2 0x21FD JUMP JUMPDEST PUSH2 0x66A DUP3 DUP3 PUSH2 0x2246 JUMP JUMPDEST PUSH2 0xA3C PUSH2 0x21FD JUMP JUMPDEST PUSH2 0x1C53 PUSH2 0x21FD JUMP JUMPDEST PUSH2 0x186E DUP2 PUSH2 0x2277 JUMP JUMPDEST PUSH32 0x9016D09D72D40FDAE2FD8CEAC6B6234C7706214FD39C1CD1E609A0528C199300 DUP1 SLOAD PUSH1 0x1 PUSH1 0x1 PUSH1 0xA0 SHL SUB NOT DUP2 AND PUSH1 0x1 PUSH1 0x1 PUSH1 0xA0 SHL SUB DUP5 DUP2 AND SWAP2 DUP3 OR DUP5 SSTORE PUSH1 0x40 MLOAD SWAP3 AND SWAP2 DUP3 SWAP1 PUSH32 0x8BE0079C531659141344CD1FD0A4F28419497F9722A3DAAFE3B4186F6B6457E0 SWAP1 PUSH1 0x0 SWAP1 LOG3 POP POP POP JUMP JUMPDEST PUSH1 0x0 DUP1 MLOAD PUSH1 0x20 PUSH2 0x31AF DUP4 CODECOPY DUP2 MLOAD SWAP2 MSTORE PUSH1 0x1 PUSH1 0x1 PUSH1 0xA0 SHL SUB DUP4 AND PUSH2 0x1D0E JUMPI PUSH1 0x40 MLOAD PUSH4 0xB611743 PUSH1 0xE3 SHL DUP2 MSTORE PUSH1 0x1 PUSH1 0x1 PUSH1 0xA0 SHL SUB DUP5 AND PUSH1 0x4 DUP3 ADD MSTORE PUSH1 0x24 ADD PUSH2 0x694 JUMP JUMPDEST PUSH1 0x1 PUSH1 0x1 PUSH1 0xA0 SHL SUB DUP5 DUP2 AND PUSH1 0x0 DUP2 DUP2 MSTORE PUSH1 0x5 DUP5 ADD PUSH1 0x20 SWAP1 DUP2 MSTORE PUSH1 0x40 DUP1 DUP4 KECCAK256 SWAP5 DUP9 AND DUP1 DUP5 MSTORE SWAP5 DUP3 MSTORE SWAP2 DUP3 SWAP1 KECCAK256 DUP1 SLOAD PUSH1 0xFF NOT AND DUP8 ISZERO ISZERO SWAP1 DUP2 OR SWAP1 SWAP2 SSTORE SWAP2 MLOAD SWAP2 DUP3 MSTORE PUSH32 0x17307EAB39AB6107E8899845AD3D59BD9653F200F220920489CA2B5937696C31 SWAP2 ADD PUSH1 0x40 MLOAD DUP1 SWAP2 SUB SWAP1 LOG3 POP POP POP POP JUMP JUMPDEST PUSH1 0x1 PUSH1 0x1 PUSH1 0xA0 SHL SUB DUP4 AND EXTCODESIZE ISZERO PUSH2 0x6F8 JUMPI PUSH1 0x40 MLOAD PUSH4 0xA85BD01 PUSH1 0xE1 SHL DUP2 MSTORE PUSH1 0x1 PUSH1 0x1 PUSH1 0xA0 SHL SUB DUP5 AND SWAP1 PUSH4 0x150B7A02 SWAP1 PUSH2 0x1DC0 SWAP1 CALLER SWAP1 DUP9 SWAP1 DUP8 SWAP1 DUP8 SWAP1 PUSH1 0x4 ADD PUSH2 0x3154 JUMP JUMPDEST PUSH1 0x20 PUSH1 0x40 MLOAD DUP1 DUP4 SUB DUP2 PUSH1 0x0 DUP8 GAS CALL SWAP3 POP POP POP DUP1 ISZERO PUSH2 0x1DFB JUMPI POP PUSH1 0x40 DUP1 MLOAD PUSH1 0x1F RETURNDATASIZE SWAP1 DUP2 ADD PUSH1 0x1F NOT AND DUP3 ADD SWAP1 SWAP3 MSTORE PUSH2 0x1DF8 SWAP2 DUP2 ADD SWAP1 PUSH2 0x3191 JUMP JUMPDEST PUSH1 0x1 JUMPDEST PUSH2 0x1E64 JUMPI RETURNDATASIZE DUP1 DUP1 ISZERO PUSH2 0x1E29 JUMPI PUSH1 0x40 MLOAD SWAP2 POP PUSH1 0x1F NOT PUSH1 0x3F RETURNDATASIZE ADD AND DUP3 ADD PUSH1 0x40 MSTORE RETURNDATASIZE DUP3 MSTORE RETURNDATASIZE PUSH1 0x0 PUSH1 0x20 DUP5 ADD RETURNDATACOPY PUSH2 0x1E2E JUMP JUMPDEST PUSH1 0x60 SWAP2 POP JUMPDEST POP DUP1 MLOAD PUSH1 0x0 SUB PUSH2 0x1E5C JUMPI PUSH1 0x40 MLOAD PUSH4 0x32505749 PUSH1 0xE1 SHL DUP2 MSTORE PUSH1 0x1 PUSH1 0x1 PUSH1 0xA0 SHL SUB DUP6 AND PUSH1 0x4 DUP3 ADD MSTORE PUSH1 0x24 ADD PUSH2 0x694 JUMP JUMPDEST DUP1 MLOAD DUP2 PUSH1 0x20 ADD REVERT JUMPDEST PUSH1 0x1 PUSH1 0x1 PUSH1 0xE0 SHL SUB NOT DUP2 AND PUSH4 0xA85BD01 PUSH1 0xE1 SHL EQ PUSH2 0x1EA0 JUMPI PUSH1 0x40 MLOAD PUSH4 0x32505749 PUSH1 0xE1 SHL DUP2 MSTORE PUSH1 0x1 PUSH1 0x1 PUSH1 0xA0 SHL SUB DUP6 AND PUSH1 0x4 DUP3 ADD MSTORE PUSH1 0x24 ADD PUSH2 0x694 JUMP JUMPDEST POP POP POP POP POP JUMP JUMPDEST PUSH1 0x1 PUSH1 0x1 PUSH1 0xA0 SHL SUB DUP3 AND PUSH2 0x1ED1 JUMPI PUSH1 0x40 MLOAD PUSH4 0x32505749 PUSH1 0xE1 SHL DUP2 MSTORE PUSH1 0x0 PUSH1 0x4 DUP3 ADD MSTORE PUSH1 0x24 ADD PUSH2 0x694 JUMP JUMPDEST PUSH1 0x0 PUSH2 0x1EDF DUP4 DUP4 PUSH1 0x0 PUSH2 0x1940 JUMP JUMPDEST SWAP1 POP PUSH1 0x1 PUSH1 0x1 PUSH1 0xA0 SHL SUB DUP2 AND ISZERO PUSH2 0x7BE JUMPI PUSH1 0x40 MLOAD PUSH4 0x39E35637 PUSH1 0xE1 SHL DUP2 MSTORE PUSH1 0x0 PUSH1 0x4 DUP3 ADD MSTORE PUSH1 0x24 ADD PUSH2 0x694 JUMP JUMPDEST PUSH1 0x0 DUP3 DUP2 MSTORE PUSH32 0x542A41881EE128A365A727B282C86FA859579490B9BB45AAB8503648C8E7900 PUSH1 0x20 DUP2 SWAP1 MSTORE PUSH1 0x40 SWAP1 SWAP2 KECCAK256 PUSH2 0x1F46 DUP4 DUP3 PUSH2 0x2F9A JUMP JUMPDEST POP PUSH1 0x40 MLOAD DUP4 DUP2 MSTORE PUSH32 0xF8E1A15ABA9398E019F0B49DF1A4FDE98EE17AE345CB5F6B5E2C27F5033E8CE7 SWAP1 PUSH1 0x20 ADD PUSH1 0x40 MLOAD DUP1 SWAP2 SUB SWAP1 LOG1 POP POP POP JUMP JUMPDEST PUSH1 0x60 PUSH2 0x1F8A DUP3 PUSH2 0x18C1 JUMP JUMPDEST POP PUSH1 0x0 PUSH2 0x1FA2 PUSH1 0x40 DUP1 MLOAD PUSH1 0x20 DUP2 ADD SWAP1 SWAP2 MSTORE PUSH1 0x0 DUP2 MSTORE SWAP1 JUMP JUMPDEST SWAP1 POP PUSH1 0x0 DUP2 MLOAD GT PUSH2 0x1FC2 JUMPI PUSH1 0x40 MLOAD DUP1 PUSH1 0x20 ADD PUSH1 0x40 MSTORE DUP1 PUSH1 0x0 DUP2 MSTORE POP PUSH2 0x1A45 JUMP JUMPDEST DUP1 PUSH2 0x1FCC DUP5 PUSH2 0x227F JUMP JUMPDEST PUSH1 0x40 MLOAD PUSH1 0x20 ADD PUSH2 0x1FDD SWAP3 SWAP2 SWAP1 PUSH2 0x3096 JUMP JUMPDEST PUSH1 0x40 MLOAD PUSH1 0x20 DUP2 DUP4 SUB SUB DUP2 MSTORE SWAP1 PUSH1 0x40 MSTORE SWAP4 SWAP3 POP POP POP JUMP JUMPDEST PUSH1 0x0 SWAP1 DUP2 MSTORE PUSH32 0x80BB2B638CC20BC4D0A60D66940F3AB4A00C1D7B313497CA82FB0B4AB0079302 PUSH1 0x20 MSTORE PUSH1 0x40 SWAP1 KECCAK256 SLOAD PUSH1 0x1 PUSH1 0x1 PUSH1 0xA0 SHL SUB AND SWAP1 JUMP JUMPDEST PUSH1 0x0 DUP1 MLOAD PUSH1 0x20 PUSH2 0x31AF DUP4 CODECOPY DUP2 MLOAD SWAP2 MSTORE DUP2 DUP1 PUSH2 0x2050 JUMPI POP PUSH1 0x1 PUSH1 0x1 PUSH1 0xA0 SHL SUB DUP4 AND ISZERO ISZERO JUMPDEST ISZERO PUSH2 0x2112 JUMPI PUSH1 0x0 PUSH2 0x2060 DUP6 PUSH2 0x18C1 JUMP JUMPDEST SWAP1 POP PUSH1 0x1 PUSH1 0x1 PUSH1 0xA0 SHL SUB DUP5 AND ISZERO DUP1 ISZERO SWAP1 PUSH2 0x208C JUMPI POP DUP4 PUSH1 0x1 PUSH1 0x1 PUSH1 0xA0 SHL SUB AND DUP2 PUSH1 0x1 PUSH1 0x1 PUSH1 0xA0 SHL SUB AND EQ ISZERO JUMPDEST DUP1 ISZERO PUSH2 0x209F JUMPI POP PUSH2 0x209D DUP2 DUP6 PUSH2 0x16A0 JUMP JUMPDEST ISZERO JUMPDEST ISZERO PUSH2 0x20C8 JUMPI PUSH1 0x40 MLOAD PUSH4 0xA9FBF51F PUSH1 0xE0 SHL DUP2 MSTORE PUSH1 0x1 PUSH1 0x1 PUSH1 0xA0 SHL SUB DUP6 AND PUSH1 0x4 DUP3 ADD MSTORE PUSH1 0x24 ADD PUSH2 0x694 JUMP JUMPDEST DUP3 ISZERO PUSH2 0x2110 JUMPI DUP5 DUP7 PUSH1 0x1 PUSH1 0x1 PUSH1 0xA0 SHL SUB AND DUP3 PUSH1 0x1 PUSH1 0x1 PUSH1 0xA0 SHL SUB AND PUSH32 0x8C5BE1E5EBEC7D5BD14F71427D1E84F3DD0314C0F7B2291E5B200AC8C7C3B925 PUSH1 0x40 MLOAD PUSH1 0x40 MLOAD DUP1 SWAP2 SUB SWAP1 LOG4 JUMPDEST POP JUMPDEST PUSH1 0x0 SWAP4 DUP5 MSTORE PUSH1 0x4 ADD PUSH1 0x20 MSTORE POP POP PUSH1 0x40 SWAP1 KECCAK256 DUP1 SLOAD PUSH1 0x1 PUSH1 0x1 PUSH1 0xA0 SHL SUB NOT AND PUSH1 0x1 PUSH1 0x1 PUSH1 0xA0 SHL SUB SWAP3 SWAP1 SWAP3 AND SWAP2 SWAP1 SWAP2 OR SWAP1 SSTORE JUMP JUMPDEST PUSH2 0x214E DUP4 DUP4 DUP4 PUSH2 0x2311 JUMP JUMPDEST PUSH2 0x7BE JUMPI PUSH1 0x1 PUSH1 0x1 PUSH1 0xA0 SHL SUB DUP4 AND PUSH2 0x217C JUMPI PUSH1 0x40 MLOAD PUSH4 0x7E273289 PUSH1 0xE0 SHL DUP2 MSTORE PUSH1 0x4 DUP2 ADD DUP3 SWAP1 MSTORE PUSH1 0x24 ADD PUSH2 0x694 JUMP JUMPDEST PUSH1 0x40 MLOAD PUSH4 0x177E802F PUSH1 0xE0 SHL DUP2 MSTORE PUSH1 0x1 PUSH1 0x1 PUSH1 0xA0 SHL SUB DUP4 AND PUSH1 0x4 DUP3 ADD MSTORE PUSH1 0x24 DUP2 ADD DUP3 SWAP1 MSTORE PUSH1 0x44 ADD PUSH2 0x694 JUMP JUMPDEST PUSH2 0x21B0 DUP3 PUSH2 0x2377 JUMP JUMPDEST PUSH1 0x40 MLOAD PUSH1 0x1 PUSH1 0x1 PUSH1 0xA0 SHL SUB DUP4 AND SWAP1 PUSH32 0xBC7CD75A20EE27FD9ADEBAB32041F755214DBC6BFFA90CC0225B39DA2E5C2D3B SWAP1 PUSH1 0x0 SWAP1 LOG2 DUP1 MLOAD ISZERO PUSH2 0x21F5 JUMPI PUSH2 0x7BE DUP3 DUP3 PUSH2 0x23DC JUMP JUMPDEST PUSH2 0x66A PUSH2 0x2449 JUMP JUMPDEST PUSH32 0xF0C57E16840DF040F15088DC2F81FE391C3923BEC73E23A9662EFC9C229C6A00 SLOAD PUSH1 0x1 PUSH1 0x40 SHL SWAP1 DIV PUSH1 0xFF AND PUSH2 0xA3C JUMPI PUSH1 0x40 MLOAD PUSH4 0x1AFCD79F PUSH1 0xE3 SHL DUP2 MSTORE PUSH1 0x4 ADD PUSH1 0x40 MLOAD DUP1 SWAP2 SUB SWAP1 REVERT JUMPDEST PUSH2 0x224E PUSH2 0x21FD JUMP JUMPDEST PUSH1 0x0 DUP1 MLOAD PUSH1 0x20 PUSH2 0x31AF DUP4 CODECOPY DUP2 MLOAD SWAP2 MSTORE DUP1 PUSH2 0x2268 DUP5 DUP3 PUSH2 0x2F9A JUMP JUMPDEST POP PUSH1 0x1 DUP2 ADD PUSH2 0x6F8 DUP4 DUP3 PUSH2 0x2F9A JUMP JUMPDEST PUSH2 0x183B PUSH2 0x21FD JUMP JUMPDEST PUSH1 0x60 PUSH1 0x0 PUSH2 0x228C DUP4 PUSH2 0x2468 JUMP JUMPDEST PUSH1 0x1 ADD SWAP1 POP PUSH1 0x0 DUP2 PUSH1 0x1 PUSH1 0x1 PUSH1 0x40 SHL SUB DUP2 GT ISZERO PUSH2 0x22AB JUMPI PUSH2 0x22AB PUSH2 0x27B3 JUMP JUMPDEST PUSH1 0x40 MLOAD SWAP1 DUP1 DUP3 MSTORE DUP1 PUSH1 0x1F ADD PUSH1 0x1F NOT AND PUSH1 0x20 ADD DUP3 ADD PUSH1 0x40 MSTORE DUP1 ISZERO PUSH2 0x22D5 JUMPI PUSH1 0x20 DUP3 ADD DUP2 DUP1 CALLDATASIZE DUP4 CALLDATACOPY ADD SWAP1 POP JUMPDEST POP SWAP1 POP DUP2 DUP2 ADD PUSH1 0x20 ADD JUMPDEST PUSH1 0x0 NOT ADD PUSH16 0x181899199A1A9B1B9C1CB0B131B232B3 PUSH1 0x81 SHL PUSH1 0xA DUP7 MOD BYTE DUP2 MSTORE8 PUSH1 0xA DUP6 DIV SWAP5 POP DUP5 PUSH2 0x22DF JUMPI POP SWAP4 SWAP3 POP POP POP JUMP JUMPDEST PUSH1 0x0 PUSH1 0x1 PUSH1 0x1 PUSH1 0xA0 SHL SUB DUP4 AND ISZERO DUP1 ISZERO SWAP1 PUSH2 0x236F JUMPI POP DUP3 PUSH1 0x1 PUSH1 0x1 PUSH1 0xA0 SHL SUB AND DUP5 PUSH1 0x1 PUSH1 0x1 PUSH1 0xA0 SHL SUB AND EQ DUP1 PUSH2 0x234B JUMPI POP PUSH2 0x234B DUP5 DUP5 PUSH2 0x16A0 JUMP JUMPDEST DUP1 PUSH2 0x236F JUMPI POP DUP3 PUSH1 0x1 PUSH1 0x1 PUSH1 0xA0 SHL SUB AND PUSH2 0x2364 DUP4 PUSH2 0x18F9 JUMP JUMPDEST PUSH1 0x1 PUSH1 0x1 PUSH1 0xA0 SHL SUB AND EQ JUMPDEST SWAP5 SWAP4 POP POP POP POP JUMP JUMPDEST DUP1 PUSH1 0x1 PUSH1 0x1 PUSH1 0xA0 SHL SUB AND EXTCODESIZE PUSH1 0x0 SUB PUSH2 0x23AD JUMPI PUSH1 0x40 MLOAD PUSH4 0x4C9C8CE3 PUSH1 0xE0 SHL DUP2 MSTORE PUSH1 0x1 PUSH1 0x1 PUSH1 0xA0 SHL SUB DUP3 AND PUSH1 0x4 DUP3 ADD MSTORE PUSH1 0x24 ADD PUSH2 0x694 JUMP JUMPDEST PUSH1 0x0 DUP1 MLOAD PUSH1 0x20 PUSH2 0x31CF DUP4 CODECOPY DUP2 MLOAD SWAP2 MSTORE DUP1 SLOAD PUSH1 0x1 PUSH1 0x1 PUSH1 0xA0 SHL SUB NOT AND PUSH1 0x1 PUSH1 0x1 PUSH1 0xA0 SHL SUB SWAP3 SWAP1 SWAP3 AND SWAP2 SWAP1 SWAP2 OR SWAP1 SSTORE JUMP JUMPDEST PUSH1 0x60 PUSH1 0x0 DUP1 DUP5 PUSH1 0x1 PUSH1 0x1 PUSH1 0xA0 SHL SUB AND DUP5 PUSH1 0x40 MLOAD PUSH2 0x23F9 SWAP2 SWAP1 PUSH2 0x3059 JUMP JUMPDEST PUSH1 0x0 PUSH1 0x40 MLOAD DUP1 DUP4 SUB DUP2 DUP6 GAS DELEGATECALL SWAP2 POP POP RETURNDATASIZE DUP1 PUSH1 0x0 DUP2 EQ PUSH2 0x2434 JUMPI PUSH1 0x40 MLOAD SWAP2 POP PUSH1 0x1F NOT PUSH1 0x3F RETURNDATASIZE ADD AND DUP3 ADD PUSH1 0x40 MSTORE RETURNDATASIZE DUP3 MSTORE RETURNDATASIZE PUSH1 0x0 PUSH1 0x20 DUP5 ADD RETURNDATACOPY PUSH2 0x2439 JUMP JUMPDEST PUSH1 0x60 SWAP2 POP JUMPDEST POP SWAP2 POP SWAP2 POP PUSH2 0x136D DUP6 DUP4 DUP4 PUSH2 0x2540 JUMP JUMPDEST CALLVALUE ISZERO PUSH2 0xA3C JUMPI PUSH1 0x40 MLOAD PUSH4 0xB398979F PUSH1 0xE0 SHL DUP2 MSTORE PUSH1 0x4 ADD PUSH1 0x40 MLOAD DUP1 SWAP2 SUB SWAP1 REVERT JUMPDEST PUSH1 0x0 DUP1 PUSH19 0x184F03E93FF9F4DAA797ED6E38ED64BF6A1F01 PUSH1 0x40 SHL DUP4 LT PUSH2 0x24A7 JUMPI PUSH19 0x184F03E93FF9F4DAA797ED6E38ED64BF6A1F01 PUSH1 0x40 SHL DUP4 DIV SWAP3 POP PUSH1 0x40 ADD JUMPDEST PUSH14 0x4EE2D6D415B85ACEF8100000000 DUP4 LT PUSH2 0x24D3 JUMPI PUSH14 0x4EE2D6D415B85ACEF8100000000 DUP4 DIV SWAP3 POP PUSH1 0x20 ADD JUMPDEST PUSH7 0x2386F26FC10000 DUP4 LT PUSH2 0x24F1 JUMPI PUSH7 0x2386F26FC10000 DUP4 DIV SWAP3 POP PUSH1 0x10 ADD JUMPDEST PUSH4 0x5F5E100 DUP4 LT PUSH2 0x2509 JUMPI PUSH4 0x5F5E100 DUP4 DIV SWAP3 POP PUSH1 0x8 ADD JUMPDEST PUSH2 0x2710 DUP4 LT PUSH2 0x251D JUMPI PUSH2 0x2710 DUP4 DIV SWAP3 POP PUSH1 0x4 ADD JUMPDEST PUSH1 0x64 DUP4 LT PUSH2 0x252F JUMPI PUSH1 0x64 DUP4 DIV SWAP3 POP PUSH1 0x2 ADD JUMPDEST PUSH1 0xA DUP4 LT PUSH2 0x5A0 JUMPI PUSH1 0x1 ADD SWAP3 SWAP2 POP POP JUMP JUMPDEST PUSH1 0x60 DUP3 PUSH2 0x2555 JUMPI PUSH2 0x2550 DUP3 PUSH2 0x259C JUMP JUMPDEST PUSH2 0x1A45 JUMP JUMPDEST DUP2 MLOAD ISZERO DUP1 ISZERO PUSH2 0x256C JUMPI POP PUSH1 0x1 PUSH1 0x1 PUSH1 0xA0 SHL SUB DUP5 AND EXTCODESIZE ISZERO JUMPDEST ISZERO PUSH2 0x2595 JUMPI PUSH1 0x40 MLOAD PUSH4 0x9996B315 PUSH1 0xE0 SHL DUP2 MSTORE PUSH1 0x1 PUSH1 0x1 PUSH1 0xA0 SHL SUB DUP6 AND PUSH1 0x4 DUP3 ADD MSTORE PUSH1 0x24 ADD PUSH2 0x694 JUMP JUMPDEST POP DUP1 PUSH2 0x1A45 JUMP JUMPDEST DUP1 MLOAD ISZERO PUSH2 0x25AC JUMPI DUP1 MLOAD DUP1 DUP3 PUSH1 0x20 ADD REVERT JUMPDEST PUSH1 0x40 MLOAD PUSH4 0xA12F521 PUSH1 0xE1 SHL DUP2 MSTORE PUSH1 0x4 ADD PUSH1 0x40 MLOAD DUP1 SWAP2 SUB SWAP1 REVERT JUMPDEST DUP3 DUP1 SLOAD DUP3 DUP3 SSTORE SWAP1 PUSH1 0x0 MSTORE PUSH1 0x20 PUSH1 0x0 KECCAK256 SWAP1 DUP2 ADD SWAP3 DUP3 ISZERO PUSH2 0x260B JUMPI SWAP2 PUSH1 0x20 MUL DUP3 ADD JUMPDEST DUP3 DUP2 GT ISZERO PUSH2 0x260B JUMPI DUP3 MLOAD DUP3 SWAP1 PUSH2 0x25FB SWAP1 DUP3 PUSH2 0x2F9A JUMP JUMPDEST POP SWAP2 PUSH1 0x20 ADD SWAP2 SWAP1 PUSH1 0x1 ADD SWAP1 PUSH2 0x25E5 JUMP JUMPDEST POP PUSH2 0x2617 SWAP3 SWAP2 POP PUSH2 0x261B JUMP JUMPDEST POP SWAP1 JUMP JUMPDEST DUP1 DUP3 GT ISZERO PUSH2 0x2617 JUMPI PUSH1 0x0 PUSH2 0x262F DUP3 DUP3 PUSH2 0x2638 JUMP JUMPDEST POP PUSH1 0x1 ADD PUSH2 0x261B JUMP JUMPDEST POP DUP1 SLOAD PUSH2 0x2644 SWAP1 PUSH2 0x2F10 JUMP JUMPDEST PUSH1 0x0 DUP3 SSTORE DUP1 PUSH1 0x1F LT PUSH2 0x2654 JUMPI POP POP JUMP JUMPDEST PUSH1 0x1F ADD PUSH1 0x20 SWAP1 DIV SWAP1 PUSH1 0x0 MSTORE PUSH1 0x20 PUSH1 0x0 KECCAK256 SWAP1 DUP2 ADD SWAP1 PUSH2 0x186E SWAP2 SWAP1 JUMPDEST DUP1 DUP3 GT ISZERO PUSH2 0x2617 JUMPI PUSH1 0x0 DUP2 SSTORE PUSH1 0x1 ADD PUSH2 0x266E JUMP JUMPDEST PUSH1 0x0 PUSH1 0x20 DUP3 DUP5 SUB SLT ISZERO PUSH2 0x2694 JUMPI PUSH1 0x0 DUP1 REVERT JUMPDEST POP CALLDATALOAD SWAP2 SWAP1 POP JUMP JUMPDEST PUSH1 0x1 PUSH1 0x1 PUSH1 0xE0 SHL SUB NOT DUP2 AND DUP2 EQ PUSH2 0x186E JUMPI PUSH1 0x0 DUP1 REVERT JUMPDEST PUSH1 0x0 PUSH1 0x20 DUP3 DUP5 SUB SLT ISZERO PUSH2 0x26C3 JUMPI PUSH1 0x0 DUP1 REVERT JUMPDEST DUP2 CALLDATALOAD PUSH2 0x1A45 DUP2 PUSH2 0x269B JUMP JUMPDEST PUSH1 0x0 JUMPDEST DUP4 DUP2 LT ISZERO PUSH2 0x26E9 JUMPI DUP2 DUP2 ADD MLOAD DUP4 DUP3 ADD MSTORE PUSH1 0x20 ADD PUSH2 0x26D1 JUMP JUMPDEST POP POP PUSH1 0x0 SWAP2 ADD MSTORE JUMP JUMPDEST PUSH1 0x0 DUP2 MLOAD DUP1 DUP5 MSTORE PUSH2 0x270A DUP2 PUSH1 0x20 DUP7 ADD PUSH1 0x20 DUP7 ADD PUSH2 0x26CE JUMP JUMPDEST PUSH1 0x1F ADD PUSH1 0x1F NOT AND SWAP3 SWAP1 SWAP3 ADD PUSH1 0x20 ADD SWAP3 SWAP2 POP POP JUMP JUMPDEST PUSH1 0x20 DUP2 MSTORE PUSH1 0x0 PUSH2 0x1A45 PUSH1 0x20 DUP4 ADD DUP5 PUSH2 0x26F2 JUMP JUMPDEST DUP1 CALLDATALOAD PUSH1 0x1 PUSH1 0x1 PUSH1 0xA0 SHL SUB DUP2 AND DUP2 EQ PUSH2 0x2748 JUMPI PUSH1 0x0 DUP1 REVERT JUMPDEST SWAP2 SWAP1 POP JUMP JUMPDEST PUSH1 0x0 DUP1 PUSH1 0x40 DUP4 DUP6 SUB SLT ISZERO PUSH2 0x2760 JUMPI PUSH1 0x0 DUP1 REVERT JUMPDEST PUSH2 0x2769 DUP4 PUSH2 0x2731 JUMP JUMPDEST SWAP5 PUSH1 0x20 SWAP4 SWAP1 SWAP4 ADD CALLDATALOAD SWAP4 POP POP POP JUMP JUMPDEST PUSH1 0x0 DUP1 PUSH1 0x0 PUSH1 0x60 DUP5 DUP7 SUB SLT ISZERO PUSH2 0x278C JUMPI PUSH1 0x0 DUP1 REVERT JUMPDEST PUSH2 0x2795 DUP5 PUSH2 0x2731 JUMP JUMPDEST SWAP3 POP PUSH2 0x27A3 PUSH1 0x20 DUP6 ADD PUSH2 0x2731 JUMP JUMPDEST SWAP2 POP PUSH1 0x40 DUP5 ADD CALLDATALOAD SWAP1 POP SWAP3 POP SWAP3 POP SWAP3 JUMP JUMPDEST PUSH4 0x4E487B71 PUSH1 0xE0 SHL PUSH1 0x0 MSTORE PUSH1 0x41 PUSH1 0x4 MSTORE PUSH1 0x24 PUSH1 0x0 REVERT JUMPDEST PUSH1 0x40 MLOAD PUSH1 0xA0 DUP2 ADD PUSH1 0x1 PUSH1 0x1 PUSH1 0x40 SHL SUB DUP2 GT DUP3 DUP3 LT OR ISZERO PUSH2 0x27EB JUMPI PUSH2 0x27EB PUSH2 0x27B3 JUMP JUMPDEST PUSH1 0x40 MSTORE SWAP1 JUMP JUMPDEST PUSH1 0x40 MLOAD PUSH1 0x1F DUP3 ADD PUSH1 0x1F NOT AND DUP2 ADD PUSH1 0x1 PUSH1 0x1 PUSH1 0x40 SHL SUB DUP2 GT DUP3 DUP3 LT OR ISZERO PUSH2 0x2819 JUMPI PUSH2 0x2819 PUSH2 0x27B3 JUMP JUMPDEST PUSH1 0x40 MSTORE SWAP2 SWAP1 POP JUMP JUMPDEST PUSH1 0x0 DUP3 PUSH1 0x1F DUP4 ADD SLT PUSH2 0x2832 JUMPI PUSH1 0x0 DUP1 REVERT JUMPDEST DUP2 CALLDATALOAD PUSH1 0x1 PUSH1 0x1 PUSH1 0x40 SHL SUB DUP2 GT ISZERO PUSH2 0x284B JUMPI PUSH2 0x284B PUSH2 0x27B3 JUMP JUMPDEST PUSH2 0x285E PUSH1 0x1F DUP3 ADD PUSH1 0x1F NOT AND PUSH1 0x20 ADD PUSH2 0x27F1 JUMP JUMPDEST DUP2 DUP2 MSTORE DUP5 PUSH1 0x20 DUP4 DUP7 ADD ADD GT ISZERO PUSH2 0x2873 JUMPI PUSH1 0x0 DUP1 REVERT JUMPDEST DUP2 PUSH1 0x20 DUP6 ADD PUSH1 0x20 DUP4 ADD CALLDATACOPY PUSH1 0x0 SWAP2 DUP2 ADD PUSH1 0x20 ADD SWAP2 SWAP1 SWAP2 MSTORE SWAP4 SWAP3 POP POP POP JUMP JUMPDEST PUSH1 0x0 DUP1 PUSH1 0x40 DUP4 DUP6 SUB SLT ISZERO PUSH2 0x28A3 JUMPI PUSH1 0x0 DUP1 REVERT JUMPDEST PUSH2 0x28AC DUP4 PUSH2 0x2731 JUMP JUMPDEST SWAP2 POP PUSH1 0x20 DUP4 ADD CALLDATALOAD PUSH1 0x1 PUSH1 0x1 PUSH1 0x40 SHL SUB DUP2 GT ISZERO PUSH2 0x28C7 JUMPI PUSH1 0x0 DUP1 REVERT JUMPDEST PUSH2 0x28D3 DUP6 DUP3 DUP7 ADD PUSH2 0x2821 JUMP JUMPDEST SWAP2 POP POP SWAP3 POP SWAP3 SWAP1 POP JUMP JUMPDEST DUP1 CALLDATALOAD DUP1 ISZERO ISZERO DUP2 EQ PUSH2 0x2748 JUMPI PUSH1 0x0 DUP1 REVERT JUMPDEST PUSH1 0x0 DUP3 PUSH1 0x1F DUP4 ADD SLT PUSH2 0x28FE JUMPI PUSH1 0x0 DUP1 REVERT JUMPDEST DUP2 CALLDATALOAD PUSH1 0x20 PUSH1 0x1 PUSH1 0x1 PUSH1 0x40 SHL SUB DUP1 DUP4 GT ISZERO PUSH2 0x291A JUMPI PUSH2 0x291A PUSH2 0x27B3 JUMP JUMPDEST DUP3 PUSH1 0x5 SHL PUSH2 0x2929 DUP4 DUP3 ADD PUSH2 0x27F1 JUMP JUMPDEST SWAP4 DUP5 MSTORE DUP6 DUP2 ADD DUP4 ADD SWAP4 DUP4 DUP2 ADD SWAP1 DUP9 DUP7 GT ISZERO PUSH2 0x2943 JUMPI PUSH1 0x0 DUP1 REVERT JUMPDEST DUP5 DUP9 ADD SWAP3 POP JUMPDEST DUP6 DUP4 LT ISZERO PUSH2 0x297F JUMPI DUP3 CALLDATALOAD DUP5 DUP2 GT ISZERO PUSH2 0x2961 JUMPI PUSH1 0x0 DUP1 DUP2 REVERT JUMPDEST PUSH2 0x296F DUP11 DUP8 DUP4 DUP13 ADD ADD PUSH2 0x2821 JUMP JUMPDEST DUP4 MSTORE POP SWAP2 DUP5 ADD SWAP2 SWAP1 DUP5 ADD SWAP1 PUSH2 0x2949 JUMP JUMPDEST SWAP9 SWAP8 POP POP POP POP POP POP POP POP JUMP JUMPDEST PUSH1 0x0 PUSH1 0xA0 DUP3 DUP5 SUB SLT ISZERO PUSH2 0x299D JUMPI PUSH1 0x0 DUP1 REVERT JUMPDEST PUSH2 0x29A5 PUSH2 0x27C9 JUMP JUMPDEST SWAP1 POP DUP2 CALLDATALOAD PUSH1 0x1 PUSH1 0x1 PUSH1 0x40 SHL SUB DUP1 DUP3 GT ISZERO PUSH2 0x29BE JUMPI PUSH1 0x0 DUP1 REVERT JUMPDEST PUSH2 0x29CA DUP6 DUP4 DUP7 ADD PUSH2 0x2821 JUMP JUMPDEST DUP4 MSTORE PUSH1 0x20 DUP5 ADD CALLDATALOAD SWAP2 POP DUP1 DUP3 GT ISZERO PUSH2 0x29E0 JUMPI PUSH1 0x0 DUP1 REVERT JUMPDEST PUSH2 0x29EC DUP6 DUP4 DUP7 ADD PUSH2 0x28ED JUMP JUMPDEST PUSH1 0x20 DUP5 ADD MSTORE PUSH1 0x40 DUP5 ADD CALLDATALOAD PUSH1 0x40 DUP5 ADD MSTORE PUSH1 0x60 DUP5 ADD CALLDATALOAD SWAP2 POP DUP1 DUP3 GT ISZERO PUSH2 0x2A0F JUMPI PUSH1 0x0 DUP1 REVERT JUMPDEST POP PUSH2 0x2A1C DUP5 DUP3 DUP6 ADD PUSH2 0x28ED JUMP JUMPDEST PUSH1 0x60 DUP4 ADD MSTORE POP PUSH1 0x80 DUP3 ADD CALLDATALOAD PUSH1 0x80 DUP3 ADD MSTORE SWAP3 SWAP2 POP POP JUMP JUMPDEST PUSH1 0x0 PUSH1 0x60 DUP3 DUP5 SUB SLT ISZERO PUSH2 0x2A44 JUMPI PUSH1 0x0 DUP1 REVERT JUMPDEST PUSH1 0x40 MLOAD PUSH1 0x60 DUP2 ADD PUSH1 0x1 PUSH1 0x1 PUSH1 0x40 SHL SUB DUP3 DUP3 LT DUP2 DUP4 GT OR ISZERO PUSH2 0x2A67 JUMPI PUSH2 0x2A67 PUSH2 0x27B3 JUMP JUMPDEST DUP2 PUSH1 0x40 MSTORE DUP3 SWAP4 POP PUSH2 0x2A77 DUP6 PUSH2 0x28DD JUMP JUMPDEST DUP4 MSTORE PUSH1 0x20 DUP6 ADD CALLDATALOAD SWAP2 POP DUP1 DUP3 GT ISZERO PUSH2 0x2A8D JUMPI PUSH1 0x0 DUP1 REVERT JUMPDEST PUSH2 0x2A99 DUP7 DUP4 DUP8 ADD PUSH2 0x2821 JUMP JUMPDEST PUSH1 0x20 DUP5 ADD MSTORE PUSH1 0x40 DUP6 ADD CALLDATALOAD SWAP2 POP DUP1 DUP3 GT ISZERO PUSH2 0x2AB2 JUMPI PUSH1 0x0 DUP1 REVERT JUMPDEST POP PUSH2 0x2ABF DUP6 DUP3 DUP7 ADD PUSH2 0x298B JUMP JUMPDEST PUSH1 0x40 DUP4 ADD MSTORE POP POP SWAP3 SWAP2 POP POP JUMP JUMPDEST PUSH1 0x0 DUP1 PUSH1 0x0 DUP1 PUSH1 0x0 PUSH1 0xA0 DUP7 DUP9 SUB SLT ISZERO PUSH2 0x2AE4 JUMPI PUSH1 0x0 DUP1 REVERT JUMPDEST DUP6 CALLDATALOAD PUSH1 0x1 PUSH1 0x1 PUSH1 0x40 SHL SUB DUP1 DUP3 GT ISZERO PUSH2 0x2AFB JUMPI PUSH1 0x0 DUP1 REVERT JUMPDEST PUSH2 0x2B07 DUP10 DUP4 DUP11 ADD PUSH2 0x2821 JUMP JUMPDEST SWAP7 POP PUSH1 0x20 DUP9 ADD CALLDATALOAD SWAP2 POP DUP1 DUP3 GT ISZERO PUSH2 0x2B1D JUMPI PUSH1 0x0 DUP1 REVERT JUMPDEST PUSH2 0x2B29 DUP10 DUP4 DUP11 ADD PUSH2 0x2821 JUMP JUMPDEST SWAP6 POP PUSH1 0x40 DUP9 ADD CALLDATALOAD SWAP2 POP DUP1 DUP3 GT ISZERO PUSH2 0x2B3F JUMPI PUSH1 0x0 DUP1 REVERT JUMPDEST PUSH2 0x2B4B DUP10 DUP4 DUP11 ADD PUSH2 0x2A32 JUMP JUMPDEST SWAP5 POP PUSH1 0x60 DUP9 ADD CALLDATALOAD SWAP2 POP DUP1 DUP3 GT ISZERO PUSH2 0x2B61 JUMPI PUSH1 0x0 DUP1 REVERT JUMPDEST POP PUSH2 0x2B6E DUP9 DUP3 DUP10 ADD PUSH2 0x298B JUMP JUMPDEST SWAP3 POP POP PUSH2 0x2B7D PUSH1 0x80 DUP8 ADD PUSH2 0x2731 JUMP JUMPDEST SWAP1 POP SWAP3 SWAP6 POP SWAP3 SWAP6 SWAP1 SWAP4 POP JUMP JUMPDEST PUSH1 0x0 PUSH1 0x20 DUP3 DUP5 SUB SLT ISZERO PUSH2 0x2B9B JUMPI PUSH1 0x0 DUP1 REVERT JUMPDEST PUSH2 0x1A45 DUP3 PUSH2 0x2731 JUMP JUMPDEST PUSH1 0x0 DUP3 DUP3 MLOAD DUP1 DUP6 MSTORE PUSH1 0x20 DUP1 DUP7 ADD SWAP6 POP PUSH1 0x20 DUP3 PUSH1 0x5 SHL DUP5 ADD ADD PUSH1 0x20 DUP7 ADD PUSH1 0x0 JUMPDEST DUP5 DUP2 LT ISZERO PUSH2 0x2BF1 JUMPI PUSH1 0x1F NOT DUP7 DUP5 SUB ADD DUP10 MSTORE PUSH2 0x2BDF DUP4 DUP4 MLOAD PUSH2 0x26F2 JUMP JUMPDEST SWAP9 DUP5 ADD SWAP9 SWAP3 POP SWAP1 DUP4 ADD SWAP1 PUSH1 0x1 ADD PUSH2 0x2BC3 JUMP JUMPDEST POP SWAP1 SWAP8 SWAP7 POP POP POP POP POP POP POP JUMP JUMPDEST PUSH1 0x0 DUP2 MLOAD PUSH1 0xA0 DUP5 MSTORE PUSH2 0x2C13 PUSH1 0xA0 DUP6 ADD DUP3 PUSH2 0x26F2 JUMP JUMPDEST SWAP1 POP PUSH1 0x20 DUP4 ADD MLOAD DUP5 DUP3 SUB PUSH1 0x20 DUP7 ADD MSTORE PUSH2 0x2C2C DUP3 DUP3 PUSH2 0x2BA4 JUMP JUMPDEST SWAP2 POP POP PUSH1 0x40 DUP4 ADD MLOAD PUSH1 0x40 DUP6 ADD MSTORE PUSH1 0x60 DUP4 ADD MLOAD DUP5 DUP3 SUB PUSH1 0x60 DUP7 ADD MSTORE PUSH2 0x2C50 DUP3 DUP3 PUSH2 0x2BA4 JUMP JUMPDEST SWAP2 POP POP PUSH1 0x80 DUP4 ADD MLOAD PUSH1 0x80 DUP6 ADD MSTORE DUP1 SWAP2 POP POP SWAP3 SWAP2 POP POP JUMP JUMPDEST PUSH1 0x20 DUP2 MSTORE DUP2 MLOAD ISZERO ISZERO PUSH1 0x20 DUP3 ADD MSTORE PUSH1 0x0 PUSH1 0x20 DUP4 ADD MLOAD PUSH1 0x60 PUSH1 0x40 DUP5 ADD MSTORE PUSH2 0x2C8F PUSH1 0x80 DUP5 ADD DUP3 PUSH2 0x26F2 JUMP JUMPDEST SWAP1 POP PUSH1 0x40 DUP5 ADD MLOAD PUSH1 0x1F NOT DUP5 DUP4 SUB ADD PUSH1 0x60 DUP6 ADD MSTORE PUSH2 0x136D DUP3 DUP3 PUSH2 0x2BFE JUMP JUMPDEST PUSH1 0x0 PUSH1 0x20 DUP3 DUP5 SUB SLT ISZERO PUSH2 0x2CBE JUMPI PUSH1 0x0 DUP1 REVERT JUMPDEST DUP2 CALLDATALOAD PUSH1 0x1 PUSH1 0x1 PUSH1 0x40 SHL SUB DUP2 GT ISZERO PUSH2 0x2CD4 JUMPI PUSH1 0x0 DUP1 REVERT JUMPDEST PUSH2 0x236F DUP5 DUP3 DUP6 ADD PUSH2 0x2821 JUMP JUMPDEST PUSH1 0x60 DUP2 MSTORE PUSH1 0x0 PUSH2 0x2CF3 PUSH1 0x60 DUP4 ADD DUP7 PUSH2 0x26F2 JUMP JUMPDEST PUSH1 0x20 DUP4 ADD SWAP5 SWAP1 SWAP5 MSTORE POP PUSH1 0x40 ADD MSTORE SWAP2 SWAP1 POP JUMP JUMPDEST PUSH1 0x0 DUP1 PUSH1 0x40 DUP4 DUP6 SUB SLT ISZERO PUSH2 0x2D18 JUMPI PUSH1 0x0 DUP1 REVERT JUMPDEST PUSH2 0x2D21 DUP4 PUSH2 0x2731 JUMP JUMPDEST SWAP2 POP PUSH2 0x2D2F PUSH1 0x20 DUP5 ADD PUSH2 0x28DD JUMP JUMPDEST SWAP1 POP SWAP3 POP SWAP3 SWAP1 POP JUMP JUMPDEST PUSH1 0x0 DUP1 PUSH1 0x0 DUP1 PUSH1 0x80 DUP6 DUP8 SUB SLT ISZERO PUSH2 0x2D4E JUMPI PUSH1 0x0 DUP1 REVERT JUMPDEST PUSH2 0x2D57 DUP6 PUSH2 0x2731 JUMP JUMPDEST SWAP4 POP PUSH2 0x2D65 PUSH1 0x20 DUP7 ADD PUSH2 0x2731 JUMP JUMPDEST SWAP3 POP PUSH1 0x40 DUP6 ADD CALLDATALOAD SWAP2 POP PUSH1 0x60 DUP6 ADD CALLDATALOAD PUSH1 0x1 PUSH1 0x1 PUSH1 0x40 SHL SUB DUP2 GT ISZERO PUSH2 0x2D87 JUMPI PUSH1 0x0 DUP1 REVERT JUMPDEST PUSH2 0x2D93 DUP8 DUP3 DUP9 ADD PUSH2 0x2821 JUMP JUMPDEST SWAP2 POP POP SWAP3 SWAP6 SWAP2 SWAP5 POP SWAP3 POP JUMP JUMPDEST PUSH1 0x0 DUP1 PUSH1 0x0 PUSH1 0x60 DUP5 DUP7 SUB SLT ISZERO PUSH2 0x2DB4 JUMPI PUSH1 0x0 DUP1 REVERT JUMPDEST DUP4 CALLDATALOAD SWAP3 POP PUSH1 0x20 DUP5 ADD CALLDATALOAD PUSH1 0x1 PUSH1 0x1 PUSH1 0x40 SHL SUB DUP1 DUP3 GT ISZERO PUSH2 0x2DD2 JUMPI PUSH1 0x0 DUP1 REVERT JUMPDEST PUSH2 0x2DDE DUP8 DUP4 DUP9 ADD PUSH2 0x298B JUMP JUMPDEST SWAP4 POP PUSH1 0x40 DUP7 ADD CALLDATALOAD SWAP2 POP DUP1 DUP3 GT ISZERO PUSH2 0x2DF4 JUMPI PUSH1 0x0 DUP1 REVERT JUMPDEST POP PUSH2 0x2E01 DUP7 DUP3 DUP8 ADD PUSH2 0x2821 JUMP JUMPDEST SWAP2 POP POP SWAP3 POP SWAP3 POP SWAP3 JUMP JUMPDEST PUSH1 0x0 DUP1 PUSH1 0x0 DUP1 PUSH1 0x80 DUP6 DUP8 SUB SLT ISZERO PUSH2 0x2E21 JUMPI PUSH1 0x0 DUP1 REVERT JUMPDEST PUSH2 0x2E2A DUP6 PUSH2 0x2731 JUMP JUMPDEST SWAP4 POP PUSH1 0x20 DUP6 ADD CALLDATALOAD PUSH1 0x1 PUSH1 0x1 PUSH1 0x40 SHL SUB DUP1 DUP3 GT ISZERO PUSH2 0x2E46 JUMPI PUSH1 0x0 DUP1 REVERT JUMPDEST PUSH2 0x2E52 DUP9 DUP4 DUP10 ADD PUSH2 0x2821 JUMP JUMPDEST SWAP5 POP PUSH1 0x40 DUP8 ADD CALLDATALOAD SWAP2 POP DUP1 DUP3 GT ISZERO PUSH2 0x2E68 JUMPI PUSH1 0x0 DUP1 REVERT JUMPDEST PUSH2 0x2E74 DUP9 DUP4 DUP10 ADD PUSH2 0x2A32 JUMP JUMPDEST SWAP4 POP PUSH1 0x60 DUP8 ADD CALLDATALOAD SWAP2 POP DUP1 DUP3 GT ISZERO PUSH2 0x2E8A JUMPI PUSH1 0x0 DUP1 REVERT JUMPDEST POP PUSH2 0x2D93 DUP8 DUP3 DUP9 ADD PUSH2 0x2821 JUMP JUMPDEST PUSH1 0x20 DUP2 MSTORE PUSH1 0x0 PUSH2 0x1A45 PUSH1 0x20 DUP4 ADD DUP5 PUSH2 0x2BFE JUMP JUMPDEST PUSH1 0x0 DUP1 PUSH1 0x40 DUP4 DUP6 SUB SLT ISZERO PUSH2 0x2EBD JUMPI PUSH1 0x0 DUP1 REVERT JUMPDEST PUSH2 0x2EC6 DUP4 PUSH2 0x2731 JUMP JUMPDEST SWAP2 POP PUSH2 0x2D2F PUSH1 0x20 DUP5 ADD PUSH2 0x2731 JUMP JUMPDEST PUSH1 0x0 DUP1 PUSH1 0x40 DUP4 DUP6 SUB SLT ISZERO PUSH2 0x2EE7 JUMPI PUSH1 0x0 DUP1 REVERT JUMPDEST DUP3 CALLDATALOAD SWAP2 POP PUSH1 0x20 DUP4 ADD CALLDATALOAD PUSH1 0x1 PUSH1 0x1 PUSH1 0x40 SHL SUB DUP2 GT ISZERO PUSH2 0x2F04 JUMPI PUSH1 0x0 DUP1 REVERT JUMPDEST PUSH2 0x28D3 DUP6 DUP3 DUP7 ADD PUSH2 0x2A32 JUMP JUMPDEST PUSH1 0x1 DUP2 DUP2 SHR SWAP1 DUP3 AND DUP1 PUSH2 0x2F24 JUMPI PUSH1 0x7F DUP3 AND SWAP2 POP JUMPDEST PUSH1 0x20 DUP3 LT DUP2 SUB PUSH2 0x2F44 JUMPI PUSH4 0x4E487B71 PUSH1 0xE0 SHL PUSH1 0x0 MSTORE PUSH1 0x22 PUSH1 0x4 MSTORE PUSH1 0x24 PUSH1 0x0 REVERT JUMPDEST POP SWAP2 SWAP1 POP JUMP JUMPDEST PUSH1 0x1F DUP3 GT ISZERO PUSH2 0x7BE JUMPI PUSH1 0x0 DUP2 PUSH1 0x0 MSTORE PUSH1 0x20 PUSH1 0x0 KECCAK256 PUSH1 0x1F DUP6 ADD PUSH1 0x5 SHR DUP2 ADD PUSH1 0x20 DUP7 LT ISZERO PUSH2 0x2F73 JUMPI POP DUP1 JUMPDEST PUSH1 0x1F DUP6 ADD PUSH1 0x5 SHR DUP3 ADD SWAP2 POP JUMPDEST DUP2 DUP2 LT ISZERO PUSH2 0x2F92 JUMPI DUP3 DUP2 SSTORE PUSH1 0x1 ADD PUSH2 0x2F7F JUMP JUMPDEST POP POP POP POP POP POP JUMP JUMPDEST DUP2 MLOAD PUSH1 0x1 PUSH1 0x1 PUSH1 0x40 SHL SUB DUP2 GT ISZERO PUSH2 0x2FB3 JUMPI PUSH2 0x2FB3 PUSH2 0x27B3 JUMP JUMPDEST PUSH2 0x2FC7 DUP2 PUSH2 0x2FC1 DUP5 SLOAD PUSH2 0x2F10 JUMP JUMPDEST DUP5 PUSH2 0x2F4A JUMP JUMPDEST PUSH1 0x20 DUP1 PUSH1 0x1F DUP4 GT PUSH1 0x1 DUP2 EQ PUSH2 0x2FFC JUMPI PUSH1 0x0 DUP5 ISZERO PUSH2 0x2FE4 JUMPI POP DUP6 DUP4 ADD MLOAD JUMPDEST PUSH1 0x0 NOT PUSH1 0x3 DUP7 SWAP1 SHL SHR NOT AND PUSH1 0x1 DUP6 SWAP1 SHL OR DUP6 SSTORE PUSH2 0x2F92 JUMP JUMPDEST PUSH1 0x0 DUP6 DUP2 MSTORE PUSH1 0x20 DUP2 KECCAK256 PUSH1 0x1F NOT DUP7 AND SWAP2 JUMPDEST DUP3 DUP2 LT ISZERO PUSH2 0x302B JUMPI DUP9 DUP7 ADD MLOAD DUP3 SSTORE SWAP5 DUP5 ADD SWAP5 PUSH1 0x1 SWAP1 SWAP2 ADD SWAP1 DUP5 ADD PUSH2 0x300C JUMP JUMPDEST POP DUP6 DUP3 LT ISZERO PUSH2 0x3049 JUMPI DUP8 DUP6 ADD MLOAD PUSH1 0x0 NOT PUSH1 0x3 DUP9 SWAP1 SHL PUSH1 0xF8 AND SHR NOT AND DUP2 SSTORE JUMPDEST POP POP POP POP POP PUSH1 0x1 SWAP1 DUP2 SHL ADD SWAP1 SSTORE POP JUMP JUMPDEST PUSH1 0x0 DUP3 MLOAD PUSH2 0x306B DUP2 DUP5 PUSH1 0x20 DUP8 ADD PUSH2 0x26CE JUMP JUMPDEST SWAP2 SWAP1 SWAP2 ADD SWAP3 SWAP2 POP POP JUMP JUMPDEST DUP1 DUP3 ADD DUP1 DUP3 GT ISZERO PUSH2 0x5A0 JUMPI PUSH4 0x4E487B71 PUSH1 0xE0 SHL PUSH1 0x0 MSTORE PUSH1 0x11 PUSH1 0x4 MSTORE PUSH1 0x24 PUSH1 0x0 REVERT JUMPDEST PUSH1 0x0 DUP4 MLOAD PUSH2 0x30A8 DUP2 DUP5 PUSH1 0x20 DUP9 ADD PUSH2 0x26CE JUMP JUMPDEST DUP4 MLOAD SWAP1 DUP4 ADD SWAP1 PUSH2 0x30BC DUP2 DUP4 PUSH1 0x20 DUP9 ADD PUSH2 0x26CE JUMP JUMPDEST ADD SWAP5 SWAP4 POP POP POP POP JUMP JUMPDEST PUSH1 0x0 DUP1 DUP4 SLOAD PUSH2 0x30D3 DUP2 PUSH2 0x2F10 JUMP JUMPDEST PUSH1 0x1 DUP3 DUP2 AND DUP1 ISZERO PUSH2 0x30EB JUMPI PUSH1 0x1 DUP2 EQ PUSH2 0x3100 JUMPI PUSH2 0x312F JUMP JUMPDEST PUSH1 0xFF NOT DUP5 AND DUP8 MSTORE DUP3 ISZERO ISZERO DUP4 MUL DUP8 ADD SWAP5 POP PUSH2 0x312F JUMP JUMPDEST DUP8 PUSH1 0x0 MSTORE PUSH1 0x20 DUP1 PUSH1 0x0 KECCAK256 PUSH1 0x0 JUMPDEST DUP6 DUP2 LT ISZERO PUSH2 0x3126 JUMPI DUP2 SLOAD DUP11 DUP3 ADD MSTORE SWAP1 DUP5 ADD SWAP1 DUP3 ADD PUSH2 0x310D JUMP JUMPDEST POP POP POP DUP3 DUP8 ADD SWAP5 POP JUMPDEST POP SWAP3 SWAP7 SWAP6 POP POP POP POP POP POP JUMP JUMPDEST PUSH1 0x0 PUSH1 0x20 DUP3 DUP5 SUB SLT ISZERO PUSH2 0x314D JUMPI PUSH1 0x0 DUP1 REVERT JUMPDEST POP MLOAD SWAP2 SWAP1 POP JUMP JUMPDEST PUSH1 0x1 PUSH1 0x1 PUSH1 0xA0 SHL SUB DUP6 DUP2 AND DUP3 MSTORE DUP5 AND PUSH1 0x20 DUP3 ADD MSTORE PUSH1 0x40 DUP2 ADD DUP4 SWAP1 MSTORE PUSH1 0x80 PUSH1 0x60 DUP3 ADD DUP2 SWAP1 MSTORE PUSH1 0x0 SWAP1 PUSH2 0x3187 SWAP1 DUP4 ADD DUP5 PUSH2 0x26F2 JUMP JUMPDEST SWAP7 SWAP6 POP POP POP POP POP POP JUMP JUMPDEST PUSH1 0x0 PUSH1 0x20 DUP3 DUP5 SUB SLT ISZERO PUSH2 0x31A3 JUMPI PUSH1 0x0 DUP1 REVERT JUMPDEST DUP2 MLOAD PUSH2 0x1A45 DUP2 PUSH2 0x269B JUMP INVALID DUP1 0xBB 0x2B PUSH4 0x8CC20BC4 0xD0 0xA6 0xD PUSH7 0x940F3AB4A00C1D PUSH28 0x313497CA82FB0B4AB0079300360894A13BA1A3210667C828492DB98D 0xCA RETURNDATACOPY KECCAK256 PUSH23 0xCC3735A920A3CA505D382BBCA264697066735822122009 0xAF 0xCA SWAP11 CREATE 0x2E 0xAC SWAP2 0xC2 PUSH31 0x50C9AC578804C34F65869DF31C65899368327F94607E64736F6C6343000818 STOP CALLER LOG2 PUSH5 0x6970667358 0x22 SLT KECCAK256 SWAP11 GASLIMIT 0xEE RETURNDATACOPY PUSH16 0x8E4BBBF4C8A32353BB67A93A4916CA59 POP EXTCODEHASH SWAP15 BLOBBASEFEE NUMBER 0xCC CALLDATASIZE LOG4 0xAA DUP16 0xC2 PUSH5 0x736F6C6343 STOP ADDMOD XOR STOP CALLER "},"methodIdentifiers":{"createNFAContract(string,string,(bool,string,(string,string[],bytes32,string[],bytes32)),(string,string[],bytes32,string[],bytes32),address)":"e4624f0b","initialize(address)":"c4d66de8","owner()":"8da5cb5b","renounceOwnership()":"715018a6","transferOwnership(address)":"f2fde38b"}}}}}