{
  "_format": "hh-sol-artifact-1",
  "contractName": "NFAFactory",
  "sourceName": "contracts/NFAFactory.sol",
  "abi": [
    {
      "inputs": [],
      "name": "InvalidInitialization",
      "type": "error"
    },
    {
      "inputs": [],
      "name": "NotInitializing",
      "type": "error"
    },
    {
      "inputs": [
        {
          "internalType": "address",
          "name": "owner",
          "type": "address"
        }
      ],
      "name": "OwnableInvalidOwner",
      "type": "error"
    },
    {
      "inputs": [
        {
          "internalType": "address",
          "name": "account",
          "type": "address"
        }
      ],
      "name": "OwnableUnauthorizedAccount",
      "type": "error"
    },
    {
      "anonymous": false,
      "inputs": [
        {
          "indexed": false,
          "internalType": "uint64",
          "name": "version",
          "type": "uint64"
        }
      ],
      "name": "Initialized",
      "type": "event"
    },
    {
      "anonymous": false,
      "inputs": [
        {
          "indexed": true,
          "internalType": "address",
          "name": "nfaAddress",
          "type": "address"
        }
      ],
      "name": "NFAContractCreated",
      "type": "event"
    },
    {
      "anonymous": false,
      "inputs": [
        {
          "indexed": true,
          "internalType": "address",
          "name": "previousOwner",
          "type": "address"
        },
        {
          "indexed": true,
          "internalType": "address",
          "name": "newOwner",
          "type": "address"
        }
      ],
      "name": "OwnershipTransferred",
      "type": "event"
    },
    {
      "inputs": [
        {
          "internalType": "string",
          "name": "name",
          "type": "string"
        },
        {
          "internalType": "string",
          "name": "symbol",
          "type": "string"
        },
        {
          "components": [
            {
              "internalType": "bool",
              "name": "routerRequired",
              "type": "bool"
            },
            {
              "internalType": "string",
              "name": "paymentModel",
              "type": "string"
            },
            {
              "components": [
                {
                  "internalType": "string",
                  "name": "versionId",
                  "type": "string"
                },
                {
                  "internalType": "string[]",
                  "name": "downloadURIs",
                  "type": "string[]"
                },
                {
                  "internalType": "bytes32",
                  "name": "codeHash",
                  "type": "bytes32"
                },
                {
                  "internalType": "string[]",
                  "name": "abiURIs",
                  "type": "string[]"
                },
                {
                  "internalType": "bytes32",
                  "name": "abiHash",
                  "type": "bytes32"
                }
              ],
              "internalType": "struct VersionInfo",
              "name": "versionInfo",
              "type": "tuple"
            }
          ],
          "internalType": "struct AppInfo",
          "name": "appInfo",
          "type": "tuple"
        },
        {
          "components": [
            {
              "internalType": "string",
              "name": "versionId",
              "type": "string"
            },
            {
              "internalType": "string[]",
              "name": "downloadURIs",
              "type": "string[]"
            },
            {
              "internalType": "bytes32",
              "name": "codeHash",
              "type": "bytes32"
            },
            {
              "internalType": "string[]",
              "name": "abiURIs",
              "type": "string[]"
            },
            {
              "internalType": "bytes32",
              "name": "abiHash",
              "type": "bytes32"
            }
          ],
          "internalType": "struct VersionInfo",
          "name": "versionInfo",
          "type": "tuple"
        },
        {
          "internalType": "address",
          "name": "initialOwner",
          "type": "address"
        }
      ],
      "name": "createNFAContract",
      "outputs": [
        {
          "internalType": "address",
          "name": "",
          "type": "address"
        }
      ],
      "stateMutability": "nonpayable",
      "type": "function"
    },
    {
      "inputs": [
        {
          "internalType": "address",
          "name": "owner",
          "type": "address"
        }
      ],
      "name": "initialize",
      "outputs": [],
      "stateMutability": "nonpayable",
      "type": "function"
    },
    {
      "inputs": [],
      "name": "owner",
      "outputs": [
        {
          "internalType": "address",
          "name": "",
          "type": "address"
        }
      ],
      "stateMutability": "view",
      "type": "function"
    },
    {
      "inputs": [],
      "name": "renounceOwnership",
      "outputs": [],
      "stateMutability": "nonpayable",
      "type": "function"
    },
    {
      "inputs": [
        {
          "internalType": "address",
          "name": "newOwner",
          "type": "address"
        }
      ],
      "name": "transferOwnership",
      "outputs": [],
      "stateMutability": "nonpayable",
      "type": "function"
    }
  ],
  "bytecode": "0x608060405234801561001057600080fd5b50613c4e806100206000396000f3fe608060405234801561001057600080fd5b50600436106100575760003560e01c8063715018a61461005c5780638da5cb5b14610066578063c4d66de8146100ae578063e4624f0b146100c1578063f2fde38b146100d4575b600080fd5b6100646100e7565b005b7f9016d09d72d40fdae2fd8ceac6b6234c7706214fd39c1cd1e609a0528c199300546001600160a01b03165b6040516001600160a01b03909116815260200160405180910390f35b6100646100bc366004610481565b6100fb565b6100926100cf3660046106ed565b61020b565b6100646100e2366004610481565b6102e7565b6100ef61032a565b6100f96000610385565b565b7ff0c57e16840df040f15088dc2f81fe391c3923bec73e23a9662efc9c229c6a008054600160401b810460ff16159067ffffffffffffffff166000811580156101415750825b905060008267ffffffffffffffff16600114801561015e5750303b155b90508115801561016c575080155b1561018a5760405163f92ee8a960e01b815260040160405180910390fd5b845467ffffffffffffffff1916600117855583156101b457845460ff60401b1916600160401b1785555b6101bd866103f6565b831561020357845460ff60401b19168555604051600181527fc7f505b2f371ae2175ee4913f4499e1f2633a7b5936321eed1cdaeb6115181d29060200160405180910390a15b505050505050565b600061021561032a565b600060405161022390610458565b604051809103906000f08015801561023f573d6000803e3d6000fd5b50604051631b8eb48b60e21b81529091506001600160a01b03821690636e3ad22c90610277908a908a908a908a908a9060040161091e565b600060405180830381600087803b15801561029157600080fd5b505af11580156102a5573d6000803e3d6000fd5b50506040516001600160a01b03841692507ff7b4406dc2d76f36a4e71e16983b35cd71fe8cbe99e7bfaa715c31d551c8f3129150600090a29695505050505050565b6102ef61032a565b6001600160a01b03811661031e57604051631e4fbdf760e01b8152600060048201526024015b60405180910390fd5b61032781610385565b50565b3361035c7f9016d09d72d40fdae2fd8ceac6b6234c7706214fd39c1cd1e609a0528c199300546001600160a01b031690565b6001600160a01b0316146100f95760405163118cdaa760e01b8152336004820152602401610315565b7f9016d09d72d40fdae2fd8ceac6b6234c7706214fd39c1cd1e609a0528c19930080546001600160a01b031981166001600160a01b03848116918217845560405192169182907f8be0079c531659141344cd1fd0a4f28419497f9722a3daafe3b4186f6b6457e090600090a3505050565b6103fe610407565b61032781610450565b7ff0c57e16840df040f15088dc2f81fe391c3923bec73e23a9662efc9c229c6a0054600160401b900460ff166100f957604051631afcd79f60e31b815260040160405180910390fd5b6102ef610407565b613262806109b783390190565b80356001600160a01b038116811461047c57600080fd5b919050565b60006020828403121561049357600080fd5b61049c82610465565b9392505050565b634e487b7160e01b600052604160045260246000fd5b60405160a0810167ffffffffffffffff811182821017156104dc576104dc6104a3565b60405290565b6040516060810167ffffffffffffffff811182821017156104dc576104dc6104a3565b604051601f8201601f1916810167ffffffffffffffff8111828210171561052e5761052e6104a3565b604052919050565b600082601f83011261054757600080fd5b813567ffffffffffffffff811115610561576105616104a3565b610574601f8201601f1916602001610505565b81815284602083860101111561058957600080fd5b816020850160208301376000918101602001919091529392505050565b600082601f8301126105b757600080fd5b8135602067ffffffffffffffff808311156105d4576105d46104a3565b8260051b6105e3838201610505565b93845285810183019383810190888611156105fd57600080fd5b84880192505b858310156106395782358481111561061b5760008081fd5b6106298a87838c0101610536565b8352509184019190840190610603565b98975050505050505050565b600060a0828403121561065757600080fd5b61065f6104b9565b9050813567ffffffffffffffff8082111561067957600080fd5b61068585838601610536565b8352602084013591508082111561069b57600080fd5b6106a7858386016105a6565b60208401526040840135604084015260608401359150808211156106ca57600080fd5b506106d7848285016105a6565b6060830152506080820135608082015292915050565b600080600080600060a0868803121561070557600080fd5b853567ffffffffffffffff8082111561071d57600080fd5b61072989838a01610536565b9650602088013591508082111561073f57600080fd5b61074b89838a01610536565b9550604088013591508082111561076157600080fd5b908701906060828a03121561077557600080fd5b61077d6104e2565b8235801515811461078d57600080fd5b81526020830135828111156107a157600080fd5b6107ad8b828601610536565b6020830152506040830135828111156107c557600080fd5b6107d18b828601610645565b604083015250945060608801359150808211156107ed57600080fd5b506107fa88828901610645565b92505061080960808701610465565b90509295509295909350565b6000815180845260005b8181101561083b5760208185018101518683018201520161081f565b506000602082860101526020601f19601f83011685010191505092915050565b60008282518085526020808601955060208260051b8401016020860160005b848110156108a857601f19868403018952610896838351610815565b9884019892509083019060010161087a565b5090979650505050505050565b6000815160a084526108ca60a0850182610815565b9050602083015184820360208601526108e3828261085b565b9150506040830151604085015260608301518482036060860152610907828261085b565b915050608083015160808501528091505092915050565b60a08152600061093160a0830188610815565b82810360208401526109438188610815565b9050828103604084015285511515815260208601516060602083015261096c6060830182610815565b90506040870151828203604084015261098582826108b5565b92505050828103606084015261099b81866108b5565b91505060018060a01b0383166080830152969550505050505056fe60a06040523060805234801561001457600080fd5b5060805161322461003e60003960008181611a8901528181611ab20152611bf301526132246000f3fe6080604052600436106101a25760003560e01c8063741aa2bd116100e0578063c167291e11610084578063cb4b9e2c11610061578063cb4b9e2c146104d1578063e985e9c5146104fe578063ef2a9a051461051e578063f2fde38b1461053e57005b8063c167291e14610471578063c80e329b14610491578063c87b56dd146104b157005b806395d89b41116100bd57806395d89b41146103eb578063a22cb46514610400578063ad3cb1cc14610420578063b88d4fde1461045157005b8063741aa2bd1461037a5780638b5c9283146103a75780638da5cb5b146103d657005b806342842e0e116101475780636352211e116101245780636352211e146103055780636e3ad22c1461032557806370a0823114610345578063715018a61461036557005b806342842e0e146102af5780634f1ef286146102cf57806352d1902d146102e257005b8063081812fc11610180578063081812fc14610222578063095ea7b31461025a57806323b872dd1461027a5780633ccfd60b1461029a57005b8062923f9e146101ab57806301ffc9a7146101e057806306fdde031461020057005b366101a957005b005b3480156101b757600080fd5b506101cb6101c6366004612682565b61055e565b60405190151581526020015b60405180910390f35b3480156101ec57600080fd5b506101cb6101fb3660046126b1565b61057b565b34801561020c57600080fd5b506102156105a6565b6040516101d7919061271e565b34801561022e57600080fd5b5061024261023d366004612682565b61064a565b6040516001600160a01b0390911681526020016101d7565b34801561026657600080fd5b506101a961027536600461274d565b61065f565b34801561028657600080fd5b506101a9610295366004612777565b61066e565b3480156102a657600080fd5b506101a96106fe565b3480156102bb57600080fd5b506101a96102ca366004612777565b6107a3565b6101a96102dd366004612890565b6107c3565b3480156102ee57600080fd5b506102f76107de565b6040519081526020016101d7565b34801561031157600080fd5b50610242610320366004612682565b6107fb565b34801561033157600080fd5b506101a9610340366004612acc565b610806565b34801561035157600080fd5b506102f7610360366004612b89565b6109ce565b34801561037157600080fd5b506101a9610a2a565b34801561038657600080fd5b5061039a610395366004612682565b610a3e565b6040516101d79190612c67565b3480156103b357600080fd5b506103c76103c2366004612cac565b610e15565b6040516101d793929190612ce0565b3480156103e257600080fd5b50610242610eca565b3480156103f757600080fd5b50610215610ef8565b34801561040c57600080fd5b506101a961041b366004612d05565b610f37565b34801561042c57600080fd5b50610215604051806040016040528060058152602001640352e302e360dc1b81525081565b34801561045d57600080fd5b506101a961046c366004612d38565b610f42565b34801561047d57600080fd5b506101a961048c366004612d9f565b610f59565b34801561049d57600080fd5b506102f76104ac366004612e0b565b611080565b3480156104bd57600080fd5b506102156104cc366004612682565b611241565b3480156104dd57600080fd5b506104f16104ec366004612682565b611376565b6040516101d79190612e97565b34801561050a57600080fd5b506101cb610519366004612eaa565b6116a0565b34801561052a57600080fd5b506101a9610539366004612ed4565b6116ed565b34801561054a57600080fd5b506101a9610559366004612b89565b611833565b60008061056a836107fb565b6001600160a01b0316141592915050565b60006001600160e01b03198216632483248360e11b14806105a057506105a082611871565b92915050565b6000805160206131af83398151915280546060919081906105c690612f10565b80601f01602080910402602001604051908101604052809291908181526020018280546105f290612f10565b801561063f5780601f106106145761010080835404028352916020019161063f565b820191906000526020600020905b81548152906001019060200180831161062257829003601f168201915b505050505091505090565b6000610655826118c1565b506105a0826118f9565b61066a828233611933565b5050565b6001600160a01b03821661069d57604051633250574960e11b8152600060048201526024015b60405180910390fd5b60006106aa838333611940565b9050836001600160a01b0316816001600160a01b0316146106f8576040516364283d7b60e01b81526001600160a01b0380861660048301526024820184905282166044820152606401610694565b50505050565b610706611a4c565b47806107635760405162461bcd60e51b815260206004820152602660248201527f4e46413a204e6f2066756e647320617661696c61626c6520666f722077697468604482015265191c985dd85b60d21b6064820152608401610694565b61076b610eca565b6001600160a01b03166108fc829081150290604051600060405180830381858888f1935050505015801561066a573d6000803e3d6000fd5b6107be83838360405180602001604052806000815250610f42565b505050565b6107cb611a7e565b6107d482611b23565b61066a8282611b2b565b60006107e8611be8565b506000805160206131cf83398151915290565b60006105a0826118c1565b7ff0c57e16840df040f15088dc2f81fe391c3923bec73e23a9662efc9c229c6a008054600160401b810460ff1615906001600160401b031660008115801561084b5750825b90506000826001600160401b031660011480156108675750303b155b905081158015610875575080155b156108935760405163f92ee8a960e01b815260040160405180910390fd5b845467ffffffffffffffff1916600117855583156108bd57845460ff60401b1916600160401b1785555b6108c78a8a611c31565b6108cf611c43565b6108d886611c4b565b6000805481526001602081815260409092208a51815460ff1916901515178155918a01518a929182019061090c9082612f9a565b5060408201518051600283019081906109259082612f9a565b50602082810151805161093e92600185019201906125c5565b5060408201516002820155606082015180516109649160038401916020909101906125c5565b50608091909101516004909101555050604088015151875283156109c257845460ff60401b19168555604051600181527fc7f505b2f371ae2175ee4913f4499e1f2633a7b5936321eed1cdaeb6115181d29060200160405180910390a15b50505050505050505050565b60006000805160206131af8339815191526001600160a01b038316610a09576040516322718ad960e21b815260006004820152602401610694565b6001600160a01b039092166000908152600390920160205250604090205490565b610a32611a4c565b610a3c6000611c5c565b565b610a84604080516060808201835260008083526020808401839052845160a081018652838152908101839052808501829052808301929092526080820152909182015290565b610a8d8261055e565b610aea5760405162461bcd60e51b815260206004820152602860248201527f4e46413a20417070496e666f20717565727920666f72206e6f6e657869737465604482015267373a103a37b5b2b760c11b6064820152608401610694565b600082815260016020818152604092839020835160608101909452805460ff1615158452918201805491840191610b2090612f10565b80601f0160208091040260200160405190810160405280929190818152602001828054610b4c90612f10565b8015610b995780601f10610b6e57610100808354040283529160200191610b99565b820191906000526020600020905b815481529060010190602001808311610b7c57829003601f168201915b50505050508152602001600282016040518060a0016040529081600082018054610bc290612f10565b80601f0160208091040260200160405190810160405280929190818152602001828054610bee90612f10565b8015610c3b5780601f10610c1057610100808354040283529160200191610c3b565b820191906000526020600020905b815481529060010190602001808311610c1e57829003601f168201915b5050505050815260200160018201805480602002602001604051908101604052809291908181526020016000905b82821015610d15578382906000526020600020018054610c8890612f10565b80601f0160208091040260200160405190810160405280929190818152602001828054610cb490612f10565b8015610d015780601f10610cd657610100808354040283529160200191610d01565b820191906000526020600020905b815481529060010190602001808311610ce457829003601f168201915b505050505081526020019060010190610c69565b5050505081526020016002820154815260200160038201805480602002602001604051908101604052809291908181526020016000905b82821015610df8578382906000526020600020018054610d6b90612f10565b80601f0160208091040260200160405190810160405280929190818152602001828054610d9790612f10565b8015610de45780601f10610db957610100808354040283529160200191610de4565b820191906000526020600020905b815481529060010190602001808311610dc757829003601f168201915b505050505081526020019060010190610d4c565b505050508152602001600482015481525050815250509050919050565b8051602081830181018051600282529282019190930120915280548190610e3b90612f10565b80601f0160208091040260200160405190810160405280929190818152602001828054610e6790612f10565b8015610eb45780601f10610e8957610100808354040283529160200191610eb4565b820191906000526020600020905b815481529060010190602001808311610e9757829003601f168201915b5050505050908060020154908060040154905083565b7f9016d09d72d40fdae2fd8ceac6b6234c7706214fd39c1cd1e609a0528c199300546001600160a01b031690565b7f80bb2b638cc20bc4d0a60d66940f3ab4a00c1d7b313497ca82fb0b4ab007930180546060916000805160206131af833981519152916105c690612f10565b61066a338383611ccd565b610f4d84848461066e565b6106f884848484611d7e565b610f61611a4c565b610f6a8361055e565b610fc85760405162461bcd60e51b815260206004820152602960248201527f4e46413a2056657273696f6e2075706461746520666f72206e6f6e657869737460448201526832b73a103a37b5b2b760b91b6064820152608401610694565b81600282604051610fd99190613059565b90815260405190819003602001902081518190610ff69082612f9a565b50602082810151805161100f92600185019201906125c5565b5060408201516002820155606082015180516110359160038401916020909101906125c5565b5060808201518160040155905050827fe084e6175f396d3b0cde566579e31e11b6a6b6243a84ac78c946f716c7387a96836040516110739190612e97565b60405180910390a2505050565b600061108a611a4c565b600160008082825461109c9190613075565b9091555050600080548082526001602081815260409093208651815460ff1916901515178155928601519192869290918201906110d99082612f9a565b5060408201518051600283019081906110f29082612f9a565b50602082810151805161110b92600185019201906125c5565b5060408201516002820155606082015180516111319160038401916020909101906125c5565b5060808201518160040155505090505061114b8682611ea7565b6111558186611f0c565b6040805160a0810182528582018051518252805160209081015190830152805183015182840152805160609081015190830152516080908101519082015290516002906111a3908690613059565b908152604051908190036020019020815181906111c09082612f9a565b5060208281015180516111d992600185019201906125c5565b5060408201516002820155606082015180516111ff9160038401916020909101906125c5565b506080919091015160049091015560405181907f228a60aa955b2de198ddf61324929aee6fa4753a3b7bd1e64bd6a2bf3ef1d53390600090a295945050505050565b60607f0542a41881ee128a365a727b282c86fa859579490b9bb45aab8503648c8e790061126d836118c1565b506000838152602082905260408120805461128790612f10565b80601f01602080910402602001604051908101604052809291908181526020018280546112b390612f10565b80156113005780601f106112d557610100808354040283529160200191611300565b820191906000526020600020905b8154815290600101906020018083116112e357829003601f168201915b50505050509050600061131e60408051602081019091526000815290565b9050805160000361133157509392505050565b81511561136457808260405160200161134b929190613096565b6040516020818303038152906040529350505050919050565b61136d85611f7f565b95945050505050565b6040805160a08101825260608082526020820181905260009282018390528082015260808101919091526113a98261055e565b6114065760405162461bcd60e51b815260206004820152602860248201527f4e46413a2056657273696f6e20717565727920666f72206e6f6e657869737465604482015267373a103a37b5b2b760c11b6064820152608401610694565b60008281526001602052604090819020905160029161142891908301906130c5565b90815260200160405180910390206040518060a001604052908160008201805461145190612f10565b80601f016020809104026020016040519081016040528092919081815260200182805461147d90612f10565b80156114ca5780601f1061149f576101008083540402835291602001916114ca565b820191906000526020600020905b8154815290600101906020018083116114ad57829003601f168201915b5050505050815260200160018201805480602002602001604051908101604052809291908181526020016000905b828210156115a457838290600052602060002001805461151790612f10565b80601f016020809104026020016040519081016040528092919081815260200182805461154390612f10565b80156115905780601f1061156557610100808354040283529160200191611590565b820191906000526020600020905b81548152906001019060200180831161157357829003601f168201915b5050505050815260200190600101906114f8565b5050505081526020016002820154815260200160038201805480602002602001604051908101604052809291908181526020016000905b828210156116875783829060005260206000200180546115fa90612f10565b80601f016020809104026020016040519081016040528092919081815260200182805461162690612f10565b80156116735780601f1061164857610100808354040283529160200191611673565b820191906000526020600020905b81548152906001019060200180831161165657829003601f168201915b5050505050815260200190600101906115db565b5050505081526020016004820154815250509050919050565b6001600160a01b0391821660009081527f80bb2b638cc20bc4d0a60d66940f3ab4a00c1d7b313497ca82fb0b4ab00793056020908152604080832093909416825291909152205460ff1690565b6116f5611a4c565b6116fe8261055e565b61175c5760405162461bcd60e51b815260206004820152602960248201527f4e46413a20417070496e666f2075706461746520666f72206e6f6e657869737460448201526832b73a103a37b5b2b760b91b6064820152608401610694565b60008281526001602081815260409092208351815460ff19169015151781559183015183929182019061178f9082612f9a565b5060408201518051600283019081906117a89082612f9a565b5060208281015180516117c192600185019201906125c5565b5060408201516002820155606082015180516117e79160038401916020909101906125c5565b50608082015181600401555050905050817f9b5400d32d48c2f1552e765fd93226bd6d88b86c5cd01152ae5b34b62dddcd5f826040516118279190612c67565b60405180910390a25050565b61183b611a4c565b6001600160a01b03811661186557604051631e4fbdf760e01b815260006004820152602401610694565b61186e81611c5c565b50565b60006001600160e01b031982166380ac58cd60e01b14806118a257506001600160e01b03198216635b5e139f60e01b145b806105a057506301ffc9a760e01b6001600160e01b03198316146105a0565b6000806118cd83611ff3565b90506001600160a01b0381166105a057604051637e27328960e01b815260048101849052602401610694565b60009081527f80bb2b638cc20bc4d0a60d66940f3ab4a00c1d7b313497ca82fb0b4ab007930460205260409020546001600160a01b031690565b6107be838383600161202d565b60006000805160206131af8339815191528161195b85611ff3565b90506001600160a01b0384161561197757611977818587612143565b6001600160a01b038116156119b75761199460008660008061202d565b6001600160a01b0381166000908152600383016020526040902080546000190190555b6001600160a01b038616156119e8576001600160a01b03861660009081526003830160205260409020805460010190555b600085815260028301602052604080822080546001600160a01b0319166001600160a01b038a811691821790925591518893918516917fddf252ad1be2c89b69c2b068fc378daa952ba7f163c4a11628f55a4df523b3ef91a49150505b9392505050565b33611a55610eca565b6001600160a01b031614610a3c5760405163118cdaa760e01b8152336004820152602401610694565b306001600160a01b037f0000000000000000000000000000000000000000000000000000000000000000161480611b0557507f00000000000000000000000000000000000000000000000000000000000000006001600160a01b0316611af96000805160206131cf833981519152546001600160a01b031690565b6001600160a01b031614155b15610a3c5760405163703e46dd60e11b815260040160405180910390fd5b61186e611a4c565b816001600160a01b03166352d1902d6040518163ffffffff1660e01b8152600401602060405180830381865afa925050508015611b85575060408051601f3d908101601f19168201909252611b829181019061313b565b60015b611bad57604051634c9c8ce360e01b81526001600160a01b0383166004820152602401610694565b6000805160206131cf8339815191528114611bde57604051632a87526960e21b815260048101829052602401610694565b6107be83836121a7565b306001600160a01b037f00000000000000000000000000000000000000000000000000000000000000001614610a3c5760405163703e46dd60e11b815260040160405180910390fd5b611c396121fd565b61066a8282612246565b610a3c6121fd565b611c536121fd565b61186e81612277565b7f9016d09d72d40fdae2fd8ceac6b6234c7706214fd39c1cd1e609a0528c19930080546001600160a01b031981166001600160a01b03848116918217845560405192169182907f8be0079c531659141344cd1fd0a4f28419497f9722a3daafe3b4186f6b6457e090600090a3505050565b6000805160206131af8339815191526001600160a01b038316611d0e57604051630b61174360e31b81526001600160a01b0384166004820152602401610694565b6001600160a01b038481166000818152600584016020908152604080832094881680845294825291829020805460ff191687151590811790915591519182527f17307eab39ab6107e8899845ad3d59bd9653f200f220920489ca2b5937696c31910160405180910390a350505050565b6001600160a01b0383163b156106f857604051630a85bd0160e11b81526001600160a01b0384169063150b7a0290611dc0903390889087908790600401613154565b6020604051808303816000875af1925050508015611dfb575060408051601f3d908101601f19168201909252611df891810190613191565b60015b611e64573d808015611e29576040519150601f19603f3d011682016040523d82523d6000602084013e611e2e565b606091505b508051600003611e5c57604051633250574960e11b81526001600160a01b0385166004820152602401610694565b805181602001fd5b6001600160e01b03198116630a85bd0160e11b14611ea057604051633250574960e11b81526001600160a01b0385166004820152602401610694565b5050505050565b6001600160a01b038216611ed157604051633250574960e11b815260006004820152602401610694565b6000611edf83836000611940565b90506001600160a01b038116156107be576040516339e3563760e11b815260006004820152602401610694565b60008281527f0542a41881ee128a365a727b282c86fa859579490b9bb45aab8503648c8e790060208190526040909120611f468382612f9a565b506040518381527ff8e1a15aba9398e019f0b49df1a4fde98ee17ae345cb5f6b5e2c27f5033e8ce79060200160405180910390a1505050565b6060611f8a826118c1565b506000611fa260408051602081019091526000815290565b90506000815111611fc25760405180602001604052806000815250611a45565b80611fcc8461227f565b604051602001611fdd929190613096565b6040516020818303038152906040529392505050565b60009081527f80bb2b638cc20bc4d0a60d66940f3ab4a00c1d7b313497ca82fb0b4ab007930260205260409020546001600160a01b031690565b6000805160206131af833981519152818061205057506001600160a01b03831615155b15612112576000612060856118c1565b90506001600160a01b0384161580159061208c5750836001600160a01b0316816001600160a01b031614155b801561209f575061209d81856116a0565b155b156120c85760405163a9fbf51f60e01b81526001600160a01b0385166004820152602401610694565b82156121105784866001600160a01b0316826001600160a01b03167f8c5be1e5ebec7d5bd14f71427d1e84f3dd0314c0f7b2291e5b200ac8c7c3b92560405160405180910390a45b505b600093845260040160205250506040902080546001600160a01b0319166001600160a01b0392909216919091179055565b61214e838383612311565b6107be576001600160a01b03831661217c57604051637e27328960e01b815260048101829052602401610694565b60405163177e802f60e01b81526001600160a01b038316600482015260248101829052604401610694565b6121b082612377565b6040516001600160a01b038316907fbc7cd75a20ee27fd9adebab32041f755214dbc6bffa90cc0225b39da2e5c2d3b90600090a28051156121f5576107be82826123dc565b61066a612449565b7ff0c57e16840df040f15088dc2f81fe391c3923bec73e23a9662efc9c229c6a0054600160401b900460ff16610a3c57604051631afcd79f60e31b815260040160405180910390fd5b61224e6121fd565b6000805160206131af833981519152806122688482612f9a565b50600181016106f88382612f9a565b61183b6121fd565b6060600061228c83612468565b60010190506000816001600160401b038111156122ab576122ab6127b3565b6040519080825280601f01601f1916602001820160405280156122d5576020820181803683370190505b5090508181016020015b600019016f181899199a1a9b1b9c1cb0b131b232b360811b600a86061a8153600a85049450846122df57509392505050565b60006001600160a01b0383161580159061236f5750826001600160a01b0316846001600160a01b0316148061234b575061234b84846116a0565b8061236f5750826001600160a01b0316612364836118f9565b6001600160a01b0316145b949350505050565b806001600160a01b03163b6000036123ad57604051634c9c8ce360e01b81526001600160a01b0382166004820152602401610694565b6000805160206131cf83398151915280546001600160a01b0319166001600160a01b0392909216919091179055565b6060600080846001600160a01b0316846040516123f99190613059565b600060405180830381855af49150503d8060008114612434576040519150601f19603f3d011682016040523d82523d6000602084013e612439565b606091505b509150915061136d858383612540565b3415610a3c5760405163b398979f60e01b815260040160405180910390fd5b60008072184f03e93ff9f4daa797ed6e38ed64bf6a1f0160401b83106124a75772184f03e93ff9f4daa797ed6e38ed64bf6a1f0160401b830492506040015b6d04ee2d6d415b85acef810000000083106124d3576d04ee2d6d415b85acef8100000000830492506020015b662386f26fc1000083106124f157662386f26fc10000830492506010015b6305f5e1008310612509576305f5e100830492506008015b612710831061251d57612710830492506004015b6064831061252f576064830492506002015b600a83106105a05760010192915050565b606082612555576125508261259c565b611a45565b815115801561256c57506001600160a01b0384163b155b1561259557604051639996b31560e01b81526001600160a01b0385166004820152602401610694565b5080611a45565b8051156125ac5780518082602001fd5b604051630a12f52160e11b815260040160405180910390fd5b82805482825590600052602060002090810192821561260b579160200282015b8281111561260b57825182906125fb9082612f9a565b50916020019190600101906125e5565b5061261792915061261b565b5090565b8082111561261757600061262f8282612638565b5060010161261b565b50805461264490612f10565b6000825580601f10612654575050565b601f01602090049060005260206000209081019061186e91905b80821115612617576000815560010161266e565b60006020828403121561269457600080fd5b5035919050565b6001600160e01b03198116811461186e57600080fd5b6000602082840312156126c357600080fd5b8135611a458161269b565b60005b838110156126e95781810151838201526020016126d1565b50506000910152565b6000815180845261270a8160208601602086016126ce565b601f01601f19169290920160200192915050565b602081526000611a4560208301846126f2565b80356001600160a01b038116811461274857600080fd5b919050565b6000806040838503121561276057600080fd5b61276983612731565b946020939093013593505050565b60008060006060848603121561278c57600080fd5b61279584612731565b92506127a360208501612731565b9150604084013590509250925092565b634e487b7160e01b600052604160045260246000fd5b60405160a081016001600160401b03811182821017156127eb576127eb6127b3565b60405290565b604051601f8201601f191681016001600160401b0381118282101715612819576128196127b3565b604052919050565b600082601f83011261283257600080fd5b81356001600160401b0381111561284b5761284b6127b3565b61285e601f8201601f19166020016127f1565b81815284602083860101111561287357600080fd5b816020850160208301376000918101602001919091529392505050565b600080604083850312156128a357600080fd5b6128ac83612731565b915060208301356001600160401b038111156128c757600080fd5b6128d385828601612821565b9150509250929050565b8035801515811461274857600080fd5b600082601f8301126128fe57600080fd5b813560206001600160401b038083111561291a5761291a6127b3565b8260051b6129298382016127f1565b938452858101830193838101908886111561294357600080fd5b84880192505b8583101561297f578235848111156129615760008081fd5b61296f8a87838c0101612821565b8352509184019190840190612949565b98975050505050505050565b600060a0828403121561299d57600080fd5b6129a56127c9565b905081356001600160401b03808211156129be57600080fd5b6129ca85838601612821565b835260208401359150808211156129e057600080fd5b6129ec858386016128ed565b6020840152604084013560408401526060840135915080821115612a0f57600080fd5b50612a1c848285016128ed565b6060830152506080820135608082015292915050565b600060608284031215612a4457600080fd5b604051606081016001600160401b038282108183111715612a6757612a676127b3565b81604052829350612a77856128dd565b83526020850135915080821115612a8d57600080fd5b612a9986838701612821565b60208401526040850135915080821115612ab257600080fd5b50612abf8582860161298b565b6040830152505092915050565b600080600080600060a08688031215612ae457600080fd5b85356001600160401b0380821115612afb57600080fd5b612b0789838a01612821565b96506020880135915080821115612b1d57600080fd5b612b2989838a01612821565b95506040880135915080821115612b3f57600080fd5b612b4b89838a01612a32565b94506060880135915080821115612b6157600080fd5b50612b6e8882890161298b565b925050612b7d60808701612731565b90509295509295909350565b600060208284031215612b9b57600080fd5b611a4582612731565b60008282518085526020808601955060208260051b8401016020860160005b84811015612bf157601f19868403018952612bdf8383516126f2565b98840198925090830190600101612bc3565b5090979650505050505050565b6000815160a08452612c1360a08501826126f2565b905060208301518482036020860152612c2c8282612ba4565b9150506040830151604085015260608301518482036060860152612c508282612ba4565b915050608083015160808501528091505092915050565b602081528151151560208201526000602083015160606040840152612c8f60808401826126f2565b90506040840151601f1984830301606085015261136d8282612bfe565b600060208284031215612cbe57600080fd5b81356001600160401b03811115612cd457600080fd5b61236f84828501612821565b606081526000612cf360608301866126f2565b60208301949094525060400152919050565b60008060408385031215612d1857600080fd5b612d2183612731565b9150612d2f602084016128dd565b90509250929050565b60008060008060808587031215612d4e57600080fd5b612d5785612731565b9350612d6560208601612731565b92506040850135915060608501356001600160401b03811115612d8757600080fd5b612d9387828801612821565b91505092959194509250565b600080600060608486031215612db457600080fd5b8335925060208401356001600160401b0380821115612dd257600080fd5b612dde8783880161298b565b93506040860135915080821115612df457600080fd5b50612e0186828701612821565b9150509250925092565b60008060008060808587031215612e2157600080fd5b612e2a85612731565b935060208501356001600160401b0380821115612e4657600080fd5b612e5288838901612821565b94506040870135915080821115612e6857600080fd5b612e7488838901612a32565b93506060870135915080821115612e8a57600080fd5b50612d9387828801612821565b602081526000611a456020830184612bfe565b60008060408385031215612ebd57600080fd5b612ec683612731565b9150612d2f60208401612731565b60008060408385031215612ee757600080fd5b8235915060208301356001600160401b03811115612f0457600080fd5b6128d385828601612a32565b600181811c90821680612f2457607f821691505b602082108103612f4457634e487b7160e01b600052602260045260246000fd5b50919050565b601f8211156107be576000816000526020600020601f850160051c81016020861015612f735750805b601f850160051c820191505b81811015612f9257828155600101612f7f565b505050505050565b81516001600160401b03811115612fb357612fb36127b3565b612fc781612fc18454612f10565b84612f4a565b602080601f831160018114612ffc5760008415612fe45750858301515b600019600386901b1c1916600185901b178555612f92565b600085815260208120601f198616915b8281101561302b5788860151825594840194600190910190840161300c565b50858210156130495787850151600019600388901b60f8161c191681555b5050505050600190811b01905550565b6000825161306b8184602087016126ce565b9190910192915050565b808201808211156105a057634e487b7160e01b600052601160045260246000fd5b600083516130a88184602088016126ce565b8351908301906130bc8183602088016126ce565b01949350505050565b60008083546130d381612f10565b600182811680156130eb57600181146131005761312f565b60ff198416875282151583028701945061312f565b8760005260208060002060005b858110156131265781548a82015290840190820161310d565b50505082870194505b50929695505050505050565b60006020828403121561314d57600080fd5b5051919050565b6001600160a01b0385811682528416602082015260408101839052608060608201819052600090613187908301846126f2565b9695505050505050565b6000602082840312156131a357600080fd5b8151611a458161269b56fe80bb2b638cc20bc4d0a60d66940f3ab4a00c1d7b313497ca82fb0b4ab0079300360894a13ba1a3210667c828492db98dca3e2076cc3735a920a3ca505d382bbca264697066735822122009afca9af02eac91c27e50c9ac578804c34f65869df31c65899368327f94607e64736f6c63430008180033a26469706673582212209a45ee3e6f8e4bbbf4c8a32353bb67a93a4916ca59503f9e4a43cc36a4aa8fc264736f6c63430008180033",
  "linkReferences": {},
  "deployedLinkReferences": {}
}