{
  "_format": "hh-sol-artifact-1",
  "contractName": "NFAFactory",
  "sourceName": "contracts/NFAFactory.sol",
  "abi": [
    {
      "inputs": [],
      "name": "InvalidInitialization",
      "type": "error"
    },
    {
      "inputs": [],
      "name": "NotInitializing",
      "type": "error"
    },
    {
      "inputs": [
        {
          "internalType": "address",
          "name": "owner",
          "type": "address"
        }
      ],
      "name": "OwnableInvalidOwner",
      "type": "error"
    },
    {
      "inputs": [
        {
          "internalType": "address",
          "name": "account",
          "type": "address"
        }
      ],
      "name": "OwnableUnauthorizedAccount",
      "type": "error"
    },
    {
      "anonymous": false,
      "inputs": [
        {
          "indexed": false,
          "internalType": "uint64",
          "name": "version",
          "type": "uint64"
        }
      ],
      "name": "Initialized",
      "type": "event"
    },
    {
      "anonymous": false,
      "inputs": [
        {
          "indexed": true,
          "internalType": "address",
          "name": "nfaAddress",
          "type": "address"
        }
      ],
      "name": "NFAContractCreated",
      "type": "event"
    },
    {
      "anonymous": false,
      "inputs": [
        {
          "indexed": true,
          "internalType": "address",
          "name": "previousOwner",
          "type": "address"
        },
        {
          "indexed": true,
          "internalType": "address",
          "name": "newOwner",
          "type": "address"
        }
      ],
      "name": "OwnershipTransferred",
      "type": "event"
    },
    {
      "inputs": [
        {
          "internalType": "string",
          "name": "name",
          "type": "string"
        },
        {
          "internalType": "string",
          "name": "symbol",
          "type": "string"
        },
        {
          "components": [
            {
              "internalType": "bool",
              "name": "routerRequired",
              "type": "bool"
            },
            {
              "internalType": "string",
              "name": "paymentModel",
              "type": "string"
            },
            {
              "internalType": "string[]",
              "name": "downloadURIs",
              "type": "string[]"
            },
            {
              "internalType": "bytes32",
              "name": "codeHash",
              "type": "bytes32"
            },
            {
              "internalType": "string[]",
              "name": "abiURIs",
              "type": "string[]"
            },
            {
              "internalType": "bytes32",
              "name": "abiHash",
              "type": "bytes32"
            },
            {
              "internalType": "string",
              "name": "versionId",
              "type": "string"
            }
          ],
          "internalType": "struct AppInfo",
          "name": "appInfo",
          "type": "tuple"
        },
        {
          "components": [
            {
              "internalType": "string",
              "name": "versionId",
              "type": "string"
            },
            {
              "internalType": "string[]",
              "name": "downloadURIs",
              "type": "string[]"
            },
            {
              "internalType": "bytes32",
              "name": "codeHash",
              "type": "bytes32"
            },
            {
              "internalType": "string[]",
              "name": "abiURIs",
              "type": "string[]"
            },
            {
              "internalType": "bytes32",
              "name": "abiHash",
              "type": "bytes32"
            }
          ],
          "internalType": "struct VersionInfo",
          "name": "versionInfo",
          "type": "tuple"
        },
        {
          "internalType": "address",
          "name": "initialOwner",
          "type": "address"
        }
      ],
      "name": "createNFAContract",
      "outputs": [
        {
          "internalType": "address",
          "name": "",
          "type": "address"
        }
      ],
      "stateMutability": "nonpayable",
      "type": "function"
    },
    {
      "inputs": [],
      "name": "owner",
      "outputs": [
        {
          "internalType": "address",
          "name": "",
          "type": "address"
        }
      ],
      "stateMutability": "view",
      "type": "function"
    },
    {
      "inputs": [],
      "name": "renounceOwnership",
      "outputs": [],
      "stateMutability": "nonpayable",
      "type": "function"
    },
    {
      "inputs": [
        {
          "internalType": "address",
          "name": "newOwner",
          "type": "address"
        }
      ],
      "name": "transferOwnership",
      "outputs": [],
      "stateMutability": "nonpayable",
      "type": "function"
    }
  ],
  "bytecode": "0x608060405234801561001057600080fd5b50615e91806100206000396000f3fe608060405234801561001057600080fd5b506004361061004c5760003560e01c8063715018a6146100515780638da5cb5b1461005b578063931f85be14610079578063f2fde38b146100a9575b600080fd5b6100596100c5565b005b6100636100d9565b604051610070919061046d565b60405180910390f35b610093600480360381019061008e9190610970565b610111565b6040516100a0919061046d565b60405180910390f35b6100c360048036038101906100be9190610a5b565b61020b565b005b6100cd610291565b6100d76000610318565b565b6000806100e46103ef565b90508060000160009054906101000a900473ffffffffffffffffffffffffffffffffffffffff1691505090565b600061011b610291565b60006040516101299061041f565b604051809103906000f080158015610145573d6000803e3d6000fd5b5090508073ffffffffffffffffffffffffffffffffffffffff1663f052a08688888888886040518663ffffffff1660e01b8152600401610189959493929190610d66565b600060405180830381600087803b1580156101a357600080fd5b505af11580156101b7573d6000803e3d6000fd5b505050508073ffffffffffffffffffffffffffffffffffffffff167ff7b4406dc2d76f36a4e71e16983b35cd71fe8cbe99e7bfaa715c31d551c8f31260405160405180910390a28091505095945050505050565b610213610291565b600073ffffffffffffffffffffffffffffffffffffffff168173ffffffffffffffffffffffffffffffffffffffff16036102855760006040517f1e4fbdf700000000000000000000000000000000000000000000000000000000815260040161027c919061046d565b60405180910390fd5b61028e81610318565b50565b610299610417565b73ffffffffffffffffffffffffffffffffffffffff166102b76100d9565b73ffffffffffffffffffffffffffffffffffffffff1614610316576102da610417565b6040517f118cdaa700000000000000000000000000000000000000000000000000000000815260040161030d919061046d565b60405180910390fd5b565b60006103226103ef565b905060008160000160009054906101000a900473ffffffffffffffffffffffffffffffffffffffff169050828260000160006101000a81548173ffffffffffffffffffffffffffffffffffffffff021916908373ffffffffffffffffffffffffffffffffffffffff1602179055508273ffffffffffffffffffffffffffffffffffffffff168173ffffffffffffffffffffffffffffffffffffffff167f8be0079c531659141344cd1fd0a4f28419497f9722a3daafe3b4186f6b6457e060405160405180910390a3505050565b60007f9016d09d72d40fdae2fd8ceac6b6234c7706214fd39c1cd1e609a0528c199300905090565b600033905090565b61508680610dd683390190565b600073ffffffffffffffffffffffffffffffffffffffff82169050919050565b60006104578261042c565b9050919050565b6104678161044c565b82525050565b6000602082019050610482600083018461045e565b92915050565b6000604051905090565b600080fd5b600080fd5b600080fd5b600080fd5b6000601f19601f8301169050919050565b7f4e487b7100000000000000000000000000000000000000000000000000000000600052604160045260246000fd5b6104ef826104a6565b810181811067ffffffffffffffff8211171561050e5761050d6104b7565b5b80604052505050565b6000610521610488565b905061052d82826104e6565b919050565b600067ffffffffffffffff82111561054d5761054c6104b7565b5b610556826104a6565b9050602081019050919050565b82818337600083830152505050565b600061058561058084610532565b610517565b9050828152602081018484840111156105a1576105a06104a1565b5b6105ac848285610563565b509392505050565b600082601f8301126105c9576105c861049c565b5b81356105d9848260208601610572565b91505092915050565b600080fd5b600080fd5b60008115159050919050565b610601816105ec565b811461060c57600080fd5b50565b60008135905061061e816105f8565b92915050565b600067ffffffffffffffff82111561063f5761063e6104b7565b5b602082029050602081019050919050565b600080fd5b600061066861066384610624565b610517565b9050808382526020820190506020840283018581111561068b5761068a610650565b5b835b818110156106d257803567ffffffffffffffff8111156106b0576106af61049c565b5b8086016106bd89826105b4565b8552602085019450505060208101905061068d565b5050509392505050565b600082601f8301126106f1576106f061049c565b5b8135610701848260208601610655565b91505092915050565b6000819050919050565b61071d8161070a565b811461072857600080fd5b50565b60008135905061073a81610714565b92915050565b600060e08284031215610756576107556105e2565b5b61076060e0610517565b905060006107708482850161060f565b600083015250602082013567ffffffffffffffff811115610794576107936105e7565b5b6107a0848285016105b4565b602083015250604082013567ffffffffffffffff8111156107c4576107c36105e7565b5b6107d0848285016106dc565b60408301525060606107e48482850161072b565b606083015250608082013567ffffffffffffffff811115610808576108076105e7565b5b610814848285016106dc565b60808301525060a06108288482850161072b565b60a08301525060c082013567ffffffffffffffff81111561084c5761084b6105e7565b5b610858848285016105b4565b60c08301525092915050565b600060a0828403121561087a576108796105e2565b5b61088460a0610517565b9050600082013567ffffffffffffffff8111156108a4576108a36105e7565b5b6108b0848285016105b4565b600083015250602082013567ffffffffffffffff8111156108d4576108d36105e7565b5b6108e0848285016106dc565b60208301525060406108f48482850161072b565b604083015250606082013567ffffffffffffffff811115610918576109176105e7565b5b610924848285016106dc565b60608301525060806109388482850161072b565b60808301525092915050565b61094d8161044c565b811461095857600080fd5b50565b60008135905061096a81610944565b92915050565b600080600080600060a0868803121561098c5761098b610492565b5b600086013567ffffffffffffffff8111156109aa576109a9610497565b5b6109b6888289016105b4565b955050602086013567ffffffffffffffff8111156109d7576109d6610497565b5b6109e3888289016105b4565b945050604086013567ffffffffffffffff811115610a0457610a03610497565b5b610a1088828901610740565b935050606086013567ffffffffffffffff811115610a3157610a30610497565b5b610a3d88828901610864565b9250506080610a4e8882890161095b565b9150509295509295909350565b600060208284031215610a7157610a70610492565b5b6000610a7f8482850161095b565b91505092915050565b600081519050919050565b600082825260208201905092915050565b60005b83811015610ac2578082015181840152602081019050610aa7565b60008484015250505050565b6000610ad982610a88565b610ae38185610a93565b9350610af3818560208601610aa4565b610afc816104a6565b840191505092915050565b610b10816105ec565b82525050565b600082825260208201905092915050565b6000610b3282610a88565b610b3c8185610b16565b9350610b4c818560208601610aa4565b610b55816104a6565b840191505092915050565b600081519050919050565b600082825260208201905092915050565b6000819050602082019050919050565b6000610b988383610b27565b905092915050565b6000602082019050919050565b6000610bb882610b60565b610bc28185610b6b565b935083602082028501610bd485610b7c565b8060005b85811015610c105784840389528151610bf18582610b8c565b9450610bfc83610ba0565b925060208a01995050600181019050610bd8565b50829750879550505050505092915050565b610c2b8161070a565b82525050565b600060e083016000830151610c496000860182610b07565b5060208301518482036020860152610c618282610b27565b91505060408301518482036040860152610c7b8282610bad565b9150506060830151610c906060860182610c22565b5060808301518482036080860152610ca88282610bad565b91505060a0830151610cbd60a0860182610c22565b5060c083015184820360c0860152610cd58282610b27565b9150508091505092915050565b600060a0830160008301518482036000860152610cff8282610b27565b91505060208301518482036020860152610d198282610bad565b9150506040830151610d2e6040860182610c22565b5060608301518482036060860152610d468282610bad565b9150506080830151610d5b6080860182610c22565b508091505092915050565b600060a0820190508181036000830152610d808188610ace565b90508181036020830152610d948187610ace565b90508181036040830152610da88186610c31565b90508181036060830152610dbc8185610ce2565b9050610dcb608083018461045e565b969550505050505056fe60a06040523073ffffffffffffffffffffffffffffffffffffffff1660809073ffffffffffffffffffffffffffffffffffffffff1681525034801561004357600080fd5b5060805161501961006d60003960008181612177015281816121cc015261238701526150196000f3fe6080604052600436106101ba5760003560e01c80638b5c9283116100ec578063c167291e1161008a578063d638577f11610064578063d638577f1461062a578063e985e9c514610667578063f052a086146106a4578063f2fde38b146106cd576101c1565b8063c167291e14610587578063c87b56dd146105b0578063cb4b9e2c146105ed576101c1565b80639e92011c116100c65780639e92011c146104e1578063a22cb4651461050a578063ad3cb1cc14610533578063b88d4fde1461055e576101c1565b80638b5c92831461044c5780638da5cb5b1461048b57806395d89b41146104b6576101c1565b806342842e0e116101595780636352211e116101335780636352211e1461037e57806370a08231146103bb578063715018a6146103f8578063741aa2bd1461040f576101c1565b806342842e0e1461030e5780634f1ef2861461033757806352d1902d14610353576101c1565b8063081812fc11610195578063081812fc14610268578063095ea7b3146102a557806323b872dd146102ce5780633ccfd60b146102f7576101c1565b8062923f9e146101c357806301ffc9a71461020057806306fdde031461023d576101c1565b366101c157005b005b3480156101cf57600080fd5b506101ea60048036038101906101e591906136ce565b6106f6565b6040516101f79190613716565b60405180910390f35b34801561020c57600080fd5b5061022760048036038101906102229190613789565b610737565b6040516102349190613716565b60405180910390f35b34801561024957600080fd5b50610252610798565b60405161025f9190613846565b60405180910390f35b34801561027457600080fd5b5061028f600480360381019061028a91906136ce565b610839565b60405161029c91906138a9565b60405180910390f35b3480156102b157600080fd5b506102cc60048036038101906102c791906138f0565b610855565b005b3480156102da57600080fd5b506102f560048036038101906102f09190613930565b61086b565b005b34801561030357600080fd5b5061030c61096d565b005b34801561031a57600080fd5b5061033560048036038101906103309190613930565b610a0e565b005b610351600480360381019061034c9190613ab8565b610a2e565b005b34801561035f57600080fd5b50610368610a4d565b6040516103759190613b2d565b60405180910390f35b34801561038a57600080fd5b506103a560048036038101906103a091906136ce565b610a80565b6040516103b291906138a9565b60405180910390f35b3480156103c757600080fd5b506103e260048036038101906103dd9190613b48565b610a92565b6040516103ef9190613b84565b60405180910390f35b34801561040457600080fd5b5061040d610b5b565b005b34801561041b57600080fd5b50610436600480360381019061043191906136ce565b610b6f565b6040516104439190613d7a565b60405180910390f35b34801561045857600080fd5b50610473600480360381019061046e9190613e3d565b610ee9565b60405161048293929190613e86565b60405180910390f35b34801561049757600080fd5b506104a0610fb1565b6040516104ad91906138a9565b60405180910390f35b3480156104c257600080fd5b506104cb610fe9565b6040516104d89190613846565b60405180910390f35b3480156104ed57600080fd5b5061050860048036038101906105039190614130565b61108a565b005b34801561051657600080fd5b50610531600480360381019061052c919061418c565b6111c7565b005b34801561053f57600080fd5b506105486111dd565b6040516105559190613846565b60405180910390f35b34801561056a57600080fd5b50610585600480360381019061058091906141cc565b611216565b005b34801561059357600080fd5b506105ae60048036038101906105a9919061432f565b611233565b005b3480156105bc57600080fd5b506105d760048036038101906105d291906136ce565b611346565b6040516105e49190613846565b60405180910390f35b3480156105f957600080fd5b50610614600480360381019061060f91906136ce565b61146a565b604051610621919061443e565b60405180910390f35b34801561063657600080fd5b50610651600480360381019061064c9190614460565b611757565b60405161065e9190613b84565b60405180910390f35b34801561067357600080fd5b5061068e6004803603810190610689919061451b565b61193e565b60405161069b9190613716565b60405180910390f35b3480156106b057600080fd5b506106cb60048036038101906106c6919061455b565b6119e0565b005b3480156106d957600080fd5b506106f460048036038101906106ef9190613b48565b611c44565b005b60008073ffffffffffffffffffffffffffffffffffffffff1661071883610a80565b73ffffffffffffffffffffffffffffffffffffffff1614159050919050565b6000634906490660e01b7bffffffffffffffffffffffffffffffffffffffffffffffffffffffff1916827bffffffffffffffffffffffffffffffffffffffffffffffffffffffff19161480610791575061079082611cca565b5b9050919050565b606060006107a4611dac565b90508060000180546107b590614675565b80601f01602080910402602001604051908101604052809291908181526020018280546107e190614675565b801561082e5780601f106108035761010080835404028352916020019161082e565b820191906000526020600020905b81548152906001019060200180831161081157829003601f168201915b505050505091505090565b600061084482611dd4565b5061084e82611e5c565b9050919050565b6108678282610862611ea7565b611eaf565b5050565b600073ffffffffffffffffffffffffffffffffffffffff168273ffffffffffffffffffffffffffffffffffffffff16036108dd5760006040517f64a0ae920000000000000000000000000000000000000000000000000000000081526004016108d491906138a9565b60405180910390fd5b60006108f183836108ec611ea7565b611ec1565b90508373ffffffffffffffffffffffffffffffffffffffff168173ffffffffffffffffffffffffffffffffffffffff1614610967578382826040517f64283d7b00000000000000000000000000000000000000000000000000000000815260040161095e939291906146a6565b60405180910390fd5b50505050565b6109756120ee565b6000479050600081116109bd576040517f08c379a00000000000000000000000000000000000000000000000000000000081526004016109b49061474f565b60405180910390fd5b6109c5610fb1565b73ffffffffffffffffffffffffffffffffffffffff166108fc829081150290604051600060405180830381858888f19350505050158015610a0a573d6000803e3d6000fd5b5050565b610a2983838360405180602001604052806000815250611216565b505050565b610a36612175565b610a3f8261225b565b610a498282612266565b5050565b6000610a57612385565b7f360894a13ba1a3210667c828492db98dca3e2076cc3735a920a3ca505d382bbc60001b905090565b6000610a8b82611dd4565b9050919050565b600080610a9d611dac565b9050600073ffffffffffffffffffffffffffffffffffffffff168373ffffffffffffffffffffffffffffffffffffffff1603610b115760006040517f89c62b64000000000000000000000000000000000000000000000000000000008152600401610b0891906138a9565b60405180910390fd5b8060030160008473ffffffffffffffffffffffffffffffffffffffff1673ffffffffffffffffffffffffffffffffffffffff16815260200190815260200160002054915050919050565b610b636120ee565b610b6d600061240c565b565b610b77613530565b610b80826106f6565b610bbf576040517f08c379a0000000000000000000000000000000000000000000000000000000008152600401610bb6906147e1565b60405180910390fd5b600160008381526020019081526020016000206040518060e00160405290816000820160009054906101000a900460ff16151515158152602001600182018054610c0890614675565b80601f0160208091040260200160405190810160405280929190818152602001828054610c3490614675565b8015610c815780601f10610c5657610100808354040283529160200191610c81565b820191906000526020600020905b815481529060010190602001808311610c6457829003601f168201915b5050505050815260200160028201805480602002602001604051908101604052809291908181526020016000905b82821015610d5b578382906000526020600020018054610cce90614675565b80601f0160208091040260200160405190810160405280929190818152602001828054610cfa90614675565b8015610d475780601f10610d1c57610100808354040283529160200191610d47565b820191906000526020600020905b815481529060010190602001808311610d2a57829003601f168201915b505050505081526020019060010190610caf565b5050505081526020016003820154815260200160048201805480602002602001604051908101604052809291908181526020016000905b82821015610e3e578382906000526020600020018054610db190614675565b80601f0160208091040260200160405190810160405280929190818152602001828054610ddd90614675565b8015610e2a5780601f10610dff57610100808354040283529160200191610e2a565b820191906000526020600020905b815481529060010190602001808311610e0d57829003601f168201915b505050505081526020019060010190610d92565b50505050815260200160058201548152602001600682018054610e6090614675565b80601f0160208091040260200160405190810160405280929190818152602001828054610e8c90614675565b8015610ed95780601f10610eae57610100808354040283529160200191610ed9565b820191906000526020600020905b815481529060010190602001808311610ebc57829003601f168201915b5050505050815250509050919050565b600281805160208101820180518482526020830160208501208183528095505050505050600091509050806000018054610f2290614675565b80601f0160208091040260200160405190810160405280929190818152602001828054610f4e90614675565b8015610f9b5780601f10610f7057610100808354040283529160200191610f9b565b820191906000526020600020905b815481529060010190602001808311610f7e57829003601f168201915b5050505050908060020154908060040154905083565b600080610fbc6124e3565b90508060000160009054906101000a900473ffffffffffffffffffffffffffffffffffffffff1691505090565b60606000610ff5611dac565b905080600101805461100690614675565b80601f016020809104026020016040519081016040528092919081815260200182805461103290614675565b801561107f5780601f106110545761010080835404028352916020019161107f565b820191906000526020600020905b81548152906001019060200180831161106257829003601f168201915b505050505091505090565b6110926120ee565b61109b826106f6565b6110da576040517f08c379a00000000000000000000000000000000000000000000000000000000081526004016110d190614873565b60405180910390fd5b806001600084815260200190815260200160002060008201518160000160006101000a81548160ff02191690831515021790555060208201518160010190816111239190614a3f565b506040820151816002019080519060200190611140929190613575565b50606082015181600301556080820151816004019080519060200190611167929190613575565b5060a0820151816005015560c08201518160060190816111879190614a3f565b50905050817fa888ab86ab6eb83a22623263efdc2a05f71c4d4ef20478d6bafc8fb6324ce811826040516111bb9190613d7a565b60405180910390a25050565b6111d96111d2611ea7565b838361250b565b5050565b6040518060400160405280600581526020017f352e302e3000000000000000000000000000000000000000000000000000000081525081565b61122184848461086b565b61122d84848484612689565b50505050565b61123b6120ee565b611244836106f6565b611283576040517f08c379a000000000000000000000000000000000000000000000000000000000815260040161127a90614b83565b60405180910390fd5b816002826040516112949190614bdf565b908152602001604051809103902060008201518160000190816112b79190614a3f565b5060208201518160010190805190602001906112d4929190613575565b506040820151816002015560608201518160030190805190602001906112fb929190613575565b5060808201518160040155905050827fe084e6175f396d3b0cde566579e31e11b6a6b6243a84ac78c946f716c7387a9683604051611339919061443e565b60405180910390a2505050565b60606000611352612840565b905061135d83611dd4565b506000816000016000858152602001908152602001600020805461138090614675565b80601f01602080910402602001604051908101604052809291908181526020018280546113ac90614675565b80156113f95780601f106113ce576101008083540402835291602001916113f9565b820191906000526020600020905b8154815290600101906020018083116113dc57829003601f168201915b50505050509050600061140a612868565b9050600081510361142057819350505050611465565b60008251111561145657808260405160200161143d929190614bf6565b6040516020818303038152906040529350505050611465565b61145f8561287f565b93505050505b919050565b6114726135ce565b61147b826106f6565b6114ba576040517f08c379a00000000000000000000000000000000000000000000000000000000081526004016114b190614c8c565b60405180910390fd5b6002600160008481526020019081526020016000206006016040516114df9190614d2f565b90815260200160405180910390206040518060a001604052908160008201805461150890614675565b80601f016020809104026020016040519081016040528092919081815260200182805461153490614675565b80156115815780601f1061155657610100808354040283529160200191611581565b820191906000526020600020905b81548152906001019060200180831161156457829003601f168201915b5050505050815260200160018201805480602002602001604051908101604052809291908181526020016000905b8282101561165b5783829060005260206000200180546115ce90614675565b80601f01602080910402602001604051908101604052809291908181526020018280546115fa90614675565b80156116475780601f1061161c57610100808354040283529160200191611647565b820191906000526020600020905b81548152906001019060200180831161162a57829003601f168201915b5050505050815260200190600101906115af565b5050505081526020016002820154815260200160038201805480602002602001604051908101604052809291908181526020016000905b8282101561173e5783829060005260206000200180546116b190614675565b80601f01602080910402602001604051908101604052809291908181526020018280546116dd90614675565b801561172a5780601f106116ff5761010080835404028352916020019161172a565b820191906000526020600020905b81548152906001019060200180831161170d57829003601f168201915b505050505081526020019060010190611692565b5050505081526020016004820154815250509050919050565b60006117616120ee565b60016000808282546117739190614d75565b92505081905550600080549050836001600083815260200190815260200160002060008201518160000160006101000a81548160ff02191690831515021790555060208201518160010190816117c99190614a3f565b5060408201518160020190805190602001906117e6929190613575565b5060608201518160030155608082015181600401908051906020019061180d929190613575565b5060a0820151816005015560c082015181600601908161182d9190614a3f565b5090505061183b86826128e8565b61184581866129e1565b6040518060a001604052808560c0015181526020018560400151815260200185606001518152602001856080015181526020018560a001518152506002846040516118909190614bdf565b908152602001604051809103902060008201518160000190816118b39190614a3f565b5060208201518160010190805190602001906118d0929190613575565b506040820151816002015560608201518160030190805190602001906118f7929190613575565b5060808201518160040155905050807f228a60aa955b2de198ddf61324929aee6fa4753a3b7bd1e64bd6a2bf3ef1d53360405160405180910390a280915050949350505050565b600080611949611dac565b90508060050160008573ffffffffffffffffffffffffffffffffffffffff1673ffffffffffffffffffffffffffffffffffffffff16815260200190815260200160002060008473ffffffffffffffffffffffffffffffffffffffff1673ffffffffffffffffffffffffffffffffffffffff16815260200190815260200160002060009054906101000a900460ff1691505092915050565b60006119ea612a4c565b905060008160000160089054906101000a900460ff1615905060008260000160009054906101000a900467ffffffffffffffff1690506000808267ffffffffffffffff16148015611a385750825b9050600060018367ffffffffffffffff16148015611a6d575060003073ffffffffffffffffffffffffffffffffffffffff163b145b905081158015611a7b575080155b15611ab2576040517ff92ee8a900000000000000000000000000000000000000000000000000000000815260040160405180910390fd5b60018560000160006101000a81548167ffffffffffffffff021916908367ffffffffffffffff1602179055508315611b025760018560000160086101000a81548160ff0219169083151502179055505b611b0c8a8a612a74565b611b14612a8a565b611b1d86612a94565b87600160008054815260200190815260200160002060008201518160000160006101000a81548160ff0219169083151502179055506020820151816001019081611b679190614a3f565b506040820151816002019080519060200190611b84929190613575565b50606082015181600301556080820151816004019080519060200190611bab929190613575565b5060a0820151816005015560c0820151816006019081611bcb9190614a3f565b509050508760c0015187600001819052508315611c385760008560000160086101000a81548160ff0219169083151502179055507fc7f505b2f371ae2175ee4913f4499e1f2633a7b5936321eed1cdaeb6115181d26001604051611c2f9190614df8565b60405180910390a15b50505050505050505050565b611c4c6120ee565b600073ffffffffffffffffffffffffffffffffffffffff168173ffffffffffffffffffffffffffffffffffffffff1603611cbe5760006040517f1e4fbdf7000000000000000000000000000000000000000000000000000000008152600401611cb591906138a9565b60405180910390fd5b611cc78161240c565b50565b60007f80ac58cd000000000000000000000000000000000000000000000000000000007bffffffffffffffffffffffffffffffffffffffffffffffffffffffff1916827bffffffffffffffffffffffffffffffffffffffffffffffffffffffff19161480611d9557507f5b5e139f000000000000000000000000000000000000000000000000000000007bffffffffffffffffffffffffffffffffffffffffffffffffffffffff1916827bffffffffffffffffffffffffffffffffffffffffffffffffffffffff1916145b80611da55750611da482612aa8565b5b9050919050565b60007f80bb2b638cc20bc4d0a60d66940f3ab4a00c1d7b313497ca82fb0b4ab0079300905090565b600080611de083612b12565b9050600073ffffffffffffffffffffffffffffffffffffffff168173ffffffffffffffffffffffffffffffffffffffff1603611e5357826040517f7e273289000000000000000000000000000000000000000000000000000000008152600401611e4a9190613b84565b60405180910390fd5b80915050919050565b600080611e67611dac565b905080600401600084815260200190815260200160002060009054906101000a900473ffffffffffffffffffffffffffffffffffffffff16915050919050565b600033905090565b611ebc8383836001612b5d565b505050565b600080611ecc611dac565b90506000611ed985612b12565b9050600073ffffffffffffffffffffffffffffffffffffffff168473ffffffffffffffffffffffffffffffffffffffff1614611f1b57611f1a818587612d31565b5b600073ffffffffffffffffffffffffffffffffffffffff168173ffffffffffffffffffffffffffffffffffffffff1614611fae57611f5d600086600080612b5d565b60018260030160008373ffffffffffffffffffffffffffffffffffffffff1673ffffffffffffffffffffffffffffffffffffffff168152602001908152602001600020600082825403925050819055505b600073ffffffffffffffffffffffffffffffffffffffff168673ffffffffffffffffffffffffffffffffffffffff16146120335760018260030160008873ffffffffffffffffffffffffffffffffffffffff1673ffffffffffffffffffffffffffffffffffffffff168152602001908152602001600020600082825401925050819055505b8582600201600087815260200190815260200160002060006101000a81548173ffffffffffffffffffffffffffffffffffffffff021916908373ffffffffffffffffffffffffffffffffffffffff160217905550848673ffffffffffffffffffffffffffffffffffffffff168273ffffffffffffffffffffffffffffffffffffffff167fddf252ad1be2c89b69c2b068fc378daa952ba7f163c4a11628f55a4df523b3ef60405160405180910390a480925050509392505050565b6120f6611ea7565b73ffffffffffffffffffffffffffffffffffffffff16612114610fb1565b73ffffffffffffffffffffffffffffffffffffffff161461217357612137611ea7565b6040517f118cdaa700000000000000000000000000000000000000000000000000000000815260040161216a91906138a9565b60405180910390fd5b565b7f000000000000000000000000000000000000000000000000000000000000000073ffffffffffffffffffffffffffffffffffffffff163073ffffffffffffffffffffffffffffffffffffffff16148061222257507f000000000000000000000000000000000000000000000000000000000000000073ffffffffffffffffffffffffffffffffffffffff16612209612df5565b73ffffffffffffffffffffffffffffffffffffffff1614155b15612259576040517fe07c8dba00000000000000000000000000000000000000000000000000000000815260040160405180910390fd5b565b6122636120ee565b50565b8173ffffffffffffffffffffffffffffffffffffffff166352d1902d6040518163ffffffff1660e01b8152600401602060405180830381865afa9250505080156122ce57506040513d601f19601f820116820180604052508101906122cb9190614e28565b60015b61230f57816040517f4c9c8ce300000000000000000000000000000000000000000000000000000000815260040161230691906138a9565b60405180910390fd5b7f360894a13ba1a3210667c828492db98dca3e2076cc3735a920a3ca505d382bbc60001b811461237657806040517faa1d49a400000000000000000000000000000000000000000000000000000000815260040161236d9190613b2d565b60405180910390fd5b6123808383612e4c565b505050565b7f000000000000000000000000000000000000000000000000000000000000000073ffffffffffffffffffffffffffffffffffffffff163073ffffffffffffffffffffffffffffffffffffffff161461240a576040517fe07c8dba00000000000000000000000000000000000000000000000000000000815260040160405180910390fd5b565b60006124166124e3565b905060008160000160009054906101000a900473ffffffffffffffffffffffffffffffffffffffff169050828260000160006101000a81548173ffffffffffffffffffffffffffffffffffffffff021916908373ffffffffffffffffffffffffffffffffffffffff1602179055508273ffffffffffffffffffffffffffffffffffffffff168173ffffffffffffffffffffffffffffffffffffffff167f8be0079c531659141344cd1fd0a4f28419497f9722a3daafe3b4186f6b6457e060405160405180910390a3505050565b60007f9016d09d72d40fdae2fd8ceac6b6234c7706214fd39c1cd1e609a0528c199300905090565b6000612515611dac565b9050600073ffffffffffffffffffffffffffffffffffffffff168373ffffffffffffffffffffffffffffffffffffffff160361258857826040517f5b08ba1800000000000000000000000000000000000000000000000000000000815260040161257f91906138a9565b60405180910390fd5b818160050160008673ffffffffffffffffffffffffffffffffffffffff1673ffffffffffffffffffffffffffffffffffffffff16815260200190815260200160002060008573ffffffffffffffffffffffffffffffffffffffff1673ffffffffffffffffffffffffffffffffffffffff16815260200190815260200160002060006101000a81548160ff0219169083151502179055508273ffffffffffffffffffffffffffffffffffffffff168473ffffffffffffffffffffffffffffffffffffffff167f17307eab39ab6107e8899845ad3d59bd9653f200f220920489ca2b5937696c318460405161267b9190613716565b60405180910390a350505050565b60008373ffffffffffffffffffffffffffffffffffffffff163b111561283a578273ffffffffffffffffffffffffffffffffffffffff1663150b7a026126cd611ea7565b8685856040518563ffffffff1660e01b81526004016126ef9493929190614eaa565b6020604051808303816000875af192505050801561272b57506040513d601f19601f820116820180604052508101906127289190614f0b565b60015b6127af573d806000811461275b576040519150601f19603f3d011682016040523d82523d6000602084013e612760565b606091505b5060008151036127a757836040517f64a0ae9200000000000000000000000000000000000000000000000000000000815260040161279e91906138a9565b60405180910390fd5b805181602001fd5b63150b7a0260e01b7bffffffffffffffffffffffffffffffffffffffffffffffffffffffff1916817bffffffffffffffffffffffffffffffffffffffffffffffffffffffff19161461283857836040517f64a0ae9200000000000000000000000000000000000000000000000000000000815260040161282f91906138a9565b60405180910390fd5b505b50505050565b60007f0542a41881ee128a365a727b282c86fa859579490b9bb45aab8503648c8e7900905090565b606060405180602001604052806000815250905090565b606061288a82611dd4565b506000612895612868565b905060008151116128b557604051806020016040528060008152506128e0565b806128bf84612ebf565b6040516020016128d0929190614bf6565b6040516020818303038152906040525b915050919050565b600073ffffffffffffffffffffffffffffffffffffffff168273ffffffffffffffffffffffffffffffffffffffff160361295a5760006040517f64a0ae9200000000000000000000000000000000000000000000000000000000815260040161295191906138a9565b60405180910390fd5b600061296883836000611ec1565b9050600073ffffffffffffffffffffffffffffffffffffffff168173ffffffffffffffffffffffffffffffffffffffff16146129dc5760006040517f73c6ac6e0000000000000000000000000000000000000000000000000000000081526004016129d391906138a9565b60405180910390fd5b505050565b60006129eb612840565b9050818160000160008581526020019081526020016000209081612a0f9190614a3f565b507ff8e1a15aba9398e019f0b49df1a4fde98ee17ae345cb5f6b5e2c27f5033e8ce783604051612a3f9190613b84565b60405180910390a1505050565b60007ff0c57e16840df040f15088dc2f81fe391c3923bec73e23a9662efc9c229c6a00905090565b612a7c612f8d565b612a868282612fcd565b5050565b612a92612f8d565b565b612a9c612f8d565b612aa58161300a565b50565b60007f01ffc9a7000000000000000000000000000000000000000000000000000000007bffffffffffffffffffffffffffffffffffffffffffffffffffffffff1916827bffffffffffffffffffffffffffffffffffffffffffffffffffffffff1916149050919050565b600080612b1d611dac565b905080600201600084815260200190815260200160002060009054906101000a900473ffffffffffffffffffffffffffffffffffffffff16915050919050565b6000612b67611dac565b90508180612ba25750600073ffffffffffffffffffffffffffffffffffffffff168373ffffffffffffffffffffffffffffffffffffffff1614155b15612cd6576000612bb285611dd4565b9050600073ffffffffffffffffffffffffffffffffffffffff168473ffffffffffffffffffffffffffffffffffffffff1614158015612c1d57508373ffffffffffffffffffffffffffffffffffffffff168173ffffffffffffffffffffffffffffffffffffffff1614155b8015612c305750612c2e818561193e565b155b15612c7257836040517fa9fbf51f000000000000000000000000000000000000000000000000000000008152600401612c6991906138a9565b60405180910390fd5b8215612cd457848673ffffffffffffffffffffffffffffffffffffffff168273ffffffffffffffffffffffffffffffffffffffff167f8c5be1e5ebec7d5bd14f71427d1e84f3dd0314c0f7b2291e5b200ac8c7c3b92560405160405180910390a45b505b8481600401600086815260200190815260200160002060006101000a81548173ffffffffffffffffffffffffffffffffffffffff021916908373ffffffffffffffffffffffffffffffffffffffff1602179055505050505050565b612d3c838383613090565b612df057600073ffffffffffffffffffffffffffffffffffffffff168373ffffffffffffffffffffffffffffffffffffffff1603612db157806040517f7e273289000000000000000000000000000000000000000000000000000000008152600401612da89190613b84565b60405180910390fd5b81816040517f177e802f000000000000000000000000000000000000000000000000000000008152600401612de7929190614f38565b60405180910390fd5b505050565b6000612e237f360894a13ba1a3210667c828492db98dca3e2076cc3735a920a3ca505d382bbc60001b613151565b60000160009054906101000a900473ffffffffffffffffffffffffffffffffffffffff16905090565b612e558261315b565b8173ffffffffffffffffffffffffffffffffffffffff167fbc7cd75a20ee27fd9adebab32041f755214dbc6bffa90cc0225b39da2e5c2d3b60405160405180910390a2600081511115612eb257612eac8282613228565b50612ebb565b612eba6132ac565b5b5050565b606060006001612ece846132e9565b01905060008167ffffffffffffffff811115612eed57612eec61398d565b5b6040519080825280601f01601f191660200182016040528015612f1f5781602001600182028036833780820191505090505b509050600082602001820190505b600115612f82578080600190039150507f3031323334353637383961626364656600000000000000000000000000000000600a86061a8153600a8581612f7657612f75614f61565b5b04945060008503612f2d575b819350505050919050565b612f9561343c565b612fcb576040517fd7e6bcf800000000000000000000000000000000000000000000000000000000815260040160405180910390fd5b565b612fd5612f8d565b6000612fdf611dac565b905082816000019081612ff29190614a3f565b50818160010190816130049190614a3f565b50505050565b613012612f8d565b600073ffffffffffffffffffffffffffffffffffffffff168173ffffffffffffffffffffffffffffffffffffffff16036130845760006040517f1e4fbdf700000000000000000000000000000000000000000000000000000000815260040161307b91906138a9565b60405180910390fd5b61308d8161240c565b50565b60008073ffffffffffffffffffffffffffffffffffffffff168373ffffffffffffffffffffffffffffffffffffffff161415801561314857508273ffffffffffffffffffffffffffffffffffffffff168473ffffffffffffffffffffffffffffffffffffffff1614806131095750613108848461193e565b5b8061314757508273ffffffffffffffffffffffffffffffffffffffff1661312f83611e5c565b73ffffffffffffffffffffffffffffffffffffffff16145b5b90509392505050565b6000819050919050565b60008173ffffffffffffffffffffffffffffffffffffffff163b036131b757806040517f4c9c8ce30000000000000000000000000000000000000000000000000000000081526004016131ae91906138a9565b60405180910390fd5b806131e47f360894a13ba1a3210667c828492db98dca3e2076cc3735a920a3ca505d382bbc60001b613151565b60000160006101000a81548173ffffffffffffffffffffffffffffffffffffffff021916908373ffffffffffffffffffffffffffffffffffffffff16021790555050565b60606000808473ffffffffffffffffffffffffffffffffffffffff16846040516132529190614fcc565b600060405180830381855af49150503d806000811461328d576040519150601f19603f3d011682016040523d82523d6000602084013e613292565b606091505b50915091506132a285838361345c565b9250505092915050565b60003411156132e7576040517fb398979f00000000000000000000000000000000000000000000000000000000815260040160405180910390fd5b565b600080600090507a184f03e93ff9f4daa797ed6e38ed64bf6a1f0100000000000000008310613347577a184f03e93ff9f4daa797ed6e38ed64bf6a1f010000000000000000838161333d5761333c614f61565b5b0492506040810190505b6d04ee2d6d415b85acef81000000008310613384576d04ee2d6d415b85acef8100000000838161337a57613379614f61565b5b0492506020810190505b662386f26fc1000083106133b357662386f26fc1000083816133a9576133a8614f61565b5b0492506010810190505b6305f5e10083106133dc576305f5e10083816133d2576133d1614f61565b5b0492506008810190505b61271083106134015761271083816133f7576133f6614f61565b5b0492506004810190505b60648310613424576064838161341a57613419614f61565b5b0492506002810190505b600a8310613433576001810190505b80915050919050565b6000613446612a4c565b60000160089054906101000a900460ff16905090565b6060826134715761346c826134eb565b6134e3565b60008251148015613499575060008473ffffffffffffffffffffffffffffffffffffffff163b145b156134db57836040517f9996b3150000000000000000000000000000000000000000000000000000000081526004016134d291906138a9565b60405180910390fd5b8190506134e4565b5b9392505050565b6000815111156134fe5780518082602001fd5b6040517f1425ea4200000000000000000000000000000000000000000000000000000000815260040160405180910390fd5b6040518060e001604052806000151581526020016060815260200160608152602001600080191681526020016060815260200160008019168152602001606081525090565b8280548282559060005260206000209081019282156135bd579160200282015b828111156135bc5782518290816135ac9190614a3f565b5091602001919060010190613595565b5b5090506135ca9190613603565b5090565b6040518060a0016040528060608152602001606081526020016000801916815260200160608152602001600080191681525090565b5b80821115613623576000818161361a9190613627565b50600101613604565b5090565b50805461363390614675565b6000825580601f106136455750613664565b601f0160209004906000526020600020908101906136639190613667565b5b50565b5b80821115613680576000816000905550600101613668565b5090565b6000604051905090565b600080fd5b600080fd5b6000819050919050565b6136ab81613698565b81146136b657600080fd5b50565b6000813590506136c8816136a2565b92915050565b6000602082840312156136e4576136e361368e565b5b60006136f2848285016136b9565b91505092915050565b60008115159050919050565b613710816136fb565b82525050565b600060208201905061372b6000830184613707565b92915050565b60007fffffffff0000000000000000000000000000000000000000000000000000000082169050919050565b61376681613731565b811461377157600080fd5b50565b6000813590506137838161375d565b92915050565b60006020828403121561379f5761379e61368e565b5b60006137ad84828501613774565b91505092915050565b600081519050919050565b600082825260208201905092915050565b60005b838110156137f05780820151818401526020810190506137d5565b60008484015250505050565b6000601f19601f8301169050919050565b6000613818826137b6565b61382281856137c1565b93506138328185602086016137d2565b61383b816137fc565b840191505092915050565b60006020820190508181036000830152613860818461380d565b905092915050565b600073ffffffffffffffffffffffffffffffffffffffff82169050919050565b600061389382613868565b9050919050565b6138a381613888565b82525050565b60006020820190506138be600083018461389a565b92915050565b6138cd81613888565b81146138d857600080fd5b50565b6000813590506138ea816138c4565b92915050565b600080604083850312156139075761390661368e565b5b6000613915858286016138db565b9250506020613926858286016136b9565b9150509250929050565b6000806000606084860312156139495761394861368e565b5b6000613957868287016138db565b9350506020613968868287016138db565b9250506040613979868287016136b9565b9150509250925092565b600080fd5b600080fd5b7f4e487b7100000000000000000000000000000000000000000000000000000000600052604160045260246000fd5b6139c5826137fc565b810181811067ffffffffffffffff821117156139e4576139e361398d565b5b80604052505050565b60006139f7613684565b9050613a0382826139bc565b919050565b600067ffffffffffffffff821115613a2357613a2261398d565b5b613a2c826137fc565b9050602081019050919050565b82818337600083830152505050565b6000613a5b613a5684613a08565b6139ed565b905082815260208101848484011115613a7757613a76613988565b5b613a82848285613a39565b509392505050565b600082601f830112613a9f57613a9e613983565b5b8135613aaf848260208601613a48565b91505092915050565b60008060408385031215613acf57613ace61368e565b5b6000613add858286016138db565b925050602083013567ffffffffffffffff811115613afe57613afd613693565b5b613b0a85828601613a8a565b9150509250929050565b6000819050919050565b613b2781613b14565b82525050565b6000602082019050613b426000830184613b1e565b92915050565b600060208284031215613b5e57613b5d61368e565b5b6000613b6c848285016138db565b91505092915050565b613b7e81613698565b82525050565b6000602082019050613b996000830184613b75565b92915050565b613ba8816136fb565b82525050565b600082825260208201905092915050565b6000613bca826137b6565b613bd48185613bae565b9350613be48185602086016137d2565b613bed816137fc565b840191505092915050565b600081519050919050565b600082825260208201905092915050565b6000819050602082019050919050565b6000613c308383613bbf565b905092915050565b6000602082019050919050565b6000613c5082613bf8565b613c5a8185613c03565b935083602082028501613c6c85613c14565b8060005b85811015613ca85784840389528151613c898582613c24565b9450613c9483613c38565b925060208a01995050600181019050613c70565b50829750879550505050505092915050565b613cc381613b14565b82525050565b600060e083016000830151613ce16000860182613b9f565b5060208301518482036020860152613cf98282613bbf565b91505060408301518482036040860152613d138282613c45565b9150506060830151613d286060860182613cba565b5060808301518482036080860152613d408282613c45565b91505060a0830151613d5560a0860182613cba565b5060c083015184820360c0860152613d6d8282613bbf565b9150508091505092915050565b60006020820190508181036000830152613d948184613cc9565b905092915050565b600067ffffffffffffffff821115613db757613db661398d565b5b613dc0826137fc565b9050602081019050919050565b6000613de0613ddb84613d9c565b6139ed565b905082815260208101848484011115613dfc57613dfb613988565b5b613e07848285613a39565b509392505050565b600082601f830112613e2457613e23613983565b5b8135613e34848260208601613dcd565b91505092915050565b600060208284031215613e5357613e5261368e565b5b600082013567ffffffffffffffff811115613e7157613e70613693565b5b613e7d84828501613e0f565b91505092915050565b60006060820190508181036000830152613ea0818661380d565b9050613eaf6020830185613b1e565b613ebc6040830184613b1e565b949350505050565b600080fd5b600080fd5b613ed7816136fb565b8114613ee257600080fd5b50565b600081359050613ef481613ece565b92915050565b600067ffffffffffffffff821115613f1557613f1461398d565b5b602082029050602081019050919050565b600080fd5b6000613f3e613f3984613efa565b6139ed565b90508083825260208201905060208402830185811115613f6157613f60613f26565b5b835b81811015613fa857803567ffffffffffffffff811115613f8657613f85613983565b5b808601613f938982613e0f565b85526020850194505050602081019050613f63565b5050509392505050565b600082601f830112613fc757613fc6613983565b5b8135613fd7848260208601613f2b565b91505092915050565b613fe981613b14565b8114613ff457600080fd5b50565b60008135905061400681613fe0565b92915050565b600060e0828403121561402257614021613ec4565b5b61402c60e06139ed565b9050600061403c84828501613ee5565b600083015250602082013567ffffffffffffffff8111156140605761405f613ec9565b5b61406c84828501613e0f565b602083015250604082013567ffffffffffffffff8111156140905761408f613ec9565b5b61409c84828501613fb2565b60408301525060606140b084828501613ff7565b606083015250608082013567ffffffffffffffff8111156140d4576140d3613ec9565b5b6140e084828501613fb2565b60808301525060a06140f484828501613ff7565b60a08301525060c082013567ffffffffffffffff81111561411857614117613ec9565b5b61412484828501613e0f565b60c08301525092915050565b600080604083850312156141475761414661368e565b5b6000614155858286016136b9565b925050602083013567ffffffffffffffff81111561417657614175613693565b5b6141828582860161400c565b9150509250929050565b600080604083850312156141a3576141a261368e565b5b60006141b1858286016138db565b92505060206141c285828601613ee5565b9150509250929050565b600080600080608085870312156141e6576141e561368e565b5b60006141f4878288016138db565b9450506020614205878288016138db565b9350506040614216878288016136b9565b925050606085013567ffffffffffffffff81111561423757614236613693565b5b61424387828801613a8a565b91505092959194509250565b600060a0828403121561426557614264613ec4565b5b61426f60a06139ed565b9050600082013567ffffffffffffffff81111561428f5761428e613ec9565b5b61429b84828501613e0f565b600083015250602082013567ffffffffffffffff8111156142bf576142be613ec9565b5b6142cb84828501613fb2565b60208301525060406142df84828501613ff7565b604083015250606082013567ffffffffffffffff81111561430357614302613ec9565b5b61430f84828501613fb2565b606083015250608061432384828501613ff7565b60808301525092915050565b6000806000606084860312156143485761434761368e565b5b6000614356868287016136b9565b935050602084013567ffffffffffffffff81111561437757614376613693565b5b6143838682870161424f565b925050604084013567ffffffffffffffff8111156143a4576143a3613693565b5b6143b086828701613e0f565b9150509250925092565b600060a08301600083015184820360008601526143d78282613bbf565b915050602083015184820360208601526143f18282613c45565b91505060408301516144066040860182613cba565b506060830151848203606086015261441e8282613c45565b91505060808301516144336080860182613cba565b508091505092915050565b6000602082019050818103600083015261445881846143ba565b905092915050565b6000806000806080858703121561447a5761447961368e565b5b6000614488878288016138db565b945050602085013567ffffffffffffffff8111156144a9576144a8613693565b5b6144b587828801613e0f565b935050604085013567ffffffffffffffff8111156144d6576144d5613693565b5b6144e28782880161400c565b925050606085013567ffffffffffffffff81111561450357614502613693565b5b61450f87828801613e0f565b91505092959194509250565b600080604083850312156145325761453161368e565b5b6000614540858286016138db565b9250506020614551858286016138db565b9150509250929050565b600080600080600060a086880312156145775761457661368e565b5b600086013567ffffffffffffffff81111561459557614594613693565b5b6145a188828901613e0f565b955050602086013567ffffffffffffffff8111156145c2576145c1613693565b5b6145ce88828901613e0f565b945050604086013567ffffffffffffffff8111156145ef576145ee613693565b5b6145fb8882890161400c565b935050606086013567ffffffffffffffff81111561461c5761461b613693565b5b6146288882890161424f565b9250506080614639888289016138db565b9150509295509295909350565b7f4e487b7100000000000000000000000000000000000000000000000000000000600052602260045260246000fd5b6000600282049050600182168061468d57607f821691505b6020821081036146a05761469f614646565b5b50919050565b60006060820190506146bb600083018661389a565b6146c86020830185613b75565b6146d5604083018461389a565b949350505050565b7f4e46413a204e6f2066756e647320617661696c61626c6520666f72207769746860008201527f64726177616c0000000000000000000000000000000000000000000000000000602082015250565b60006147396026836137c1565b9150614744826146dd565b604082019050919050565b600060208201905081810360008301526147688161472c565b9050919050565b7f4e46413a20417070496e666f20717565727920666f72206e6f6e65786973746560008201527f6e7420746f6b656e000000000000000000000000000000000000000000000000602082015250565b60006147cb6028836137c1565b91506147d68261476f565b604082019050919050565b600060208201905081810360008301526147fa816147be565b9050919050565b7f4e46413a20417070496e666f2075706461746520666f72206e6f6e657869737460008201527f656e7420746f6b656e0000000000000000000000000000000000000000000000602082015250565b600061485d6029836137c1565b915061486882614801565b604082019050919050565b6000602082019050818103600083015261488c81614850565b9050919050565b60008190508160005260206000209050919050565b60006020601f8301049050919050565b600082821b905092915050565b6000600883026148f57fffffffffffffffffffffffffffffffffffffffffffffffffffffffffffffffff826148b8565b6148ff86836148b8565b95508019841693508086168417925050509392505050565b6000819050919050565b600061493c61493761493284613698565b614917565b613698565b9050919050565b6000819050919050565b61495683614921565b61496a61496282614943565b8484546148c5565b825550505050565b600090565b61497f614972565b61498a81848461494d565b505050565b5b818110156149ae576149a3600082614977565b600181019050614990565b5050565b601f8211156149f3576149c481614893565b6149cd846148a8565b810160208510156149dc578190505b6149f06149e8856148a8565b83018261498f565b50505b505050565b600082821c905092915050565b6000614a16600019846008026149f8565b1980831691505092915050565b6000614a2f8383614a05565b9150826002028217905092915050565b614a48826137b6565b67ffffffffffffffff811115614a6157614a6061398d565b5b614a6b8254614675565b614a768282856149b2565b600060209050601f831160018114614aa95760008415614a97578287015190505b614aa18582614a23565b865550614b09565b601f198416614ab786614893565b60005b82811015614adf57848901518255600182019150602085019450602081019050614aba565b86831015614afc5784890151614af8601f891682614a05565b8355505b6001600288020188555050505b505050505050565b7f4e46413a2056657273696f6e2075706461746520666f72206e6f6e657869737460008201527f656e7420746f6b656e0000000000000000000000000000000000000000000000602082015250565b6000614b6d6029836137c1565b9150614b7882614b11565b604082019050919050565b60006020820190508181036000830152614b9c81614b60565b9050919050565b600081905092915050565b6000614bb9826137b6565b614bc38185614ba3565b9350614bd38185602086016137d2565b80840191505092915050565b6000614beb8284614bae565b915081905092915050565b6000614c028285614bae565b9150614c0e8284614bae565b91508190509392505050565b7f4e46413a2056657273696f6e20717565727920666f72206e6f6e65786973746560008201527f6e7420746f6b656e000000000000000000000000000000000000000000000000602082015250565b6000614c766028836137c1565b9150614c8182614c1a565b604082019050919050565b60006020820190508181036000830152614ca581614c69565b9050919050565b60008154614cb981614675565b614cc38186614ba3565b94506001821660008114614cde5760018114614cf357614d26565b60ff1983168652811515820286019350614d26565b614cfc85614893565b60005b83811015614d1e57815481890152600182019150602081019050614cff565b838801955050505b50505092915050565b6000614d3b8284614cac565b915081905092915050565b7f4e487b7100000000000000000000000000000000000000000000000000000000600052601160045260246000fd5b6000614d8082613698565b9150614d8b83613698565b9250828201905080821115614da357614da2614d46565b5b92915050565b6000819050919050565b600067ffffffffffffffff82169050919050565b6000614de2614ddd614dd884614da9565b614917565b614db3565b9050919050565b614df281614dc7565b82525050565b6000602082019050614e0d6000830184614de9565b92915050565b600081519050614e2281613fe0565b92915050565b600060208284031215614e3e57614e3d61368e565b5b6000614e4c84828501614e13565b91505092915050565b600081519050919050565b600082825260208201905092915050565b6000614e7c82614e55565b614e868185614e60565b9350614e968185602086016137d2565b614e9f816137fc565b840191505092915050565b6000608082019050614ebf600083018761389a565b614ecc602083018661389a565b614ed96040830185613b75565b8181036060830152614eeb8184614e71565b905095945050505050565b600081519050614f058161375d565b92915050565b600060208284031215614f2157614f2061368e565b5b6000614f2f84828501614ef6565b91505092915050565b6000604082019050614f4d600083018561389a565b614f5a6020830184613b75565b9392505050565b7f4e487b7100000000000000000000000000000000000000000000000000000000600052601260045260246000fd5b600081905092915050565b6000614fa682614e55565b614fb08185614f90565b9350614fc08185602086016137d2565b80840191505092915050565b6000614fd88284614f9b565b91508190509291505056fea264697066735822122011ce69d3c5033558655c00ce40fd327496a1ed1081f6cc7a92fb87825dce9a1964736f6c63430008180033a264697066735822122043861ff0adbfb18ba84f1c2a5f2cc6e0d8d62e23cfc29f0e18aead9e0bb1ed2764736f6c63430008180033",
  "linkReferences": {},
  "deployedLinkReferences": {}
}